{
  "_format": "hh-sol-artifact-1",
  "contractName": "Distributor",
  "sourceName": "contracts/distributor.sol",
  "abi": [
    {
      "inputs": [
        {
          "internalType": "address",
          "name": "_feeGeneratingToken",
          "type": "address"
        }
      ],
      "stateMutability": "nonpayable",
      "type": "constructor"
    },
    {
      "anonymous": false,
      "inputs": [
        {
          "indexed": true,
          "internalType": "address",
          "name": "account",
          "type": "address"
        },
        {
          "indexed": true,
          "internalType": "uint256",
          "name": "amount",
          "type": "uint256"
        }
      ],
      "name": "DividendsClaimed",
      "type": "event"
    },
    {
      "anonymous": false,
      "inputs": [
        {
          "indexed": true,
          "internalType": "uint256",
          "name": "epochHeight",
          "type": "uint256"
        },
        {
          "indexed": true,
          "internalType": "uint256",
          "name": "newTotalUnclaimed",
          "type": "uint256"
        }
      ],
      "name": "EpochUpdated",
      "type": "event"
    },
    {
      "anonymous": false,
      "inputs": [
        {
          "indexed": true,
          "internalType": "address",
          "name": "account",
          "type": "address"
        },
        {
          "indexed": true,
          "internalType": "uint256",
          "name": "shares",
          "type": "uint256"
        },
        {
          "indexed": true,
          "internalType": "uint256",
          "name": "unlockTimestamp",
          "type": "uint256"
        }
      ],
      "name": "SharesDataWritten",
      "type": "event"
    },
    {
      "inputs": [
        {
          "internalType": "uint256",
          "name": "amount",
          "type": "uint256"
        }
      ],
      "name": "claimDividends",
      "outputs": [],
      "stateMutability": "nonpayable",
      "type": "function"
    },
    {
      "inputs": [
        {
          "internalType": "address",
          "name": "_address",
          "type": "address"
        }
      ],
      "name": "currentEpochInheritance",
      "outputs": [],
      "stateMutability": "nonpayable",
      "type": "function"
    },
    {
      "inputs": [
        {
          "internalType": "address",
          "name": "_address",
          "type": "address"
        }
      ],
      "name": "getAddressClaimableTokens",
      "outputs": [
        {
          "internalType": "uint256",
          "name": "amount",
          "type": "uint256"
        }
      ],
      "stateMutability": "view",
      "type": "function"
    },
    {
      "inputs": [
        {
          "internalType": "address",
          "name": "_address",
          "type": "address"
        },
        {
          "internalType": "uint256",
          "name": "_epoch",
          "type": "uint256"
        }
      ],
      "name": "getAddressEpochInheritance",
      "outputs": [
        {
          "internalType": "uint256",
          "name": "processed",
          "type": "uint256"
        },
        {
          "internalType": "uint256",
          "name": "totalToProcess",
          "type": "uint256"
        }
      ],
      "stateMutability": "view",
      "type": "function"
    },
    {
      "inputs": [
        {
          "internalType": "address",
          "name": "_address",
          "type": "address"
        },
        {
          "internalType": "uint256",
          "name": "_epoch",
          "type": "uint256"
        }
      ],
      "name": "getAddressEpochNounce",
      "outputs": [
        {
          "internalType": "uint256",
          "name": "epochNounce",
          "type": "uint256"
        }
      ],
      "stateMutability": "view",
      "type": "function"
    },
    {
      "inputs": [
        {
          "internalType": "address",
          "name": "_address",
          "type": "address"
        },
        {
          "internalType": "uint256",
          "name": "_epoch",
          "type": "uint256"
        }
      ],
      "name": "getAddressEpochShares",
      "outputs": [
        {
          "internalType": "uint256",
          "name": "epochShares",
          "type": "uint256"
        },
        {
          "internalType": "uint256",
          "name": "epochTokens",
          "type": "uint256"
        }
      ],
      "stateMutability": "view",
      "type": "function"
    },
    {
      "inputs": [
        {
          "internalType": "address",
          "name": "_address",
          "type": "address"
        },
        {
          "internalType": "uint256",
          "name": "_epoch",
          "type": "uint256"
        },
        {
          "internalType": "uint256",
          "name": "_nounce",
          "type": "uint256"
        }
      ],
      "name": "getEpochAllocation",
      "outputs": [
        {
          "internalType": "uint256",
          "name": "amount",
          "type": "uint256"
        },
        {
          "internalType": "uint256",
          "name": "lockTimestamp",
          "type": "uint256"
        },
        {
          "internalType": "uint256",
          "name": "unlockTimestamp",
          "type": "uint256"
        }
      ],
      "stateMutability": "view",
      "type": "function"
    },
    {
      "inputs": [],
      "name": "getEpochHeight",
      "outputs": [
        {
          "internalType": "uint256",
          "name": "epoch",
          "type": "uint256"
        }
      ],
      "stateMutability": "view",
      "type": "function"
    },
    {
      "inputs": [
        {
          "internalType": "uint256",
          "name": "_epoch",
          "type": "uint256"
        }
      ],
      "name": "getEpochProccessAdvancement",
      "outputs": [
        {
          "internalType": "uint256",
          "name": "processed",
          "type": "uint256"
        },
        {
          "internalType": "uint256",
          "name": "totalToProcess",
          "type": "uint256"
        }
      ],
      "stateMutability": "view",
      "type": "function"
    },
    {
      "inputs": [
        {
          "internalType": "uint256",
          "name": "_epoch",
          "type": "uint256"
        }
      ],
      "name": "getEpochShares",
      "outputs": [
        {
          "internalType": "uint256",
          "name": "epochTotalShares",
          "type": "uint256"
        },
        {
          "internalType": "uint256",
          "name": "epochTotalTokens",
          "type": "uint256"
        }
      ],
      "stateMutability": "view",
      "type": "function"
    },
    {
      "inputs": [],
      "name": "getEpochTimeLeft",
      "outputs": [
        {
          "internalType": "uint256",
          "name": "_seconds",
          "type": "uint256"
        }
      ],
      "stateMutability": "view",
      "type": "function"
    },
    {
      "inputs": [],
      "name": "getFeeTokenAddress",
      "outputs": [
        {
          "internalType": "address",
          "name": "tokenAddress",
          "type": "address"
        }
      ],
      "stateMutability": "view",
      "type": "function"
    },
    {
      "inputs": [],
      "name": "getTotalUnclaimed",
      "outputs": [
        {
          "internalType": "uint256",
          "name": "unclaimed",
          "type": "uint256"
        }
      ],
      "stateMutability": "view",
      "type": "function"
    },
    {
      "inputs": [
        {
          "internalType": "address",
          "name": "account",
          "type": "address"
        }
      ],
      "name": "isAdmin",
      "outputs": [
        {
          "internalType": "bool",
          "name": "",
          "type": "bool"
        }
      ],
      "stateMutability": "view",
      "type": "function"
    },
    {
      "inputs": [
        {
          "internalType": "address",
          "name": "account",
          "type": "address"
        }
      ],
      "name": "setAdmin",
      "outputs": [],
      "stateMutability": "nonpayable",
      "type": "function"
    },
    {
      "inputs": [],
      "name": "updateAddressDividends",
      "outputs": [],
      "stateMutability": "nonpayable",
      "type": "function"
    },
    {
      "inputs": [],
      "name": "updateEpoch",
      "outputs": [],
      "stateMutability": "nonpayable",
      "type": "function"
    },
    {
      "inputs": [
        {
          "internalType": "address",
          "name": "_address",
          "type": "address"
        },
        {
          "internalType": "uint256",
          "name": "amount",
          "type": "uint256"
        },
        {
          "internalType": "uint256",
          "name": "_lockTimestamp",
          "type": "uint256"
        },
        {
          "internalType": "uint256",
          "name": "_unlockTimestamp",
          "type": "uint256"
        }
      ],
      "name": "writeSharesData",
      "outputs": [],
      "stateMutability": "nonpayable",
      "type": "function"
    }
  ],
  "bytecode": "0x60a06040523480156200001157600080fd5b5060405162001da638038062001da683398101604081905262000034916200006b565b6001600160a01b038116608052600080546001600160a01b031916331790556200006142611c206200009d565b60015550620000c5565b6000602082840312156200007e57600080fd5b81516001600160a01b03811681146200009657600080fd5b9392505050565b80820180821115620000bf57634e487b7160e01b600052601160045260246000fd5b92915050565b608051611cb7620000ef600039600081816102ae01528181610a92015261145f0152611cb76000f3fe608060405234801561001057600080fd5b50600436106101165760003560e01c8063704b6c02116100a2578063bd7047c411610071578063bd7047c41461026b578063c2c072ff1461027e578063df1a0f8214610291578063df90c61514610299578063ec9a51c5146102a157600080fd5b8063704b6c021461020f57806371abd5ca14610222578063750f0ba61461023557806390711d8e1461023d57600080fd5b806349fc42e2116100e957806349fc42e214610190578063533b3bfc146101b85780635b349487146101c05780636b8b2707146101e95780636c657721146101fc57600080fd5b80631c0b40c71461011b57806324d7806c1461013057806336f4fb02146101675780634084b7181461016f575b600080fd5b61012e610129366004611ad1565b6102d8565b005b61015261013e366004611ad1565b6000546001600160a01b0390811691161490565b60405190151581526020015b60405180910390f35b61012e610935565b61018261017d366004611aec565b610bb8565b60405190815260200161015e565b6101a361019e366004611aec565b610c40565b6040805192835260208301919091520161015e565b600454610182565b6101826101ce366004611ad1565b6001600160a01b03166000908152600d602052604090205490565b6101a36101f7366004611b16565b610d40565b6101a361020a366004611b16565b610dc1565b61012e61021d366004611ad1565b610ead565b61012e610230366004611b2f565b610fa7565b61018261124c565b61025061024b366004611b68565b6112b3565b6040805193845260208401929092529082015260600161015e565b61012e610279366004611b16565b61135d565b6101a361028c366004611aec565b611509565b600354610182565b61012e61159f565b6040516001600160a01b037f000000000000000000000000000000000000000000000000000000000000000016815260200161015e565b6000600354116103405760405162461bcd60e51b815260206004820152602860248201527f54686572652773206e6f7468696e6720746f20696e68657269742066726f6d2060448201526765706f6368202d3160c01b60648201526084015b60405180910390fd5b600060016003546103519190611bb1565b6003546001600160a01b0384166000908152600660209081526040808320858452909152902054919250906002146103de5760405162461bcd60e51b815260206004820152602a60248201527f41646472657373206469766964656e6473206e65656420746f20626520757064604482015269185d195908199a5c9cdd60b21b6064820152608401610337565b6001600160a01b038316600090815260086020908152604080832085845290915290205461045e5760405162461bcd60e51b815260206004820152602760248201527f4164647265737320686164206e6f20616c6c6f636174696f6e20696e206c61736044820152660e840cae0dec6d60cb1b6064820152608401610337565b6001600160a01b038316600090815260066020908152604080832085845290915290208054600190811061049457610494611bc4565b60009182526020808320909101546001600160a01b03861683526006825260408084208685529092529082208054919290916104d2576104d2611bc4565b90600052602060002001541061053a5760405162461bcd60e51b815260206004820152602760248201527f416c6c20696e6865726974616e6365732061726520616c72656164792070726f60448201526618d8d95cdcd95960ca1b6064820152608401610337565b6001600160a01b03831660009081526006602090815260408083208584528252808320805482518185028101850190935280835291929091908301828280156105a257602002820191906000526020600020905b81548152602001906001019080831161058e575b505050505090506000600a826000815181106105c0576105c0611bc4565b6020026020010151836001815181106105db576105db611bc4565b60200260200101516105ed9190611bb1565b1015610638578160008151811061060657610606611bc4565b60200260200101518260018151811061062157610621611bc4565b60200260200101516106339190611bb1565b61063b565b600a5b905060008260008151811061065257610652611bc4565b602002602001015190505b8160ff168360008151811061067457610674611bc4565b60200260200101516106869190611bda565b8110156108d8576001600160a01b03861660009081526007602090815260408083208884528252808320848452825291829020825160608101845281548152600180830154938201939093526002909101549281018390529054909111156108c557805160408083015160208085015183516060810185528581528083018281528186018581526001600160a01b038f166000818152600787528881208f82528752888120918152600887528881208f8252875288812054815295529584209151825551600182015593516002948501559254919291620186a09083111561076e5782610772565b6002545b6001548510156107825784610786565b6001545b6107909190611bb1565b61079a9086611bed565b6107a49190611c04565b6001600160a01b038c166000908152600a602090815260408083208d84529091528120805492935083929091906107dc908490611bda565b9091555050600089815260096020526040812080548392906107ff908490611bda565b90915550506001600160a01b038b1660009081526008602090815260408083208c8452909152812080549161083383611c26565b90915550506000898152600b602090815260408083206001600160a01b038f16845290915290205460ff166108c0576000898152600b602090815260408083206001600160a01b038f16808552908352818420805460ff191660019081179091558d8552600c84529184208054928301815584529190922090910180546001600160a01b03191690911790555b505050505b816108cf81611c26565b9250505061065d565b506001600160a01b03851660009081526006602090815260408083208784529091528120805460ff8416929061091057610910611bc4565b9060005260206000200160008282546109299190611bda565b90915550505050505050565b4260015411156109875760405162461bcd60e51b815260206004820152601660248201527f4e6f742074696d6520666f72206e65772065706f6368000000000000000000006044820152606401610337565b6003548015610a7a576005600061099f600184611bb1565b81526020019081526020016000206001815481106109bf576109bf611bc4565b9060005260206000200154600560006001846109db9190611bb1565b81526020019081526020016000206000815481106109fb576109fb611bc4565b90600052602060002001541015610a7a5760405162461bcd60e51b815260206004820152603860248201527f416c6c206469766964656e64732066726f6d2070726576696f75732065706f6360448201527f6820617265206e6f74207965742070726f6363657373656400000000000000006064820152608401610337565b6040516370a0823160e01b81523060048201526000907f00000000000000000000000000000000000000000000000000000000000000006001600160a01b0316906370a0823190602401602060405180830381865afa158015610ae1573d6000803e3d6000fd5b505050506040513d601f19601f82011682018060405250810190610b059190611c3f565b905060045481610b159190611bb1565b600083815260096020526040812060010182905560048054909190610b3b908490611bda565b90915550506001546002819055610b559062015180611bda565b60015560038054906000610b6883611c26565b909155505060035415610b7d57610b7d61193c565b600454610b8b836001611bda565b6040517fabb37912485bfb13380247be2f4101619759991c9a13ef282eeb05108378b57990600090a35050565b6000600354821115610c075760405162461bcd60e51b8152602060048201526018602482015277115c1bd8da081a185cdb89dd08185c1c195b9959081e595d60421b6044820152606401610337565b6001600160a01b0383166000908152600860209081526040808320858452909152902054610c3790600190611bb1565b90505b92915050565b6000806003548310610c8f5760405162461bcd60e51b8152602060048201526018602482015277115c1bd8da081a185cdb89dd08185c1c195b9959081e595d60421b6044820152606401610337565b6001600160a01b0384166000908152600660209081526040808320868452825280832080548251818502810185019093528083529192909190830182828015610cf757602002820191906000526020600020905b815481526020019060010190808311610ce3575b5050505050905080600081518110610d1157610d11611bc4565b602002602001015181600181518110610d2c57610d2c611bc4565b602002602001015192509250509250929050565b600080600354831115610d905760405162461bcd60e51b8152602060048201526018602482015277115c1bd8da081a185cdb89dd08185c1c195b9959081e595d60421b6044820152606401610337565b5050600090815260096020908152604091829020825180840190935280548084526001909101549290910182905291565b6000806003548310610e105760405162461bcd60e51b8152602060048201526018602482015277115c1bd8da081a185cdb89dd08185c1c195b9959081e595d60421b6044820152606401610337565b600083815260056020908152604080832080548251818502810185019093528083529192909190830182828015610e6657602002820191906000526020600020905b815481526020019060010190808311610e52575b5050505050905080600081518110610e8057610e80611bc4565b602002602001015181600181518110610e9b57610e9b611bc4565b60200260200101519250925050915091565b6000546001600160a01b03163314610ef35760405162461bcd60e51b81526020600482015260096024820152682737ba1030b236b4b760b91b6044820152606401610337565b6001600160a01b038116610f3b5760405162461bcd60e51b815260206004820152600f60248201526e496e76616c6964206164647265737360881b6044820152606401610337565b306001600160a01b03821603610f855760405162461bcd60e51b815260206004820152600f60248201526e496e76616c6964206164647265737360881b6044820152606401610337565b600080546001600160a01b0319166001600160a01b0392909216919091179055565b6000546001600160a01b03163314610fed5760405162461bcd60e51b81526020600482015260096024820152682737ba1030b236b4b760b91b6044820152606401610337565b42600154101561103f5760405162461bcd60e51b815260206004820152601c60248201527f4e65656420746f207570646174652063757272656e742065706f6368000000006044820152606401610337565b6003546040805160608101825285815260208082018681528284018681526001600160a01b038a166000818152600785528681208882528552868120918152600885528681208882528552868120548152935293822092518355516001830155915160029182015554620186a0908511156110ba57846110be565b6002545b6001548510156110ce57846110d2565b6001545b6110dc9190611bb1565b6110e69087611bed565b6110f09190611c04565b6001600160a01b0387166000908152600a60209081526040808320868452909152812080549293508392909190611128908490611bda565b90915550506000828152600960205260408120805483929061114b908490611bda565b90915550506001600160a01b0386166000908152600860209081526040808320858452909152812080549161117f83611c26565b90915550506000828152600b602090815260408083206001600160a01b038a16845290915290205460ff1661120c576000828152600b602090815260408083206001600160a01b038a16808552908352818420805460ff19166001908117909155868552600c84529184208054928301815584529190922090910180546001600160a01b03191690911790555b8281876001600160a01b03167fc9fe0a043e4ee3b7de3c5a2496e77aee9f04f32601bc3820df5aba781a21efce60405160405180910390a4505050505050565b60006001544211156112a05760405162461bcd60e51b815260206004820152601860248201527f65706f6368206e65656420746f206265207570646174656400000000000000006044820152606401610337565b426001546112ae9190611bb1565b905090565b60008060006003548511156113055760405162461bcd60e51b8152602060048201526018602482015277115c1bd8da081a185cdb89dd08185c1c195b9959081e595d60421b6044820152606401610337565b5050506001600160a01b03929092166000908152600760209081526040808320938352928152828220938252928352819020815160608101835281548082526001830154948201859052600290920154920182905292565b6004548111156113af5760405162461bcd60e51b815260206004820152601a60248201527f4e6f7420656e6f75676820746f6b656e7320746f20636c61696d0000000000006044820152606401610337565b336000818152600d60205260409020548211156114185760405162461bcd60e51b815260206004820152602160248201527f416d6f756e742065786365656473206164647265737320616c6c6f636174696f6044820152603760f91b6064820152608401610337565b6001600160a01b038181166000818152600d60205260409081902080548690039055600480548690038155905163a9059cbb60e01b815290810191909152602481018490527f00000000000000000000000000000000000000000000000000000000000000009091169063a9059cbb906044016020604051808303816000875af11580156114aa573d6000803e3d6000fd5b505050506040513d601f19601f820116820180604052508101906114ce9190611c58565b5060405182906001600160a01b038316907f16b8533c95f66ab8c192c98ddcf5031bcb3ee6f4022988bdadd57d3422da307390600090a35050565b6000806003548311156115595760405162461bcd60e51b8152602060048201526018602482015277115c1bd8da081a185cdb89dd08185c1c195b9959081e595d60421b6044820152606401610337565b50506001600160a01b03919091166000908152600a6020908152604080832093835292815290829020825180840190935280548084526001909101549290910182905291565b6000600354116115f15760405162461bcd60e51b815260206004820152601e60248201527f54686572652773206e6f2072657761726420666f722065706f6368202d3100006044820152606401610337565b600060016003546116029190611bb1565b6000818152600560205260409020805491925090600190811061162757611627611bc4565b90600052602060002001546005600083815260200190815260200160002060008154811061165757611657611bc4565b9060005260206000200154106116bb5760405162461bcd60e51b8152602060048201526024808201527f416c6c206469766964656e64732061726520616c72656164792070726f6363656044820152631cdcd95960e21b6064820152608401610337565b600081815260096020908152604080832081518083018352815481526001909101548184015284845260058352818420805483518186028101860190945280845291949390919083018282801561173157602002820191906000526020600020905b81548152602001906001019080831161171d575b50505050509050600082600001518360200151670de0b6b3a76400006117579190611bed565b6117619190611c04565b9050600060648360008151811061177a5761177a611bc4565b60200260200101518460018151811061179557611795611bc4565b60200260200101516117a79190611bb1565b10156117f257826000815181106117c0576117c0611bc4565b6020026020010151836001815181106117db576117db611bc4565b60200260200101516117ed9190611bb1565b6117f5565b60645b905060008360008151811061180c5761180c611bc4565b602002602001015190505b8160ff168460008151811061182e5761182e611bc4565b60200260200101516118409190611bda565b811015611919576000868152600c6020526040812080548390811061186757611867611bc4565b60009182526020808320909101546001600160a01b0316808352600a825260408084208b8552909252912054909150670de0b6b3a7640000906118aa9086611bed565b6118b49190611c04565b6001600160a01b0382166000818152600a602090815260408083208c84528252808320600101859055928252600d905290812080549091906118f7908490611bda565b909155506119069050816119a7565b8161191081611c26565b92505050611817565b506000858152600560205260408120805460ff8416929061091057610910611bc4565b604051806040016040528060008152602001600c600060016003546119619190611bb1565b8152602001908152602001600020805490508152506005600060016003546119899190611bb1565b815260208101919091526040016000206119a4916002611a55565b50565b604051806040016040528060008152602001600160086000856001600160a01b03166001600160a01b03168152602001908152602001600020600060016003546119f19190611bb1565b815260200190815260200160002054611a0a9190611bb1565b90526001600160a01b0382166000908152600660205260408120600354909190611a3690600190611bb1565b81526020810191909152604001600020611a51916002611a55565b5050565b828054828255906000526020600020908101928215611a90579160200282015b82811115611a90578251825591602001919060010190611a75565b50611a9c929150611aa0565b5090565b5b80821115611a9c5760008155600101611aa1565b80356001600160a01b0381168114611acc57600080fd5b919050565b600060208284031215611ae357600080fd5b610c3782611ab5565b60008060408385031215611aff57600080fd5b611b0883611ab5565b946020939093013593505050565b600060208284031215611b2857600080fd5b5035919050565b60008060008060808587031215611b4557600080fd5b611b4e85611ab5565b966020860135965060408601359560600135945092505050565b600080600060608486031215611b7d57600080fd5b611b8684611ab5565b95602085013595506040909401359392505050565b634e487b7160e01b600052601160045260246000fd5b81810381811115610c3a57610c3a611b9b565b634e487b7160e01b600052603260045260246000fd5b80820180821115610c3a57610c3a611b9b565b8082028115828204841417610c3a57610c3a611b9b565b600082611c2157634e487b7160e01b600052601260045260246000fd5b500490565b600060018201611c3857611c38611b9b565b5060010190565b600060208284031215611c5157600080fd5b5051919050565b600060208284031215611c6a57600080fd5b81518015158114611c7a57600080fd5b939250505056fea2646970667358221220216cd83af0a8b566cd39e73706abf08c5c0b080b07266c23b559fb3f7c3392d264736f6c63430008140033",
  "linkReferences": {},
  "deployedLinkReferences": {}
}