{
  "_format": "hh-sol-artifact-1",
  "contractName": "Distributor",
  "sourceName": "contracts/distributor.sol",
  "abi": [
    {
      "inputs": [
        {
          "internalType": "address",
          "name": "_feeGeneratingToken",
          "type": "address"
        }
      ],
      "stateMutability": "nonpayable",
      "type": "constructor"
    },
    {
      "anonymous": false,
      "inputs": [
        {
          "indexed": true,
          "internalType": "address",
          "name": "account",
          "type": "address"
        },
        {
          "indexed": true,
          "internalType": "uint256",
          "name": "amount",
          "type": "uint256"
        }
      ],
      "name": "DividendsClaimed",
      "type": "event"
    },
    {
      "anonymous": false,
      "inputs": [
        {
          "indexed": true,
          "internalType": "uint256",
          "name": "epochHeight",
          "type": "uint256"
        },
        {
          "indexed": true,
          "internalType": "uint256",
          "name": "newTotalUnclaimed",
          "type": "uint256"
        }
      ],
      "name": "EpochUpdated",
      "type": "event"
    },
    {
      "anonymous": false,
      "inputs": [
        {
          "indexed": true,
          "internalType": "address",
          "name": "account",
          "type": "address"
        },
        {
          "indexed": true,
          "internalType": "uint256",
          "name": "shares",
          "type": "uint256"
        },
        {
          "indexed": true,
          "internalType": "uint256",
          "name": "unlockTimestamp",
          "type": "uint256"
        }
      ],
      "name": "SharesDataWritten",
      "type": "event"
    },
    {
      "inputs": [
        {
          "internalType": "uint256",
          "name": "amount",
          "type": "uint256"
        }
      ],
      "name": "claimDividends",
      "outputs": [],
      "stateMutability": "nonpayable",
      "type": "function"
    },
    {
      "inputs": [
        {
          "internalType": "address",
          "name": "_address",
          "type": "address"
        }
      ],
      "name": "currentEpochInheritance",
      "outputs": [],
      "stateMutability": "nonpayable",
      "type": "function"
    },
    {
      "inputs": [
        {
          "internalType": "address",
          "name": "_address",
          "type": "address"
        }
      ],
      "name": "getAddressClaimableTokens",
      "outputs": [
        {
          "internalType": "uint256",
          "name": "amount",
          "type": "uint256"
        }
      ],
      "stateMutability": "view",
      "type": "function"
    },
    {
      "inputs": [
        {
          "internalType": "address",
          "name": "_address",
          "type": "address"
        },
        {
          "internalType": "uint256",
          "name": "_epoch",
          "type": "uint256"
        }
      ],
      "name": "getAddressEpochInheritance",
      "outputs": [
        {
          "internalType": "uint256",
          "name": "processed",
          "type": "uint256"
        },
        {
          "internalType": "uint256",
          "name": "totalToProcess",
          "type": "uint256"
        }
      ],
      "stateMutability": "view",
      "type": "function"
    },
    {
      "inputs": [
        {
          "internalType": "address",
          "name": "_address",
          "type": "address"
        },
        {
          "internalType": "uint256",
          "name": "_epoch",
          "type": "uint256"
        }
      ],
      "name": "getAddressEpochNounce",
      "outputs": [
        {
          "internalType": "uint256",
          "name": "epochNounce",
          "type": "uint256"
        }
      ],
      "stateMutability": "view",
      "type": "function"
    },
    {
      "inputs": [
        {
          "internalType": "address",
          "name": "_address",
          "type": "address"
        },
        {
          "internalType": "uint256",
          "name": "_epoch",
          "type": "uint256"
        }
      ],
      "name": "getAddressEpochShares",
      "outputs": [
        {
          "internalType": "uint256",
          "name": "epochShares",
          "type": "uint256"
        },
        {
          "internalType": "uint256",
          "name": "epochTokens",
          "type": "uint256"
        }
      ],
      "stateMutability": "view",
      "type": "function"
    },
    {
      "inputs": [
        {
          "internalType": "address",
          "name": "_address",
          "type": "address"
        },
        {
          "internalType": "uint256",
          "name": "_epoch",
          "type": "uint256"
        },
        {
          "internalType": "uint256",
          "name": "_nounce",
          "type": "uint256"
        }
      ],
      "name": "getEpochAllocation",
      "outputs": [
        {
          "internalType": "uint256",
          "name": "amount",
          "type": "uint256"
        },
        {
          "internalType": "uint256",
          "name": "lockTimestamp",
          "type": "uint256"
        },
        {
          "internalType": "uint256",
          "name": "unlockTimestamp",
          "type": "uint256"
        }
      ],
      "stateMutability": "view",
      "type": "function"
    },
    {
      "inputs": [],
      "name": "getEpochHeight",
      "outputs": [
        {
          "internalType": "uint256",
          "name": "epoch",
          "type": "uint256"
        }
      ],
      "stateMutability": "view",
      "type": "function"
    },
    {
      "inputs": [
        {
          "internalType": "uint256",
          "name": "_epoch",
          "type": "uint256"
        }
      ],
      "name": "getEpochProccessAdvancement",
      "outputs": [
        {
          "internalType": "uint256",
          "name": "processed",
          "type": "uint256"
        },
        {
          "internalType": "uint256",
          "name": "totalToProcess",
          "type": "uint256"
        }
      ],
      "stateMutability": "view",
      "type": "function"
    },
    {
      "inputs": [
        {
          "internalType": "uint256",
          "name": "_epoch",
          "type": "uint256"
        }
      ],
      "name": "getEpochShares",
      "outputs": [
        {
          "internalType": "uint256",
          "name": "epochTotalShares",
          "type": "uint256"
        },
        {
          "internalType": "uint256",
          "name": "epochTotalTokens",
          "type": "uint256"
        }
      ],
      "stateMutability": "view",
      "type": "function"
    },
    {
      "inputs": [],
      "name": "getEpochTimeLeft",
      "outputs": [
        {
          "internalType": "uint256",
          "name": "_seconds",
          "type": "uint256"
        }
      ],
      "stateMutability": "view",
      "type": "function"
    },
    {
      "inputs": [],
      "name": "getFeeTokenAddress",
      "outputs": [
        {
          "internalType": "address",
          "name": "tokenAddress",
          "type": "address"
        }
      ],
      "stateMutability": "view",
      "type": "function"
    },
    {
      "inputs": [],
      "name": "getTotalUnclaimed",
      "outputs": [
        {
          "internalType": "uint256",
          "name": "unclaimed",
          "type": "uint256"
        }
      ],
      "stateMutability": "view",
      "type": "function"
    },
    {
      "inputs": [
        {
          "internalType": "address",
          "name": "account",
          "type": "address"
        }
      ],
      "name": "setAdmin",
      "outputs": [],
      "stateMutability": "nonpayable",
      "type": "function"
    },
    {
      "inputs": [],
      "name": "updateAddressDividends",
      "outputs": [],
      "stateMutability": "nonpayable",
      "type": "function"
    },
    {
      "inputs": [],
      "name": "updateEpoch",
      "outputs": [],
      "stateMutability": "nonpayable",
      "type": "function"
    },
    {
      "inputs": [
        {
          "internalType": "address",
          "name": "_address",
          "type": "address"
        },
        {
          "internalType": "uint256",
          "name": "amount",
          "type": "uint256"
        },
        {
          "internalType": "uint256",
          "name": "_lockTimestamp",
          "type": "uint256"
        },
        {
          "internalType": "uint256",
          "name": "_unlockTimestamp",
          "type": "uint256"
        }
      ],
      "name": "writeSharesData",
      "outputs": [],
      "stateMutability": "nonpayable",
      "type": "function"
    }
  ],
  "bytecode": "0x60a06040523480156200001157600080fd5b5060405162001e7738038062001e7783398101604081905262000034916200006b565b6001600160a01b038116608052600080546001600160a01b0319163317905562000061426102586200009d565b60015550620000c5565b6000602082840312156200007e57600080fd5b81516001600160a01b03811681146200009657600080fd5b9392505050565b80820180821115620000bf57634e487b7160e01b600052601160045260246000fd5b92915050565b608051611d88620000ef6000396000818161028101528181610adf01526115170152611d886000f3fe608060405234801561001057600080fd5b506004361061011b5760003560e01c8063704b6c02116100b2578063bd7047c411610081578063df1a0f8211610066578063df1a0f8214610264578063df90c6151461026c578063ec9a51c51461027457600080fd5b8063bd7047c41461023e578063c2c072ff1461025157600080fd5b8063704b6c02146101e257806371abd5ca146101f5578063750f0ba61461020857806390711d8e1461021057600080fd5b8063533b3bfc116100ee578063533b3bfc1461018b5780635b349487146101935780636b8b2707146101bc5780636c657721146101cf57600080fd5b80631c0b40c71461012057806336f4fb02146101355780634084b7181461013d57806349fc42e214610163575b600080fd5b61013361012e366004611ba2565b6102ab565b005b610133610969565b61015061014b366004611bbd565b610c05565b6040519081526020015b60405180910390f35b610176610171366004611bbd565b610c8d565b6040805192835260208301919091520161015a565b600454610150565b6101506101a1366004611ba2565b6001600160a01b03166000908152600d602052604090205490565b6101766101ca366004611be7565b610d8d565b6101766101dd366004611be7565b610e0e565b6101336101f0366004611ba2565b610efa565b610133610203366004611c00565b61101d565b6101506112cf565b61022361021e366004611c39565b611336565b6040805193845260208401929092529082015260600161015a565b61013361024c366004611be7565b6113e0565b61017661025f366004611bbd565b6115c1565b600354610150565b610133611657565b6040516001600160a01b037f000000000000000000000000000000000000000000000000000000000000000016815260200161015a565b6000600354116103285760405162461bcd60e51b815260206004820152602860248201527f54686572652773206e6f7468696e6720746f20696e68657269742066726f6d2060448201527f65706f6368202d3100000000000000000000000000000000000000000000000060648201526084015b60405180910390fd5b600060016003546103399190611c82565b6003546001600160a01b0384166000908152600660209081526040808320858452909152902054919250906002146103d95760405162461bcd60e51b815260206004820152602a60248201527f41646472657373206469766964656e6473206e65656420746f2062652075706460448201527f6174656420666972737400000000000000000000000000000000000000000000606482015260840161031f565b6001600160a01b038316600090815260086020908152604080832085845290915290205461046f5760405162461bcd60e51b815260206004820152602760248201527f4164647265737320686164206e6f20616c6c6f636174696f6e20696e206c617360448201527f742065706f636800000000000000000000000000000000000000000000000000606482015260840161031f565b6001600160a01b03831660009081526006602090815260408083208584529091529020805460019081106104a5576104a5611c95565b60009182526020808320909101546001600160a01b03861683526006825260408084208685529092529082208054919290916104e3576104e3611c95565b9060005260206000200154106105615760405162461bcd60e51b815260206004820152602760248201527f416c6c20696e6865726974616e6365732061726520616c72656164792070726f60448201527f6363657373656400000000000000000000000000000000000000000000000000606482015260840161031f565b6001600160a01b03831660009081526006602090815260408083208584528252808320805482518185028101850190935280835291929091908301828280156105c957602002820191906000526020600020905b8154815260200190600101908083116105b5575b505050505090506000600a826000815181106105e7576105e7611c95565b60200260200101518360018151811061060257610602611c95565b60200260200101516106149190611c82565b101561065f578160008151811061062d5761062d611c95565b60200260200101518260018151811061064857610648611c95565b602002602001015161065a9190611c82565b610662565b600a5b905060008260008151811061067957610679611c95565b602002602001015190505b8160ff168360008151811061069b5761069b611c95565b60200260200101516106ad9190611cab565b81101561090c576001600160a01b03861660009081526007602090815260408083208884528252808320848452825291829020825160608101845281548152600180830154938201939093526002909101549281018390529054909111156108f957805160408083015160208085015183516060810185528581528083018281528186018581526001600160a01b038f166000818152600787528881208f82528752888120918152600887528881208f8252875288812054815295529584209151825551600182015593516002948501559254919291620186a0908311156107955782610799565b6002545b6001548510156107a957846107ad565b6001545b6107b79190611c82565b6107c19086611cbe565b6107cb9190611cd5565b6001600160a01b038c166000908152600a602090815260408083208d8452909152812080549293508392909190610803908490611cab565b909155505060008981526009602052604081208054839290610826908490611cab565b90915550506001600160a01b038b1660009081526008602090815260408083208c8452909152812080549161085a83611cf7565b90915550506000898152600b602090815260408083206001600160a01b038f16845290915290205460ff166108f4576000898152600b602090815260408083206001600160a01b038f16808552908352818420805460ff191660019081179091558d8552600c845291842080549283018155845291909220909101805473ffffffffffffffffffffffffffffffffffffffff191690911790555b505050505b8161090381611cf7565b92505050610684565b506001600160a01b03851660009081526006602090815260408083208784529091528120805460ff8416929061094457610944611c95565b90600052602060002001600082825461095d9190611cab565b90915550505050505050565b4260015411156109bb5760405162461bcd60e51b815260206004820152601660248201527f4e6f742074696d6520666f72206e65772065706f636800000000000000000000604482015260640161031f565b6003548015610aae57600560006109d3600184611c82565b81526020019081526020016000206001815481106109f3576109f3611c95565b906000526020600020015460056000600184610a0f9190611c82565b8152602001908152602001600020600081548110610a2f57610a2f611c95565b90600052602060002001541015610aae5760405162461bcd60e51b815260206004820152603860248201527f416c6c206469766964656e64732066726f6d2070726576696f75732065706f6360448201527f6820617265206e6f74207965742070726f636365737365640000000000000000606482015260840161031f565b6040517f70a082310000000000000000000000000000000000000000000000000000000081523060048201526000907f00000000000000000000000000000000000000000000000000000000000000006001600160a01b0316906370a0823190602401602060405180830381865afa158015610b2e573d6000803e3d6000fd5b505050506040513d601f19601f82011682018060405250810190610b529190611d10565b905060045481610b629190611c82565b600083815260096020526040812060010182905560048054909190610b88908490611cab565b90915550506001546002819055610ba29062278d00611cab565b60015560038054906000610bb583611cf7565b909155505060035415610bca57610bca611a0d565b600454610bd8836001611cab565b6040517fabb37912485bfb13380247be2f4101619759991c9a13ef282eeb05108378b57990600090a35050565b6000600354821115610c545760405162461bcd60e51b8152602060048201526018602482015277115c1bd8da081a185cdb89dd08185c1c195b9959081e595d60421b604482015260640161031f565b6001600160a01b0383166000908152600860209081526040808320858452909152902054610c8490600190611c82565b90505b92915050565b6000806003548310610cdc5760405162461bcd60e51b8152602060048201526018602482015277115c1bd8da081a185cdb89dd08185c1c195b9959081e595d60421b604482015260640161031f565b6001600160a01b0384166000908152600660209081526040808320868452825280832080548251818502810185019093528083529192909190830182828015610d4457602002820191906000526020600020905b815481526020019060010190808311610d30575b5050505050905080600081518110610d5e57610d5e611c95565b602002602001015181600181518110610d7957610d79611c95565b602002602001015192509250509250929050565b600080600354831115610ddd5760405162461bcd60e51b8152602060048201526018602482015277115c1bd8da081a185cdb89dd08185c1c195b9959081e595d60421b604482015260640161031f565b5050600090815260096020908152604091829020825180840190935280548084526001909101549290910182905291565b6000806003548310610e5d5760405162461bcd60e51b8152602060048201526018602482015277115c1bd8da081a185cdb89dd08185c1c195b9959081e595d60421b604482015260640161031f565b600083815260056020908152604080832080548251818502810185019093528083529192909190830182828015610eb357602002820191906000526020600020905b815481526020019060010190808311610e9f575b5050505050905080600081518110610ecd57610ecd611c95565b602002602001015181600181518110610ee857610ee8611c95565b60200260200101519250925050915091565b6000546001600160a01b03163314610f405760405162461bcd60e51b81526020600482015260096024820152682737ba1030b236b4b760b91b604482015260640161031f565b6001600160a01b038116610f965760405162461bcd60e51b815260206004820152600f60248201527f496e76616c696420616464726573730000000000000000000000000000000000604482015260640161031f565b306001600160a01b03821603610fee5760405162461bcd60e51b815260206004820152600f60248201527f496e76616c696420616464726573730000000000000000000000000000000000604482015260640161031f565b6000805473ffffffffffffffffffffffffffffffffffffffff19166001600160a01b0392909216919091179055565b6000546001600160a01b031633146110635760405162461bcd60e51b81526020600482015260096024820152682737ba1030b236b4b760b91b604482015260640161031f565b4260015410156110b55760405162461bcd60e51b815260206004820152601c60248201527f4e65656420746f207570646174652063757272656e742065706f636800000000604482015260640161031f565b6003546040805160608101825285815260208082018681528284018681526001600160a01b038a166000818152600785528681208882528552868120918152600885528681208882528552868120548152935293822092518355516001830155915160029182015554620186a0908511156111305784611134565b6002545b6001548510156111445784611148565b6001545b6111529190611c82565b61115c9087611cbe565b6111669190611cd5565b6001600160a01b0387166000908152600a6020908152604080832086845290915281208054929350839290919061119e908490611cab565b9091555050600082815260096020526040812080548392906111c1908490611cab565b90915550506001600160a01b038616600090815260086020908152604080832085845290915281208054916111f583611cf7565b90915550506000828152600b602090815260408083206001600160a01b038a16845290915290205460ff1661128f576000828152600b602090815260408083206001600160a01b038a16808552908352818420805460ff19166001908117909155868552600c845291842080549283018155845291909220909101805473ffffffffffffffffffffffffffffffffffffffff191690911790555b8281876001600160a01b03167fc9fe0a043e4ee3b7de3c5a2496e77aee9f04f32601bc3820df5aba781a21efce60405160405180910390a4505050505050565b60006001544211156113235760405162461bcd60e51b815260206004820152601860248201527f65706f6368206e65656420746f20626520757064617465640000000000000000604482015260640161031f565b426001546113319190611c82565b905090565b60008060006003548511156113885760405162461bcd60e51b8152602060048201526018602482015277115c1bd8da081a185cdb89dd08185c1c195b9959081e595d60421b604482015260640161031f565b5050506001600160a01b03929092166000908152600760209081526040808320938352928152828220938252928352819020815160608101835281548082526001830154948201859052600290920154920182905292565b6004548111156114325760405162461bcd60e51b815260206004820152601a60248201527f4e6f7420656e6f75676820746f6b656e7320746f20636c61696d000000000000604482015260640161031f565b336000818152600d60205260409020548211156114b75760405162461bcd60e51b815260206004820152602160248201527f416d6f756e742065786365656473206164647265737320616c6c6f636174696f60448201527f6e00000000000000000000000000000000000000000000000000000000000000606482015260840161031f565b6001600160a01b038181166000818152600d6020526040908190208054869003905560048054869003815590517fa9059cbb00000000000000000000000000000000000000000000000000000000815290810191909152602481018490527f00000000000000000000000000000000000000000000000000000000000000009091169063a9059cbb906044016020604051808303816000875af1158015611562573d6000803e3d6000fd5b505050506040513d601f19601f820116820180604052508101906115869190611d29565b5060405182906001600160a01b038316907f16b8533c95f66ab8c192c98ddcf5031bcb3ee6f4022988bdadd57d3422da307390600090a35050565b6000806003548311156116115760405162461bcd60e51b8152602060048201526018602482015277115c1bd8da081a185cdb89dd08185c1c195b9959081e595d60421b604482015260640161031f565b50506001600160a01b03919091166000908152600a6020908152604080832093835292815290829020825180840190935280548084526001909101549290910182905291565b6000600354116116a95760405162461bcd60e51b815260206004820152601e60248201527f54686572652773206e6f2072657761726420666f722065706f6368202d310000604482015260640161031f565b600060016003546116ba9190611c82565b600081815260056020526040902080549192509060019081106116df576116df611c95565b90600052602060002001546005600083815260200190815260200160002060008154811061170f5761170f611c95565b90600052602060002001541061178c5760405162461bcd60e51b8152602060048201526024808201527f416c6c206469766964656e64732061726520616c72656164792070726f63636560448201527f7373656400000000000000000000000000000000000000000000000000000000606482015260840161031f565b600081815260096020908152604080832081518083018352815481526001909101548184015284845260058352818420805483518186028101860190945280845291949390919083018282801561180257602002820191906000526020600020905b8154815260200190600101908083116117ee575b50505050509050600082600001518360200151670de0b6b3a76400006118289190611cbe565b6118329190611cd5565b9050600060648360008151811061184b5761184b611c95565b60200260200101518460018151811061186657611866611c95565b60200260200101516118789190611c82565b10156118c3578260008151811061189157611891611c95565b6020026020010151836001815181106118ac576118ac611c95565b60200260200101516118be9190611c82565b6118c6565b60645b90506000836000815181106118dd576118dd611c95565b602002602001015190505b8160ff16846000815181106118ff576118ff611c95565b60200260200101516119119190611cab565b8110156119ea576000868152600c6020526040812080548390811061193857611938611c95565b60009182526020808320909101546001600160a01b0316808352600a825260408084208b8552909252912054909150670de0b6b3a76400009061197b9086611cbe565b6119859190611cd5565b6001600160a01b0382166000818152600a602090815260408083208c84528252808320600101859055928252600d905290812080549091906119c8908490611cab565b909155506119d7905081611a78565b816119e181611cf7565b925050506118e8565b506000858152600560205260408120805460ff8416929061094457610944611c95565b604051806040016040528060008152602001600c60006001600354611a329190611c82565b815260200190815260200160002080549050815250600560006001600354611a5a9190611c82565b81526020810191909152604001600020611a75916002611b26565b50565b604051806040016040528060008152602001600160086000856001600160a01b03166001600160a01b0316815260200190815260200160002060006001600354611ac29190611c82565b815260200190815260200160002054611adb9190611c82565b90526001600160a01b0382166000908152600660205260408120600354909190611b0790600190611c82565b81526020810191909152604001600020611b22916002611b26565b5050565b828054828255906000526020600020908101928215611b61579160200282015b82811115611b61578251825591602001919060010190611b46565b50611b6d929150611b71565b5090565b5b80821115611b6d5760008155600101611b72565b80356001600160a01b0381168114611b9d57600080fd5b919050565b600060208284031215611bb457600080fd5b610c8482611b86565b60008060408385031215611bd057600080fd5b611bd983611b86565b946020939093013593505050565b600060208284031215611bf957600080fd5b5035919050565b60008060008060808587031215611c1657600080fd5b611c1f85611b86565b966020860135965060408601359560600135945092505050565b600080600060608486031215611c4e57600080fd5b611c5784611b86565b95602085013595506040909401359392505050565b634e487b7160e01b600052601160045260246000fd5b81810381811115610c8757610c87611c6c565b634e487b7160e01b600052603260045260246000fd5b80820180821115610c8757610c87611c6c565b8082028115828204841417610c8757610c87611c6c565b600082611cf257634e487b7160e01b600052601260045260246000fd5b500490565b600060018201611d0957611d09611c6c565b5060010190565b600060208284031215611d2257600080fd5b5051919050565b600060208284031215611d3b57600080fd5b81518015158114611d4b57600080fd5b939250505056fea2646970667358221220cd3851ae1b03d714b01b4305d3e5e14e8d2d0167ea713d5ffde25b1f246d280264736f6c63430008130033",
  "linkReferences": {},
  "deployedLinkReferences": {}
}