{
  "_format": "hh-sol-artifact-1",
  "contractName": "Distributor",
  "sourceName": "contracts/distributor.sol",
  "abi": [
    {
      "inputs": [
        {
          "internalType": "address",
          "name": "_feeGeneratingToken",
          "type": "address"
        }
      ],
      "stateMutability": "nonpayable",
      "type": "constructor"
    },
    {
      "anonymous": false,
      "inputs": [
        {
          "indexed": true,
          "internalType": "address",
          "name": "account",
          "type": "address"
        },
        {
          "indexed": false,
          "internalType": "uint256",
          "name": "amount",
          "type": "uint256"
        }
      ],
      "name": "DividendsClaimed",
      "type": "event"
    },
    {
      "anonymous": false,
      "inputs": [
        {
          "indexed": false,
          "internalType": "uint256",
          "name": "epochHeight",
          "type": "uint256"
        },
        {
          "indexed": false,
          "internalType": "uint256",
          "name": "newTotalUnclaimed",
          "type": "uint256"
        }
      ],
      "name": "EpochUpdated",
      "type": "event"
    },
    {
      "anonymous": false,
      "inputs": [
        {
          "indexed": true,
          "internalType": "address",
          "name": "account",
          "type": "address"
        },
        {
          "indexed": false,
          "internalType": "uint256",
          "name": "shares",
          "type": "uint256"
        },
        {
          "indexed": false,
          "internalType": "uint256",
          "name": "lockTimestamp",
          "type": "uint256"
        },
        {
          "indexed": false,
          "internalType": "uint256",
          "name": "unlockTimestamp",
          "type": "uint256"
        }
      ],
      "name": "SharesDataWritten",
      "type": "event"
    },
    {
      "inputs": [
        {
          "internalType": "uint256",
          "name": "amount",
          "type": "uint256"
        }
      ],
      "name": "claimDividends",
      "outputs": [],
      "stateMutability": "nonpayable",
      "type": "function"
    },
    {
      "inputs": [
        {
          "internalType": "address",
          "name": "_address",
          "type": "address"
        }
      ],
      "name": "currentEpochInheritance",
      "outputs": [],
      "stateMutability": "nonpayable",
      "type": "function"
    },
    {
      "inputs": [
        {
          "internalType": "address",
          "name": "_address",
          "type": "address"
        }
      ],
      "name": "getAddressClaimableTokens",
      "outputs": [
        {
          "internalType": "uint256",
          "name": "amount",
          "type": "uint256"
        }
      ],
      "stateMutability": "view",
      "type": "function"
    },
    {
      "inputs": [
        {
          "internalType": "address",
          "name": "_address",
          "type": "address"
        },
        {
          "internalType": "uint256",
          "name": "_epoch",
          "type": "uint256"
        }
      ],
      "name": "getAddressEpochInheritance",
      "outputs": [
        {
          "internalType": "uint256",
          "name": "processed",
          "type": "uint256"
        },
        {
          "internalType": "uint256",
          "name": "totalToProcess",
          "type": "uint256"
        }
      ],
      "stateMutability": "view",
      "type": "function"
    },
    {
      "inputs": [
        {
          "internalType": "address",
          "name": "_address",
          "type": "address"
        },
        {
          "internalType": "uint256",
          "name": "_epoch",
          "type": "uint256"
        }
      ],
      "name": "getAddressEpochNounce",
      "outputs": [
        {
          "internalType": "uint256",
          "name": "epochNounce",
          "type": "uint256"
        }
      ],
      "stateMutability": "view",
      "type": "function"
    },
    {
      "inputs": [
        {
          "internalType": "address",
          "name": "_address",
          "type": "address"
        },
        {
          "internalType": "uint256",
          "name": "_epoch",
          "type": "uint256"
        }
      ],
      "name": "getAddressEpochShares",
      "outputs": [
        {
          "internalType": "uint256",
          "name": "epochShares",
          "type": "uint256"
        },
        {
          "internalType": "uint256",
          "name": "epochTokens",
          "type": "uint256"
        }
      ],
      "stateMutability": "view",
      "type": "function"
    },
    {
      "inputs": [
        {
          "internalType": "address",
          "name": "_address",
          "type": "address"
        },
        {
          "internalType": "uint256",
          "name": "_epoch",
          "type": "uint256"
        },
        {
          "internalType": "uint256",
          "name": "_nounce",
          "type": "uint256"
        }
      ],
      "name": "getEpochAllocation",
      "outputs": [
        {
          "internalType": "uint256",
          "name": "amount",
          "type": "uint256"
        },
        {
          "internalType": "uint256",
          "name": "lockTimestamp",
          "type": "uint256"
        },
        {
          "internalType": "uint256",
          "name": "unlockTimestamp",
          "type": "uint256"
        }
      ],
      "stateMutability": "view",
      "type": "function"
    },
    {
      "inputs": [],
      "name": "getEpochHeight",
      "outputs": [
        {
          "internalType": "uint256",
          "name": "epoch",
          "type": "uint256"
        }
      ],
      "stateMutability": "view",
      "type": "function"
    },
    {
      "inputs": [
        {
          "internalType": "uint256",
          "name": "_epoch",
          "type": "uint256"
        }
      ],
      "name": "getEpochProccessAdvancement",
      "outputs": [
        {
          "internalType": "uint256",
          "name": "processed",
          "type": "uint256"
        },
        {
          "internalType": "uint256",
          "name": "totalToProcess",
          "type": "uint256"
        }
      ],
      "stateMutability": "view",
      "type": "function"
    },
    {
      "inputs": [
        {
          "internalType": "uint256",
          "name": "_epoch",
          "type": "uint256"
        }
      ],
      "name": "getEpochShares",
      "outputs": [
        {
          "internalType": "uint256",
          "name": "epochTotalShares",
          "type": "uint256"
        },
        {
          "internalType": "uint256",
          "name": "epochTotalTokens",
          "type": "uint256"
        }
      ],
      "stateMutability": "view",
      "type": "function"
    },
    {
      "inputs": [],
      "name": "getEpochTimeLeft",
      "outputs": [
        {
          "internalType": "uint256",
          "name": "_seconds",
          "type": "uint256"
        }
      ],
      "stateMutability": "view",
      "type": "function"
    },
    {
      "inputs": [],
      "name": "getFeeTokenAddress",
      "outputs": [
        {
          "internalType": "address",
          "name": "tokenAddress",
          "type": "address"
        }
      ],
      "stateMutability": "view",
      "type": "function"
    },
    {
      "inputs": [],
      "name": "getTotalUnclaimed",
      "outputs": [
        {
          "internalType": "uint256",
          "name": "unclaimed",
          "type": "uint256"
        }
      ],
      "stateMutability": "view",
      "type": "function"
    },
    {
      "inputs": [
        {
          "internalType": "address",
          "name": "account",
          "type": "address"
        }
      ],
      "name": "setAdmin",
      "outputs": [],
      "stateMutability": "nonpayable",
      "type": "function"
    },
    {
      "inputs": [],
      "name": "updateAddressDividends",
      "outputs": [],
      "stateMutability": "nonpayable",
      "type": "function"
    },
    {
      "inputs": [],
      "name": "updateEpoch",
      "outputs": [],
      "stateMutability": "nonpayable",
      "type": "function"
    },
    {
      "inputs": [
        {
          "internalType": "address",
          "name": "_address",
          "type": "address"
        },
        {
          "internalType": "uint256",
          "name": "amount",
          "type": "uint256"
        },
        {
          "internalType": "uint256",
          "name": "_lockTimestamp",
          "type": "uint256"
        },
        {
          "internalType": "uint256",
          "name": "_unlockTimestamp",
          "type": "uint256"
        }
      ],
      "name": "writeSharesData",
      "outputs": [],
      "stateMutability": "nonpayable",
      "type": "function"
    }
  ],
  "bytecode": "0x60a06040523480156200001157600080fd5b5060405162001e9638038062001e9683398101604081905262000034916200006b565b6001600160a01b038116608052600080546001600160a01b0319163317905562000061426102586200009d565b60015550620000c5565b6000602082840312156200007e57600080fd5b81516001600160a01b03811681146200009657600080fd5b9392505050565b80820180821115620000bf57634e487b7160e01b600052601160045260246000fd5b92915050565b608051611da7620000ef6000396000818161028101528181610b4f015261154f0152611da76000f3fe608060405234801561001057600080fd5b506004361061011b5760003560e01c8063704b6c02116100b2578063bd7047c411610081578063df1a0f8211610066578063df1a0f8214610264578063df90c6151461026c578063ec9a51c51461027457600080fd5b8063bd7047c41461023e578063c2c072ff1461025157600080fd5b8063704b6c02146101e257806371abd5ca146101f5578063750f0ba61461020857806390711d8e1461021057600080fd5b8063533b3bfc116100ee578063533b3bfc1461018b5780635b349487146101935780636b8b2707146101bc5780636c657721146101cf57600080fd5b80631c0b40c71461012057806336f4fb02146101355780634084b7181461013d57806349fc42e214610163575b600080fd5b61013361012e366004611bc1565b6102ab565b005b6101336109d4565b61015061014b366004611bdc565b610c97565b6040519081526020015b60405180910390f35b610176610171366004611bdc565b610d1f565b6040805192835260208301919091520161015a565b600454610150565b6101506101a1366004611bc1565b6001600160a01b03166000908152600d602052604090205490565b6101766101ca366004611c06565b610df6565b6101766101dd366004611c06565b610e62565b6101336101f0366004611bc1565b610f14565b610133610203366004611c1f565b611037565b61015061130a565b61022361021e366004611c58565b611371565b6040805193845260208401929092529082015260600161015a565b61013361024c366004611c06565b611406565b61017661025f366004611bdc565b6115fd565b600354610150565b61013361167f565b6040516001600160a01b037f000000000000000000000000000000000000000000000000000000000000000016815260200161015a565b6000600354116103285760405162461bcd60e51b815260206004820152602860248201527f54686572652773206e6f7468696e6720746f20696e68657269742066726f6d2060448201527f65706f6368202d3100000000000000000000000000000000000000000000000060648201526084015b60405180910390fd5b600060016003546103399190611ca1565b6001600160a01b03831660009081526006602090815260408083208484529091529020549091506002146103d55760405162461bcd60e51b815260206004820152602a60248201527f41646472657373206469766964656e6473206e65656420746f2062652075706460448201527f6174656420666972737400000000000000000000000000000000000000000000606482015260840161031f565b6001600160a01b038216600090815260086020908152604080832084845290915290205461046b5760405162461bcd60e51b815260206004820152602760248201527f4164647265737320686164206e6f20616c6c6f636174696f6e20696e206c617360448201527f742065706f636800000000000000000000000000000000000000000000000000606482015260840161031f565b6001600160a01b03821660009081526006602090815260408083208484529091529020805460019081106104a1576104a1611cb4565b60009182526020808320909101546001600160a01b03851683526006825260408084208585529092529082208054919290916104df576104df611cb4565b90600052602060002001541061055d5760405162461bcd60e51b815260206004820152602760248201527f416c6c20696e6865726974616e6365732061726520616c72656164792070726f60448201527f6363657373656400000000000000000000000000000000000000000000000000606482015260840161031f565b6001600160a01b038216600090815260066020908152604080832084845290915281208054600a9190839061059457610594611cb4565b60009182526020808320909101546001600160a01b03871683526006825260408084208785529092529082208054919290916105d2576105d2611cb4565b90600052602060002001546105e79190611ca1565b1015610679576001600160a01b03831660009081526006602090815260408083208584529091528120805490919061062157610621611cb4565b60009182526020808320909101546001600160a01b038616835260068252604080842086855290925290822080549192909161065f5761065f611cb4565b90600052602060002001546106749190611ca1565b61067c565b600a5b6001600160a01b038416600090815260066020908152604080832086845290915281208054929350909182906106b4576106b4611cb4565b906000526020600020015490505b6001600160a01b03841660009081526006602090815260408083208684529091528120805460ff851692906106f9576106f9611cb4565b906000526020600020015461070e9190611cca565b811015610979576001546001600160a01b038516600090815260076020908152604080832087845282528083208584529091529020600201541115610967576001600160a01b0384166000818152600760209081526040808320878452808352818420868552835281842080546002808301546001938401548651606081018852848152808901828152818901848152600354808d52988b52898c209c8c5260088b52898c20988c52978a52888b20548b529a9098529588209651875597519286019290925591519381019390935591549193929091620186a0908311156107f657826107fa565b6002545b60015485101561080a578461080e565b6001545b6108189190611ca1565b6108229086611cdd565b61082c9190611cf4565b6001600160a01b0389166000908152600a602090815260408083206003548452909152812080549293508392909190610866908490611cca565b90915550506003546000908152600960205260408120805483929061088c908490611cca565b90915550506001600160a01b0388166000908152600860209081526040808320600354845290915281208054916108c283611d16565b90915550506003546000908152600b602090815260408083206001600160a01b038c16845290915290205460ff1661096257600380546000908152600b602090815260408083206001600160a01b038d16808552908352818420805460ff1916600190811790915594548452600c83529083208054948501815583529120909101805473ffffffffffffffffffffffffffffffffffffffff191690911790555b505050505b8061097181611d16565b9150506106c2565b506001600160a01b03831660009081526006602090815260408083208584529091528120805460ff841692906109b1576109b1611cb4565b9060005260206000200160008282546109ca9190611cca565b9091555050505050565b426001541115610a265760405162461bcd60e51b815260206004820152601660248201527f4e6f742074696d6520666f72206e65772065706f636800000000000000000000604482015260640161031f565b60035415610b1e57600560006001600354610a419190611ca1565b8152602001908152602001600020600181548110610a6157610a61611cb4565b9060005260206000200154600560006001600354610a7f9190611ca1565b8152602001908152602001600020600081548110610a9f57610a9f611cb4565b90600052602060002001541015610b1e5760405162461bcd60e51b815260206004820152603860248201527f416c6c206469766964656e64732066726f6d2070726576696f75732065706f6360448201527f6820617265206e6f74207965742070726f636365737365640000000000000000606482015260840161031f565b6040517f70a082310000000000000000000000000000000000000000000000000000000081523060048201526000907f00000000000000000000000000000000000000000000000000000000000000006001600160a01b0316906370a0823190602401602060405180830381865afa158015610b9e573d6000803e3d6000fd5b505050506040513d601f19601f82011682018060405250810190610bc29190611d2f565b905060045481610bd29190611ca1565b6003805460009081526009602052604080822060019081019490945591548152908120909101546004805491929091610c0c908490611cca565b90915550506001546002819055610c269062278d00611cca565b60015560038054906000610c3983611d16565b909155505060035415610c4e57610c4e611a2c565b7fabb37912485bfb13380247be2f4101619759991c9a13ef282eeb05108378b579600354600454604051610c8c929190918252602082015260400190565b60405180910390a150565b6000600354821115610ce65760405162461bcd60e51b8152602060048201526018602482015277115c1bd8da081a185cdb89dd08185c1c195b9959081e595d60421b604482015260640161031f565b6001600160a01b0383166000908152600860209081526040808320858452909152902054610d1690600190611ca1565b90505b92915050565b6000806003548310610d6e5760405162461bcd60e51b8152602060048201526018602482015277115c1bd8da081a185cdb89dd08185c1c195b9959081e595d60421b604482015260640161031f565b6001600160a01b038416600090815260066020908152604080832086845290915281208054909190610da257610da2611cb4565b60009182526020808320909101546001600160a01b0387168352600682526040808420878552909252912080546001908110610de057610de0611cb4565b9060005260206000200154915091509250929050565b600080600354831115610e465760405162461bcd60e51b8152602060048201526018602482015277115c1bd8da081a185cdb89dd08185c1c195b9959081e595d60421b604482015260640161031f565b5050600090815260096020526040902080546001909101549091565b6000806003548310610eb15760405162461bcd60e51b8152602060048201526018602482015277115c1bd8da081a185cdb89dd08185c1c195b9959081e595d60421b604482015260640161031f565b60008381526005602052604081208054909190610ed057610ed0611cb4565b906000526020600020015460056000858152602001908152602001600020600181548110610f0057610f00611cb4565b906000526020600020015491509150915091565b6000546001600160a01b03163314610f5a5760405162461bcd60e51b81526020600482015260096024820152682737ba1030b236b4b760b91b604482015260640161031f565b6001600160a01b038116610fb05760405162461bcd60e51b815260206004820152600f60248201527f496e76616c696420616464726573730000000000000000000000000000000000604482015260640161031f565b306001600160a01b038216036110085760405162461bcd60e51b815260206004820152600f60248201527f496e76616c696420616464726573730000000000000000000000000000000000604482015260640161031f565b6000805473ffffffffffffffffffffffffffffffffffffffff19166001600160a01b0392909216919091179055565b6000546001600160a01b0316331461107d5760405162461bcd60e51b81526020600482015260096024820152682737ba1030b236b4b760b91b604482015260640161031f565b4260015410156110cf5760405162461bcd60e51b815260206004820152601c60248201527f4e65656420746f207570646174652063757272656e742065706f636800000000604482015260640161031f565b6040805160608101825284815260208082018581528284018581526001600160a01b038916600081815260078552868120600354808352908652878220928252600886528782209082528552868120548152935293822092518355516001830155915160029182015554620186a09084111561114b578361114f565b6002545b60015484101561115f5783611163565b6001545b61116d9190611ca1565b6111779086611cdd565b6111819190611cf4565b6001600160a01b0386166000908152600a6020908152604080832060035484529091528120805492935083929091906111bb908490611cca565b9091555050600354600090815260096020526040812080548392906111e1908490611cca565b90915550506001600160a01b03851660009081526008602090815260408083206003548452909152812080549161121783611d16565b90915550506003546000908152600b602090815260408083206001600160a01b038916845290915290205460ff166112b757600380546000908152600b602090815260408083206001600160a01b038a16808552908352818420805460ff1916600190811790915594548452600c83529083208054948501815583529120909101805473ffffffffffffffffffffffffffffffffffffffff191690911790555b60408051828152602081018590529081018390526001600160a01b038616907f5847fb0a88db4d9abe22d90135702cb788db2c2e0513c49b9b3418ddae2981639060600160405180910390a25050505050565b600060015442111561135e5760405162461bcd60e51b815260206004820152601860248201527f65706f6368206e65656420746f20626520757064617465640000000000000000604482015260640161031f565b4260015461136c9190611ca1565b905090565b60008060006003548511156113c35760405162461bcd60e51b8152602060048201526018602482015277115c1bd8da081a185cdb89dd08185c1c195b9959081e595d60421b604482015260640161031f565b5050506001600160a01b03929092166000908152600760209081526040808320938352928152828220938252929092529020805460018201546002909201549092565b6004548111156114585760405162461bcd60e51b815260206004820152601a60248201527f4e6f7420656e6f75676820746f6b656e7320746f20636c61696d000000000000604482015260640161031f565b336000908152600d60205260409020548111156114dd5760405162461bcd60e51b815260206004820152602160248201527f416d6f756e742065786365656473206164647265737320616c6c6f636174696f60448201527f6e00000000000000000000000000000000000000000000000000000000000000606482015260840161031f565b336000908152600d6020526040812080548392906114fc908490611ca1565b9250508190555080600460008282546115159190611ca1565b90915550506040517fa9059cbb000000000000000000000000000000000000000000000000000000008152336004820152602481018290527f00000000000000000000000000000000000000000000000000000000000000006001600160a01b03169063a9059cbb906044016020604051808303816000875af11580156115a0573d6000803e3d6000fd5b505050506040513d601f19601f820116820180604052508101906115c49190611d48565b5060405181815233907f16b8533c95f66ab8c192c98ddcf5031bcb3ee6f4022988bdadd57d3422da30739060200160405180910390a250565b60008060035483111561164d5760405162461bcd60e51b8152602060048201526018602482015277115c1bd8da081a185cdb89dd08185c1c195b9959081e595d60421b604482015260640161031f565b50506001600160a01b03919091166000908152600a602090815260408083209383529290522080546001909101549091565b6000600354116116d15760405162461bcd60e51b815260206004820152601e60248201527f54686572652773206e6f2072657761726420666f722065706f6368202d310000604482015260640161031f565b600060016003546116e29190611ca1565b6000818152600560205260409020805491925090600190811061170757611707611cb4565b90600052602060002001546005600083815260200190815260200160002060008154811061173757611737611cb4565b9060005260206000200154106117b45760405162461bcd60e51b8152602060048201526024808201527f416c6c206469766964656e64732061726520616c72656164792070726f63636560448201527f7373656400000000000000000000000000000000000000000000000000000000606482015260840161031f565b600081815260096020526040812080546001909101546117dc90670de0b6b3a7640000611cdd565b6117e69190611cf4565b9050600060646005600085815260200190815260200160002060008154811061181157611811611cb4565b90600052602060002001546005600086815260200190815260200160002060018154811061184157611841611cb4565b90600052602060002001546118569190611ca1565b10156118c5576000838152600560205260408120805490919061187b5761187b611cb4565b9060005260206000200154600560008581526020019081526020016000206001815481106118ab576118ab611cb4565b90600052602060002001546118c09190611ca1565b6118c8565b60645b60008481526005602052604081208054929350909182906118eb576118eb611cb4565b906000526020600020015490505b6000848152600560205260408120805460ff8516929061191b5761191b611cb4565b90600052602060002001546119309190611cca565b811015611a09576000848152600c6020526040812080548390811061195757611957611cb4565b60009182526020808320909101546001600160a01b0316808352600a82526040808420898552909252912054909150670de0b6b3a76400009061199a9086611cdd565b6119a49190611cf4565b6001600160a01b0382166000818152600a602090815260408083208a84528252808320600101859055928252600d905290812080549091906119e7908490611cca565b909155506119f6905081611a97565b5080611a0181611d16565b9150506118f9565b506000838152600560205260408120805460ff841692906109b1576109b1611cb4565b604051806040016040528060008152602001600c60006001600354611a519190611ca1565b815260200190815260200160002080549050815250600560006001600354611a799190611ca1565b81526020810191909152604001600020611a94916002611b45565b50565b604051806040016040528060008152602001600160086000856001600160a01b03166001600160a01b0316815260200190815260200160002060006001600354611ae19190611ca1565b815260200190815260200160002054611afa9190611ca1565b90526001600160a01b0382166000908152600660205260408120600354909190611b2690600190611ca1565b81526020810191909152604001600020611b41916002611b45565b5050565b828054828255906000526020600020908101928215611b80579160200282015b82811115611b80578251825591602001919060010190611b65565b50611b8c929150611b90565b5090565b5b80821115611b8c5760008155600101611b91565b80356001600160a01b0381168114611bbc57600080fd5b919050565b600060208284031215611bd357600080fd5b610d1682611ba5565b60008060408385031215611bef57600080fd5b611bf883611ba5565b946020939093013593505050565b600060208284031215611c1857600080fd5b5035919050565b60008060008060808587031215611c3557600080fd5b611c3e85611ba5565b966020860135965060408601359560600135945092505050565b600080600060608486031215611c6d57600080fd5b611c7684611ba5565b95602085013595506040909401359392505050565b634e487b7160e01b600052601160045260246000fd5b81810381811115610d1957610d19611c8b565b634e487b7160e01b600052603260045260246000fd5b80820180821115610d1957610d19611c8b565b8082028115828204841417610d1957610d19611c8b565b600082611d1157634e487b7160e01b600052601260045260246000fd5b500490565b600060018201611d2857611d28611c8b565b5060010190565b600060208284031215611d4157600080fd5b5051919050565b600060208284031215611d5a57600080fd5b81518015158114611d6a57600080fd5b939250505056fea26469706673582212209a1fde76b6ea1fb7c82f64b65372206beaba735fe7d889e3d4ad4126e7faf32064736f6c63430008130033",
  "linkReferences": {},
  "deployedLinkReferences": {}
}