{
  "_format": "hh-sol-artifact-1",
  "contractName": "gProposal",
  "sourceName": "contracts/gProposal.sol",
  "abi": [
    {
      "inputs": [
        {
          "internalType": "address",
          "name": "_libToken",
          "type": "address"
        },
        {
          "internalType": "address",
          "name": "_rlibToken",
          "type": "address"
        }
      ],
      "stateMutability": "nonpayable",
      "type": "constructor"
    },
    {
      "anonymous": false,
      "inputs": [
        {
          "indexed": true,
          "internalType": "uint256",
          "name": "balancingId",
          "type": "uint256"
        },
        {
          "indexed": true,
          "internalType": "uint256",
          "name": "floor",
          "type": "uint256"
        }
      ],
      "name": "BalancingExecuted",
      "type": "event"
    },
    {
      "anonymous": false,
      "inputs": [
        {
          "indexed": true,
          "internalType": "uint256",
          "name": "proposalId",
          "type": "uint256"
        },
        {
          "indexed": false,
          "internalType": "string",
          "name": "title",
          "type": "string"
        },
        {
          "indexed": true,
          "internalType": "address",
          "name": "creator",
          "type": "address"
        }
      ],
      "name": "NewProposal",
      "type": "event"
    },
    {
      "anonymous": false,
      "inputs": [
        {
          "indexed": true,
          "internalType": "uint256",
          "name": "proposalId",
          "type": "uint256"
        },
        {
          "indexed": true,
          "internalType": "bool",
          "name": "accepted",
          "type": "bool"
        }
      ],
      "name": "ProposalExecuted",
      "type": "event"
    },
    {
      "anonymous": false,
      "inputs": [
        {
          "indexed": true,
          "internalType": "uint256",
          "name": "proposalId",
          "type": "uint256"
        },
        {
          "indexed": true,
          "internalType": "address",
          "name": "voter",
          "type": "address"
        }
      ],
      "name": "Vote",
      "type": "event"
    },
    {
      "inputs": [],
      "name": "balanceFloor",
      "outputs": [],
      "stateMutability": "nonpayable",
      "type": "function"
    },
    {
      "inputs": [
        {
          "internalType": "uint256",
          "name": "",
          "type": "uint256"
        }
      ],
      "name": "balancing",
      "outputs": [
        {
          "internalType": "uint256",
          "name": "id",
          "type": "uint256"
        },
        {
          "internalType": "uint256",
          "name": "blockHeight",
          "type": "uint256"
        },
        {
          "internalType": "int256",
          "name": "currentPrice",
          "type": "int256"
        },
        {
          "internalType": "uint256",
          "name": "currentTimestamp",
          "type": "uint256"
        },
        {
          "internalType": "uint256",
          "name": "nextTimestamp",
          "type": "uint256"
        },
        {
          "internalType": "uint256",
          "name": "epochFloor",
          "type": "uint256"
        },
        {
          "internalType": "uint256",
          "name": "epochPriceTarget",
          "type": "uint256"
        }
      ],
      "stateMutability": "view",
      "type": "function"
    },
    {
      "inputs": [],
      "name": "balancingCount",
      "outputs": [
        {
          "internalType": "uint256",
          "name": "",
          "type": "uint256"
        }
      ],
      "stateMutability": "view",
      "type": "function"
    },
    {
      "inputs": [
        {
          "internalType": "uint256",
          "name": "_proposalId",
          "type": "uint256"
        }
      ],
      "name": "calculateProgression",
      "outputs": [
        {
          "internalType": "uint256",
          "name": "",
          "type": "uint256"
        },
        {
          "internalType": "uint256",
          "name": "",
          "type": "uint256"
        }
      ],
      "stateMutability": "view",
      "type": "function"
    },
    {
      "inputs": [
        {
          "internalType": "string",
          "name": "_title",
          "type": "string"
        },
        {
          "internalType": "string",
          "name": "_description",
          "type": "string"
        }
      ],
      "name": "createProposal",
      "outputs": [],
      "stateMutability": "nonpayable",
      "type": "function"
    },
    {
      "inputs": [
        {
          "internalType": "uint256",
          "name": "_proposalId",
          "type": "uint256"
        }
      ],
      "name": "executeProposal",
      "outputs": [],
      "stateMutability": "nonpayable",
      "type": "function"
    },
    {
      "inputs": [
        {
          "internalType": "uint256",
          "name": "_proposalId",
          "type": "uint256"
        }
      ],
      "name": "getProposal",
      "outputs": [
        {
          "internalType": "uint256",
          "name": "id",
          "type": "uint256"
        },
        {
          "internalType": "string",
          "name": "title",
          "type": "string"
        },
        {
          "internalType": "string",
          "name": "description",
          "type": "string"
        },
        {
          "internalType": "address",
          "name": "creator",
          "type": "address"
        },
        {
          "internalType": "bool",
          "name": "executed",
          "type": "bool"
        },
        {
          "internalType": "bool",
          "name": "accepted",
          "type": "bool"
        },
        {
          "internalType": "uint256",
          "name": "yesVotes",
          "type": "uint256"
        },
        {
          "internalType": "uint256",
          "name": "noVotes",
          "type": "uint256"
        },
        {
          "internalType": "uint256",
          "name": "abstainVotes",
          "type": "uint256"
        },
        {
          "internalType": "uint256",
          "name": "uniqueVotes",
          "type": "uint256"
        },
        {
          "internalType": "uint256",
          "name": "votingEndTime",
          "type": "uint256"
        }
      ],
      "stateMutability": "view",
      "type": "function"
    },
    {
      "inputs": [],
      "name": "libToken",
      "outputs": [
        {
          "internalType": "contract Liblock",
          "name": "",
          "type": "address"
        }
      ],
      "stateMutability": "view",
      "type": "function"
    },
    {
      "inputs": [],
      "name": "maxPower",
      "outputs": [
        {
          "internalType": "uint256",
          "name": "",
          "type": "uint256"
        }
      ],
      "stateMutability": "view",
      "type": "function"
    },
    {
      "inputs": [],
      "name": "nextAlterationTimeLeft",
      "outputs": [
        {
          "internalType": "uint256",
          "name": "",
          "type": "uint256"
        }
      ],
      "stateMutability": "view",
      "type": "function"
    },
    {
      "inputs": [],
      "name": "proposalCount",
      "outputs": [
        {
          "internalType": "uint256",
          "name": "",
          "type": "uint256"
        }
      ],
      "stateMutability": "view",
      "type": "function"
    },
    {
      "inputs": [
        {
          "internalType": "uint256",
          "name": "",
          "type": "uint256"
        }
      ],
      "name": "proposals",
      "outputs": [
        {
          "internalType": "uint256",
          "name": "id",
          "type": "uint256"
        },
        {
          "internalType": "string",
          "name": "title",
          "type": "string"
        },
        {
          "internalType": "string",
          "name": "description",
          "type": "string"
        },
        {
          "internalType": "address",
          "name": "creator",
          "type": "address"
        },
        {
          "internalType": "bool",
          "name": "executed",
          "type": "bool"
        },
        {
          "internalType": "bool",
          "name": "accepted",
          "type": "bool"
        },
        {
          "internalType": "uint256",
          "name": "yesVotes",
          "type": "uint256"
        },
        {
          "internalType": "uint256",
          "name": "noVotes",
          "type": "uint256"
        },
        {
          "internalType": "uint256",
          "name": "abstainVotes",
          "type": "uint256"
        },
        {
          "internalType": "uint256",
          "name": "uniqueVotes",
          "type": "uint256"
        },
        {
          "internalType": "uint256",
          "name": "votingEndTime",
          "type": "uint256"
        }
      ],
      "stateMutability": "view",
      "type": "function"
    },
    {
      "inputs": [],
      "name": "rlibToken",
      "outputs": [
        {
          "internalType": "contract rLiblock",
          "name": "",
          "type": "address"
        }
      ],
      "stateMutability": "view",
      "type": "function"
    },
    {
      "inputs": [
        {
          "internalType": "uint8",
          "name": "_libThreshold",
          "type": "uint8"
        },
        {
          "internalType": "uint8",
          "name": "_rlibThreshold",
          "type": "uint8"
        }
      ],
      "name": "setNewThresholds",
      "outputs": [],
      "stateMutability": "nonpayable",
      "type": "function"
    },
    {
      "inputs": [
        {
          "internalType": "address",
          "name": "",
          "type": "address"
        },
        {
          "internalType": "uint256",
          "name": "",
          "type": "uint256"
        }
      ],
      "name": "virtualPowerUsed",
      "outputs": [
        {
          "internalType": "uint256",
          "name": "",
          "type": "uint256"
        }
      ],
      "stateMutability": "view",
      "type": "function"
    },
    {
      "inputs": [
        {
          "internalType": "uint256",
          "name": "_proposalId",
          "type": "uint256"
        },
        {
          "internalType": "bytes32",
          "name": "_vote",
          "type": "bytes32"
        }
      ],
      "name": "vote",
      "outputs": [],
      "stateMutability": "nonpayable",
      "type": "function"
    },
    {
      "inputs": [
        {
          "internalType": "address",
          "name": "",
          "type": "address"
        },
        {
          "internalType": "uint256",
          "name": "",
          "type": "uint256"
        }
      ],
      "name": "voted",
      "outputs": [
        {
          "internalType": "bool",
          "name": "",
          "type": "bool"
        }
      ],
      "stateMutability": "view",
      "type": "function"
    }
  ],
  "bytecode": "0x60c06040523480156200001157600080fd5b5060405162002477380380620024778339810160408190526200003491620002c7565b6001600160a01b038216620000905760405162461bcd60e51b815260206004820152601960248201527f496e76616c6964204c494220546f6b656e20616464726573730000000000000060448201526064015b60405180910390fd5b6001600160a01b03828116608081905290821660a0526003805463ffffffff191662280005179055604080516318160ddd60e01b815290516103e892916318160ddd9160048083019260209291908290030181865afa158015620000f8573d6000803e3d6000fd5b505050506040513d601f19601f820116820180604052508101906200011e9190620002ff565b6200012a919062000319565b600255620001383362000233565b60006001819055506040518060e0016040528060015481526020014381526020016000815260200142815260200142620151806200017791906200033c565b8152602001678ac7230489e800008152602001633b9aca00815250600560006001548152602001908152602001600020600082015181600001556020820151816001015560408201518160020155606082015181600301556080820151816004015560a0820151816005015560c082015181600601559050507359f1ec1f10bd7ed9b938431086bc1d9e233ecf41600460006101000a8154816001600160a01b0302191690836001600160a01b03160217905550505062000364565b6001600160a01b0381166200027d5760405162461bcd60e51b815260206004820152600f60248201526e496e76616c6964206164647265737360881b604482015260640162000087565b600380546001600160a01b0390921664010000000002600160201b600160c01b0319909216919091179055565b80516001600160a01b0381168114620002c257600080fd5b919050565b60008060408385031215620002db57600080fd5b620002e683620002aa565b9150620002f660208401620002aa565b90509250929050565b6000602082840312156200031257600080fd5b5051919050565b6000826200033757634e487b7160e01b600052601260045260246000fd5b500490565b808201808211156200035e57634e487b7160e01b600052601160045260246000fd5b92915050565b60805160a0516120bc620003bb6000396000818161019d015281816109de01528181610f43015281816117fd0152611aa90152600081816102c901528181610d7801528181610fcf01526118a201526120bc6000f3fe608060405234801561001057600080fd5b506004361061011b5760003560e01c80636741d965116100b2578063a5e1172911610081578063c7f758a811610066578063c7f758a81461033a578063d53b9b241461034d578063da35c6641461036057600080fd5b8063a5e11729146102f3578063c591aa98146102fc57600080fd5b80636741d965146102a857806368bb8bb6146102b15780636b30825f146102c45780639b8b7a8b146102eb57600080fd5b80631833760e116100ee5780631833760e1461019857806328d0edf0146101d757806343107d371461021057806365e481e21461029557600080fd5b8063013cf08b146101205780630a2ea6e4146101535780630ac37e9e1461017b5780630d61b51914610185575b600080fd5b61013361012e366004611baf565b610369565b60405161014a9b9a99989796959493929190611c0e565b60405180910390f35b610166610161366004611baf565b6104de565b6040805192835260208301919091520161014a565b61018361075f565b005b610183610193366004611baf565b6109a7565b6101bf7f000000000000000000000000000000000000000000000000000000000000000081565b6040516001600160a01b03909116815260200161014a565b6102026101e5366004611c89565b600660209081526000928352604080842090915290825290205481565b60405190815260200161014a565b61026061021e366004611baf565b60056020528060005260406000206000915090508060000154908060010154908060020154908060030154908060040154908060050154908060060154905087565b604080519788526020880196909652948601939093526060850191909152608084015260a083015260c082015260e00161014a565b6101836102a3366004611d0a565b6109b3565b61020260015481565b6101836102bf366004611d76565b610d60565b6101bf7f000000000000000000000000000000000000000000000000000000000000000081565b61020261138c565b61020260025481565b61032a61030a366004611c89565b600860209081526000928352604080842090915290825290205460ff1681565b604051901515815260200161014a565b610133610348366004611baf565b6113fd565b61018361035b366004611dae565b6116a7565b61020260005481565b6007602052600090815260409020805460018201805491929161038b90611de1565b80601f01602080910402602001604051908101604052809291908181526020018280546103b790611de1565b80156104045780601f106103d957610100808354040283529160200191610404565b820191906000526020600020905b8154815290600101906020018083116103e757829003601f168201915b50505050509080600201805461041990611de1565b80601f016020809104026020016040519081016040528092919081815260200182805461044590611de1565b80156104925780601f1061046757610100808354040283529160200191610492565b820191906000526020600020905b81548152906001019060200180831161047557829003601f168201915b505050506003830154600484015460058501546006860154600787015460089097015495966001600160a01b0385169660ff600160a01b870481169750600160a81b909604909516948b565b60008060005483106105375760405162461bcd60e51b815260206004820152601d60248201527f4e6f2070726f706f73616c20657869737420666f72207468697320696400000060448201526064015b60405180910390fd5b600060076000858152602001908152602001600020604051806101600160405290816000820154815260200160018201805461057290611de1565b80601f016020809104026020016040519081016040528092919081815260200182805461059e90611de1565b80156105eb5780601f106105c0576101008083540402835291602001916105eb565b820191906000526020600020905b8154815290600101906020018083116105ce57829003601f168201915b5050505050815260200160028201805461060490611de1565b80601f016020809104026020016040519081016040528092919081815260200182805461063090611de1565b801561067d5780601f106106525761010080835404028352916020019161067d565b820191906000526020600020905b81548152906001019060200180831161066057829003601f168201915b505050918352505060038201546001600160a01b038116602083015260ff600160a01b8204811615156040840152600160a81b909104161515606082015260048201546080820152600582015460a0820152600682015460c080830191909152600783015460e080840191909152600890930154610100928301529083015191830151908301519293506000926107149190611e31565b61071e9190611e31565b905080600003610735575060009485945092505050565b6000818360c0015160646107499190611e4a565b6107539190611e61565b96919550909350505050565b60015460009081526005602052604090206004015442116107c25760405162461bcd60e51b815260206004820152600c60248201527f4e6f742074696d65207965740000000000000000000000000000000000000000604482015260640161052e565b600180549060006107d283611e83565b909155505060015460048054604080517ffeaf968c000000000000000000000000000000000000000000000000000000008152905160009384936001600160a01b03169263feaf968c928183019260a0928290030181865afa15801561083c573d6000803e3d6000fd5b505050506040513d601f19601f820116820180604052508101906108609190611eb6565b5093505092505060006107d06005600060018761087d9190611f06565b8152602001908152602001600020600601546108999190611e61565b600560006108a8600188611f06565b8152602001908152602001600020600601546108c49190611e31565b90506000836108db83670de0b6b3a7640000611e4a565b6108e59190611e61565b90506040518060e001604052808681526020014381526020018581526020018481526020018462093a806109199190611e31565b8152602080820184905260409182018590526000888152600580835283822085518155928501516001840155848401516002840155606085015160038401556080850151600484015560a08501519083015560c09093015160069091015551829187917f0dcfccb38b5d25e85df6a8ee980391679d6fd8c23782bfd0fc5234279ef95fec9190a35050505050565b6109b08161174a565b50565b600154600090815260056020819052604091829020015490516309ab24eb60e41b81523360048201527f00000000000000000000000000000000000000000000000000000000000000006001600160a01b031690639ab24eb090602401602060405180830381865afa158015610a2d573d6000803e3d6000fd5b505050506040513d601f19601f82011682018060405250810190610a519190611f19565b1015610ac55760405162461bcd60e51b815260206004820152602260248201527f496e73756666696369656e742064656c65676174656420724c494220746f6b6560448201527f6e73000000000000000000000000000000000000000000000000000000000000606482015260840161052e565b8215801590610ad357508015155b610b1f5760405162461bcd60e51b815260206004820152601860248201527f496e76616c69642070726f706f73616c2064657461696c730000000000000000604482015260640161052e565b6000543390610b2d82611a16565b60405180610160016040528082815260200187878080601f016020809104026020016040519081016040528093929190818152602001838380828437600092019190915250505090825250604080516020601f88018190048102820181019092528681529181019190879087908190840183828082843760009201829052509385525050506001600160a01b038516602083015260408201819052606082018190526080820181905260a0820181905260c0820181905260e082015261010001610bfa4262093a80611e31565b9052600082815260076020908152604090912082518155908201516001820190610c249082611f97565b5060408201516002820190610c399082611f97565b506060820151600382018054608085015160a08601511515600160a81b027fffffffffffffffffffff00ffffffffffffffffffffffffffffffffffffffffff911515600160a01b027fffffffffffffffffffffff0000000000000000000000000000000000000000009093166001600160a01b0390951694909417919091171691909117905560c0820151600482015560e082015160058201556101008201516006820155610120820151600782015561014090910151600890910155600080549080610d0583611e83565b90915550506001600160a01b038216610d1f600183611f06565b7f9d1e2d67583a515402aa8aa172389f7bafc951616696ef7473125a9c615f0ae18888604051610d50929190612057565b60405180910390a3505050505050565b6040516309ab24eb60e41b81523360048201526000907f00000000000000000000000000000000000000000000000000000000000000006001600160a01b031690639ab24eb090602401602060405180830381865afa158015610dc7573d6000803e3d6000fd5b505050506040513d601f19601f82011682018060405250810190610deb9190611f19565b11610e385760405162461bcd60e51b815260206004820152601d60248201527f496e73756666696369656e742064656c65676174656420746f6b656e73000000604482015260640161052e565b33600081815260086020908152604080832086845290915290205460ff1615610ea35760405162461bcd60e51b815260206004820152601f60248201527f416c726561647920766f74656420666f7220746869732070726f706f73616c00604482015260640161052e565b600083815260076020526040902060088101544210610ec557610ec58461174a565b6003810154600160a01b900460ff1615610f215760405162461bcd60e51b815260206004820152601960248201527f50726f706f73616c20616c726561647920657865637574656400000000000000604482015260640161052e565b6040516309ab24eb60e41b81526001600160a01b0383811660048301526000917f000000000000000000000000000000000000000000000000000000000000000090911690639ab24eb090602401602060405180830381865afa158015610f8c573d6000803e3d6000fd5b505050506040513d601f19601f82011682018060405250810190610fb09190611f19565b6040516309ab24eb60e41b81526001600160a01b0385811660048301527f00000000000000000000000000000000000000000000000000000000000000001690639ab24eb090602401602060405180830381865afa158015611016573d6000803e3d6000fd5b505050506040513d601f19601f8201168201806040525081019061103a9190611f19565b6110449190611e31565b6001600160a01b03841660009081526008602090815260408083208984529091528120805460ff191660011790556007840180549293509061108583611e83565b9190505550600254811115611223576040516279657360e81b602082015260230160408051601f19818403018152828252805160209182012090830187905291016040516020818303038152906040528051906020012003611127576002548260040160008282546110f79190611e31565b90915550506002546111099082611f06565b82600601600082825461111c9190611e31565b9091555061134f9050565b604051616e6f60f01b602082015260220160408051601f198184030181528282528051602091820120908301879052910160405160208183030381529060405280519060200120036111b9576002548260050160008282546111899190611e31565b909155505060025461119b9082611f06565b8260060160008282546111ae9190611e31565b9091555061121e9050565b6040516630b139ba30b4b760c91b602082015260270160408051601f1981840301815282825280516020918201209083018790529101604051602081830303815290604052805190602001200361121e578082600601600082825461111c9190611e31565b61134f565b6040516279657360e81b602082015260230160408051601f19818403018152828252805160209182012090830187905291016040516020818303038152906040528051906020012003611284578082600401600082825461111c9190611e31565b604051616e6f60f01b602082015260220160408051601f198184030181528282528051602091820120908301879052910160405160208183030381529060405280519060200120036112e4578082600501600082825461111c9190611e31565b6040516630b139ba30b4b760c91b602082015260270160408051601f1981840301815282825280516020918201209083018790529101604051602081830303815290604052805190602001200361134f57808260060160008282546113499190611e31565b90915550505b6040516001600160a01b0384169086907f10a412bf229fbac2408912cb271b8ff9eb39eb72da91dd0c8accab0fb101113590600090a35050505050565b600180546000908152600560208181526040808420815160e081018352815481529581015492860192909252600282015490850152600381015460608501526004810154608085018190529181015460a08501526006015460c08401529091906113f7904290611f06565b91505090565b60006060806000806000806000806000806000548c1061145f5760405162461bcd60e51b815260206004820152601d60248201527f4e6f2070726f706f73616c20657869737420666f722074686973206964000000604482015260640161052e565b6000600760008e8152602001908152602001600020604051806101600160405290816000820154815260200160018201805461149a90611de1565b80601f01602080910402602001604051908101604052809291908181526020018280546114c690611de1565b80156115135780601f106114e857610100808354040283529160200191611513565b820191906000526020600020905b8154815290600101906020018083116114f657829003601f168201915b5050505050815260200160028201805461152c90611de1565b80601f016020809104026020016040519081016040528092919081815260200182805461155890611de1565b80156115a55780601f1061157a576101008083540402835291602001916115a5565b820191906000526020600020905b81548152906001019060200180831161158857829003601f168201915b505050505081526020016003820160009054906101000a90046001600160a01b03166001600160a01b03166001600160a01b031681526020016003820160149054906101000a900460ff161515151581526020016003820160159054906101000a900460ff16151515158152602001600482015481526020016005820154815260200160068201548152602001600782015481526020016008820154815250509050806000015181602001518260400151836060015184608001518560a001518660c001518760e001518861010001518961012001518a61014001519b509b509b509b509b509b509b509b509b509b509b505091939597999b90929496989a50565b6003546001600160a01b036401000000009091041633146116c757600080fd5b60008260ff161180156116dd575060008160ff16115b6117295760405162461bcd60e51b815260206004820152600760248201527f496e76616c696400000000000000000000000000000000000000000000000000604482015260640161052e565b6003805460ff93841663ffffffff1990911617919092166201000002179055565b600081815260076020526040902060088101544210156117d25760405162461bcd60e51b815260206004820152602160248201527f5468652070726f706f73616c206973207374696c6c206265696e6720766f746560448201527f6400000000000000000000000000000000000000000000000000000000000000606482015260840161052e565b60008160060154826005015483600401546117ed9190611e31565b6117f79190611e31565b905060647f00000000000000000000000000000000000000000000000000000000000000006001600160a01b03166318160ddd6040518163ffffffff1660e01b8152600401602060405180830381865afa158015611859573d6000803e3d6000fd5b505050506040513d601f19601f8201168201806040525081019061187d9190611f19565b600354611894919062010000900461ffff16611e4a565b61189e9190611e61565b60647f00000000000000000000000000000000000000000000000000000000000000006001600160a01b03166318160ddd6040518163ffffffff1660e01b8152600401602060405180830381865afa1580156118fe573d6000803e3d6000fd5b505050506040513d601f19601f820116820180604052508101906119229190611f19565b600354611933919061ffff16611e4a565b61193d9190611e61565b6119479190611e31565b81106119bc57600282600601548261195f9190611f06565b6119699190611e61565b826004015411156119a15760038201805461ffff60a01b191675010100000000000000000000000000000000000000001790556119d3565b60038201805461ffff60a01b1916600160a01b1790556119d3565b60038201805461ffff60a01b1916600160a01b1790555b6003820154604051600160a81b90910460ff1615159084907f948f4a9cd986f1118c3fbd459f7a22b23c0693e1ca3ef06a6a8be5aa7d39cc0390600090a3505050565b600180546000818152600560208181526040808420815160e0810183528154815296810154878401526002810154878301526003810154606088015260048082015460808901529381015460a0880181905260069182015460c08901526001600160a01b0389811680885292855283872097875296909352938190205490516309ab24eb60e41b815292830193909352927f00000000000000000000000000000000000000000000000000000000000000001690639ab24eb090602401602060405180830381865afa158015611af0573d6000803e3d6000fd5b505050506040513d601f19601f82011682018060405250810190611b149190611f19565b611b1e9190611f06565b1015611b6c5760405162461bcd60e51b815260206004820152601760248201527f4e6f7420656e6f75676820724c4942205650206c656674000000000000000000604482015260640161052e565b60a08101516001600160a01b0383166000908152600660209081526040808320600154845290915281208054909190611ba6908490611e31565b90915550505050565b600060208284031215611bc157600080fd5b5035919050565b6000815180845260005b81811015611bee57602081850181015186830182015201611bd2565b506000602082860101526020601f19601f83011685010191505092915050565b60006101608d8352806020840152611c288184018e611bc8565b90508281036040840152611c3c818d611bc8565b6001600160a01b039b909b1660608401525050961515608088015294151560a087015260c086019390935260e0850191909152610100840152610120830152610140909101529392505050565b60008060408385031215611c9c57600080fd5b82356001600160a01b0381168114611cb357600080fd5b946020939093013593505050565b60008083601f840112611cd357600080fd5b50813567ffffffffffffffff811115611ceb57600080fd5b602083019150836020828501011115611d0357600080fd5b9250929050565b60008060008060408587031215611d2057600080fd5b843567ffffffffffffffff80821115611d3857600080fd5b611d4488838901611cc1565b90965094506020870135915080821115611d5d57600080fd5b50611d6a87828801611cc1565b95989497509550505050565b60008060408385031215611d8957600080fd5b50508035926020909101359150565b803560ff81168114611da957600080fd5b919050565b60008060408385031215611dc157600080fd5b611dca83611d98565b9150611dd860208401611d98565b90509250929050565b600181811c90821680611df557607f821691505b602082108103611e1557634e487b7160e01b600052602260045260246000fd5b50919050565b634e487b7160e01b600052601160045260246000fd5b80820180821115611e4457611e44611e1b565b92915050565b8082028115828204841417611e4457611e44611e1b565b600082611e7e57634e487b7160e01b600052601260045260246000fd5b500490565b600060018201611e9557611e95611e1b565b5060010190565b805169ffffffffffffffffffff81168114611da957600080fd5b600080600080600060a08688031215611ece57600080fd5b611ed786611e9c565b9450602086015193506040860151925060608601519150611efa60808701611e9c565b90509295509295909350565b81810381811115611e4457611e44611e1b565b600060208284031215611f2b57600080fd5b5051919050565b634e487b7160e01b600052604160045260246000fd5b601f821115611f9257600081815260208120601f850160051c81016020861015611f6f5750805b601f850160051c820191505b81811015611f8e57828155600101611f7b565b5050505b505050565b815167ffffffffffffffff811115611fb157611fb1611f32565b611fc581611fbf8454611de1565b84611f48565b602080601f831160018114611ffa5760008415611fe25750858301515b600019600386901b1c1916600185901b178555611f8e565b600085815260208120601f198616915b828110156120295788860151825594840194600190910190840161200a565b50858210156120475787850151600019600388901b60f8161c191681555b5050505050600190811b01905550565b60208152816020820152818360408301376000818301604090810191909152601f909201601f1916010191905056fea26469706673582212204f89067c174d6645b703c1ef38b37bc508a24595681a8e776e7b1425db9d753464736f6c63430008130033",
  "linkReferences": {},
  "deployedLinkReferences": {}
}