{
  "_format": "hh-sol-artifact-1",
  "contractName": "gProposal",
  "sourceName": "contracts/gProposal.sol",
  "abi": [
    {
      "inputs": [
        {
          "internalType": "address",
          "name": "_libToken",
          "type": "address"
        },
        {
          "internalType": "address",
          "name": "_rlibToken",
          "type": "address"
        }
      ],
      "stateMutability": "nonpayable",
      "type": "constructor"
    },
    {
      "anonymous": false,
      "inputs": [
        {
          "indexed": false,
          "internalType": "uint256",
          "name": "balancingId",
          "type": "uint256"
        },
        {
          "indexed": false,
          "internalType": "uint256",
          "name": "floor",
          "type": "uint256"
        }
      ],
      "name": "BalancingExecuted",
      "type": "event"
    },
    {
      "anonymous": false,
      "inputs": [
        {
          "indexed": true,
          "internalType": "uint256",
          "name": "proposalId",
          "type": "uint256"
        },
        {
          "indexed": false,
          "internalType": "string",
          "name": "title",
          "type": "string"
        },
        {
          "indexed": false,
          "internalType": "address",
          "name": "creator",
          "type": "address"
        }
      ],
      "name": "NewProposal",
      "type": "event"
    },
    {
      "anonymous": false,
      "inputs": [
        {
          "indexed": true,
          "internalType": "uint256",
          "name": "proposalId",
          "type": "uint256"
        },
        {
          "indexed": false,
          "internalType": "bool",
          "name": "accepted",
          "type": "bool"
        }
      ],
      "name": "ProposalExecuted",
      "type": "event"
    },
    {
      "anonymous": false,
      "inputs": [
        {
          "indexed": true,
          "internalType": "uint256",
          "name": "proposalId",
          "type": "uint256"
        },
        {
          "indexed": false,
          "internalType": "address",
          "name": "voter",
          "type": "address"
        }
      ],
      "name": "Vote",
      "type": "event"
    },
    {
      "inputs": [],
      "name": "balanceFloor",
      "outputs": [],
      "stateMutability": "nonpayable",
      "type": "function"
    },
    {
      "inputs": [
        {
          "internalType": "uint256",
          "name": "",
          "type": "uint256"
        }
      ],
      "name": "balancing",
      "outputs": [
        {
          "internalType": "uint256",
          "name": "id",
          "type": "uint256"
        },
        {
          "internalType": "uint256",
          "name": "blockHeight",
          "type": "uint256"
        },
        {
          "internalType": "int256",
          "name": "currentPrice",
          "type": "int256"
        },
        {
          "internalType": "uint256",
          "name": "currentTimestamp",
          "type": "uint256"
        },
        {
          "internalType": "uint256",
          "name": "nextTimestamp",
          "type": "uint256"
        },
        {
          "internalType": "uint256",
          "name": "epochFloor",
          "type": "uint256"
        },
        {
          "internalType": "uint256",
          "name": "epochPriceTarget",
          "type": "uint256"
        }
      ],
      "stateMutability": "view",
      "type": "function"
    },
    {
      "inputs": [],
      "name": "balancingCount",
      "outputs": [
        {
          "internalType": "uint256",
          "name": "",
          "type": "uint256"
        }
      ],
      "stateMutability": "view",
      "type": "function"
    },
    {
      "inputs": [
        {
          "internalType": "uint256",
          "name": "_proposalId",
          "type": "uint256"
        }
      ],
      "name": "calculateProgression",
      "outputs": [
        {
          "internalType": "uint256",
          "name": "",
          "type": "uint256"
        },
        {
          "internalType": "uint256",
          "name": "",
          "type": "uint256"
        }
      ],
      "stateMutability": "view",
      "type": "function"
    },
    {
      "inputs": [
        {
          "internalType": "string",
          "name": "_title",
          "type": "string"
        },
        {
          "internalType": "string",
          "name": "_description",
          "type": "string"
        }
      ],
      "name": "createProposal",
      "outputs": [],
      "stateMutability": "nonpayable",
      "type": "function"
    },
    {
      "inputs": [
        {
          "internalType": "uint256",
          "name": "_proposalId",
          "type": "uint256"
        }
      ],
      "name": "getProposal",
      "outputs": [
        {
          "internalType": "uint256",
          "name": "id",
          "type": "uint256"
        },
        {
          "internalType": "string",
          "name": "title",
          "type": "string"
        },
        {
          "internalType": "string",
          "name": "description",
          "type": "string"
        },
        {
          "internalType": "address",
          "name": "creator",
          "type": "address"
        },
        {
          "internalType": "bool",
          "name": "executed",
          "type": "bool"
        },
        {
          "internalType": "bool",
          "name": "accepted",
          "type": "bool"
        },
        {
          "internalType": "uint256",
          "name": "yesVotes",
          "type": "uint256"
        },
        {
          "internalType": "uint256",
          "name": "noVotes",
          "type": "uint256"
        },
        {
          "internalType": "uint256",
          "name": "abstainVotes",
          "type": "uint256"
        },
        {
          "internalType": "uint256",
          "name": "uniqueVotes",
          "type": "uint256"
        },
        {
          "internalType": "uint256",
          "name": "votingEndTime",
          "type": "uint256"
        }
      ],
      "stateMutability": "view",
      "type": "function"
    },
    {
      "inputs": [],
      "name": "libToken",
      "outputs": [
        {
          "internalType": "contract Liblock",
          "name": "",
          "type": "address"
        }
      ],
      "stateMutability": "view",
      "type": "function"
    },
    {
      "inputs": [],
      "name": "maxPower",
      "outputs": [
        {
          "internalType": "uint256",
          "name": "",
          "type": "uint256"
        }
      ],
      "stateMutability": "view",
      "type": "function"
    },
    {
      "inputs": [],
      "name": "nextAlterationBlock",
      "outputs": [
        {
          "internalType": "uint256",
          "name": "",
          "type": "uint256"
        }
      ],
      "stateMutability": "view",
      "type": "function"
    },
    {
      "inputs": [],
      "name": "proposalCount",
      "outputs": [
        {
          "internalType": "uint256",
          "name": "",
          "type": "uint256"
        }
      ],
      "stateMutability": "view",
      "type": "function"
    },
    {
      "inputs": [
        {
          "internalType": "uint256",
          "name": "",
          "type": "uint256"
        }
      ],
      "name": "proposals",
      "outputs": [
        {
          "internalType": "uint256",
          "name": "id",
          "type": "uint256"
        },
        {
          "internalType": "string",
          "name": "title",
          "type": "string"
        },
        {
          "internalType": "string",
          "name": "description",
          "type": "string"
        },
        {
          "internalType": "address",
          "name": "creator",
          "type": "address"
        },
        {
          "internalType": "bool",
          "name": "executed",
          "type": "bool"
        },
        {
          "internalType": "bool",
          "name": "accepted",
          "type": "bool"
        },
        {
          "internalType": "uint256",
          "name": "yesVotes",
          "type": "uint256"
        },
        {
          "internalType": "uint256",
          "name": "noVotes",
          "type": "uint256"
        },
        {
          "internalType": "uint256",
          "name": "abstainVotes",
          "type": "uint256"
        },
        {
          "internalType": "uint256",
          "name": "uniqueVotes",
          "type": "uint256"
        },
        {
          "internalType": "uint256",
          "name": "votingEndTime",
          "type": "uint256"
        }
      ],
      "stateMutability": "view",
      "type": "function"
    },
    {
      "inputs": [],
      "name": "rlibToken",
      "outputs": [
        {
          "internalType": "contract rLiblock",
          "name": "",
          "type": "address"
        }
      ],
      "stateMutability": "view",
      "type": "function"
    },
    {
      "inputs": [
        {
          "internalType": "uint8",
          "name": "_libThreshold",
          "type": "uint8"
        },
        {
          "internalType": "uint8",
          "name": "_rlibThreshold",
          "type": "uint8"
        }
      ],
      "name": "setNewThresholds",
      "outputs": [],
      "stateMutability": "nonpayable",
      "type": "function"
    },
    {
      "inputs": [
        {
          "internalType": "address",
          "name": "",
          "type": "address"
        },
        {
          "internalType": "uint256",
          "name": "",
          "type": "uint256"
        }
      ],
      "name": "virtualPowerUsed",
      "outputs": [
        {
          "internalType": "uint256",
          "name": "",
          "type": "uint256"
        }
      ],
      "stateMutability": "view",
      "type": "function"
    },
    {
      "inputs": [
        {
          "internalType": "uint256",
          "name": "_proposalId",
          "type": "uint256"
        },
        {
          "internalType": "string",
          "name": "_vote",
          "type": "string"
        }
      ],
      "name": "vote",
      "outputs": [],
      "stateMutability": "nonpayable",
      "type": "function"
    },
    {
      "inputs": [
        {
          "internalType": "address",
          "name": "",
          "type": "address"
        },
        {
          "internalType": "uint256",
          "name": "",
          "type": "uint256"
        }
      ],
      "name": "voted",
      "outputs": [
        {
          "internalType": "bool",
          "name": "",
          "type": "bool"
        }
      ],
      "stateMutability": "view",
      "type": "function"
    }
  ],
  "bytecode": "0x60806040523480156200001157600080fd5b50604051620020e6380380620020e68339810160408190526200003491620002bd565b6001600160a01b038216620000905760405162461bcd60e51b815260206004820152601960248201527f496e76616c6964204c494220546f6b656e20616464726573730000000000000060448201526064015b60405180910390fd5b600080546001600160a01b038085166001600160a01b0319928316811790935560018054918516919092161790556005805461280561ffff19909116179055604080516318160ddd60e01b815290516103e892916318160ddd9160048083019260209291908290030181865afa1580156200010f573d6000803e3d6000fd5b505050506040513d601f19601f82011682018060405250810190620001359190620002f5565b6200014191906200030f565b6004556200014f336200022c565b60006003819055506040518060e0016040528060035481526020014381526020016000815260200142815260200142620151806200018e919062000332565b8152678ac7230489e80000602080830191909152633b9aca0060409283015260038054600090815260078352839020845181559184015160018301559183015160028201556060830151918101919091556080820151600482015560a0820151600582015560c09091015160069182015580546001600160a01b0319167359f1ec1f10bd7ed9b938431086bc1d9e233ecf41179055506200035a9050565b6001600160a01b038116620002765760405162461bcd60e51b815260206004820152600f60248201526e496e76616c6964206164647265737360881b604482015260640162000087565b600580546001600160a01b03909216620100000262010000600160b01b0319909216919091179055565b80516001600160a01b0381168114620002b857600080fd5b919050565b60008060408385031215620002d157600080fd5b620002dc83620002a0565b9150620002ec60208401620002a0565b90509250929050565b6000602082840312156200030857600080fd5b5051919050565b6000826200032d57634e487b7160e01b600052601260045260246000fd5b500490565b808201808211156200035457634e487b7160e01b600052601160045260246000fd5b92915050565b611d7c806200036a6000396000f3fe608060405234801561001057600080fd5b50600436106101005760003560e01c80636741d96511610097578063c7f758a811610066578063c7f758a8146102d7578063d53b9b24146102ea578063da35c664146102fd578063f944f0fc1461030657600080fd5b80636741d965146102745780636b30825f1461027d578063a5e1172914610290578063c591aa981461029957600080fd5b806324108475116100d3578063241084751461019557806328d0edf0146101a857806343107d37146101e157806365e481e21461026157600080fd5b8063013cf08b146101055780630a2ea6e4146101385780630ac37e9e146101605780631833760e1461016a575b600080fd5b61011861011336600461179d565b61030e565b60405161012f9b9a99989796959493929190611806565b60405180910390f35b61014b61014636600461179d565b610483565b6040805192835260208301919091520161012f565b610168610551565b005b60015461017d906001600160a01b031681565b6040516001600160a01b03909116815260200161012f565b6101686101a3366004611897565b6107ad565b6101d36101b6366004611952565b600860209081526000928352604080842090915290825290205481565b60405190815260200161012f565b61022c6101ef36600461179d565b6007602052600090815260409020805460018201546002830154600384015460048501546005860154600690960154949593949293919290919087565b604080519788526020880196909652948601939093526060850191909152608084015260a083015260c082015260e00161012f565b61016861026f3660046119d3565b610d9b565b6101d360035481565b60005461017d906001600160a01b031681565b6101d360045481565b6102c76102a7366004611952565b600a60209081526000928352604080842090915290825290205460ff1681565b604051901515815260200161012f565b6101186102e536600461179d565b611110565b6101686102f8366004611a55565b61130f565b6101d360025481565b6101d36113b3565b6009602052600090815260409020805460018201805491929161033090611a88565b80601f016020809104026020016040519081016040528092919081815260200182805461035c90611a88565b80156103a95780601f1061037e576101008083540402835291602001916103a9565b820191906000526020600020905b81548152906001019060200180831161038c57829003601f168201915b5050505050908060020180546103be90611a88565b80601f01602080910402602001604051908101604052809291908181526020018280546103ea90611a88565b80156104375780601f1061040c57610100808354040283529160200191610437565b820191906000526020600020905b81548152906001019060200180831161041a57829003601f168201915b505050506003830154600484015460058501546006860154600787015460089097015495966001600160a01b0385169660ff600160a01b870481169750600160a81b909604909516948b565b60008060025483106104dc5760405162461bcd60e51b815260206004820152601d60248201527f4e6f2070726f706f73616c20657869737420666f72207468697320696400000060448201526064015b60405180910390fd5b60008381526009602052604081206006810154600582015460048301549293926105069190611ad8565b6105109190611ad8565b905080600003610527575060009485945092505050565b6000818360040154606461053b9190611af1565b6105459190611b08565b96919550909350505050565b60035460009081526007602052604090206004015442116105b45760405162461bcd60e51b815260206004820152600c60248201527f4e6f742074696d6520796574000000000000000000000000000000000000000060448201526064016104d3565b600380549060006105c483611b2a565b9190505550600080600660009054906101000a90046001600160a01b03166001600160a01b031663feaf968c6040518163ffffffff1660e01b815260040160a060405180830381865afa15801561061f573d6000803e3d6000fd5b505050506040513d601f19601f820116820180604052508101906106439190611b5d565b5093505092505060006107d06007600060016003546106629190611bad565b81526020019081526020016000206006015461067e9190611b08565b6007600060016003546106919190611bad565b8152602001908152602001600020600601546106ad9190611ad8565b90506000836106c483670de0b6b3a7640000611af1565b6106ce9190611b08565b90506040518060e0016040528060035481526020014381526020018581526020018481526020018462093a806107049190611ad8565b81526020808201849052604091820185905260038054600090815260078352839020845181559184015160018301558383015160028301556060840151828201556080840151600483015560a0840151600583015560c090930151600690910155905490517f0dcfccb38b5d25e85df6a8ee980391679d6fd8c23782bfd0fc5234279ef95fec9161079f918490918252602082015260400190565b60405180910390a150505050565b600080546040516309ab24eb60e41b81523360048201526001600160a01b0390911690639ab24eb090602401602060405180830381865afa1580156107f6573d6000803e3d6000fd5b505050506040513d601f19601f8201168201806040525081019061081a9190611bc0565b116108675760405162461bcd60e51b815260206004820152601d60248201527f496e73756666696369656e742064656c65676174656420746f6b656e7300000060448201526064016104d3565b336000908152600a6020908152604080832085845290915290205460ff16156108d25760405162461bcd60e51b815260206004820152601f60248201527f416c726561647920766f74656420666f7220746869732070726f706f73616c0060448201526064016104d3565b6000828152600960205260409020600881015442106108f4576108f48361140a565b6003810154600160a01b900460ff16156109505760405162461bcd60e51b815260206004820152601960248201527f50726f706f73616c20616c72656164792065786563757465640000000000000060448201526064016104d3565b6001546040516309ab24eb60e41b81523360048201526000916001600160a01b031690639ab24eb090602401602060405180830381865afa158015610999573d6000803e3d6000fd5b505050506040513d601f19601f820116820180604052508101906109bd9190611bc0565b6000546040516309ab24eb60e41b81523360048201526001600160a01b0390911690639ab24eb090602401602060405180830381865afa158015610a05573d6000803e3d6000fd5b505050506040513d601f19601f82011682018060405250810190610a299190611bc0565b610a339190611ad8565b336000908152600a602090815260408083208884529091528120805460ff1916600117905560078401805492935090610a6b83611b2a565b9190505550600454811115610c1e576040516279657360e81b60208201526023016040516020818303038152906040528051906020012083604051602001610ab39190611bd9565b6040516020818303038152906040528051906020012003610b1457600454826004016000828254610ae49190611ad8565b9091555050600454610af69082611bad565b826006016000828254610b099190611ad8565b90915550610d5f9050565b604051616e6f60f01b60208201526022016040516020818303038152906040528051906020012083604051602001610b4c9190611bd9565b6040516020818303038152906040528051906020012003610bad57600454826005016000828254610b7d9190611ad8565b9091555050600454610b8f9082611bad565b826006016000828254610ba29190611ad8565b90915550610c199050565b6040516630b139ba30b4b760c91b60208201526027016040516020818303038152906040528051906020012083604051602001610bea9190611bd9565b6040516020818303038152906040528051906020012003610c195780826006016000828254610b099190611ad8565b610d5f565b6040516279657360e81b60208201526023016040516020818303038152906040528051906020012083604051602001610c579190611bd9565b6040516020818303038152906040528051906020012003610c865780826004016000828254610b099190611ad8565b604051616e6f60f01b60208201526022016040516020818303038152906040528051906020012083604051602001610cbe9190611bd9565b6040516020818303038152906040528051906020012003610ced5780826005016000828254610b099190611ad8565b6040516630b139ba30b4b760c91b60208201526027016040516020818303038152906040528051906020012083604051602001610d2a9190611bd9565b6040516020818303038152906040528051906020012003610d5f5780826006016000828254610d599190611ad8565b90915550505b60405133815284907f10a412bf229fbac2408912cb271b8ff9eb39eb72da91dd0c8accab0fb1011135906020015b60405180910390a250505050565b600354600090815260076020526040908190206005015460015491516309ab24eb60e41b815233600482015290916001600160a01b031690639ab24eb090602401602060405180830381865afa158015610df9573d6000803e3d6000fd5b505050506040513d601f19601f82011682018060405250810190610e1d9190611bc0565b1015610e915760405162461bcd60e51b815260206004820152602260248201527f496e73756666696369656e742064656c65676174656420724c494220746f6b6560448201527f6e7300000000000000000000000000000000000000000000000000000000000060648201526084016104d3565b8215801590610e9f57508015155b610eeb5760405162461bcd60e51b815260206004820152601860248201527f496e76616c69642070726f706f73616c2064657461696c73000000000000000060448201526064016104d3565b610ef43361165a565b604051806101600160405280600254815260200185858080601f016020809104026020016040519081016040528093929190818152602001838380828437600092019190915250505090825250604080516020601f860181900481028201810190925284815291810191908590859081908401838280828437600092018290525093855250503360208401525060408201819052606082018190526080820181905260a0820181905260c0820181905260e082015261010001610fba4262093a80611ad8565b9052600254600090815260096020908152604090912082518155908201516001820190610fe79082611c44565b5060408201516002820190610ffc9082611c44565b506060820151600382018054608085015160a08601511515600160a81b027fffffffffffffffffffff00ffffffffffffffffffffffffffffffffffffffffff911515600160a01b027fffffffffffffffffffffff0000000000000000000000000000000000000000009093166001600160a01b0390951694909417919091171691909117905560c0820151600482015560e082015160058201556101008201516006820155610120820151600782015561014090910151600890910155600280549060006110c983611b2a565b919050555060016002546110dd9190611bad565b7f9d1e2d67583a515402aa8aa172389f7bafc951616696ef7473125a9c615f0ae1858533604051610d8d93929190611d04565b60006060806000806000806000806000806002548c106111725760405162461bcd60e51b815260206004820152601d60248201527f4e6f2070726f706f73616c20657869737420666f72207468697320696400000060448201526064016104d3565b60008c81526009602052604090208054600382015460048301546005840154600685015460078601546008870154600188018054909660028a01966001600160a01b0382169660ff600160a01b8404811697600160a81b9094041695919490938a906111dd90611a88565b80601f016020809104026020016040519081016040528092919081815260200182805461120990611a88565b80156112565780601f1061122b57610100808354040283529160200191611256565b820191906000526020600020905b81548152906001019060200180831161123957829003601f168201915b5050505050995088805461126990611a88565b80601f016020809104026020016040519081016040528092919081815260200182805461129590611a88565b80156112e25780601f106112b7576101008083540402835291602001916112e2565b820191906000526020600020905b8154815290600101906020018083116112c557829003601f168201915b505050505098509b509b509b509b509b509b509b509b509b509b509b505091939597999b90929496989a50565b6005546001600160a01b036201000090910416331461132d57600080fd5b60008260ff16118015611343575060008160ff16115b61138f5760405162461bcd60e51b815260206004820152600760248201527f496e76616c69640000000000000000000000000000000000000000000000000060448201526064016104d3565b6005805460ff9283166101000261ffff199091169290931691909117919091179055565b600380546000908152600760205260408120808301546004909101549192916113dc9190611bad565b6113e69190611b08565b6003546000908152600760205260409020600101546114059190611ad8565b905090565b60008181526009602052604081206006810154600582015460048301549293926114349190611ad8565b61143e9190611ad8565b90506064600160009054906101000a90046001600160a01b03166001600160a01b03166318160ddd6040518163ffffffff1660e01b8152600401602060405180830381865afa158015611495573d6000803e3d6000fd5b505050506040513d601f19601f820116820180604052508101906114b99190611bc0565b6005546114ce9190610100900460ff16611af1565b6114d89190611b08565b600054604080517f18160ddd00000000000000000000000000000000000000000000000000000000815290516064926001600160a01b0316916318160ddd9160048083019260209291908290030181865afa15801561153b573d6000803e3d6000fd5b505050506040513d601f19601f8201168201806040525081019061155f9190611bc0565b60055461156f919060ff16611af1565b6115799190611b08565b6115839190611ad8565b81106115f857600282600601548261159b9190611bad565b6115a59190611b08565b826004015411156115dd5760038201805461ffff60a01b1916750101000000000000000000000000000000000000000017905561160f565b60038201805461ffff60a01b1916600160a01b17905561160f565b60038201805461ffff60a01b1916600160a01b1790555b6003820154604051600160a81b90910460ff161515815283907f948f4a9cd986f1118c3fbd459f7a22b23c0693e1ca3ef06a6a8be5aa7d39cc039060200160405180910390a2505050565b6003546000818152600760209081526040808320600501546001600160a01b038681168086526008855283862096865295909352928190205460015491516309ab24eb60e41b815260048101959095529293911690639ab24eb090602401602060405180830381865afa1580156116d5573d6000803e3d6000fd5b505050506040513d601f19601f820116820180604052508101906116f99190611bc0565b6117039190611bad565b10156117515760405162461bcd60e51b815260206004820152601760248201527f4e6f7420656e6f75676820724c4942205650206c65667400000000000000000060448201526064016104d3565b6003546000818152600760209081526040808320600501546001600160a01b0386168452600883528184209484529390915281208054909190611795908490611ad8565b909155505050565b6000602082840312156117af57600080fd5b5035919050565b60005b838110156117d15781810151838201526020016117b9565b50506000910152565b600081518084526117f28160208601602086016117b6565b601f01601f19169290920160200192915050565b60006101608d83528060208401526118208184018e6117da565b90508281036040840152611834818d6117da565b6001600160a01b039b909b1660608401525050961515608088015294151560a087015260c086019390935260e0850191909152610100840152610120830152610140909101529392505050565b634e487b7160e01b600052604160045260246000fd5b600080604083850312156118aa57600080fd5b82359150602083013567ffffffffffffffff808211156118c957600080fd5b818501915085601f8301126118dd57600080fd5b8135818111156118ef576118ef611881565b604051601f8201601f19908116603f0116810190838211818310171561191757611917611881565b8160405282815288602084870101111561193057600080fd5b8260208601602083013760006020848301015280955050505050509250929050565b6000806040838503121561196557600080fd5b82356001600160a01b038116811461197c57600080fd5b946020939093013593505050565b60008083601f84011261199c57600080fd5b50813567ffffffffffffffff8111156119b457600080fd5b6020830191508360208285010111156119cc57600080fd5b9250929050565b600080600080604085870312156119e957600080fd5b843567ffffffffffffffff80821115611a0157600080fd5b611a0d8883890161198a565b90965094506020870135915080821115611a2657600080fd5b50611a338782880161198a565b95989497509550505050565b803560ff81168114611a5057600080fd5b919050565b60008060408385031215611a6857600080fd5b611a7183611a3f565b9150611a7f60208401611a3f565b90509250929050565b600181811c90821680611a9c57607f821691505b602082108103611abc57634e487b7160e01b600052602260045260246000fd5b50919050565b634e487b7160e01b600052601160045260246000fd5b80820180821115611aeb57611aeb611ac2565b92915050565b8082028115828204841417611aeb57611aeb611ac2565b600082611b2557634e487b7160e01b600052601260045260246000fd5b500490565b600060018201611b3c57611b3c611ac2565b5060010190565b805169ffffffffffffffffffff81168114611a5057600080fd5b600080600080600060a08688031215611b7557600080fd5b611b7e86611b43565b9450602086015193506040860151925060608601519150611ba160808701611b43565b90509295509295909350565b81810381811115611aeb57611aeb611ac2565b600060208284031215611bd257600080fd5b5051919050565b60008251611beb8184602087016117b6565b9190910192915050565b601f821115611c3f57600081815260208120601f850160051c81016020861015611c1c5750805b601f850160051c820191505b81811015611c3b57828155600101611c28565b5050505b505050565b815167ffffffffffffffff811115611c5e57611c5e611881565b611c7281611c6c8454611a88565b84611bf5565b602080601f831160018114611ca75760008415611c8f5750858301515b600019600386901b1c1916600185901b178555611c3b565b600085815260208120601f198616915b82811015611cd657888601518255948401946001909101908401611cb7565b5085821015611cf45787850151600019600388901b60f8161c191681555b5050505050600190811b01905550565b604081528260408201528284606083013760006060848301015260006060601f19601f86011683010190506001600160a01b038316602083015294935050505056fea26469706673582212207833bd0ffa9859d03b346a631cb9ee4c600582bf6f9250c337c558c257af7d3364736f6c63430008130033",
  "linkReferences": {},
  "deployedLinkReferences": {}
}