{
  "_format": "hh-sol-artifact-1",
  "contractName": "gProposal",
  "sourceName": "contracts/gProposal.sol",
  "abi": [
    {
      "inputs": [
        {
          "internalType": "address",
          "name": "_libToken",
          "type": "address"
        },
        {
          "internalType": "address",
          "name": "_rlibToken",
          "type": "address"
        }
      ],
      "stateMutability": "nonpayable",
      "type": "constructor"
    },
    {
      "anonymous": false,
      "inputs": [
        {
          "indexed": true,
          "internalType": "uint256",
          "name": "balancingId",
          "type": "uint256"
        },
        {
          "indexed": true,
          "internalType": "uint256",
          "name": "floor",
          "type": "uint256"
        }
      ],
      "name": "BalancingExecuted",
      "type": "event"
    },
    {
      "anonymous": false,
      "inputs": [
        {
          "indexed": true,
          "internalType": "uint256",
          "name": "proposalId",
          "type": "uint256"
        },
        {
          "indexed": false,
          "internalType": "string",
          "name": "title",
          "type": "string"
        },
        {
          "indexed": true,
          "internalType": "address",
          "name": "creator",
          "type": "address"
        }
      ],
      "name": "NewProposal",
      "type": "event"
    },
    {
      "anonymous": false,
      "inputs": [
        {
          "indexed": true,
          "internalType": "uint256",
          "name": "proposalId",
          "type": "uint256"
        },
        {
          "indexed": true,
          "internalType": "bool",
          "name": "accepted",
          "type": "bool"
        }
      ],
      "name": "ProposalExecuted",
      "type": "event"
    },
    {
      "anonymous": false,
      "inputs": [
        {
          "indexed": true,
          "internalType": "uint256",
          "name": "proposalId",
          "type": "uint256"
        },
        {
          "indexed": true,
          "internalType": "address",
          "name": "voter",
          "type": "address"
        }
      ],
      "name": "Vote",
      "type": "event"
    },
    {
      "inputs": [],
      "name": "balanceFloor",
      "outputs": [],
      "stateMutability": "nonpayable",
      "type": "function"
    },
    {
      "inputs": [
        {
          "internalType": "uint256",
          "name": "",
          "type": "uint256"
        }
      ],
      "name": "balancing",
      "outputs": [
        {
          "internalType": "uint256",
          "name": "id",
          "type": "uint256"
        },
        {
          "internalType": "uint256",
          "name": "blockHeight",
          "type": "uint256"
        },
        {
          "internalType": "int256",
          "name": "currentPrice",
          "type": "int256"
        },
        {
          "internalType": "uint256",
          "name": "currentTimestamp",
          "type": "uint256"
        },
        {
          "internalType": "uint256",
          "name": "nextTimestamp",
          "type": "uint256"
        },
        {
          "internalType": "uint256",
          "name": "epochFloor",
          "type": "uint256"
        },
        {
          "internalType": "uint256",
          "name": "epochPriceTarget",
          "type": "uint256"
        }
      ],
      "stateMutability": "view",
      "type": "function"
    },
    {
      "inputs": [],
      "name": "balancingCount",
      "outputs": [
        {
          "internalType": "uint256",
          "name": "",
          "type": "uint256"
        }
      ],
      "stateMutability": "view",
      "type": "function"
    },
    {
      "inputs": [
        {
          "internalType": "uint256",
          "name": "_proposalId",
          "type": "uint256"
        }
      ],
      "name": "calculateProgression",
      "outputs": [
        {
          "internalType": "uint256",
          "name": "",
          "type": "uint256"
        },
        {
          "internalType": "uint256",
          "name": "",
          "type": "uint256"
        }
      ],
      "stateMutability": "view",
      "type": "function"
    },
    {
      "inputs": [
        {
          "internalType": "string",
          "name": "_title",
          "type": "string"
        },
        {
          "internalType": "string",
          "name": "_description",
          "type": "string"
        }
      ],
      "name": "createProposal",
      "outputs": [],
      "stateMutability": "nonpayable",
      "type": "function"
    },
    {
      "inputs": [
        {
          "internalType": "uint256",
          "name": "_proposalId",
          "type": "uint256"
        }
      ],
      "name": "executeProposal",
      "outputs": [],
      "stateMutability": "nonpayable",
      "type": "function"
    },
    {
      "inputs": [
        {
          "internalType": "address",
          "name": "account",
          "type": "address"
        }
      ],
      "name": "isAdmin",
      "outputs": [
        {
          "internalType": "bool",
          "name": "",
          "type": "bool"
        }
      ],
      "stateMutability": "view",
      "type": "function"
    },
    {
      "inputs": [],
      "name": "libToken",
      "outputs": [
        {
          "internalType": "contract Liblock",
          "name": "",
          "type": "address"
        }
      ],
      "stateMutability": "view",
      "type": "function"
    },
    {
      "inputs": [],
      "name": "maxPower",
      "outputs": [
        {
          "internalType": "uint256",
          "name": "",
          "type": "uint256"
        }
      ],
      "stateMutability": "view",
      "type": "function"
    },
    {
      "inputs": [],
      "name": "nextAlterationTimeLeft",
      "outputs": [
        {
          "internalType": "uint256",
          "name": "",
          "type": "uint256"
        }
      ],
      "stateMutability": "view",
      "type": "function"
    },
    {
      "inputs": [],
      "name": "proposalCount",
      "outputs": [
        {
          "internalType": "uint256",
          "name": "",
          "type": "uint256"
        }
      ],
      "stateMutability": "view",
      "type": "function"
    },
    {
      "inputs": [
        {
          "internalType": "uint256",
          "name": "",
          "type": "uint256"
        }
      ],
      "name": "proposals",
      "outputs": [
        {
          "internalType": "uint256",
          "name": "id",
          "type": "uint256"
        },
        {
          "internalType": "string",
          "name": "title",
          "type": "string"
        },
        {
          "internalType": "string",
          "name": "description",
          "type": "string"
        },
        {
          "internalType": "address",
          "name": "creator",
          "type": "address"
        },
        {
          "internalType": "bool",
          "name": "executed",
          "type": "bool"
        },
        {
          "internalType": "bool",
          "name": "accepted",
          "type": "bool"
        },
        {
          "internalType": "uint256",
          "name": "yesVotes",
          "type": "uint256"
        },
        {
          "internalType": "uint256",
          "name": "noVotes",
          "type": "uint256"
        },
        {
          "internalType": "uint256",
          "name": "abstainVotes",
          "type": "uint256"
        },
        {
          "internalType": "uint256",
          "name": "uniqueVotes",
          "type": "uint256"
        },
        {
          "internalType": "uint256",
          "name": "votingEndTime",
          "type": "uint256"
        },
        {
          "internalType": "uint256",
          "name": "snapshotBlock",
          "type": "uint256"
        }
      ],
      "stateMutability": "view",
      "type": "function"
    },
    {
      "inputs": [],
      "name": "rlibToken",
      "outputs": [
        {
          "internalType": "contract rLiblock",
          "name": "",
          "type": "address"
        }
      ],
      "stateMutability": "view",
      "type": "function"
    },
    {
      "inputs": [
        {
          "internalType": "uint8",
          "name": "_libThreshold",
          "type": "uint8"
        },
        {
          "internalType": "uint8",
          "name": "_rlibThreshold",
          "type": "uint8"
        }
      ],
      "name": "setNewThresholds",
      "outputs": [],
      "stateMutability": "nonpayable",
      "type": "function"
    },
    {
      "inputs": [
        {
          "internalType": "address",
          "name": "",
          "type": "address"
        },
        {
          "internalType": "uint256",
          "name": "",
          "type": "uint256"
        }
      ],
      "name": "userVotes",
      "outputs": [
        {
          "internalType": "uint8",
          "name": "",
          "type": "uint8"
        }
      ],
      "stateMutability": "view",
      "type": "function"
    },
    {
      "inputs": [
        {
          "internalType": "address",
          "name": "",
          "type": "address"
        },
        {
          "internalType": "uint256",
          "name": "",
          "type": "uint256"
        }
      ],
      "name": "virtualPowerUsed",
      "outputs": [
        {
          "internalType": "uint256",
          "name": "",
          "type": "uint256"
        }
      ],
      "stateMutability": "view",
      "type": "function"
    },
    {
      "inputs": [
        {
          "internalType": "uint256",
          "name": "_proposalId",
          "type": "uint256"
        },
        {
          "internalType": "uint8",
          "name": "_vote",
          "type": "uint8"
        }
      ],
      "name": "vote",
      "outputs": [],
      "stateMutability": "nonpayable",
      "type": "function"
    },
    {
      "inputs": [
        {
          "internalType": "address",
          "name": "",
          "type": "address"
        },
        {
          "internalType": "uint256",
          "name": "",
          "type": "uint256"
        }
      ],
      "name": "voted",
      "outputs": [
        {
          "internalType": "bool",
          "name": "",
          "type": "bool"
        }
      ],
      "stateMutability": "view",
      "type": "function"
    }
  ],
  "bytecode": "0x60c06040523480156200001157600080fd5b5060405162001f5e38038062001f5e8339810160408190526200003491620002c8565b6001600160a01b038216620000905760405162461bcd60e51b815260206004820152601960248201527f496e76616c6964204c494220546f6b656e20616464726573730000000000000060448201526064015b60405180910390fd5b6001600160a01b03828116608081905290821660a0526003805463ffffffff191662280005179055604080516318160ddd60e01b815290516103e892916318160ddd9160048083019260209291908290030181865afa158015620000f8573d6000803e3d6000fd5b505050506040513d601f19601f820116820180604052508101906200011e919062000300565b6200012a91906200031a565b600255620001383362000234565b600060018190558080556040805160e08101825282815243602082015290810191909152426060820181905260808201906200017890620151806200033d565b8152602001678ac7230489e800008152602001633b9aca00815250600560006001548152602001908152602001600020600082015181600001556020820151816001015560408201518160020155606082015181600301556080820151816004015560a0820151816005015560c082015181600601559050507359f1ec1f10bd7ed9b938431086bc1d9e233ecf41600460006101000a8154816001600160a01b0302191690836001600160a01b03160217905550505062000365565b6001600160a01b0381166200027e5760405162461bcd60e51b815260206004820152600f60248201526e496e76616c6964206164647265737360881b604482015260640162000087565b600380546001600160a01b0390921664010000000002600160201b600160c01b0319909216919091179055565b80516001600160a01b0381168114620002c357600080fd5b919050565b60008060408385031215620002dc57600080fd5b620002e783620002ab565b9150620002f760208401620002ab565b90509250929050565b6000602082840312156200031357600080fd5b5051919050565b6000826200033857634e487b7160e01b600052601260045260246000fd5b500490565b808201808211156200035f57634e487b7160e01b600052601160045260246000fd5b92915050565b60805160a051611ba9620003b56000396000818161019901528181610a7401528181610f9401526114830152600081816102ec01528181610d9e0152818161102901526115170152611ba96000f3fe608060405234801561001057600080fd5b50600436106101165760003560e01c80636741d965116100a25780639b8b7a8b116100715780639b8b7a8b14610361578063a5e1172914610369578063c591aa9814610372578063d53b9b24146103a0578063da35c664146103b357600080fd5b80636741d965146102de5780636b30825f146102e75780638b3511f71461030e578063943e82161461034e57600080fd5b80631833760e116100e95780631833760e1461019457806324d7806c146101d357806328d0edf01461020d57806343107d371461024657806365e481e2146102cb57600080fd5b8063013cf08b1461011b5780630a2ea6e41461014f5780630ac37e9e146101775780630d61b51914610181575b600080fd5b61012e61012936600461166a565b6103bc565b6040516101469c9b9a999897969594939291906116c9565b60405180910390f35b61016261015d36600461166a565b610536565b60408051928352602083019190915201610146565b61017f6107ca565b005b61017f61018f36600461166a565b6109c1565b6101bb7f000000000000000000000000000000000000000000000000000000000000000081565b6040516001600160a01b039091168152602001610146565b6101fd6101e1366004611766565b60035464010000000090046001600160a01b0390811691161490565b6040519015158152602001610146565b61023861021b366004611788565b600660209081526000928352604080842090915290825290205481565b604051908152602001610146565b61029661025436600461166a565b60056020528060005260406000206000915090508060000154908060010154908060020154908060030154908060040154908060050154908060060154905087565b604080519788526020880196909652948601939093526060850191909152608084015260a083015260c082015260e001610146565b61017f6102d93660046117fb565b6109cd565b61023860015481565b6101bb7f000000000000000000000000000000000000000000000000000000000000000081565b61033c61031c366004611788565b600960209081526000928352604080842090915290825290205460ff1681565b60405160ff9091168152602001610146565b61017f61035c366004611878565b610d86565b6102386112ab565b61023860025481565b6101fd610380366004611788565b600860209081526000928352604080842090915290825290205460ff1681565b61017f6103ae3660046118a4565b611330565b61023860005481565b600760205260009081526040902080546001820180549192916103de906118ce565b80601f016020809104026020016040519081016040528092919081815260200182805461040a906118ce565b80156104575780601f1061042c57610100808354040283529160200191610457565b820191906000526020600020905b81548152906001019060200180831161043a57829003601f168201915b50505050509080600201805461046c906118ce565b80601f0160208091040260200160405190810160405280929190818152602001828054610498906118ce565b80156104e55780601f106104ba576101008083540402835291602001916104e5565b820191906000526020600020905b8154815290600101906020018083116104c857829003601f168201915b5050505060038301546004840154600585015460068601546007870154600888015460099098015496976001600160a01b0386169760ff600160a01b880481169850600160a81b909704909616958c565b600080600054831061058f5760405162461bcd60e51b815260206004820152601d60248201527f4e6f2070726f706f73616c20657869737420666f72207468697320696400000060448201526064015b60405180910390fd5b60006007600085815260200190815260200160002060405180610180016040529081600082015481526020016001820180546105ca906118ce565b80601f01602080910402602001604051908101604052809291908181526020018280546105f6906118ce565b80156106435780601f1061061857610100808354040283529160200191610643565b820191906000526020600020905b81548152906001019060200180831161062657829003601f168201915b5050505050815260200160028201805461065c906118ce565b80601f0160208091040260200160405190810160405280929190818152602001828054610688906118ce565b80156106d55780601f106106aa576101008083540402835291602001916106d5565b820191906000526020600020905b8154815290600101906020018083116106b857829003601f168201915b505050918352505060038201546001600160a01b038116602083015260ff600160a01b8204811615156040840152600160a81b909104161515606082015260048201546080820152600582015460a0820152600682015460c080830191909152600783015460e08084019190915260088401546101008085019190915260099094015461012090930192909252918301519083015191830151929350600092909161077f9161191e565b610789919061191e565b9050806000036107a0575060009485945092505050565b6000818360c0015160646107b49190611937565b6107be919061194e565b96919550909350505050565b60015460009081526005602052604090206004015442101561081d5760405162461bcd60e51b815260206004820152600c60248201526b139bdd081d1a5b59481e595d60a21b6044820152606401610586565b6004805460408051633fabe5a360e21b8152905160009384936001600160a01b03169263feaf968c928183019260a0928290030181865afa158015610866573d6000803e3d6000fd5b505050506040513d601f19601f8201168201806040525081019061088a919061198a565b5060015460009081526005602052604081206006015493965090945092506103e8916108b991506103ed611937565b6108c3919061194e565b90506000836108da83670de0b6b3a7640000611937565b6108e4919061194e565b6001805491925060006108f6836119da565b91905055506040518060e0016040528060015481526020014381526020018581526020018481526020018462093a8061092f919061191e565b8152602080820184905260409182018590526001805460009081526005808452848220865181559386015184840155858501516002850155606086015160038501556080860151600485015560a08601519084015560c09094015160069092019190915554905183927f0dcfccb38b5d25e85df6a8ee980391679d6fd8c23782bfd0fc5234279ef95fec91a350505050565b6109ca816113bd565b50565b82158015906109db57508015155b610a275760405162461bcd60e51b815260206004820152601860248201527f496e76616c69642070726f706f73616c2064657461696c7300000000000000006044820152606401610586565b6001546000818152600560208181526040808420909201543380855260068352838520958552949091528183205491516309ab24eb60e41b81526004810194909452926001600160a01b037f00000000000000000000000000000000000000000000000000000000000000001690639ab24eb090602401602060405180830381865afa158015610abb573d6000803e3d6000fd5b505050506040513d601f19601f82011682018060405250810190610adf91906119f3565b610ae99190611a0c565b905081811015610b3b5760405162461bcd60e51b815260206004820152600f60248201527f496e73756666696369656e7420565000000000000000000000000000000000006044820152606401610586565b336000908152600660209081526040808320600154845290915281208054849290610b6790849061191e565b92505081905550604051806101800160405280600054815260200187878080601f016020809104026020016040519081016040528093929190818152602001838380828437600092019190915250505090825250604080516020601f880181900481028201810190925286815291810191908790879081908401838280828437600092018290525093855250503360208401525060408201819052606082018190526080820181905260a0820181905260c0820181905260e082015261010001610c34426201518061191e565b81524360209091015260008054600791908180610c50836119da565b90915550815260208082019290925260400160002082518155908201516001820190610c7c9082611a84565b5060408201516002820190610c919082611a84565b506060820151600382018054608085015160a08601511515600160a81b0260ff60a81b19911515600160a01b0274ffffffffffffffffffffffffffffffffffffffffff199093166001600160a01b0390951694909417919091171691909117905560c0820151600482015560e08201516005820155610100820151600682015561012082015160078201556101408201516008820155610160909101516009909101556000543390610d4590600190611a0c565b7f9d1e2d67583a515402aa8aa172389f7bafc951616696ef7473125a9c615f0ae18888604051610d76929190611b44565b60405180910390a3505050505050565b6040516309ab24eb60e41b81523360048201526000907f00000000000000000000000000000000000000000000000000000000000000006001600160a01b031690639ab24eb090602401602060405180830381865afa158015610ded573d6000803e3d6000fd5b505050506040513d601f19601f82011682018060405250810190610e1191906119f3565b11610e5e5760405162461bcd60e51b815260206004820152601d60248201527f496e73756666696369656e742064656c65676174656420746f6b656e730000006044820152606401610586565b60008281526007602052604090206003810154600160a01b900460ff1615610ec85760405162461bcd60e51b815260206004820152601960248201527f50726f706f73616c20616c7265616479206578656375746564000000000000006044820152606401610586565b80600801544210610f1b5760405162461bcd60e51b815260206004820152601060248201527f566f74696e672068617320656e646564000000000000000000000000000000006044820152606401610586565b60028260ff161115610f6f5760405162461bcd60e51b815260206004820152601360248201527f496e76616c696420766f7465206f7074696f6e000000000000000000000000006044820152606401610586565b6009810154604051630748d63560e31b815233600482015260248101919091526000907f00000000000000000000000000000000000000000000000000000000000000006001600160a01b031690633a46b1a890604401602060405180830381865afa158015610fe3573d6000803e3d6000fd5b505050506040513d601f19601f8201168201806040525081019061100791906119f3565b6009830154604051630748d63560e31b815233600482015260248101919091527f00000000000000000000000000000000000000000000000000000000000000006001600160a01b031690633a46b1a890604401602060405180830381865afa158015611078573d6000803e3d6000fd5b505050506040513d601f19601f8201168201806040525081019061109c91906119f3565b6110a6919061191e565b9050600060025482116110b957816110bd565b6002545b9050600060025483116110d15760006110de565b6002546110de9084611a0c565b3360009081526008602090815260408083208a845290915290205490915060ff16156111a25733600090815260096020908152604080832089845290915281205460ff1690819003611149578285600401600082825461113e9190611a0c565b909155506111829050565b8060ff16600103611168578285600501600082825461113e9190611a0c565b8285600601600082825461117c9190611a0c565b90915550505b818560060160008282546111969190611a0c565b909155506111ba915050565b6007840180549060006111b4836119da565b91905055505b3360008181526008602090815260408083208a84528252808320805460ff19908116600117909155938352600982528083208a84529091528120805460ff8916931683179055036112245781846004016000828254611219919061191e565b9091555061125d9050565b8460ff166001036112435781846005016000828254611219919061191e565b81846006016000828254611257919061191e565b90915550505b80846006016000828254611271919061191e565b9091555050604051339087907f10a412bf229fbac2408912cb271b8ff9eb39eb72da91dd0c8accab0fb101113590600090a3505050505050565b600180546000908152600560208181526040808420815160e081018352815481529581015492860192909252600282015490850152600381015460608501526004810154608085018190529181015460a08501526006015460c0840152909190421015611327574281608001516113229190611a0c565b61132a565b60005b91505090565b6003546001600160a01b0364010000000090910416331461135057600080fd5b60008260ff16118015611366575060008160ff16115b61139c5760405162461bcd60e51b8152602060048201526007602482015266125b9d985b1a5960ca1b6044820152606401610586565b6003805460ff93841663ffffffff1990911617919092166201000002179055565b600081815260076020526040902060088101544210156114295760405162461bcd60e51b815260206004820152602160248201527f5468652070726f706f73616c206973207374696c6c206265696e6720766f74656044820152601960fa1b6064820152608401610586565b6000816006015482600501548360040154611444919061191e565b61144e919061191e565b60038301805460ff60a01b1916600160a01b179055604080516318160ddd60e01b815290519192506064916001600160a01b037f000000000000000000000000000000000000000000000000000000000000000016916318160ddd9160048083019260209291908290030181865afa1580156114ce573d6000803e3d6000fd5b505050506040513d601f19601f820116820180604052508101906114f291906119f3565b600354611509919062010000900461ffff16611937565b611513919061194e565b60647f00000000000000000000000000000000000000000000000000000000000000006001600160a01b03166318160ddd6040518163ffffffff1660e01b8152600401602060405180830381865afa158015611573573d6000803e3d6000fd5b505050506040513d601f19601f8201168201806040525081019061159791906119f3565b6003546115a8919061ffff16611937565b6115b2919061194e565b6115bc919061191e565b81106116175760028260060154826115d49190611a0c565b6115de919061194e565b826004015411156116035760038201805460ff60a81b1916600160a81b179055611627565b60038201805460ff60a81b19169055611627565b60038201805460ff60a81b191690555b6003820154604051600160a81b90910460ff1615159084907f948f4a9cd986f1118c3fbd459f7a22b23c0693e1ca3ef06a6a8be5aa7d39cc0390600090a3505050565b60006020828403121561167c57600080fd5b5035919050565b6000815180845260005b818110156116a95760208185018101518683018201520161168d565b506000602082860101526020601f19601f83011685010191505092915050565b60006101808e83528060208401526116e38184018f611683565b905082810360408401526116f7818e611683565b6001600160a01b039c909c1660608401525050971515608089015295151560a088015260c087019490945260e0860192909252610100850152610120840152610140830152610160909101529392505050565b80356001600160a01b038116811461176157600080fd5b919050565b60006020828403121561177857600080fd5b6117818261174a565b9392505050565b6000806040838503121561179b57600080fd5b6117a48361174a565b946020939093013593505050565b60008083601f8401126117c457600080fd5b50813567ffffffffffffffff8111156117dc57600080fd5b6020830191508360208285010111156117f457600080fd5b9250929050565b6000806000806040858703121561181157600080fd5b843567ffffffffffffffff8082111561182957600080fd5b611835888389016117b2565b9096509450602087013591508082111561184e57600080fd5b5061185b878288016117b2565b95989497509550505050565b803560ff8116811461176157600080fd5b6000806040838503121561188b57600080fd5b8235915061189b60208401611867565b90509250929050565b600080604083850312156118b757600080fd5b6118c083611867565b915061189b60208401611867565b600181811c908216806118e257607f821691505b60208210810361190257634e487b7160e01b600052602260045260246000fd5b50919050565b634e487b7160e01b600052601160045260246000fd5b8082018082111561193157611931611908565b92915050565b808202811582820484141761193157611931611908565b60008261196b57634e487b7160e01b600052601260045260246000fd5b500490565b805169ffffffffffffffffffff8116811461176157600080fd5b600080600080600060a086880312156119a257600080fd5b6119ab86611970565b94506020860151935060408601519250606086015191506119ce60808701611970565b90509295509295909350565b6000600182016119ec576119ec611908565b5060010190565b600060208284031215611a0557600080fd5b5051919050565b8181038181111561193157611931611908565b634e487b7160e01b600052604160045260246000fd5b601f821115611a7f57600081815260208120601f850160051c81016020861015611a5c5750805b601f850160051c820191505b81811015611a7b57828155600101611a68565b5050505b505050565b815167ffffffffffffffff811115611a9e57611a9e611a1f565b611ab281611aac84546118ce565b84611a35565b602080601f831160018114611ae75760008415611acf5750858301515b600019600386901b1c1916600185901b178555611a7b565b600085815260208120601f198616915b82811015611b1657888601518255948401946001909101908401611af7565b5085821015611b345787850151600019600388901b60f8161c191681555b5050505050600190811b01905550565b60208152816020820152818360408301376000818301604090810191909152601f909201601f1916010191905056fea26469706673582212208780ea51d7c929c158af60d3ac3114bf81b3ce61836c40851323e3a5128a48c764736f6c63430008140033",
  "linkReferences": {},
  "deployedLinkReferences": {}
}