{
  "_format": "hh-sol-artifact-1",
  "contractName": "Liblock",
  "sourceName": "contracts/LIB.sol",
  "abi": [
    {
      "inputs": [],
      "stateMutability": "nonpayable",
      "type": "constructor"
    },
    {
      "inputs": [],
      "name": "InvalidShortString",
      "type": "error"
    },
    {
      "inputs": [
        {
          "internalType": "string",
          "name": "str",
          "type": "string"
        }
      ],
      "name": "StringTooLong",
      "type": "error"
    },
    {
      "anonymous": false,
      "inputs": [
        {
          "indexed": true,
          "internalType": "address",
          "name": "owner",
          "type": "address"
        },
        {
          "indexed": true,
          "internalType": "address",
          "name": "spender",
          "type": "address"
        },
        {
          "indexed": false,
          "internalType": "uint256",
          "name": "value",
          "type": "uint256"
        }
      ],
      "name": "Approval",
      "type": "event"
    },
    {
      "anonymous": false,
      "inputs": [
        {
          "indexed": true,
          "internalType": "address",
          "name": "delegator",
          "type": "address"
        },
        {
          "indexed": true,
          "internalType": "address",
          "name": "fromDelegate",
          "type": "address"
        },
        {
          "indexed": true,
          "internalType": "address",
          "name": "toDelegate",
          "type": "address"
        }
      ],
      "name": "DelegateChanged",
      "type": "event"
    },
    {
      "anonymous": false,
      "inputs": [
        {
          "indexed": true,
          "internalType": "address",
          "name": "delegate",
          "type": "address"
        },
        {
          "indexed": false,
          "internalType": "uint256",
          "name": "previousBalance",
          "type": "uint256"
        },
        {
          "indexed": false,
          "internalType": "uint256",
          "name": "newBalance",
          "type": "uint256"
        }
      ],
      "name": "DelegateVotesChanged",
      "type": "event"
    },
    {
      "anonymous": false,
      "inputs": [],
      "name": "EIP712DomainChanged",
      "type": "event"
    },
    {
      "anonymous": false,
      "inputs": [
        {
          "indexed": true,
          "internalType": "address",
          "name": "from",
          "type": "address"
        },
        {
          "indexed": true,
          "internalType": "address",
          "name": "to",
          "type": "address"
        },
        {
          "indexed": false,
          "internalType": "uint256",
          "name": "value",
          "type": "uint256"
        }
      ],
      "name": "Transfer",
      "type": "event"
    },
    {
      "inputs": [],
      "name": "CLOCK_MODE",
      "outputs": [
        {
          "internalType": "string",
          "name": "",
          "type": "string"
        }
      ],
      "stateMutability": "view",
      "type": "function"
    },
    {
      "inputs": [],
      "name": "DOMAIN_SEPARATOR",
      "outputs": [
        {
          "internalType": "bytes32",
          "name": "",
          "type": "bytes32"
        }
      ],
      "stateMutability": "view",
      "type": "function"
    },
    {
      "inputs": [
        {
          "internalType": "address",
          "name": "owner",
          "type": "address"
        },
        {
          "internalType": "address",
          "name": "spender",
          "type": "address"
        }
      ],
      "name": "allowance",
      "outputs": [
        {
          "internalType": "uint256",
          "name": "",
          "type": "uint256"
        }
      ],
      "stateMutability": "view",
      "type": "function"
    },
    {
      "inputs": [
        {
          "internalType": "address",
          "name": "spender",
          "type": "address"
        },
        {
          "internalType": "uint256",
          "name": "amount",
          "type": "uint256"
        }
      ],
      "name": "approve",
      "outputs": [
        {
          "internalType": "bool",
          "name": "",
          "type": "bool"
        }
      ],
      "stateMutability": "nonpayable",
      "type": "function"
    },
    {
      "inputs": [
        {
          "internalType": "address",
          "name": "account",
          "type": "address"
        }
      ],
      "name": "balanceOf",
      "outputs": [
        {
          "internalType": "uint256",
          "name": "",
          "type": "uint256"
        }
      ],
      "stateMutability": "view",
      "type": "function"
    },
    {
      "inputs": [
        {
          "internalType": "uint256",
          "name": "amount",
          "type": "uint256"
        }
      ],
      "name": "burn",
      "outputs": [],
      "stateMutability": "nonpayable",
      "type": "function"
    },
    {
      "inputs": [
        {
          "internalType": "address",
          "name": "account",
          "type": "address"
        },
        {
          "internalType": "uint256",
          "name": "amount",
          "type": "uint256"
        }
      ],
      "name": "burnFrom",
      "outputs": [],
      "stateMutability": "nonpayable",
      "type": "function"
    },
    {
      "inputs": [
        {
          "internalType": "address",
          "name": "account",
          "type": "address"
        },
        {
          "internalType": "uint32",
          "name": "pos",
          "type": "uint32"
        }
      ],
      "name": "checkpoints",
      "outputs": [
        {
          "components": [
            {
              "internalType": "uint32",
              "name": "fromBlock",
              "type": "uint32"
            },
            {
              "internalType": "uint224",
              "name": "votes",
              "type": "uint224"
            }
          ],
          "internalType": "struct ERC20Votes.Checkpoint",
          "name": "",
          "type": "tuple"
        }
      ],
      "stateMutability": "view",
      "type": "function"
    },
    {
      "inputs": [],
      "name": "clock",
      "outputs": [
        {
          "internalType": "uint48",
          "name": "",
          "type": "uint48"
        }
      ],
      "stateMutability": "view",
      "type": "function"
    },
    {
      "inputs": [],
      "name": "decimals",
      "outputs": [
        {
          "internalType": "uint8",
          "name": "",
          "type": "uint8"
        }
      ],
      "stateMutability": "view",
      "type": "function"
    },
    {
      "inputs": [
        {
          "internalType": "address",
          "name": "spender",
          "type": "address"
        },
        {
          "internalType": "uint256",
          "name": "subtractedValue",
          "type": "uint256"
        }
      ],
      "name": "decreaseAllowance",
      "outputs": [
        {
          "internalType": "bool",
          "name": "",
          "type": "bool"
        }
      ],
      "stateMutability": "nonpayable",
      "type": "function"
    },
    {
      "inputs": [
        {
          "internalType": "address",
          "name": "delegatee",
          "type": "address"
        }
      ],
      "name": "delegate",
      "outputs": [],
      "stateMutability": "nonpayable",
      "type": "function"
    },
    {
      "inputs": [
        {
          "internalType": "address",
          "name": "delegatee",
          "type": "address"
        },
        {
          "internalType": "uint256",
          "name": "nonce",
          "type": "uint256"
        },
        {
          "internalType": "uint256",
          "name": "expiry",
          "type": "uint256"
        },
        {
          "internalType": "uint8",
          "name": "v",
          "type": "uint8"
        },
        {
          "internalType": "bytes32",
          "name": "r",
          "type": "bytes32"
        },
        {
          "internalType": "bytes32",
          "name": "s",
          "type": "bytes32"
        }
      ],
      "name": "delegateBySig",
      "outputs": [],
      "stateMutability": "nonpayable",
      "type": "function"
    },
    {
      "inputs": [
        {
          "internalType": "address",
          "name": "delegator",
          "type": "address"
        },
        {
          "internalType": "address",
          "name": "delegatee",
          "type": "address"
        }
      ],
      "name": "delegateFrom",
      "outputs": [],
      "stateMutability": "nonpayable",
      "type": "function"
    },
    {
      "inputs": [
        {
          "internalType": "address",
          "name": "account",
          "type": "address"
        }
      ],
      "name": "delegates",
      "outputs": [
        {
          "internalType": "address",
          "name": "",
          "type": "address"
        }
      ],
      "stateMutability": "view",
      "type": "function"
    },
    {
      "inputs": [],
      "name": "eip712Domain",
      "outputs": [
        {
          "internalType": "bytes1",
          "name": "fields",
          "type": "bytes1"
        },
        {
          "internalType": "string",
          "name": "name",
          "type": "string"
        },
        {
          "internalType": "string",
          "name": "version",
          "type": "string"
        },
        {
          "internalType": "uint256",
          "name": "chainId",
          "type": "uint256"
        },
        {
          "internalType": "address",
          "name": "verifyingContract",
          "type": "address"
        },
        {
          "internalType": "bytes32",
          "name": "salt",
          "type": "bytes32"
        },
        {
          "internalType": "uint256[]",
          "name": "extensions",
          "type": "uint256[]"
        }
      ],
      "stateMutability": "view",
      "type": "function"
    },
    {
      "inputs": [
        {
          "internalType": "uint256",
          "name": "timepoint",
          "type": "uint256"
        }
      ],
      "name": "getPastTotalSupply",
      "outputs": [
        {
          "internalType": "uint256",
          "name": "",
          "type": "uint256"
        }
      ],
      "stateMutability": "view",
      "type": "function"
    },
    {
      "inputs": [
        {
          "internalType": "address",
          "name": "account",
          "type": "address"
        },
        {
          "internalType": "uint256",
          "name": "timepoint",
          "type": "uint256"
        }
      ],
      "name": "getPastVotes",
      "outputs": [
        {
          "internalType": "uint256",
          "name": "",
          "type": "uint256"
        }
      ],
      "stateMutability": "view",
      "type": "function"
    },
    {
      "inputs": [
        {
          "internalType": "address",
          "name": "account",
          "type": "address"
        }
      ],
      "name": "getVotes",
      "outputs": [
        {
          "internalType": "uint256",
          "name": "",
          "type": "uint256"
        }
      ],
      "stateMutability": "view",
      "type": "function"
    },
    {
      "inputs": [
        {
          "internalType": "address",
          "name": "spender",
          "type": "address"
        },
        {
          "internalType": "uint256",
          "name": "addedValue",
          "type": "uint256"
        }
      ],
      "name": "increaseAllowance",
      "outputs": [
        {
          "internalType": "bool",
          "name": "",
          "type": "bool"
        }
      ],
      "stateMutability": "nonpayable",
      "type": "function"
    },
    {
      "inputs": [
        {
          "internalType": "address",
          "name": "account",
          "type": "address"
        }
      ],
      "name": "isAdmin",
      "outputs": [
        {
          "internalType": "bool",
          "name": "",
          "type": "bool"
        }
      ],
      "stateMutability": "view",
      "type": "function"
    },
    {
      "inputs": [
        {
          "internalType": "address",
          "name": "account",
          "type": "address"
        }
      ],
      "name": "isModerator",
      "outputs": [
        {
          "internalType": "bool",
          "name": "",
          "type": "bool"
        }
      ],
      "stateMutability": "view",
      "type": "function"
    },
    {
      "inputs": [],
      "name": "name",
      "outputs": [
        {
          "internalType": "string",
          "name": "",
          "type": "string"
        }
      ],
      "stateMutability": "view",
      "type": "function"
    },
    {
      "inputs": [
        {
          "internalType": "address",
          "name": "owner",
          "type": "address"
        }
      ],
      "name": "nonces",
      "outputs": [
        {
          "internalType": "uint256",
          "name": "",
          "type": "uint256"
        }
      ],
      "stateMutability": "view",
      "type": "function"
    },
    {
      "inputs": [
        {
          "internalType": "address",
          "name": "account",
          "type": "address"
        }
      ],
      "name": "numCheckpoints",
      "outputs": [
        {
          "internalType": "uint32",
          "name": "",
          "type": "uint32"
        }
      ],
      "stateMutability": "view",
      "type": "function"
    },
    {
      "inputs": [
        {
          "internalType": "address",
          "name": "owner",
          "type": "address"
        },
        {
          "internalType": "address",
          "name": "spender",
          "type": "address"
        },
        {
          "internalType": "uint256",
          "name": "value",
          "type": "uint256"
        },
        {
          "internalType": "uint256",
          "name": "deadline",
          "type": "uint256"
        },
        {
          "internalType": "uint8",
          "name": "v",
          "type": "uint8"
        },
        {
          "internalType": "bytes32",
          "name": "r",
          "type": "bytes32"
        },
        {
          "internalType": "bytes32",
          "name": "s",
          "type": "bytes32"
        }
      ],
      "name": "permit",
      "outputs": [],
      "stateMutability": "nonpayable",
      "type": "function"
    },
    {
      "inputs": [
        {
          "internalType": "address",
          "name": "account",
          "type": "address"
        }
      ],
      "name": "setAdmin",
      "outputs": [],
      "stateMutability": "nonpayable",
      "type": "function"
    },
    {
      "inputs": [
        {
          "internalType": "address",
          "name": "_address",
          "type": "address"
        }
      ],
      "name": "setDistributionContract",
      "outputs": [],
      "stateMutability": "nonpayable",
      "type": "function"
    },
    {
      "inputs": [
        {
          "internalType": "address",
          "name": "_address",
          "type": "address"
        },
        {
          "internalType": "bool",
          "name": "_excluded",
          "type": "bool"
        }
      ],
      "name": "setFeeExcludedAddress",
      "outputs": [],
      "stateMutability": "nonpayable",
      "type": "function"
    },
    {
      "inputs": [
        {
          "internalType": "address",
          "name": "_devWallet",
          "type": "address"
        },
        {
          "internalType": "address",
          "name": "_distributionContract",
          "type": "address"
        },
        {
          "internalType": "uint8",
          "name": "_devWalletShares",
          "type": "uint8"
        },
        {
          "internalType": "uint8",
          "name": "_distributionContractShares",
          "type": "uint8"
        },
        {
          "internalType": "uint8",
          "name": "_liblockFondationWalletShares",
          "type": "uint8"
        },
        {
          "internalType": "uint8",
          "name": "_zeroAdressShares",
          "type": "uint8"
        }
      ],
      "name": "setFeeRecipientsAndShares",
      "outputs": [],
      "stateMutability": "nonpayable",
      "type": "function"
    },
    {
      "inputs": [
        {
          "internalType": "address",
          "name": "account",
          "type": "address"
        }
      ],
      "name": "setModerator",
      "outputs": [],
      "stateMutability": "nonpayable",
      "type": "function"
    },
    {
      "inputs": [],
      "name": "symbol",
      "outputs": [
        {
          "internalType": "string",
          "name": "",
          "type": "string"
        }
      ],
      "stateMutability": "view",
      "type": "function"
    },
    {
      "inputs": [],
      "name": "totalSupply",
      "outputs": [
        {
          "internalType": "uint256",
          "name": "",
          "type": "uint256"
        }
      ],
      "stateMutability": "view",
      "type": "function"
    },
    {
      "inputs": [
        {
          "internalType": "address",
          "name": "to",
          "type": "address"
        },
        {
          "internalType": "uint256",
          "name": "amount",
          "type": "uint256"
        }
      ],
      "name": "transfer",
      "outputs": [
        {
          "internalType": "bool",
          "name": "",
          "type": "bool"
        }
      ],
      "stateMutability": "nonpayable",
      "type": "function"
    },
    {
      "inputs": [
        {
          "internalType": "address",
          "name": "from",
          "type": "address"
        },
        {
          "internalType": "address",
          "name": "to",
          "type": "address"
        },
        {
          "internalType": "uint256",
          "name": "amount",
          "type": "uint256"
        }
      ],
      "name": "transferFrom",
      "outputs": [
        {
          "internalType": "bool",
          "name": "",
          "type": "bool"
        }
      ],
      "stateMutability": "nonpayable",
      "type": "function"
    }
  ],
  "bytecode": "0x610160604052600e80546001600160a01b0319167305525cde529c5212f1eab7f033146c8cc103cd5d179055601080546612c032009c401960a21b600160a01b600160e01b03199091161790553480156200005957600080fd5b50604051806040016040528060078152602001664c69626c6f636b60c81b81525080604051806040016040528060018152602001603160f81b815250604051806040016040528060078152602001664c69626c6f636b60c81b815250604051806040016040528060038152602001622624a160e91b8152508160039081620000e291906200095c565b506004620000f182826200095c565b5062000103915083905060056200022b565b61012052620001148160066200022b565b61014052815160208084019190912060e052815190820120610100524660a052620001a260e05161010051604080517f8b73c3c69bb8fe3d512ecc4cf759cc79239f7b179b0ffacaa9a75d522b39400f60208201529081019290925260608201524660808201523060a082015260009060c00160405160208183030381529060405280519060200120905090565b60805250503060c0819052620001d79150620001c16012600a62000b3b565b620001d190630470c7a062000b4c565b62000264565b620001f933620001ea6012600a62000b3b565b620001d1906207a12062000b4c565b600c8054336001600160a01b03199182168117909255600d805482168317905560108054909116909117905562000c07565b60006020835110156200024b57620002438362000274565b90506200025e565b816200025884826200095c565b5060ff90505b92915050565b620002708282620002c0565b5050565b600080829050601f81511115620002ab578260405163305a27a960e01b8152600401620002a2919062000b66565b60405180910390fd5b8051620002b88262000bb6565b179392505050565b620002cc828262000368565b6001600160e01b03620002e0620004358216565b1115620003495760405162461bcd60e51b815260206004820152603060248201527f4552433230566f7465733a20746f74616c20737570706c79207269736b73206f60448201526f766572666c6f77696e6720766f74657360801b6064820152608401620002a2565b62000362600b620013836200043b60201b178362000450565b50505050565b6001600160a01b038216620003c05760405162461bcd60e51b815260206004820152601f60248201527f45524332303a206d696e7420746f20746865207a65726f2061646472657373006044820152606401620002a2565b8060026000828254620003d4919062000bdb565b90915550506001600160a01b038216600081815260208181526040808320805486019055518481527fddf252ad1be2c89b69c2b068fc378daa952ba7f163c4a11628f55a4df523b3ef910160405180910390a36200027060008383620005dd565b60025490565b600062000449828462000bdb565b9392505050565b825460009081908181156200049f5760008781526020902082016000190160408051808201909152905463ffffffff8116825264010000000090046001600160e01b03166020820152620004b4565b60408051808201909152600080825260208201525b905080602001516001600160e01b03169350620004d284868860201c565b9250600082118015620004ff5750620004ea620005ea565b65ffffffffffff16816000015163ffffffff16145b1562000548576200051083620005fc565b60008881526020902083016000190180546001600160e01b03929092166401000000000263ffffffff909216919091179055620005ce565b8660405180604001604052806200057662000568620005ea60201b60201c565b65ffffffffffff166200066b565b63ffffffff1681526020016200058c86620005fc565b6001600160e01b0390811690915282546001810184556000938452602093849020835194909301519091166401000000000263ffffffff909316929092179101555b5050935093915050565b505050565b620005d8838383620006d2565b6000620005f74362000706565b905090565b60006001600160e01b03821115620006675760405162461bcd60e51b815260206004820152602760248201527f53616665436173743a2076616c756520646f65736e27742066697420696e20326044820152663234206269747360c81b6064820152608401620002a2565b5090565b600063ffffffff821115620006675760405162461bcd60e51b815260206004820152602660248201527f53616665436173743a2076616c756520646f65736e27742066697420696e203360448201526532206269747360d01b6064820152608401620002a2565b6001600160a01b03838116600090815260096020526040808220548584168352912054620005d8929182169116836200076f565b600065ffffffffffff821115620006675760405162461bcd60e51b815260206004820152602660248201527f53616665436173743a2076616c756520646f65736e27742066697420696e203460448201526538206269747360d01b6064820152608401620002a2565b816001600160a01b0316836001600160a01b031614158015620007925750600081115b15620005d8576001600160a01b038316156200081f576001600160a01b0383166000908152600a6020908152604082208291620007dc9190620008aa901b6200138f178562000450565b91509150846001600160a01b0316600080516020620039e4833981519152838360405162000814929190918252602082015260400190565b60405180910390a250505b6001600160a01b03821615620005d8576001600160a01b0382166000908152600a60209081526040822082916200086391906200043b901b62001383178562000450565b91509150836001600160a01b0316600080516020620039e483398151915283836040516200089b929190918252602082015260400190565b60405180910390a25050505050565b600062000449828462000bf1565b634e487b7160e01b600052604160045260246000fd5b600181811c90821680620008e357607f821691505b6020821081036200090457634e487b7160e01b600052602260045260246000fd5b50919050565b601f821115620005d857600081815260208120601f850160051c81016020861015620009335750805b601f850160051c820191505b8181101562000954578281556001016200093f565b505050505050565b81516001600160401b03811115620009785762000978620008b8565b6200099081620009898454620008ce565b846200090a565b602080601f831160018114620009c85760008415620009af5750858301515b600019600386901b1c1916600185901b17855562000954565b600085815260208120601f198616915b82811015620009f957888601518255948401946001909101908401620009d8565b508582101562000a185787850151600019600388901b60f8161c191681555b5050505050600190811b01905550565b634e487b7160e01b600052601160045260246000fd5b600181815b8085111562000a7f57816000190482111562000a635762000a6362000a28565b8085161562000a7157918102915b93841c939080029062000a43565b509250929050565b60008262000a98575060016200025e565b8162000aa7575060006200025e565b816001811462000ac0576002811462000acb5762000aeb565b60019150506200025e565b60ff84111562000adf5762000adf62000a28565b50506001821b6200025e565b5060208310610133831016604e8410600b841016171562000b10575081810a6200025e565b62000b1c838362000a3e565b806000190482111562000b335762000b3362000a28565b029392505050565b60006200044960ff84168362000a87565b80820281158282048414176200025e576200025e62000a28565b600060208083528351808285015260005b8181101562000b955785810183015185820160400152820162000b77565b506000604082860101526040601f19601f8301168501019250505092915050565b80516020808301519190811015620009045760001960209190910360031b1b16919050565b808201808211156200025e576200025e62000a28565b818103818111156200025e576200025e62000a28565b60805160a05160c05160e051610100516101205161014051612d8262000c626000396000610d5401526000610d290152600061187c01526000611854015260006117af015260006117d9015260006118030152612d826000f3fe608060405234801561001057600080fd5b50600436106102115760003560e01c8063704b6c02116101255780639ab24eb0116100ad578063d505accf1161007c578063d505accf146104c6578063dd62ed3e146104d9578063e7a764ef14610512578063f1127ed814610525578063fa6f39361461056257600080fd5b80639ab24eb01461047a578063a457c2d71461048d578063a9059cbb146104a0578063c3cda520146104b357600080fd5b80637ecebe00116100f45780637ecebe001461041257806384b0196e146104255780638e539e8c1461044057806391ddadf41461045357806395d89b411461047257600080fd5b8063704b6c02146103b057806370a08231146103c357806375bba189146103ec57806379cc6790146103ff57600080fd5b80633644e515116101a8578063480edfe611610177578063480edfe6146103165780634bf5d7e914610329578063587cde1e146103315780635c19a95c146103755780636fcfff451461038857600080fd5b80633644e515146102d557806339509351146102dd5780633a46b1a8146102f057806342966c681461030357600080fd5b806324d7806c116101e457806324d7806c1461027c5780632949582d1461029e5780632ad0ad09146102b3578063313ce567146102c657600080fd5b806306fdde0314610216578063095ea7b31461023457806318160ddd1461025757806323b872dd14610269575b600080fd5b61021e610584565b60405161022b91906128ee565b60405180910390f35b610247610242366004612918565b610616565b604051901515815260200161022b565b6002545b60405190815260200161022b565b610247610277366004612942565b610630565b61024761028a36600461297e565b600c546001600160a01b0390811691161490565b6102b16102ac366004612999565b610654565b005b6102b16102c13660046129cc565b610745565b6040516012815260200161022b565b61025b6107da565b6102476102eb366004612918565b6107e9565b61025b6102fe366004612918565b610828565b6102b1610311366004612a08565b6108b1565b6102b1610324366004612a32565b6108be565b61021e610a2c565b61035d61033f36600461297e565b6001600160a01b039081166000908152600960205260409020541690565b6040516001600160a01b03909116815260200161022b565b6102b161038336600461297e565b610ac4565b61039b61039636600461297e565b610ace565b60405163ffffffff909116815260200161022b565b6102b16103be36600461297e565b610af0565b61025b6103d136600461297e565b6001600160a01b031660009081526020819052604090205490565b6102b16103fa36600461297e565b610bea565b6102b161040d366004612918565b610ce8565b61025b61042036600461297e565b610cfd565b61042d610d1b565b60405161022b9796959493929190612aa6565b61025b61044e366004612a08565b610da4565b61045b610e0f565b60405165ffffffffffff909116815260200161022b565b61021e610e1a565b61025b61048836600461297e565b610e29565b61024761049b366004612918565b610eab565b6102476104ae366004612918565b610f3d565b6102b16104c1366004612b3c565b610f4b565b6102b16104d4366004612b94565b611081565b61025b6104e7366004612999565b6001600160a01b03918216600090815260016020908152604080832093909416825291909152205490565b6102b161052036600461297e565b6111e5565b610538610533366004612bfe565b6112ff565b60408051825163ffffffff1681526020928301516001600160e01b0316928101929092520161022b565b61024761057036600461297e565b600d546001600160a01b0390811691161490565b60606003805461059390612c33565b80601f01602080910402602001604051908101604052809291908181526020018280546105bf90612c33565b801561060c5780601f106105e15761010080835404028352916020019161060c565b820191906000526020600020905b8154815290600101906020018083116105ef57829003601f168201915b5050505050905090565b60003361062481858561139b565b60019150505b92915050565b60003361063e8582856114bf565b610649858585611551565b506001949350505050565b600c546001600160a01b0316331461069f5760405162461bcd60e51b81526020600482015260096024820152682737ba1030b236b4b760b91b60448201526064015b60405180910390fd5b6001600160a01b0382166106f55760405162461bcd60e51b815260206004820152601f60248201527f44656c656761746f722063616e2774206265207a65726f2061646472657373006044820152606401610696565b306001600160a01b038316036107375760405162461bcd60e51b8152602060048201526007602482015266125b1b1959d85b60ca1b6044820152606401610696565b6107418282611729565b5050565b600c546001600160a01b0316331461078b5760405162461bcd60e51b81526020600482015260096024820152682737ba1030b236b4b760b91b6044820152606401610696565b80156107b8576001600160a01b0382166000908152601160205260409020805460ff191660011790555050565b506001600160a01b03166000908152601160205260409020805460ff19169055565b60006107e46117a2565b905090565b3360008181526001602090815260408083206001600160a01b03871684529091528120549091906106249082908690610823908790612c7d565b61139b565b6000610832610e0f565b65ffffffffffff1682106108885760405162461bcd60e51b815260206004820152601960248201527f4552433230566f7465733a20667574757265206c6f6f6b7570000000000000006044820152606401610696565b6001600160a01b0383166000908152600a602052604090206108aa90836118cd565b9392505050565b6108bb33826119b6565b50565b600d546001600160a01b031633146109085760405162461bcd60e51b815260206004820152600d60248201526c2737ba1036b7b232b930ba37b960991b6044820152606401610696565b80826109148587612c90565b61091e9190612c90565b6109289190612c90565b60ff166103e8146109875760405162461bcd60e51b815260206004820152602360248201527f43756d6d756c6174656420736861726573206e6f7420657175616c20746f203160448201526203030360ec1b6064820152608401610696565b600e80546001600160a01b03199081166001600160a01b0398891617909155600f805490911695909616949094179094556010805475ffffffffffffffffffffffffffffffffffffffffffff19163361ffff60a01b19161760ff938416600160a01b021763ffffffff60b01b1916918316600160b01b0261ffff60c01b191691909117938216600160c01b029390931761ffff60d01b19169116600160d01b02179055565b606043610a37610e0f565b65ffffffffffff1614610a8c5760405162461bcd60e51b815260206004820152601d60248201527f4552433230566f7465733a2062726f6b656e20636c6f636b206d6f64650000006044820152606401610696565b5060408051808201909152601d81527f6d6f64653d626c6f636b6e756d6265722666726f6d3d64656661756c74000000602082015290565b6108bb3382611729565b6001600160a01b0381166000908152600a602052604081205461062a906119c0565b600c546001600160a01b03163314610b365760405162461bcd60e51b81526020600482015260096024820152682737ba1030b236b4b760b91b6044820152606401610696565b6001600160a01b038116610b7e5760405162461bcd60e51b815260206004820152600f60248201526e496e76616c6964206164647265737360881b6044820152606401610696565b306001600160a01b03821603610bc85760405162461bcd60e51b815260206004820152600f60248201526e496e76616c6964206164647265737360881b6044820152606401610696565b600c80546001600160a01b0319166001600160a01b0392909216919091179055565b600d546001600160a01b03163314610c345760405162461bcd60e51b815260206004820152600d60248201526c2737ba1036b7b232b930ba37b960991b6044820152606401610696565b6001600160a01b038116610c7c5760405162461bcd60e51b815260206004820152600f60248201526e496e76616c6964206164647265737360881b6044820152606401610696565b306001600160a01b03821603610cc65760405162461bcd60e51b815260206004820152600f60248201526e496e76616c6964206164647265737360881b6044820152606401610696565b600d80546001600160a01b0319166001600160a01b0392909216919091179055565b610cf38233836114bf565b61074182826119b6565b6001600160a01b03811660009081526007602052604081205461062a565b600060608082808083610d4f7f00000000000000000000000000000000000000000000000000000000000000006005611a29565b610d7a7f00000000000000000000000000000000000000000000000000000000000000006006611a29565b60408051600080825260208201909252600f60f81b9b939a50919850469750309650945092509050565b6000610dae610e0f565b65ffffffffffff168210610e045760405162461bcd60e51b815260206004820152601960248201527f4552433230566f7465733a20667574757265206c6f6f6b7570000000000000006044820152606401610696565b61062a600b836118cd565b60006107e443611ad4565b60606004805461059390612c33565b6001600160a01b0381166000908152600a60205260408120548015610e98576001600160a01b0383166000908152600a6020526040902080546000198301908110610e7657610e76612ca9565b60009182526020909120015464010000000090046001600160e01b0316610e9b565b60005b6001600160e01b03169392505050565b3360008181526001602090815260408083206001600160a01b038716845290915281205490919083811015610f305760405162461bcd60e51b815260206004820152602560248201527f45524332303a2064656372656173656420616c6c6f77616e63652062656c6f77604482015264207a65726f60d81b6064820152608401610696565b610649828686840361139b565b600033610624818585611551565b83421115610f9b5760405162461bcd60e51b815260206004820152601d60248201527f4552433230566f7465733a207369676e617475726520657870697265640000006044820152606401610696565b604080517fe48329057bfd03d55e49b547132e39cffd9c1820ad7b9d4c5307691425d15adf60208201526001600160a01b0388169181019190915260608101869052608081018590526000906110159061100d9060a00160405160208183030381529060405280519060200120611b3b565b858585611b68565b905061102081611b90565b861461106e5760405162461bcd60e51b815260206004820152601960248201527f4552433230566f7465733a20696e76616c6964206e6f6e6365000000000000006044820152606401610696565b6110788188611729565b50505050505050565b834211156110d15760405162461bcd60e51b815260206004820152601d60248201527f45524332305065726d69743a206578706972656420646561646c696e650000006044820152606401610696565b60007f6e71edae12b1b97f4d1f60370fef10105fa2faae0126114a169c64845d6126c98888886111008c611b90565b6040805160208101969096526001600160a01b0394851690860152929091166060840152608083015260a082015260c0810186905260e001604051602081830303815290604052805190602001209050600061115b82611b3b565b9050600061116b82878787611b68565b9050896001600160a01b0316816001600160a01b0316146111ce5760405162461bcd60e51b815260206004820152601e60248201527f45524332305065726d69743a20696e76616c6964207369676e617475726500006044820152606401610696565b6111d98a8a8a61139b565b50505050505050505050565b600d546001600160a01b0316331461122f5760405162461bcd60e51b815260206004820152600d60248201526c2737ba1036b7b232b930ba37b960991b6044820152606401610696565b6001600160a01b0381166112855760405162461bcd60e51b815260206004820152601560248201527f43616e206e6f74207365742061646472657373203000000000000000000000006044820152606401610696565b306001600160a01b038216036112dd5760405162461bcd60e51b815260206004820152601960248201527f43616e206e6f7420736574207468697320636f6e7472616374000000000000006044820152606401610696565b600f80546001600160a01b0319166001600160a01b0392909216919091179055565b60408051808201909152600080825260208201526001600160a01b0383166000908152600a60205260409020805463ffffffff841690811061134357611343612ca9565b60009182526020918290206040805180820190915291015463ffffffff8116825264010000000090046001600160e01b0316918101919091529392505050565b60006108aa8284612c7d565b60006108aa8284612cbf565b6001600160a01b0383166113fd5760405162461bcd60e51b8152602060048201526024808201527f45524332303a20617070726f76652066726f6d20746865207a65726f206164646044820152637265737360e01b6064820152608401610696565b6001600160a01b03821661145e5760405162461bcd60e51b815260206004820152602260248201527f45524332303a20617070726f766520746f20746865207a65726f206164647265604482015261737360f01b6064820152608401610696565b6001600160a01b0383811660008181526001602090815260408083209487168084529482529182902085905590518481527f8c5be1e5ebec7d5bd14f71427d1e84f3dd0314c0f7b2291e5b200ac8c7c3b925910160405180910390a3505050565b6001600160a01b03838116600090815260016020908152604080832093861683529290522054600019811461154b578181101561153e5760405162461bcd60e51b815260206004820152601d60248201527f45524332303a20696e73756666696369656e7420616c6c6f77616e63650000006044820152606401610696565b61154b848484840361139b565b50505050565b6001600160a01b03831660009081526011602052604090205460ff168061159057506001600160a01b03821660009081526011602052604090205460ff165b156115a5576115a0838383611bb8565b505050565b60006115b082611d62565b90506326be36808163ffffffff161061160b5760405162461bcd60e51b815260206004820152601660248201527f4d61782066656520616d6f756e742072656163686564000000000000000000006044820152606401610696565b6000620f424061161d6103e884612ce8565b61162d9063ffffffff1685612d0b565b6116379190612d22565b905060006116458285612cbf565b9050611652868683611bb8565b600e546010546116929188916001600160a01b03909116906103e89061168390600160a01b900461ffff1687612d0b565b61168d9190612d22565b611bb8565b600f546010546116c39188916001600160a01b03909116906103e89061168390600160b01b900461ffff1687612d0b565b6010546116f09087906001600160a01b038116906103e89061168390600160c01b900461ffff1687612d0b565b6010546117219087906103e89061171290600160d01b900461ffff1686612d0b565b61171c9190612d22565b611fdd565b505050505050565b6001600160a01b038281166000818152600960208181526040808420805485845282862054949093528787166001600160a01b03198416811790915590519190951694919391928592917f3134e8a2e6d97e929a7e54011ea5485d7d196dd5f0ba4d4ef95803e8e3fc257f9190a461154b828483611ff5565b6000306001600160a01b037f0000000000000000000000000000000000000000000000000000000000000000161480156117fb57507f000000000000000000000000000000000000000000000000000000000000000046145b1561182557507f000000000000000000000000000000000000000000000000000000000000000090565b6107e4604080517f8b73c3c69bb8fe3d512ecc4cf759cc79239f7b179b0ffacaa9a75d522b39400f60208201527f0000000000000000000000000000000000000000000000000000000000000000918101919091527f000000000000000000000000000000000000000000000000000000000000000060608201524660808201523060a082015260009060c00160405160208183030381529060405280519060200120905090565b8154600090818160058111156119275760006118e884612132565b6118f29085612cbf565b600088815260209020909150869082015463ffffffff16111561191757809150611925565b611922816001612c7d565b92505b505b8082101561197457600061193b838361221a565b600088815260209020909150869082015463ffffffff1611156119605780915061196e565b61196b816001612c7d565b92505b50611927565b80156119a0576000868152602090208101600019015464010000000090046001600160e01b03166119a3565b60005b6001600160e01b03169695505050505050565b6107418282611fdd565b600063ffffffff821115611a255760405162461bcd60e51b815260206004820152602660248201527f53616665436173743a2076616c756520646f65736e27742066697420696e203360448201526532206269747360d01b6064820152608401610696565b5090565b606060ff8314611a4357611a3c83612235565b905061062a565b818054611a4f90612c33565b80601f0160208091040260200160405190810160405280929190818152602001828054611a7b90612c33565b8015611ac85780601f10611a9d57610100808354040283529160200191611ac8565b820191906000526020600020905b815481529060010190602001808311611aab57829003601f168201915b5050505050905061062a565b600065ffffffffffff821115611a255760405162461bcd60e51b815260206004820152602660248201527f53616665436173743a2076616c756520646f65736e27742066697420696e203460448201526538206269747360d01b6064820152608401610696565b600061062a611b486117a2565b8360405161190160f01b8152600281019290925260228201526042902090565b6000806000611b7987878787612274565b91509150611b8681612338565b5095945050505050565b6001600160a01b03811660009081526007602052604090208054600181018255905b50919050565b6001600160a01b038316611c1c5760405162461bcd60e51b815260206004820152602560248201527f45524332303a207472616e736665722066726f6d20746865207a65726f206164604482015264647265737360d81b6064820152608401610696565b6001600160a01b038216611c7e5760405162461bcd60e51b815260206004820152602360248201527f45524332303a207472616e7366657220746f20746865207a65726f206164647260448201526265737360e81b6064820152608401610696565b6001600160a01b03831660009081526020819052604090205481811015611cf65760405162461bcd60e51b815260206004820152602660248201527f45524332303a207472616e7366657220616d6f756e7420657863656564732062604482015265616c616e636560d01b6064820152608401610696565b6001600160a01b03848116600081815260208181526040808320878703905593871680835291849020805487019055925185815290927fddf252ad1be2c89b69c2b068fc378daa952ba7f163c4a11628f55a4df523b3ef910160405180910390a361154b848484612482565b60006a1cf389cd46047d030000008210611d815750631efe9200919050565b6a084595161401484a0000008210611dd8576000670de0b6b3a7640000611db36a084595161401484a00000085612cbf565b611dbd9190612d22565b611dc8906008612d0b565b90506108aa81631312d000612c7d565b69d3c21bcecceda10000008210611e2d576000670de0b6b3a7640000611e0869d3c21bcecceda100000085612cbf565b611e129190612d22565b611e1d906016612d0b565b90506108aa816307270e00612c7d565b69152d02c7e14af68000008210611e82576000670de0b6b3a7640000611e5d69152d02c7e14af680000085612cbf565b611e679190612d22565b611e72906053612d0b565b90506108aa816302aea540612c7d565b69021e19e0c9bab24000008210611ed7576000670de0b6b3a7640000611eb269021e19e0c9bab240000085612cbf565b611ebc9190612d22565b611ec8906101a0612d0b565b90506108aa81627270e0612c7d565b683635c9adc5dea000008210611f2a576000670de0b6b3a7640000611f05683635c9adc5dea0000085612cbf565b611f0f9190612d22565b611f1b906101f4612d0b565b90506108aa81622dc6c0612c7d565b68056bc75e2d631000008210611f7d576000670de0b6b3a7640000611f5868056bc75e2d6310000085612cbf565b611f629190612d22565b611f6e906108ae612d0b565b90506108aa81620f4240612c7d565b678ac7230489e800008210611fce576000670de0b6b3a7640000611fa9678ac7230489e8000085612cbf565b611fb39190612d22565b611fbf90612710612d0b565b90506108aa81620186a0612c7d565b50620186a0919050565b919050565b611fe7828261248d565b61154b600b61138f836125c6565b816001600160a01b0316836001600160a01b0316141580156120175750600081115b156115a0576001600160a01b038316156120a5576001600160a01b0383166000908152600a6020526040812081906120529061138f856125c6565b91509150846001600160a01b03167fdec2bacdd2f05b59de34da9b523dff8be42e5e38e818c82fdb0bae774387a724838360405161209a929190918252602082015260400190565b60405180910390a250505b6001600160a01b038216156115a0576001600160a01b0382166000908152600a6020526040812081906120db90611383856125c6565b91509150836001600160a01b03167fdec2bacdd2f05b59de34da9b523dff8be42e5e38e818c82fdb0bae774387a7248383604051612123929190918252602082015260400190565b60405180910390a25050505050565b60008160000361214457506000919050565b600060016121518461273b565b901c6001901b9050600181848161216a5761216a612cd2565b048201901c9050600181848161218257612182612cd2565b048201901c9050600181848161219a5761219a612cd2565b048201901c905060018184816121b2576121b2612cd2565b048201901c905060018184816121ca576121ca612cd2565b048201901c905060018184816121e2576121e2612cd2565b048201901c905060018184816121fa576121fa612cd2565b048201901c90506108aa8182858161221457612214612cd2565b046127cf565b60006122296002848418612d22565b6108aa90848416612c7d565b60606000612242836127e5565b604080516020808252818301909252919250600091906020820181803683375050509182525060208101929092525090565b6000807f7fffffffffffffffffffffffffffffff5d576e7357a4501ddfe92f46681b20a08311156122ab575060009050600361232f565b6040805160008082526020820180845289905260ff881692820192909252606081018690526080810185905260019060a0016020604051602081039080840390855afa1580156122ff573d6000803e3d6000fd5b5050604051601f1901519150506001600160a01b0381166123285760006001925092505061232f565b9150600090505b94509492505050565b600081600481111561234c5761234c612d36565b036123545750565b600181600481111561236857612368612d36565b036123b55760405162461bcd60e51b815260206004820152601860248201527f45434453413a20696e76616c6964207369676e617475726500000000000000006044820152606401610696565b60028160048111156123c9576123c9612d36565b036124165760405162461bcd60e51b815260206004820152601f60248201527f45434453413a20696e76616c6964207369676e6174757265206c656e677468006044820152606401610696565b600381600481111561242a5761242a612d36565b036108bb5760405162461bcd60e51b815260206004820152602260248201527f45434453413a20696e76616c6964207369676e6174757265202773272076616c604482015261756560f01b6064820152608401610696565b6115a083838361280d565b6001600160a01b0382166124ed5760405162461bcd60e51b815260206004820152602160248201527f45524332303a206275726e2066726f6d20746865207a65726f206164647265736044820152607360f81b6064820152608401610696565b6001600160a01b038216600090815260208190526040902054818110156125615760405162461bcd60e51b815260206004820152602260248201527f45524332303a206275726e20616d6f756e7420657863656564732062616c616e604482015261636560f01b6064820152608401610696565b6001600160a01b0383166000818152602081815260408083208686039055600280548790039055518581529192917fddf252ad1be2c89b69c2b068fc378daa952ba7f163c4a11628f55a4df523b3ef910160405180910390a36115a083600084612482565b825460009081908181156126135760008781526020902082016000190160408051808201909152905463ffffffff8116825264010000000090046001600160e01b03166020820152612628565b60408051808201909152600080825260208201525b905080602001516001600160e01b0316935061264884868863ffffffff16565b9250600082118015612672575061265d610e0f565b65ffffffffffff16816000015163ffffffff16145b156126b7576126808361283f565b60008881526020902083016000190180546001600160e01b03929092166401000000000263ffffffff909216919091179055612731565b8660405180604001604052806126db6126ce610e0f565b65ffffffffffff166119c0565b63ffffffff1681526020016126ef8661283f565b6001600160e01b0390811690915282546001810184556000938452602093849020835194909301519091166401000000000263ffffffff909316929092179101555b5050935093915050565b600080608083901c1561275057608092831c92015b604083901c1561276257604092831c92015b602083901c1561277457602092831c92015b601083901c1561278657601092831c92015b600883901c1561279857600892831c92015b600483901c156127aa57600492831c92015b600283901c156127bc57600292831c92015b600183901c1561062a5760010192915050565b60008183106127de57816108aa565b5090919050565b600060ff8216601f81111561062a57604051632cd44ac360e21b815260040160405180910390fd5b6001600160a01b038381166000908152600960205260408082205485841683529120546115a092918216911683611ff5565b60006001600160e01b03821115611a255760405162461bcd60e51b815260206004820152602760248201527f53616665436173743a2076616c756520646f65736e27742066697420696e20326044820152663234206269747360c81b6064820152608401610696565b6000815180845260005b818110156128ce576020818501810151868301820152016128b2565b506000602082860101526020601f19601f83011685010191505092915050565b6020815260006108aa60208301846128a8565b80356001600160a01b0381168114611fd857600080fd5b6000806040838503121561292b57600080fd5b61293483612901565b946020939093013593505050565b60008060006060848603121561295757600080fd5b61296084612901565b925061296e60208501612901565b9150604084013590509250925092565b60006020828403121561299057600080fd5b6108aa82612901565b600080604083850312156129ac57600080fd5b6129b583612901565b91506129c360208401612901565b90509250929050565b600080604083850312156129df57600080fd5b6129e883612901565b9150602083013580151581146129fd57600080fd5b809150509250929050565b600060208284031215612a1a57600080fd5b5035919050565b803560ff81168114611fd857600080fd5b60008060008060008060c08789031215612a4b57600080fd5b612a5487612901565b9550612a6260208801612901565b9450612a7060408801612a21565b9350612a7e60608801612a21565b9250612a8c60808801612a21565b9150612a9a60a08801612a21565b90509295509295509295565b60ff60f81b881681526000602060e081840152612ac660e084018a6128a8565b8381036040850152612ad8818a6128a8565b606085018990526001600160a01b038816608086015260a0850187905284810360c0860152855180825283870192509083019060005b81811015612b2a57835183529284019291840191600101612b0e565b50909c9b505050505050505050505050565b60008060008060008060c08789031215612b5557600080fd5b612b5e87612901565b95506020870135945060408701359350612b7a60608801612a21565b92506080870135915060a087013590509295509295509295565b600080600080600080600060e0888a031215612baf57600080fd5b612bb888612901565b9650612bc660208901612901565b95506040880135945060608801359350612be260808901612a21565b925060a0880135915060c0880135905092959891949750929550565b60008060408385031215612c1157600080fd5b612c1a83612901565b9150602083013563ffffffff811681146129fd57600080fd5b600181811c90821680612c4757607f821691505b602082108103611bb257634e487b7160e01b600052602260045260246000fd5b634e487b7160e01b600052601160045260246000fd5b8082018082111561062a5761062a612c67565b60ff818116838216019081111561062a5761062a612c67565b634e487b7160e01b600052603260045260246000fd5b8181038181111561062a5761062a612c67565b634e487b7160e01b600052601260045260246000fd5b600063ffffffff80841680612cff57612cff612cd2565b92169190910492915050565b808202811582820484141761062a5761062a612c67565b600082612d3157612d31612cd2565b500490565b634e487b7160e01b600052602160045260246000fdfea2646970667358221220d36dda2e1ca8f888f680dbe5983cdee61917b74aa68dfd3b39b189c75950c0fe64736f6c63430008140033dec2bacdd2f05b59de34da9b523dff8be42e5e38e818c82fdb0bae774387a724",
  "linkReferences": {},
  "deployedLinkReferences": {}
}