{
    "_format": "hh-sol-artifact-1",
    "contractName": "Liblock",
    "sourceName": "contracts/liblock.sol",
    "abi": [
        {
            "inputs": [],
            "stateMutability": "nonpayable",
            "type": "constructor"
        },
        {
            "inputs": [],
            "name": "InvalidShortString",
            "type": "error"
        },
        {
            "inputs": [
                {
                    "internalType": "string",
                    "name": "str",
                    "type": "string"
                }
            ],
            "name": "StringTooLong",
            "type": "error"
        },
        {
            "anonymous": false,
            "inputs": [
                {
                    "indexed": true,
                    "internalType": "address",
                    "name": "owner",
                    "type": "address"
                },
                {
                    "indexed": true,
                    "internalType": "address",
                    "name": "spender",
                    "type": "address"
                },
                {
                    "indexed": false,
                    "internalType": "uint256",
                    "name": "value",
                    "type": "uint256"
                }
            ],
            "name": "Approval",
            "type": "event"
        },
        {
            "anonymous": false,
            "inputs": [
                {
                    "indexed": true,
                    "internalType": "address",
                    "name": "delegator",
                    "type": "address"
                },
                {
                    "indexed": true,
                    "internalType": "address",
                    "name": "fromDelegate",
                    "type": "address"
                },
                {
                    "indexed": true,
                    "internalType": "address",
                    "name": "toDelegate",
                    "type": "address"
                }
            ],
            "name": "DelegateChanged",
            "type": "event"
        },
        {
            "anonymous": false,
            "inputs": [
                {
                    "indexed": true,
                    "internalType": "address",
                    "name": "delegate",
                    "type": "address"
                },
                {
                    "indexed": false,
                    "internalType": "uint256",
                    "name": "previousBalance",
                    "type": "uint256"
                },
                {
                    "indexed": false,
                    "internalType": "uint256",
                    "name": "newBalance",
                    "type": "uint256"
                }
            ],
            "name": "DelegateVotesChanged",
            "type": "event"
        },
        {
            "anonymous": false,
            "inputs": [],
            "name": "EIP712DomainChanged",
            "type": "event"
        },
        {
            "anonymous": false,
            "inputs": [
                {
                    "indexed": true,
                    "internalType": "bytes32",
                    "name": "role",
                    "type": "bytes32"
                },
                {
                    "indexed": true,
                    "internalType": "bytes32",
                    "name": "previousAdminRole",
                    "type": "bytes32"
                },
                {
                    "indexed": true,
                    "internalType": "bytes32",
                    "name": "newAdminRole",
                    "type": "bytes32"
                }
            ],
            "name": "RoleAdminChanged",
            "type": "event"
        },
        {
            "anonymous": false,
            "inputs": [
                {
                    "indexed": true,
                    "internalType": "bytes32",
                    "name": "role",
                    "type": "bytes32"
                },
                {
                    "indexed": true,
                    "internalType": "address",
                    "name": "account",
                    "type": "address"
                },
                {
                    "indexed": true,
                    "internalType": "address",
                    "name": "sender",
                    "type": "address"
                }
            ],
            "name": "RoleGranted",
            "type": "event"
        },
        {
            "anonymous": false,
            "inputs": [
                {
                    "indexed": true,
                    "internalType": "bytes32",
                    "name": "role",
                    "type": "bytes32"
                },
                {
                    "indexed": true,
                    "internalType": "address",
                    "name": "account",
                    "type": "address"
                },
                {
                    "indexed": true,
                    "internalType": "address",
                    "name": "sender",
                    "type": "address"
                }
            ],
            "name": "RoleRevoked",
            "type": "event"
        },
        {
            "anonymous": false,
            "inputs": [
                {
                    "indexed": true,
                    "internalType": "address",
                    "name": "from",
                    "type": "address"
                },
                {
                    "indexed": true,
                    "internalType": "address",
                    "name": "to",
                    "type": "address"
                },
                {
                    "indexed": false,
                    "internalType": "uint256",
                    "name": "value",
                    "type": "uint256"
                }
            ],
            "name": "Transfer",
            "type": "event"
        },
        {
            "inputs": [],
            "name": "CLOCK_MODE",
            "outputs": [
                {
                    "internalType": "string",
                    "name": "",
                    "type": "string"
                }
            ],
            "stateMutability": "view",
            "type": "function"
        },
        {
            "inputs": [],
            "name": "DEFAULT_ADMIN_ROLE",
            "outputs": [
                {
                    "internalType": "bytes32",
                    "name": "",
                    "type": "bytes32"
                }
            ],
            "stateMutability": "view",
            "type": "function"
        },
        {
            "inputs": [],
            "name": "DOMAIN_SEPARATOR",
            "outputs": [
                {
                    "internalType": "bytes32",
                    "name": "",
                    "type": "bytes32"
                }
            ],
            "stateMutability": "view",
            "type": "function"
        },
        {
            "inputs": [
                {
                    "internalType": "address",
                    "name": "owner",
                    "type": "address"
                },
                {
                    "internalType": "address",
                    "name": "spender",
                    "type": "address"
                }
            ],
            "name": "allowance",
            "outputs": [
                {
                    "internalType": "uint256",
                    "name": "",
                    "type": "uint256"
                }
            ],
            "stateMutability": "view",
            "type": "function"
        },
        {
            "inputs": [
                {
                    "internalType": "address",
                    "name": "spender",
                    "type": "address"
                },
                {
                    "internalType": "uint256",
                    "name": "amount",
                    "type": "uint256"
                }
            ],
            "name": "approve",
            "outputs": [
                {
                    "internalType": "bool",
                    "name": "",
                    "type": "bool"
                }
            ],
            "stateMutability": "nonpayable",
            "type": "function"
        },
        {
            "inputs": [
                {
                    "internalType": "address",
                    "name": "account",
                    "type": "address"
                }
            ],
            "name": "balanceOf",
            "outputs": [
                {
                    "internalType": "uint256",
                    "name": "",
                    "type": "uint256"
                }
            ],
            "stateMutability": "view",
            "type": "function"
        },
        {
            "inputs": [
                {
                    "internalType": "uint256",
                    "name": "amount",
                    "type": "uint256"
                }
            ],
            "name": "burn",
            "outputs": [],
            "stateMutability": "nonpayable",
            "type": "function"
        },
        {
            "inputs": [
                {
                    "internalType": "address",
                    "name": "account",
                    "type": "address"
                },
                {
                    "internalType": "uint256",
                    "name": "amount",
                    "type": "uint256"
                }
            ],
            "name": "burnFrom",
            "outputs": [],
            "stateMutability": "nonpayable",
            "type": "function"
        },
        {
            "inputs": [
                {
                    "internalType": "address",
                    "name": "account",
                    "type": "address"
                },
                {
                    "internalType": "uint32",
                    "name": "pos",
                    "type": "uint32"
                }
            ],
            "name": "checkpoints",
            "outputs": [
                {
                    "components": [
                        {
                            "internalType": "uint32",
                            "name": "fromBlock",
                            "type": "uint32"
                        },
                        {
                            "internalType": "uint224",
                            "name": "votes",
                            "type": "uint224"
                        }
                    ],
                    "internalType": "struct ERC20Votes.Checkpoint",
                    "name": "",
                    "type": "tuple"
                }
            ],
            "stateMutability": "view",
            "type": "function"
        },
        {
            "inputs": [],
            "name": "clock",
            "outputs": [
                {
                    "internalType": "uint48",
                    "name": "",
                    "type": "uint48"
                }
            ],
            "stateMutability": "view",
            "type": "function"
        },
        {
            "inputs": [],
            "name": "decimals",
            "outputs": [
                {
                    "internalType": "uint8",
                    "name": "",
                    "type": "uint8"
                }
            ],
            "stateMutability": "view",
            "type": "function"
        },
        {
            "inputs": [
                {
                    "internalType": "address",
                    "name": "spender",
                    "type": "address"
                },
                {
                    "internalType": "uint256",
                    "name": "subtractedValue",
                    "type": "uint256"
                }
            ],
            "name": "decreaseAllowance",
            "outputs": [
                {
                    "internalType": "bool",
                    "name": "",
                    "type": "bool"
                }
            ],
            "stateMutability": "nonpayable",
            "type": "function"
        },
        {
            "inputs": [
                {
                    "internalType": "address",
                    "name": "delegatee",
                    "type": "address"
                }
            ],
            "name": "delegate",
            "outputs": [],
            "stateMutability": "nonpayable",
            "type": "function"
        },
        {
            "inputs": [
                {
                    "internalType": "address",
                    "name": "delegatee",
                    "type": "address"
                },
                {
                    "internalType": "uint256",
                    "name": "nonce",
                    "type": "uint256"
                },
                {
                    "internalType": "uint256",
                    "name": "expiry",
                    "type": "uint256"
                },
                {
                    "internalType": "uint8",
                    "name": "v",
                    "type": "uint8"
                },
                {
                    "internalType": "bytes32",
                    "name": "r",
                    "type": "bytes32"
                },
                {
                    "internalType": "bytes32",
                    "name": "s",
                    "type": "bytes32"
                }
            ],
            "name": "delegateBySig",
            "outputs": [],
            "stateMutability": "nonpayable",
            "type": "function"
        },
        {
            "inputs": [
                {
                    "internalType": "address",
                    "name": "delegator",
                    "type": "address"
                },
                {
                    "internalType": "address",
                    "name": "delegatee",
                    "type": "address"
                }
            ],
            "name": "delegateFrom",
            "outputs": [],
            "stateMutability": "nonpayable",
            "type": "function"
        },
        {
            "inputs": [
                {
                    "internalType": "address",
                    "name": "account",
                    "type": "address"
                }
            ],
            "name": "delegates",
            "outputs": [
                {
                    "internalType": "address",
                    "name": "",
                    "type": "address"
                }
            ],
            "stateMutability": "view",
            "type": "function"
        },
        {
            "inputs": [],
            "name": "eip712Domain",
            "outputs": [
                {
                    "internalType": "bytes1",
                    "name": "fields",
                    "type": "bytes1"
                },
                {
                    "internalType": "string",
                    "name": "name",
                    "type": "string"
                },
                {
                    "internalType": "string",
                    "name": "version",
                    "type": "string"
                },
                {
                    "internalType": "uint256",
                    "name": "chainId",
                    "type": "uint256"
                },
                {
                    "internalType": "address",
                    "name": "verifyingContract",
                    "type": "address"
                },
                {
                    "internalType": "bytes32",
                    "name": "salt",
                    "type": "bytes32"
                },
                {
                    "internalType": "uint256[]",
                    "name": "extensions",
                    "type": "uint256[]"
                }
            ],
            "stateMutability": "view",
            "type": "function"
        },
        {
            "inputs": [
                {
                    "internalType": "uint256",
                    "name": "timepoint",
                    "type": "uint256"
                }
            ],
            "name": "getPastTotalSupply",
            "outputs": [
                {
                    "internalType": "uint256",
                    "name": "",
                    "type": "uint256"
                }
            ],
            "stateMutability": "view",
            "type": "function"
        },
        {
            "inputs": [
                {
                    "internalType": "address",
                    "name": "account",
                    "type": "address"
                },
                {
                    "internalType": "uint256",
                    "name": "timepoint",
                    "type": "uint256"
                }
            ],
            "name": "getPastVotes",
            "outputs": [
                {
                    "internalType": "uint256",
                    "name": "",
                    "type": "uint256"
                }
            ],
            "stateMutability": "view",
            "type": "function"
        },
        {
            "inputs": [
                {
                    "internalType": "bytes32",
                    "name": "role",
                    "type": "bytes32"
                }
            ],
            "name": "getRoleAdmin",
            "outputs": [
                {
                    "internalType": "bytes32",
                    "name": "",
                    "type": "bytes32"
                }
            ],
            "stateMutability": "view",
            "type": "function"
        },
        {
            "inputs": [
                {
                    "internalType": "address",
                    "name": "account",
                    "type": "address"
                }
            ],
            "name": "getVotes",
            "outputs": [
                {
                    "internalType": "uint256",
                    "name": "",
                    "type": "uint256"
                }
            ],
            "stateMutability": "view",
            "type": "function"
        },
        {
            "inputs": [
                {
                    "internalType": "bytes32",
                    "name": "role",
                    "type": "bytes32"
                },
                {
                    "internalType": "address",
                    "name": "account",
                    "type": "address"
                }
            ],
            "name": "grantRole",
            "outputs": [],
            "stateMutability": "nonpayable",
            "type": "function"
        },
        {
            "inputs": [
                {
                    "internalType": "bytes32",
                    "name": "role",
                    "type": "bytes32"
                },
                {
                    "internalType": "address",
                    "name": "account",
                    "type": "address"
                }
            ],
            "name": "hasRole",
            "outputs": [
                {
                    "internalType": "bool",
                    "name": "",
                    "type": "bool"
                }
            ],
            "stateMutability": "view",
            "type": "function"
        },
        {
            "inputs": [
                {
                    "internalType": "address",
                    "name": "spender",
                    "type": "address"
                },
                {
                    "internalType": "uint256",
                    "name": "addedValue",
                    "type": "uint256"
                }
            ],
            "name": "increaseAllowance",
            "outputs": [
                {
                    "internalType": "bool",
                    "name": "",
                    "type": "bool"
                }
            ],
            "stateMutability": "nonpayable",
            "type": "function"
        },
        {
            "inputs": [],
            "name": "name",
            "outputs": [
                {
                    "internalType": "string",
                    "name": "",
                    "type": "string"
                }
            ],
            "stateMutability": "view",
            "type": "function"
        },
        {
            "inputs": [
                {
                    "internalType": "address",
                    "name": "owner",
                    "type": "address"
                }
            ],
            "name": "nonces",
            "outputs": [
                {
                    "internalType": "uint256",
                    "name": "",
                    "type": "uint256"
                }
            ],
            "stateMutability": "view",
            "type": "function"
        },
        {
            "inputs": [
                {
                    "internalType": "address",
                    "name": "account",
                    "type": "address"
                }
            ],
            "name": "numCheckpoints",
            "outputs": [
                {
                    "internalType": "uint32",
                    "name": "",
                    "type": "uint32"
                }
            ],
            "stateMutability": "view",
            "type": "function"
        },
        {
            "inputs": [
                {
                    "internalType": "address",
                    "name": "owner",
                    "type": "address"
                },
                {
                    "internalType": "address",
                    "name": "spender",
                    "type": "address"
                },
                {
                    "internalType": "uint256",
                    "name": "value",
                    "type": "uint256"
                },
                {
                    "internalType": "uint256",
                    "name": "deadline",
                    "type": "uint256"
                },
                {
                    "internalType": "uint8",
                    "name": "v",
                    "type": "uint8"
                },
                {
                    "internalType": "bytes32",
                    "name": "r",
                    "type": "bytes32"
                },
                {
                    "internalType": "bytes32",
                    "name": "s",
                    "type": "bytes32"
                }
            ],
            "name": "permit",
            "outputs": [],
            "stateMutability": "nonpayable",
            "type": "function"
        },
        {
            "inputs": [
                {
                    "internalType": "bytes32",
                    "name": "role",
                    "type": "bytes32"
                },
                {
                    "internalType": "address",
                    "name": "account",
                    "type": "address"
                }
            ],
            "name": "renounceRole",
            "outputs": [],
            "stateMutability": "nonpayable",
            "type": "function"
        },
        {
            "inputs": [
                {
                    "internalType": "bytes32",
                    "name": "role",
                    "type": "bytes32"
                },
                {
                    "internalType": "address",
                    "name": "account",
                    "type": "address"
                }
            ],
            "name": "revokeRole",
            "outputs": [],
            "stateMutability": "nonpayable",
            "type": "function"
        },
        {
            "inputs": [
                {
                    "internalType": "bytes4",
                    "name": "interfaceId",
                    "type": "bytes4"
                }
            ],
            "name": "supportsInterface",
            "outputs": [
                {
                    "internalType": "bool",
                    "name": "",
                    "type": "bool"
                }
            ],
            "stateMutability": "view",
            "type": "function"
        },
        {
            "inputs": [],
            "name": "symbol",
            "outputs": [
                {
                    "internalType": "string",
                    "name": "",
                    "type": "string"
                }
            ],
            "stateMutability": "view",
            "type": "function"
        },
        {
            "inputs": [],
            "name": "totalSupply",
            "outputs": [
                {
                    "internalType": "uint256",
                    "name": "",
                    "type": "uint256"
                }
            ],
            "stateMutability": "view",
            "type": "function"
        },
        {
            "inputs": [
                {
                    "internalType": "address",
                    "name": "to",
                    "type": "address"
                },
                {
                    "internalType": "uint256",
                    "name": "amount",
                    "type": "uint256"
                }
            ],
            "name": "transfer",
            "outputs": [
                {
                    "internalType": "bool",
                    "name": "",
                    "type": "bool"
                }
            ],
            "stateMutability": "nonpayable",
            "type": "function"
        },
        {
            "inputs": [
                {
                    "internalType": "address",
                    "name": "from",
                    "type": "address"
                },
                {
                    "internalType": "address",
                    "name": "to",
                    "type": "address"
                },
                {
                    "internalType": "uint256",
                    "name": "amount",
                    "type": "uint256"
                }
            ],
            "name": "transferFrom",
            "outputs": [
                {
                    "internalType": "bool",
                    "name": "",
                    "type": "bool"
                }
            ],
            "stateMutability": "nonpayable",
            "type": "function"
        }
    ],
    "bytecode": "0x6101606040523480156200001257600080fd5b50604051806040016040528060078152602001664c69626c6f636b60c81b81525080604051806040016040528060018152602001603160f81b815250604051806040016040528060078152602001664c69626c6f636b60c81b815250604051806040016040528060038152602001622624a160e91b8152508160039080519060200190620000a29291906200099c565b508051620000b89060049060208401906200099c565b505050620000d6600683620001e860201b62000e651790919060201c565b61012052620000f3816007620001e8602090811b62000e6517901c565b61014052815160208084019190912060e052815190820120610100524660a0526200018160e05161010051604080517f8b73c3c69bb8fe3d512ecc4cf759cc79239f7b179b0ffacaa9a75d522b39400f60208201529081019290925260608201524660808201523060a082015260009060c00160405160208183030381529060405280519060200120905090565b60805250503060c05250620001b2336200019e6012600a62000b4b565b620001ac906103e862000b5c565b6200023c565b620001d530620001c56012600a62000b4b565b620001ac906303dfce5862000b5c565b620001e260003362000257565b62000c6a565b600060208351101562000208576200020083620002fb565b905062000236565b826200021f836200034760201b62000e9c1760201c565b81516200023092602001906200099c565b5060ff90505b92915050565b6200025382826200034a60201b62000e9f1760201c565b5050565b60008281526005602090815260408083206001600160a01b038516845290915290205460ff16620002535760008281526005602090815260408083206001600160a01b03851684529091529020805460ff19166001179055620002b73390565b6001600160a01b0316816001600160a01b0316837f2f8788117e7eff1d82e926ec794901d17c78024a50270940304540a733656f0d60405160405180910390a45050565b600080829050601f8151111562000332578260405163305a27a960e01b815260040162000329919062000b7e565b60405180910390fd5b80516200033f8262000bd6565b179392505050565b90565b620003618282620003fd60201b62000f2f1760201c565b6001600160e01b0362000375620004ca8216565b1115620003de5760405162461bcd60e51b815260206004820152603060248201527f4552433230566f7465733a20746f74616c20737570706c79207269736b73206f60448201526f766572666c6f77696e6720766f74657360801b606482015260840162000329565b620003f7600c62000ff6620004d060201b1783620004e5565b50505050565b6001600160a01b038216620004555760405162461bcd60e51b815260206004820152601f60248201527f45524332303a206d696e7420746f20746865207a65726f206164647265737300604482015260640162000329565b806002600082825462000469919062000bfe565b90915550506001600160a01b038216600081815260208181526040808320805486019055518481527fddf252ad1be2c89b69c2b068fc378daa952ba7f163c4a11628f55a4df523b3ef910160405180910390a3620002536000838362000693565b60025490565b6000620004de828462000bfe565b9392505050565b82546000908190818115620005345760008781526020902082016000190160408051808201909152905463ffffffff8116825264010000000090046001600160e01b0316602082015262000549565b60408051808201909152600080825260208201525b905080602001516001600160e01b031693506200056784868860201c565b92506000821180156200059457506200057f620006ab565b65ffffffffffff16816000015163ffffffff16145b15620005e857620005b083620006c860201b620010021760201c565b60008881526020902083016000190180546001600160e01b03929092166401000000000263ffffffff90921691909117905562000684565b8660405180604001604052806200062162000608620006ab60201b60201c565b65ffffffffffff166200073760201b6200106f1760201c565b63ffffffff1681526020016200064286620006c860201b620010021760201c565b6001600160e01b0390811690915282546001810184556000938452602093849020835194909301519091166401000000000263ffffffff909316929092179101555b5050935093915050565b505050565b6200068e8383836200079e60201b620010d41760201c565b6000620006c343620007ea60201b620011061760201c565b905090565b60006001600160e01b03821115620007335760405162461bcd60e51b815260206004820152602760248201527f53616665436173743a2076616c756520646f65736e27742066697420696e20326044820152663234206269747360c81b606482015260840162000329565b5090565b600063ffffffff821115620007335760405162461bcd60e51b815260206004820152602660248201527f53616665436173743a2076616c756520646f65736e27742066697420696e203360448201526532206269747360d01b606482015260840162000329565b620007b68383836200068e60201b620006791760201c565b6001600160a01b038381166000908152600a60205260408082205485841683529120546200068e9291821691168362000853565b600065ffffffffffff821115620007335760405162461bcd60e51b815260206004820152602660248201527f53616665436173743a2076616c756520646f65736e27742066697420696e203460448201526538206269747360d01b606482015260840162000329565b816001600160a01b0316836001600160a01b031614158015620008765750600081115b156200068e576001600160a01b0383161562000903576001600160a01b0383166000908152600b6020908152604082208291620008c091906200098e901b6200116d1785620004e5565b91509150846001600160a01b0316600080516020620036788339815191528383604051620008f8929190918252602082015260400190565b60405180910390a250505b6001600160a01b038216156200068e576001600160a01b0382166000908152600b6020908152604082208291620009479190620004d0901b62000ff61785620004e5565b91509150836001600160a01b03166000805160206200367883398151915283836040516200097f929190918252602082015260400190565b60405180910390a25050505050565b6000620004de828462000c19565b828054620009aa9062000c33565b90600052602060002090601f016020900481019282620009ce576000855562000a19565b82601f10620009e957805160ff191683800117855562000a19565b8280016001018555821562000a19579182015b8281111562000a19578251825591602001919060010190620009fc565b50620007339291505b8082111562000733576000815560010162000a22565b634e487b7160e01b600052601160045260246000fd5b600181815b8085111562000a8f57816000190482111562000a735762000a7362000a38565b8085161562000a8157918102915b93841c939080029062000a53565b509250929050565b60008262000aa85750600162000236565b8162000ab75750600062000236565b816001811462000ad0576002811462000adb5762000afb565b600191505062000236565b60ff84111562000aef5762000aef62000a38565b50506001821b62000236565b5060208310610133831016604e8410600b841016171562000b20575081810a62000236565b62000b2c838362000a4e565b806000190482111562000b435762000b4362000a38565b029392505050565b6000620004de60ff84168362000a97565b600081600019048311821515161562000b795762000b7962000a38565b500290565b600060208083528351808285015260005b8181101562000bad5785810183015185820160400152820162000b8f565b8181111562000bc0576000604083870101525b50601f01601f1916929092016040019392505050565b8051602080830151919081101562000bf8576000198160200360031b1b821691505b50919050565b6000821982111562000c145762000c1462000a38565b500190565b60008282101562000c2e5762000c2e62000a38565b500390565b600181811c9082168062000c4857607f821691505b6020821081141562000bf857634e487b7160e01b600052602260045260246000fd5b60805160a05160c05160e0516101005161012051610140516129b362000cc560003960006108f0015260006108c50152600061169e01526000611676015260006115d1015260006115fb0152600061162501526129b36000f3fe608060405234801561001057600080fd5b50600436106102115760003560e01c80636fcfff45116101255780639ab24eb0116100ad578063c3cda5201161007c578063c3cda520146104b8578063d505accf146104cb578063d547741f146104de578063dd62ed3e146104f1578063f1127ed81461050457600080fd5b80639ab24eb014610477578063a217fddf1461048a578063a457c2d714610492578063a9059cbb146104a557600080fd5b806384b0196e116100f457806384b0196e1461040f5780638e539e8c1461042a57806391d148541461043d57806391ddadf41461045057806395d89b411461046f57600080fd5b80636fcfff451461039857806370a08231146103c057806379cc6790146103e95780637ecebe00146103fc57600080fd5b8063313ce567116101a85780633a46b1a8116101775780633a46b1a81461031357806342966c68146103265780634bf5d7e914610339578063587cde1e146103415780635c19a95c1461038557600080fd5b8063313ce567146102d65780633644e515146102e557806336568abe146102ed578063395093511461030057600080fd5b806323b872dd116101e457806323b872dd14610278578063248a9ca31461028b5780632949582d146102ae5780632f2ff15d146102c357600080fd5b806301ffc9a71461021657806306fdde031461023e578063095ea7b31461025357806318160ddd14610266575b600080fd5b610229610224366004612470565b610541565b60405190151581526020015b60405180910390f35b610246610578565b60405161023591906124f2565b610229610261366004612521565b61060a565b6002545b604051908152602001610235565b61022961028636600461254b565b610622565b61026a610299366004612587565b60009081526005602052604090206001015490565b6102c16102bc3660046125a0565b610646565b005b6102c16102d13660046125d3565b610654565b60405160128152602001610235565b61026a61067e565b6102c16102fb3660046125d3565b61068d565b61022961030e366004612521565b61070c565b61026a610321366004612521565b61072e565b6102c1610334366004612587565b6107b3565b6102466107c0565b61036d61034f3660046125f6565b6001600160a01b039081166000908152600a60205260409020541690565b6040516001600160a01b039091168152602001610235565b6102c16103933660046125f6565b610858565b6103ab6103a63660046125f6565b610862565b60405163ffffffff9091168152602001610235565b61026a6103ce3660046125f6565b6001600160a01b031660009081526020819052604090205490565b6102c16103f7366004612521565b610884565b61026a61040a3660046125f6565b610899565b6104176108b7565b6040516102359796959493929190612611565b61026a610438366004612587565b610940565b61022961044b3660046125d3565b6109a7565b6104586109d2565b60405165ffffffffffff9091168152602001610235565b6102466109dd565b61026a6104853660046125f6565b6109ec565b61026a600081565b6102296104a0366004612521565b610a6e565b6102296104b3366004612521565b610ae9565b6102c16104c63660046126b8565b610af7565b6102c16104d9366004612710565b610c2d565b6102c16104ec3660046125d3565b610d91565b61026a6104ff3660046125a0565b610db6565b61051761051236600461277a565b610de1565b60408051825163ffffffff1681526020928301516001600160e01b03169281019290925201610235565b60006001600160e01b03198216637965db0b60e01b148061057257506301ffc9a760e01b6001600160e01b03198316145b92915050565b606060038054610587906127ba565b80601f01602080910402602001604051908101604052809291908181526020018280546105b3906127ba565b80156106005780601f106105d557610100808354040283529160200191610600565b820191906000526020600020905b8154815290600101906020018083116105e357829003601f168201915b5050505050905090565b600033610618818585611179565b5060019392505050565b60003361063085828561129d565b61063b858585611311565b506001949350505050565b61065082826114bb565b5050565b60008281526005602052604090206001015461066f81611534565b610679838361153e565b505050565b60006106886115c4565b905090565b6001600160a01b03811633146107025760405162461bcd60e51b815260206004820152602f60248201527f416363657373436f6e74726f6c3a2063616e206f6e6c792072656e6f756e636560448201526e103937b632b9903337b91039b2b63360891b60648201526084015b60405180910390fd5b61065082826116ef565b60003361061881858561071f8383610db6565b6107299190612805565b611179565b60006107386109d2565b65ffffffffffff16821061078a5760405162461bcd60e51b815260206004820152601960248201527804552433230566f7465733a20667574757265206c6f6f6b757603c1b60448201526064016106f9565b6001600160a01b0383166000908152600b602052604090206107ac9083611756565b9392505050565b6107bd338261183f565b50565b6060436107cb6109d2565b65ffffffffffff16146108205760405162461bcd60e51b815260206004820152601d60248201527f4552433230566f7465733a2062726f6b656e20636c6f636b206d6f646500000060448201526064016106f9565b5060408051808201909152601d81527f6d6f64653d626c6f636b6e756d6265722666726f6d3d64656661756c74000000602082015290565b6107bd33826114bb565b6001600160a01b0381166000908152600b60205260408120546105729061106f565b61088f82338361129d565b610650828261183f565b6001600160a01b038116600090815260086020526040812054610572565b6000606080828080836108eb7f00000000000000000000000000000000000000000000000000000000000000006006611849565b6109167f00000000000000000000000000000000000000000000000000000000000000006007611849565b60408051600080825260208201909252600f60f81b9b939a50919850469750309650945092509050565b600061094a6109d2565b65ffffffffffff16821061099c5760405162461bcd60e51b815260206004820152601960248201527804552433230566f7465733a20667574757265206c6f6f6b757603c1b60448201526064016106f9565b610572600c83611756565b60009182526005602090815260408084206001600160a01b0393909316845291905290205460ff1690565b600061068843611106565b606060048054610587906127ba565b6001600160a01b0381166000908152600b60205260408120548015610a5b576001600160a01b0383166000908152600b6020526040902080546000198301908110610a3957610a39612833565b60009182526020909120015464010000000090046001600160e01b0316610a5e565b60005b6001600160e01b03169392505050565b60003381610a7c8286610db6565b905083811015610adc5760405162461bcd60e51b815260206004820152602560248201527f45524332303a2064656372656173656420616c6c6f77616e63652062656c6f77604482015264207a65726f60d81b60648201526084016106f9565b61063b8286868403611179565b600033610618818585611311565b83421115610b475760405162461bcd60e51b815260206004820152601d60248201527f4552433230566f7465733a207369676e6174757265206578706972656400000060448201526064016106f9565b604080517fe48329057bfd03d55e49b547132e39cffd9c1820ad7b9d4c5307691425d15adf60208201526001600160a01b038816918101919091526060810186905260808101859052600090610bc190610bb99060a001604051602081830303815290604052805190602001206118ed565b85858561191a565b9050610bcc81611942565b8614610c1a5760405162461bcd60e51b815260206004820152601960248201527f4552433230566f7465733a20696e76616c6964206e6f6e63650000000000000060448201526064016106f9565b610c2481886114bb565b50505050505050565b83421115610c7d5760405162461bcd60e51b815260206004820152601d60248201527f45524332305065726d69743a206578706972656420646561646c696e6500000060448201526064016106f9565b60007f6e71edae12b1b97f4d1f60370fef10105fa2faae0126114a169c64845d6126c9888888610cac8c611942565b6040805160208101969096526001600160a01b0394851690860152929091166060840152608083015260a082015260c0810186905260e0016040516020818303038152906040528051906020012090506000610d07826118ed565b90506000610d178287878761191a565b9050896001600160a01b0316816001600160a01b031614610d7a5760405162461bcd60e51b815260206004820152601e60248201527f45524332305065726d69743a20696e76616c6964207369676e6174757265000060448201526064016106f9565b610d858a8a8a611179565b50505050505050505050565b600082815260056020526040902060010154610dac81611534565b61067983836116ef565b6001600160a01b03918216600090815260016020908152604080832093909416825291909152205490565b60408051808201909152600080825260208201526001600160a01b0383166000908152600b60205260409020805463ffffffff8416908110610e2557610e25612833565b60009182526020918290206040805180820190915291015463ffffffff8116825264010000000090046001600160e01b0316918101919091529392505050565b6000602083511015610e8157610e7a8361196a565b9050610572565b82828151610e9292602001906123e0565b5060ff9050610572565b90565b610ea98282610f2f565b6002546001600160e01b031015610f1b5760405162461bcd60e51b815260206004820152603060248201527f4552433230566f7465733a20746f74616c20737570706c79207269736b73206f60448201526f766572666c6f77696e6720766f74657360801b60648201526084016106f9565b610f29600c610ff6836119a8565b50505050565b6001600160a01b038216610f855760405162461bcd60e51b815260206004820152601f60248201527f45524332303a206d696e7420746f20746865207a65726f20616464726573730060448201526064016106f9565b8060026000828254610f979190612805565b90915550506001600160a01b038216600081815260208181526040808320805486019055518481527fddf252ad1be2c89b69c2b068fc378daa952ba7f163c4a11628f55a4df523b3ef910160405180910390a361065060008383611b1d565b60006107ac8284612805565b60006001600160e01b0382111561106b5760405162461bcd60e51b815260206004820152602760248201527f53616665436173743a2076616c756520646f65736e27742066697420696e20326044820152663234206269747360c81b60648201526084016106f9565b5090565b600063ffffffff82111561106b5760405162461bcd60e51b815260206004820152602660248201527f53616665436173743a2076616c756520646f65736e27742066697420696e203360448201526532206269747360d01b60648201526084016106f9565b6001600160a01b038381166000908152600a602052604080822054858416835291205461067992918216911683611b28565b600065ffffffffffff82111561106b5760405162461bcd60e51b815260206004820152602660248201527f53616665436173743a2076616c756520646f65736e27742066697420696e203460448201526538206269747360d01b60648201526084016106f9565b60006107ac8284612849565b6001600160a01b0383166111db5760405162461bcd60e51b8152602060048201526024808201527f45524332303a20617070726f76652066726f6d20746865207a65726f206164646044820152637265737360e01b60648201526084016106f9565b6001600160a01b03821661123c5760405162461bcd60e51b815260206004820152602260248201527f45524332303a20617070726f766520746f20746865207a65726f206164647265604482015261737360f01b60648201526084016106f9565b6001600160a01b0383811660008181526001602090815260408083209487168084529482529182902085905590518481527f8c5be1e5ebec7d5bd14f71427d1e84f3dd0314c0f7b2291e5b200ac8c7c3b925910160405180910390a3505050565b60006112a98484610db6565b90506000198114610f2957818110156113045760405162461bcd60e51b815260206004820152601d60248201527f45524332303a20696e73756666696369656e7420616c6c6f77616e636500000060448201526064016106f9565b610f298484848403611179565b6001600160a01b0383166113755760405162461bcd60e51b815260206004820152602560248201527f45524332303a207472616e736665722066726f6d20746865207a65726f206164604482015264647265737360d81b60648201526084016106f9565b6001600160a01b0382166113d75760405162461bcd60e51b815260206004820152602360248201527f45524332303a207472616e7366657220746f20746865207a65726f206164647260448201526265737360e81b60648201526084016106f9565b6001600160a01b0383166000908152602081905260409020548181101561144f5760405162461bcd60e51b815260206004820152602660248201527f45524332303a207472616e7366657220616d6f756e7420657863656564732062604482015265616c616e636560d01b60648201526084016106f9565b6001600160a01b03848116600081815260208181526040808320878703905593871680835291849020805487019055925185815290927fddf252ad1be2c89b69c2b068fc378daa952ba7f163c4a11628f55a4df523b3ef910160405180910390a3610f29848484611b1d565b6001600160a01b038281166000818152600a60208181526040808420805485845282862054949093528787166001600160a01b03198416811790915590519190951694919391928592917f3134e8a2e6d97e929a7e54011ea5485d7d196dd5f0ba4d4ef95803e8e3fc257f9190a4610f29828483611b28565b6107bd8133611c65565b61154882826109a7565b6106505760008281526005602090815260408083206001600160a01b03851684529091529020805460ff191660011790556115803390565b6001600160a01b0316816001600160a01b0316837f2f8788117e7eff1d82e926ec794901d17c78024a50270940304540a733656f0d60405160405180910390a45050565b6000306001600160a01b037f00000000000000000000000000000000000000000000000000000000000000001614801561161d57507f000000000000000000000000000000000000000000000000000000000000000046145b1561164757507f000000000000000000000000000000000000000000000000000000000000000090565b610688604080517f8b73c3c69bb8fe3d512ecc4cf759cc79239f7b179b0ffacaa9a75d522b39400f60208201527f0000000000000000000000000000000000000000000000000000000000000000918101919091527f000000000000000000000000000000000000000000000000000000000000000060608201524660808201523060a082015260009060c00160405160208183030381529060405280519060200120905090565b6116f982826109a7565b156106505760008281526005602090815260408083206001600160a01b0385168085529252808320805460ff1916905551339285917ff6391f5c32d9c69d2a47ea670b442974b53935d1edc7fd64eb21e047a839171b9190a45050565b8154600090818160058111156117b057600061177184611cbe565b61177b9085612849565b600088815260209020909150869082015463ffffffff1611156117a0578091506117ae565b6117ab816001612805565b92505b505b808210156117fd5760006117c48383611da3565b600088815260209020909150869082015463ffffffff1611156117e9578091506117f7565b6117f4816001612805565b92505b506117b0565b8015611829576000868152602090208101600019015464010000000090046001600160e01b031661182c565b60005b6001600160e01b03169695505050505050565b6106508282611dbe565b606060ff831461185c57610e7a83611dd6565b818054611868906127ba565b80601f0160208091040260200160405190810160405280929190818152602001828054611894906127ba565b80156118e15780601f106118b6576101008083540402835291602001916118e1565b820191906000526020600020905b8154815290600101906020018083116118c457829003601f168201915b50505050509050610572565b60006105726118fa6115c4565b8360405161190160f01b8152600281019290925260228201526042902090565b600080600061192b87878787611e15565b9150915061193881611ed9565b5095945050505050565b6001600160a01b03811660009081526008602052604090208054600181018255905b50919050565b600080829050601f81511115611995578260405163305a27a960e01b81526004016106f991906124f2565b80516119a082612860565b179392505050565b825460009081908181156119f55760008781526020902082016000190160408051808201909152905463ffffffff8116825264010000000090046001600160e01b03166020820152611a0a565b60408051808201909152600080825260208201525b905080602001516001600160e01b03169350611a2a84868863ffffffff16565b9250600082118015611a545750611a3f6109d2565b65ffffffffffff16816000015163ffffffff16145b15611a9957611a6283611002565b60008881526020902083016000190180546001600160e01b03929092166401000000000263ffffffff909216919091179055611b13565b866040518060400160405280611abd611ab06109d2565b65ffffffffffff1661106f565b63ffffffff168152602001611ad186611002565b6001600160e01b0390811690915282546001810184556000938452602093849020835194909301519091166401000000000263ffffffff909316929092179101555b5050935093915050565b6106798383836110d4565b816001600160a01b0316836001600160a01b031614158015611b4a5750600081115b15610679576001600160a01b03831615611bd8576001600160a01b0383166000908152600b602052604081208190611b859061116d856119a8565b91509150846001600160a01b03167fdec2bacdd2f05b59de34da9b523dff8be42e5e38e818c82fdb0bae774387a7248383604051611bcd929190918252602082015260400190565b60405180910390a250505b6001600160a01b03821615610679576001600160a01b0382166000908152600b602052604081208190611c0e90610ff6856119a8565b91509150836001600160a01b03167fdec2bacdd2f05b59de34da9b523dff8be42e5e38e818c82fdb0bae774387a7248383604051611c56929190918252602082015260400190565b60405180910390a25050505050565b611c6f82826109a7565b61065057611c7c81612027565b611c87836020612039565b604051602001611c98929190612884565b60408051601f198184030181529082905262461bcd60e51b82526106f9916004016124f2565b600081611ccd57506000919050565b60006001611cda846121d5565b901c6001901b90506001818481611cf357611cf36128f9565b048201901c90506001818481611d0b57611d0b6128f9565b048201901c90506001818481611d2357611d236128f9565b048201901c90506001818481611d3b57611d3b6128f9565b048201901c90506001818481611d5357611d536128f9565b048201901c90506001818481611d6b57611d6b6128f9565b048201901c90506001818481611d8357611d836128f9565b048201901c90506107ac81828581611d9d57611d9d6128f9565b04612269565b6000611db2600284841861290f565b6107ac90848416612805565b611dc8828261227f565b610f29600c61116d836119a8565b60606000611de3836123b8565b604080516020808252818301909252919250600091906020820181803683375050509182525060208101929092525090565b6000807f7fffffffffffffffffffffffffffffff5d576e7357a4501ddfe92f46681b20a0831115611e4c5750600090506003611ed0565b6040805160008082526020820180845289905260ff881692820192909252606081018690526080810185905260019060a0016020604051602081039080840390855afa158015611ea0573d6000803e3d6000fd5b5050604051601f1901519150506001600160a01b038116611ec957600060019250925050611ed0565b9150600090505b94509492505050565b6000816004811115611eed57611eed612931565b1415611ef65750565b6001816004811115611f0a57611f0a612931565b1415611f585760405162461bcd60e51b815260206004820152601860248201527f45434453413a20696e76616c6964207369676e6174757265000000000000000060448201526064016106f9565b6002816004811115611f6c57611f6c612931565b1415611fba5760405162461bcd60e51b815260206004820152601f60248201527f45434453413a20696e76616c6964207369676e6174757265206c656e6774680060448201526064016106f9565b6003816004811115611fce57611fce612931565b14156107bd5760405162461bcd60e51b815260206004820152602260248201527f45434453413a20696e76616c6964207369676e6174757265202773272076616c604482015261756560f01b60648201526084016106f9565b60606105726001600160a01b03831660145b60606000612048836002612947565b612053906002612805565b67ffffffffffffffff81111561206b5761206b61281d565b6040519080825280601f01601f191660200182016040528015612095576020820181803683370190505b509050600360fc1b816000815181106120b0576120b0612833565b60200101906001600160f81b031916908160001a905350600f60fb1b816001815181106120df576120df612833565b60200101906001600160f81b031916908160001a9053506000612103846002612947565b61210e906001612805565b90505b6001811115612186576f181899199a1a9b1b9c1cb0b131b232b360811b85600f166010811061214257612142612833565b1a60f81b82828151811061215857612158612833565b60200101906001600160f81b031916908160001a90535060049490941c9361217f81612966565b9050612111565b5083156107ac5760405162461bcd60e51b815260206004820181905260248201527f537472696e67733a20686578206c656e67746820696e73756666696369656e7460448201526064016106f9565b600080608083901c156121ea57608092831c92015b604083901c156121fc57604092831c92015b602083901c1561220e57602092831c92015b601083901c1561222057601092831c92015b600883901c1561223257600892831c92015b600483901c1561224457600492831c92015b600283901c1561225657600292831c92015b600183901c156105725760010192915050565b600081831061227857816107ac565b5090919050565b6001600160a01b0382166122df5760405162461bcd60e51b815260206004820152602160248201527f45524332303a206275726e2066726f6d20746865207a65726f206164647265736044820152607360f81b60648201526084016106f9565b6001600160a01b038216600090815260208190526040902054818110156123535760405162461bcd60e51b815260206004820152602260248201527f45524332303a206275726e20616d6f756e7420657863656564732062616c616e604482015261636560f01b60648201526084016106f9565b6001600160a01b0383166000818152602081815260408083208686039055600280548790039055518581529192917fddf252ad1be2c89b69c2b068fc378daa952ba7f163c4a11628f55a4df523b3ef910160405180910390a361067983600084611b1d565b600060ff8216601f81111561057257604051632cd44ac360e21b815260040160405180910390fd5b8280546123ec906127ba565b90600052602060002090601f01602090048101928261240e5760008555612454565b82601f1061242757805160ff1916838001178555612454565b82800160010185558215612454579182015b82811115612454578251825591602001919060010190612439565b5061106b9291505b8082111561106b576000815560010161245c565b60006020828403121561248257600080fd5b81356001600160e01b0319811681146107ac57600080fd5b60005b838110156124b557818101518382015260200161249d565b83811115610f295750506000910152565b600081518084526124de81602086016020860161249a565b601f01601f19169290920160200192915050565b6020815260006107ac60208301846124c6565b80356001600160a01b038116811461251c57600080fd5b919050565b6000806040838503121561253457600080fd5b61253d83612505565b946020939093013593505050565b60008060006060848603121561256057600080fd5b61256984612505565b925061257760208501612505565b9150604084013590509250925092565b60006020828403121561259957600080fd5b5035919050565b600080604083850312156125b357600080fd5b6125bc83612505565b91506125ca60208401612505565b90509250929050565b600080604083850312156125e657600080fd5b823591506125ca60208401612505565b60006020828403121561260857600080fd5b6107ac82612505565b60ff60f81b881681526000602060e08184015261263160e084018a6124c6565b8381036040850152612643818a6124c6565b606085018990526001600160a01b038816608086015260a0850187905284810360c0860152855180825283870192509083019060005b8181101561269557835183529284019291840191600101612679565b50909c9b505050505050505050505050565b803560ff8116811461251c57600080fd5b60008060008060008060c087890312156126d157600080fd5b6126da87612505565b955060208701359450604087013593506126f6606088016126a7565b92506080870135915060a087013590509295509295509295565b600080600080600080600060e0888a03121561272b57600080fd5b61273488612505565b965061274260208901612505565b9550604088013594506060880135935061275e608089016126a7565b925060a0880135915060c0880135905092959891949750929550565b6000806040838503121561278d57600080fd5b61279683612505565b9150602083013563ffffffff811681146127af57600080fd5b809150509250929050565b600181811c908216806127ce57607f821691505b6020821081141561196457634e487b7160e01b600052602260045260246000fd5b634e487b7160e01b600052601160045260246000fd5b60008219821115612818576128186127ef565b500190565b634e487b7160e01b600052604160045260246000fd5b634e487b7160e01b600052603260045260246000fd5b60008282101561285b5761285b6127ef565b500390565b805160208083015191908110156119645760001960209190910360031b1b16919050565b7f416363657373436f6e74726f6c3a206163636f756e74200000000000000000008152600083516128bc81601785016020880161249a565b7001034b99036b4b9b9b4b733903937b6329607d1b60179184019182015283516128ed81602884016020880161249a565b01602801949350505050565b634e487b7160e01b600052601260045260246000fd5b60008261292c57634e487b7160e01b600052601260045260246000fd5b500490565b634e487b7160e01b600052602160045260246000fd5b6000816000190483118215151615612961576129616127ef565b500290565b600081612975576129756127ef565b50600019019056fea2646970667358221220985834e3133ee40daa8c127a7e6b006d2c6bd86758e1d4842729fc35fecff7d464736f6c63430008090033dec2bacdd2f05b59de34da9b523dff8be42e5e38e818c82fdb0bae774387a724",
    "linkReferences": {},
    "deployedLinkReferences": {}
}