{
  "_format": "hh-sol-artifact-1",
  "contractName": "Liblock",
  "sourceName": "contracts/liblock.sol",
  "abi": [
    {
      "inputs": [],
      "stateMutability": "nonpayable",
      "type": "constructor"
    },
    {
      "inputs": [],
      "name": "InvalidShortString",
      "type": "error"
    },
    {
      "inputs": [
        {
          "internalType": "string",
          "name": "str",
          "type": "string"
        }
      ],
      "name": "StringTooLong",
      "type": "error"
    },
    {
      "anonymous": false,
      "inputs": [
        {
          "indexed": true,
          "internalType": "address",
          "name": "owner",
          "type": "address"
        },
        {
          "indexed": true,
          "internalType": "address",
          "name": "spender",
          "type": "address"
        },
        {
          "indexed": false,
          "internalType": "uint256",
          "name": "value",
          "type": "uint256"
        }
      ],
      "name": "Approval",
      "type": "event"
    },
    {
      "anonymous": false,
      "inputs": [
        {
          "indexed": true,
          "internalType": "address",
          "name": "delegator",
          "type": "address"
        },
        {
          "indexed": true,
          "internalType": "address",
          "name": "fromDelegate",
          "type": "address"
        },
        {
          "indexed": true,
          "internalType": "address",
          "name": "toDelegate",
          "type": "address"
        }
      ],
      "name": "DelegateChanged",
      "type": "event"
    },
    {
      "anonymous": false,
      "inputs": [
        {
          "indexed": true,
          "internalType": "address",
          "name": "delegate",
          "type": "address"
        },
        {
          "indexed": false,
          "internalType": "uint256",
          "name": "previousBalance",
          "type": "uint256"
        },
        {
          "indexed": false,
          "internalType": "uint256",
          "name": "newBalance",
          "type": "uint256"
        }
      ],
      "name": "DelegateVotesChanged",
      "type": "event"
    },
    {
      "anonymous": false,
      "inputs": [],
      "name": "EIP712DomainChanged",
      "type": "event"
    },
    {
      "anonymous": false,
      "inputs": [
        {
          "indexed": true,
          "internalType": "bytes32",
          "name": "role",
          "type": "bytes32"
        },
        {
          "indexed": true,
          "internalType": "bytes32",
          "name": "previousAdminRole",
          "type": "bytes32"
        },
        {
          "indexed": true,
          "internalType": "bytes32",
          "name": "newAdminRole",
          "type": "bytes32"
        }
      ],
      "name": "RoleAdminChanged",
      "type": "event"
    },
    {
      "anonymous": false,
      "inputs": [
        {
          "indexed": true,
          "internalType": "bytes32",
          "name": "role",
          "type": "bytes32"
        },
        {
          "indexed": true,
          "internalType": "address",
          "name": "account",
          "type": "address"
        },
        {
          "indexed": true,
          "internalType": "address",
          "name": "sender",
          "type": "address"
        }
      ],
      "name": "RoleGranted",
      "type": "event"
    },
    {
      "anonymous": false,
      "inputs": [
        {
          "indexed": true,
          "internalType": "bytes32",
          "name": "role",
          "type": "bytes32"
        },
        {
          "indexed": true,
          "internalType": "address",
          "name": "account",
          "type": "address"
        },
        {
          "indexed": true,
          "internalType": "address",
          "name": "sender",
          "type": "address"
        }
      ],
      "name": "RoleRevoked",
      "type": "event"
    },
    {
      "anonymous": false,
      "inputs": [
        {
          "indexed": true,
          "internalType": "address",
          "name": "from",
          "type": "address"
        },
        {
          "indexed": true,
          "internalType": "address",
          "name": "to",
          "type": "address"
        },
        {
          "indexed": false,
          "internalType": "uint256",
          "name": "value",
          "type": "uint256"
        }
      ],
      "name": "Transfer",
      "type": "event"
    },
    {
      "inputs": [],
      "name": "CLOCK_MODE",
      "outputs": [
        {
          "internalType": "string",
          "name": "",
          "type": "string"
        }
      ],
      "stateMutability": "view",
      "type": "function"
    },
    {
      "inputs": [],
      "name": "DEFAULT_ADMIN_ROLE",
      "outputs": [
        {
          "internalType": "bytes32",
          "name": "",
          "type": "bytes32"
        }
      ],
      "stateMutability": "view",
      "type": "function"
    },
    {
      "inputs": [],
      "name": "DOMAIN_SEPARATOR",
      "outputs": [
        {
          "internalType": "bytes32",
          "name": "",
          "type": "bytes32"
        }
      ],
      "stateMutability": "view",
      "type": "function"
    },
    {
      "inputs": [
        {
          "internalType": "address",
          "name": "owner",
          "type": "address"
        },
        {
          "internalType": "address",
          "name": "spender",
          "type": "address"
        }
      ],
      "name": "allowance",
      "outputs": [
        {
          "internalType": "uint256",
          "name": "",
          "type": "uint256"
        }
      ],
      "stateMutability": "view",
      "type": "function"
    },
    {
      "inputs": [
        {
          "internalType": "address",
          "name": "spender",
          "type": "address"
        },
        {
          "internalType": "uint256",
          "name": "amount",
          "type": "uint256"
        }
      ],
      "name": "approve",
      "outputs": [
        {
          "internalType": "bool",
          "name": "",
          "type": "bool"
        }
      ],
      "stateMutability": "nonpayable",
      "type": "function"
    },
    {
      "inputs": [
        {
          "internalType": "address",
          "name": "account",
          "type": "address"
        }
      ],
      "name": "balanceOf",
      "outputs": [
        {
          "internalType": "uint256",
          "name": "",
          "type": "uint256"
        }
      ],
      "stateMutability": "view",
      "type": "function"
    },
    {
      "inputs": [
        {
          "internalType": "uint256",
          "name": "amount",
          "type": "uint256"
        }
      ],
      "name": "burn",
      "outputs": [],
      "stateMutability": "nonpayable",
      "type": "function"
    },
    {
      "inputs": [
        {
          "internalType": "address",
          "name": "account",
          "type": "address"
        },
        {
          "internalType": "uint256",
          "name": "amount",
          "type": "uint256"
        }
      ],
      "name": "burnFrom",
      "outputs": [],
      "stateMutability": "nonpayable",
      "type": "function"
    },
    {
      "inputs": [
        {
          "internalType": "address",
          "name": "account",
          "type": "address"
        },
        {
          "internalType": "uint32",
          "name": "pos",
          "type": "uint32"
        }
      ],
      "name": "checkpoints",
      "outputs": [
        {
          "components": [
            {
              "internalType": "uint32",
              "name": "fromBlock",
              "type": "uint32"
            },
            {
              "internalType": "uint224",
              "name": "votes",
              "type": "uint224"
            }
          ],
          "internalType": "struct ERC20Votes.Checkpoint",
          "name": "",
          "type": "tuple"
        }
      ],
      "stateMutability": "view",
      "type": "function"
    },
    {
      "inputs": [],
      "name": "clock",
      "outputs": [
        {
          "internalType": "uint48",
          "name": "",
          "type": "uint48"
        }
      ],
      "stateMutability": "view",
      "type": "function"
    },
    {
      "inputs": [],
      "name": "decimals",
      "outputs": [
        {
          "internalType": "uint8",
          "name": "",
          "type": "uint8"
        }
      ],
      "stateMutability": "view",
      "type": "function"
    },
    {
      "inputs": [
        {
          "internalType": "address",
          "name": "spender",
          "type": "address"
        },
        {
          "internalType": "uint256",
          "name": "subtractedValue",
          "type": "uint256"
        }
      ],
      "name": "decreaseAllowance",
      "outputs": [
        {
          "internalType": "bool",
          "name": "",
          "type": "bool"
        }
      ],
      "stateMutability": "nonpayable",
      "type": "function"
    },
    {
      "inputs": [
        {
          "internalType": "address",
          "name": "delegatee",
          "type": "address"
        }
      ],
      "name": "delegate",
      "outputs": [],
      "stateMutability": "nonpayable",
      "type": "function"
    },
    {
      "inputs": [
        {
          "internalType": "address",
          "name": "delegatee",
          "type": "address"
        },
        {
          "internalType": "uint256",
          "name": "nonce",
          "type": "uint256"
        },
        {
          "internalType": "uint256",
          "name": "expiry",
          "type": "uint256"
        },
        {
          "internalType": "uint8",
          "name": "v",
          "type": "uint8"
        },
        {
          "internalType": "bytes32",
          "name": "r",
          "type": "bytes32"
        },
        {
          "internalType": "bytes32",
          "name": "s",
          "type": "bytes32"
        }
      ],
      "name": "delegateBySig",
      "outputs": [],
      "stateMutability": "nonpayable",
      "type": "function"
    },
    {
      "inputs": [
        {
          "internalType": "address",
          "name": "account",
          "type": "address"
        }
      ],
      "name": "delegates",
      "outputs": [
        {
          "internalType": "address",
          "name": "",
          "type": "address"
        }
      ],
      "stateMutability": "view",
      "type": "function"
    },
    {
      "inputs": [],
      "name": "eip712Domain",
      "outputs": [
        {
          "internalType": "bytes1",
          "name": "fields",
          "type": "bytes1"
        },
        {
          "internalType": "string",
          "name": "name",
          "type": "string"
        },
        {
          "internalType": "string",
          "name": "version",
          "type": "string"
        },
        {
          "internalType": "uint256",
          "name": "chainId",
          "type": "uint256"
        },
        {
          "internalType": "address",
          "name": "verifyingContract",
          "type": "address"
        },
        {
          "internalType": "bytes32",
          "name": "salt",
          "type": "bytes32"
        },
        {
          "internalType": "uint256[]",
          "name": "extensions",
          "type": "uint256[]"
        }
      ],
      "stateMutability": "view",
      "type": "function"
    },
    {
      "inputs": [
        {
          "internalType": "uint256",
          "name": "timepoint",
          "type": "uint256"
        }
      ],
      "name": "getPastTotalSupply",
      "outputs": [
        {
          "internalType": "uint256",
          "name": "",
          "type": "uint256"
        }
      ],
      "stateMutability": "view",
      "type": "function"
    },
    {
      "inputs": [
        {
          "internalType": "address",
          "name": "account",
          "type": "address"
        },
        {
          "internalType": "uint256",
          "name": "timepoint",
          "type": "uint256"
        }
      ],
      "name": "getPastVotes",
      "outputs": [
        {
          "internalType": "uint256",
          "name": "",
          "type": "uint256"
        }
      ],
      "stateMutability": "view",
      "type": "function"
    },
    {
      "inputs": [
        {
          "internalType": "bytes32",
          "name": "role",
          "type": "bytes32"
        }
      ],
      "name": "getRoleAdmin",
      "outputs": [
        {
          "internalType": "bytes32",
          "name": "",
          "type": "bytes32"
        }
      ],
      "stateMutability": "view",
      "type": "function"
    },
    {
      "inputs": [
        {
          "internalType": "address",
          "name": "account",
          "type": "address"
        }
      ],
      "name": "getVotes",
      "outputs": [
        {
          "internalType": "uint256",
          "name": "",
          "type": "uint256"
        }
      ],
      "stateMutability": "view",
      "type": "function"
    },
    {
      "inputs": [
        {
          "internalType": "bytes32",
          "name": "role",
          "type": "bytes32"
        },
        {
          "internalType": "address",
          "name": "account",
          "type": "address"
        }
      ],
      "name": "grantRole",
      "outputs": [],
      "stateMutability": "nonpayable",
      "type": "function"
    },
    {
      "inputs": [
        {
          "internalType": "bytes32",
          "name": "role",
          "type": "bytes32"
        },
        {
          "internalType": "address",
          "name": "account",
          "type": "address"
        }
      ],
      "name": "hasRole",
      "outputs": [
        {
          "internalType": "bool",
          "name": "",
          "type": "bool"
        }
      ],
      "stateMutability": "view",
      "type": "function"
    },
    {
      "inputs": [
        {
          "internalType": "address",
          "name": "spender",
          "type": "address"
        },
        {
          "internalType": "uint256",
          "name": "addedValue",
          "type": "uint256"
        }
      ],
      "name": "increaseAllowance",
      "outputs": [
        {
          "internalType": "bool",
          "name": "",
          "type": "bool"
        }
      ],
      "stateMutability": "nonpayable",
      "type": "function"
    },
    {
      "inputs": [],
      "name": "name",
      "outputs": [
        {
          "internalType": "string",
          "name": "",
          "type": "string"
        }
      ],
      "stateMutability": "view",
      "type": "function"
    },
    {
      "inputs": [
        {
          "internalType": "address",
          "name": "owner",
          "type": "address"
        }
      ],
      "name": "nonces",
      "outputs": [
        {
          "internalType": "uint256",
          "name": "",
          "type": "uint256"
        }
      ],
      "stateMutability": "view",
      "type": "function"
    },
    {
      "inputs": [
        {
          "internalType": "address",
          "name": "account",
          "type": "address"
        }
      ],
      "name": "numCheckpoints",
      "outputs": [
        {
          "internalType": "uint32",
          "name": "",
          "type": "uint32"
        }
      ],
      "stateMutability": "view",
      "type": "function"
    },
    {
      "inputs": [
        {
          "internalType": "address",
          "name": "owner",
          "type": "address"
        },
        {
          "internalType": "address",
          "name": "spender",
          "type": "address"
        },
        {
          "internalType": "uint256",
          "name": "value",
          "type": "uint256"
        },
        {
          "internalType": "uint256",
          "name": "deadline",
          "type": "uint256"
        },
        {
          "internalType": "uint8",
          "name": "v",
          "type": "uint8"
        },
        {
          "internalType": "bytes32",
          "name": "r",
          "type": "bytes32"
        },
        {
          "internalType": "bytes32",
          "name": "s",
          "type": "bytes32"
        }
      ],
      "name": "permit",
      "outputs": [],
      "stateMutability": "nonpayable",
      "type": "function"
    },
    {
      "inputs": [
        {
          "internalType": "bytes32",
          "name": "role",
          "type": "bytes32"
        },
        {
          "internalType": "address",
          "name": "account",
          "type": "address"
        }
      ],
      "name": "renounceRole",
      "outputs": [],
      "stateMutability": "nonpayable",
      "type": "function"
    },
    {
      "inputs": [
        {
          "internalType": "bytes32",
          "name": "role",
          "type": "bytes32"
        },
        {
          "internalType": "address",
          "name": "account",
          "type": "address"
        }
      ],
      "name": "revokeRole",
      "outputs": [],
      "stateMutability": "nonpayable",
      "type": "function"
    },
    {
      "inputs": [
        {
          "internalType": "bytes4",
          "name": "interfaceId",
          "type": "bytes4"
        }
      ],
      "name": "supportsInterface",
      "outputs": [
        {
          "internalType": "bool",
          "name": "",
          "type": "bool"
        }
      ],
      "stateMutability": "view",
      "type": "function"
    },
    {
      "inputs": [],
      "name": "symbol",
      "outputs": [
        {
          "internalType": "string",
          "name": "",
          "type": "string"
        }
      ],
      "stateMutability": "view",
      "type": "function"
    },
    {
      "inputs": [],
      "name": "totalSupply",
      "outputs": [
        {
          "internalType": "uint256",
          "name": "",
          "type": "uint256"
        }
      ],
      "stateMutability": "view",
      "type": "function"
    },
    {
      "inputs": [
        {
          "internalType": "address",
          "name": "to",
          "type": "address"
        },
        {
          "internalType": "uint256",
          "name": "amount",
          "type": "uint256"
        }
      ],
      "name": "transfer",
      "outputs": [
        {
          "internalType": "bool",
          "name": "",
          "type": "bool"
        }
      ],
      "stateMutability": "nonpayable",
      "type": "function"
    },
    {
      "inputs": [
        {
          "internalType": "address",
          "name": "from",
          "type": "address"
        },
        {
          "internalType": "address",
          "name": "to",
          "type": "address"
        },
        {
          "internalType": "uint256",
          "name": "amount",
          "type": "uint256"
        }
      ],
      "name": "transferFrom",
      "outputs": [
        {
          "internalType": "bool",
          "name": "",
          "type": "bool"
        }
      ],
      "stateMutability": "nonpayable",
      "type": "function"
    }
  ],
  "bytecode": "0x6101606040523480156200001257600080fd5b50604051806040016040528060078152602001664c69626c6f636b60c81b81525080604051806040016040528060018152602001603160f81b815250604051806040016040528060078152602001664c69626c6f636b60c81b815250604051806040016040528060038152602001622624a160e91b8152508160039080519060200190620000a29291906200099c565b508051620000b89060049060208401906200099c565b505050620000d6600683620001e860201b62000e3d1790919060201c565b61012052620000f3816007620001e8602090811b62000e3d17901c565b61014052815160208084019190912060e052815190820120610100524660a0526200018160e05161010051604080517f8b73c3c69bb8fe3d512ecc4cf759cc79239f7b179b0ffacaa9a75d522b39400f60208201529081019290925260608201524660808201523060a082015260009060c00160405160208183030381529060405280519060200120905090565b60805250503060c05250620001b2336200019e6012600a62000b4b565b620001ac906103e862000b5c565b6200023c565b620001d530620001c56012600a62000b4b565b620001ac906303dfce5862000b5c565b620001e260003362000257565b62000c6a565b600060208351101562000208576200020083620002fb565b905062000236565b826200021f836200034760201b62000e741760201c565b81516200023092602001906200099c565b5060ff90505b92915050565b6200025382826200034a60201b62000e771760201c565b5050565b60008281526005602090815260408083206001600160a01b038516845290915290205460ff16620002535760008281526005602090815260408083206001600160a01b03851684529091529020805460ff19166001179055620002b73390565b6001600160a01b0316816001600160a01b0316837f2f8788117e7eff1d82e926ec794901d17c78024a50270940304540a733656f0d60405160405180910390a45050565b600080829050601f8151111562000332578260405163305a27a960e01b815260040162000329919062000b7e565b60405180910390fd5b80516200033f8262000bd6565b179392505050565b90565b620003618282620003fd60201b62000f071760201c565b6001600160e01b0362000375620004ca8216565b1115620003de5760405162461bcd60e51b815260206004820152603060248201527f4552433230566f7465733a20746f74616c20737570706c79207269736b73206f60448201526f766572666c6f77696e6720766f74657360801b606482015260840162000329565b620003f7600c62000fce620004d060201b1783620004e5565b50505050565b6001600160a01b038216620004555760405162461bcd60e51b815260206004820152601f60248201527f45524332303a206d696e7420746f20746865207a65726f206164647265737300604482015260640162000329565b806002600082825462000469919062000bfe565b90915550506001600160a01b038216600081815260208181526040808320805486019055518481527fddf252ad1be2c89b69c2b068fc378daa952ba7f163c4a11628f55a4df523b3ef910160405180910390a3620002536000838362000693565b60025490565b6000620004de828462000bfe565b9392505050565b82546000908190818115620005345760008781526020902082016000190160408051808201909152905463ffffffff8116825264010000000090046001600160e01b0316602082015262000549565b60408051808201909152600080825260208201525b905080602001516001600160e01b031693506200056784868860201c565b92506000821180156200059457506200057f620006ab565b65ffffffffffff16816000015163ffffffff16145b15620005e857620005b083620006c860201b62000fda1760201c565b60008881526020902083016000190180546001600160e01b03929092166401000000000263ffffffff90921691909117905562000684565b8660405180604001604052806200062162000608620006ab60201b60201c565b65ffffffffffff166200073760201b620010471760201c565b63ffffffff1681526020016200064286620006c860201b62000fda1760201c565b6001600160e01b0390811690915282546001810184556000938452602093849020835194909301519091166401000000000263ffffffff909316929092179101555b5050935093915050565b505050565b6200068e8383836200079e60201b620010ac1760201c565b6000620006c343620007ea60201b620010de1760201c565b905090565b60006001600160e01b03821115620007335760405162461bcd60e51b815260206004820152602760248201527f53616665436173743a2076616c756520646f65736e27742066697420696e20326044820152663234206269747360c81b606482015260840162000329565b5090565b600063ffffffff821115620007335760405162461bcd60e51b815260206004820152602660248201527f53616665436173743a2076616c756520646f65736e27742066697420696e203360448201526532206269747360d01b606482015260840162000329565b620007b68383836200068e60201b6200064d1760201c565b6001600160a01b038381166000908152600a60205260408082205485841683529120546200068e9291821691168362000853565b600065ffffffffffff821115620007335760405162461bcd60e51b815260206004820152602660248201527f53616665436173743a2076616c756520646f65736e27742066697420696e203460448201526538206269747360d01b606482015260840162000329565b816001600160a01b0316836001600160a01b031614158015620008765750600081115b156200068e576001600160a01b0383161562000903576001600160a01b0383166000908152600b6020908152604082208291620008c091906200098e901b620011451785620004e5565b91509150846001600160a01b0316600080516020620036508339815191528383604051620008f8929190918252602082015260400190565b60405180910390a250505b6001600160a01b038216156200068e576001600160a01b0382166000908152600b6020908152604082208291620009479190620004d0901b62000fce1785620004e5565b91509150836001600160a01b03166000805160206200365083398151915283836040516200097f929190918252602082015260400190565b60405180910390a25050505050565b6000620004de828462000c19565b828054620009aa9062000c33565b90600052602060002090601f016020900481019282620009ce576000855562000a19565b82601f10620009e957805160ff191683800117855562000a19565b8280016001018555821562000a19579182015b8281111562000a19578251825591602001919060010190620009fc565b50620007339291505b8082111562000733576000815560010162000a22565b634e487b7160e01b600052601160045260246000fd5b600181815b8085111562000a8f57816000190482111562000a735762000a7362000a38565b8085161562000a8157918102915b93841c939080029062000a53565b509250929050565b60008262000aa85750600162000236565b8162000ab75750600062000236565b816001811462000ad0576002811462000adb5762000afb565b600191505062000236565b60ff84111562000aef5762000aef62000a38565b50506001821b62000236565b5060208310610133831016604e8410600b841016171562000b20575081810a62000236565b62000b2c838362000a4e565b806000190482111562000b435762000b4362000a38565b029392505050565b6000620004de60ff84168362000a97565b600081600019048311821515161562000b795762000b7962000a38565b500290565b600060208083528351808285015260005b8181101562000bad5785810183015185820160400152820162000b8f565b8181111562000bc0576000604083870101525b50601f01601f1916929092016040019392505050565b8051602080830151919081101562000bf8576000198160200360031b1b821691505b50919050565b6000821982111562000c145762000c1462000a38565b500190565b60008282101562000c2e5762000c2e62000a38565b500390565b600181811c9082168062000c4857607f821691505b6020821081141562000bf857634e487b7160e01b600052602260045260246000fd5b60805160a05160c05160e05161010051610120516101405161298b62000cc560003960006108c80152600061089d015260006115fd015260006115d5015260006115300152600061155a01526000611584015261298b6000f3fe608060405234801561001057600080fd5b50600436106102065760003560e01c806370a082311161011a5780639ab24eb0116100ad578063c3cda5201161007c578063c3cda5201461049a578063d505accf146104ad578063d547741f146104c0578063dd62ed3e146104d3578063f1127ed8146104e657600080fd5b80639ab24eb014610459578063a217fddf1461046c578063a457c2d714610474578063a9059cbb1461048757600080fd5b80638e539e8c116100e95780638e539e8c1461040c57806391d148541461041f57806391ddadf41461043257806395d89b411461045157600080fd5b806370a08231146103a257806379cc6790146103cb5780637ecebe00146103de57806384b0196e146103f157600080fd5b80633644e5151161019d57806342966c681161016c57806342966c68146103085780634bf5d7e91461031b578063587cde1e146103235780635c19a95c146103675780636fcfff451461037a57600080fd5b80633644e515146102c757806336568abe146102cf57806339509351146102e25780633a46b1a8146102f557600080fd5b806323b872dd116101d957806323b872dd1461026d578063248a9ca3146102805780632f2ff15d146102a3578063313ce567146102b857600080fd5b806301ffc9a71461020b57806306fdde0314610233578063095ea7b31461024857806318160ddd1461025b575b600080fd5b61021e610219366004612448565b610523565b60405190151581526020015b60405180910390f35b61023b61055a565b60405161022a91906124ca565b61021e6102563660046124f9565b6105ec565b6002545b60405190815260200161022a565b61021e61027b366004612523565b610604565b61025f61028e36600461255f565b60009081526005602052604090206001015490565b6102b66102b1366004612578565b610628565b005b6040516012815260200161022a565b61025f610652565b6102b66102dd366004612578565b610661565b61021e6102f03660046124f9565b6106e4565b61025f6103033660046124f9565b610706565b6102b661031636600461255f565b61078b565b61023b610798565b61034f6103313660046125a4565b6001600160a01b039081166000908152600a60205260409020541690565b6040516001600160a01b03909116815260200161022a565b6102b66103753660046125a4565b610830565b61038d6103883660046125a4565b61083a565b60405163ffffffff909116815260200161022a565b61025f6103b03660046125a4565b6001600160a01b031660009081526020819052604090205490565b6102b66103d93660046124f9565b61085c565b61025f6103ec3660046125a4565b610871565b6103f961088f565b60405161022a97969594939291906125bf565b61025f61041a36600461255f565b610918565b61021e61042d366004612578565b61097f565b61043a6109aa565b60405165ffffffffffff909116815260200161022a565b61023b6109b5565b61025f6104673660046125a4565b6109c4565b61025f600081565b61021e6104823660046124f9565b610a46565b61021e6104953660046124f9565b610ac1565b6102b66104a8366004612666565b610acf565b6102b66104bb3660046126be565b610c05565b6102b66104ce366004612578565b610d69565b61025f6104e1366004612728565b610d8e565b6104f96104f4366004612752565b610db9565b60408051825163ffffffff1681526020928301516001600160e01b0316928101929092520161022a565b60006001600160e01b03198216637965db0b60e01b148061055457506301ffc9a760e01b6001600160e01b03198316145b92915050565b60606003805461056990612792565b80601f016020809104026020016040519081016040528092919081815260200182805461059590612792565b80156105e25780601f106105b7576101008083540402835291602001916105e2565b820191906000526020600020905b8154815290600101906020018083116105c557829003601f168201915b5050505050905090565b6000336105fa818585611151565b5060019392505050565b600033610612858285611275565b61061d8585856112e9565b506001949350505050565b60008281526005602052604090206001015461064381611493565b61064d838361149d565b505050565b600061065c611523565b905090565b6001600160a01b03811633146106d65760405162461bcd60e51b815260206004820152602f60248201527f416363657373436f6e74726f6c3a2063616e206f6e6c792072656e6f756e636560448201526e103937b632b9903337b91039b2b63360891b60648201526084015b60405180910390fd5b6106e0828261164e565b5050565b6000336105fa8185856106f78383610d8e565b61070191906127dd565b611151565b60006107106109aa565b65ffffffffffff1682106107625760405162461bcd60e51b815260206004820152601960248201527804552433230566f7465733a20667574757265206c6f6f6b757603c1b60448201526064016106cd565b6001600160a01b0383166000908152600b6020526040902061078490836116b5565b9392505050565b610795338261179e565b50565b6060436107a36109aa565b65ffffffffffff16146107f85760405162461bcd60e51b815260206004820152601d60248201527f4552433230566f7465733a2062726f6b656e20636c6f636b206d6f646500000060448201526064016106cd565b5060408051808201909152601d81527f6d6f64653d626c6f636b6e756d6265722666726f6d3d64656661756c74000000602082015290565b61079533826117a8565b6001600160a01b0381166000908152600b602052604081205461055490611047565b610867823383611275565b6106e0828261179e565b6001600160a01b038116600090815260086020526040812054610554565b6000606080828080836108c37f00000000000000000000000000000000000000000000000000000000000000006006611821565b6108ee7f00000000000000000000000000000000000000000000000000000000000000006007611821565b60408051600080825260208201909252600f60f81b9b939a50919850469750309650945092509050565b60006109226109aa565b65ffffffffffff1682106109745760405162461bcd60e51b815260206004820152601960248201527804552433230566f7465733a20667574757265206c6f6f6b757603c1b60448201526064016106cd565b610554600c836116b5565b60009182526005602090815260408084206001600160a01b0393909316845291905290205460ff1690565b600061065c436110de565b60606004805461056990612792565b6001600160a01b0381166000908152600b60205260408120548015610a33576001600160a01b0383166000908152600b6020526040902080546000198301908110610a1157610a1161280b565b60009182526020909120015464010000000090046001600160e01b0316610a36565b60005b6001600160e01b03169392505050565b60003381610a548286610d8e565b905083811015610ab45760405162461bcd60e51b815260206004820152602560248201527f45524332303a2064656372656173656420616c6c6f77616e63652062656c6f77604482015264207a65726f60d81b60648201526084016106cd565b61061d8286868403611151565b6000336105fa8185856112e9565b83421115610b1f5760405162461bcd60e51b815260206004820152601d60248201527f4552433230566f7465733a207369676e6174757265206578706972656400000060448201526064016106cd565b604080517fe48329057bfd03d55e49b547132e39cffd9c1820ad7b9d4c5307691425d15adf60208201526001600160a01b038816918101919091526060810186905260808101859052600090610b9990610b919060a001604051602081830303815290604052805190602001206118c5565b8585856118f2565b9050610ba48161191a565b8614610bf25760405162461bcd60e51b815260206004820152601960248201527f4552433230566f7465733a20696e76616c6964206e6f6e63650000000000000060448201526064016106cd565b610bfc81886117a8565b50505050505050565b83421115610c555760405162461bcd60e51b815260206004820152601d60248201527f45524332305065726d69743a206578706972656420646561646c696e6500000060448201526064016106cd565b60007f6e71edae12b1b97f4d1f60370fef10105fa2faae0126114a169c64845d6126c9888888610c848c61191a565b6040805160208101969096526001600160a01b0394851690860152929091166060840152608083015260a082015260c0810186905260e0016040516020818303038152906040528051906020012090506000610cdf826118c5565b90506000610cef828787876118f2565b9050896001600160a01b0316816001600160a01b031614610d525760405162461bcd60e51b815260206004820152601e60248201527f45524332305065726d69743a20696e76616c6964207369676e6174757265000060448201526064016106cd565b610d5d8a8a8a611151565b50505050505050505050565b600082815260056020526040902060010154610d8481611493565b61064d838361164e565b6001600160a01b03918216600090815260016020908152604080832093909416825291909152205490565b60408051808201909152600080825260208201526001600160a01b0383166000908152600b60205260409020805463ffffffff8416908110610dfd57610dfd61280b565b60009182526020918290206040805180820190915291015463ffffffff8116825264010000000090046001600160e01b0316918101919091529392505050565b6000602083511015610e5957610e5283611942565b9050610554565b82828151610e6a92602001906123b8565b5060ff9050610554565b90565b610e818282610f07565b6002546001600160e01b031015610ef35760405162461bcd60e51b815260206004820152603060248201527f4552433230566f7465733a20746f74616c20737570706c79207269736b73206f60448201526f766572666c6f77696e6720766f74657360801b60648201526084016106cd565b610f01600c610fce83611980565b50505050565b6001600160a01b038216610f5d5760405162461bcd60e51b815260206004820152601f60248201527f45524332303a206d696e7420746f20746865207a65726f20616464726573730060448201526064016106cd565b8060026000828254610f6f91906127dd565b90915550506001600160a01b038216600081815260208181526040808320805486019055518481527fddf252ad1be2c89b69c2b068fc378daa952ba7f163c4a11628f55a4df523b3ef910160405180910390a36106e060008383611af5565b600061078482846127dd565b60006001600160e01b038211156110435760405162461bcd60e51b815260206004820152602760248201527f53616665436173743a2076616c756520646f65736e27742066697420696e20326044820152663234206269747360c81b60648201526084016106cd565b5090565b600063ffffffff8211156110435760405162461bcd60e51b815260206004820152602660248201527f53616665436173743a2076616c756520646f65736e27742066697420696e203360448201526532206269747360d01b60648201526084016106cd565b6001600160a01b038381166000908152600a602052604080822054858416835291205461064d92918216911683611b00565b600065ffffffffffff8211156110435760405162461bcd60e51b815260206004820152602660248201527f53616665436173743a2076616c756520646f65736e27742066697420696e203460448201526538206269747360d01b60648201526084016106cd565b60006107848284612821565b6001600160a01b0383166111b35760405162461bcd60e51b8152602060048201526024808201527f45524332303a20617070726f76652066726f6d20746865207a65726f206164646044820152637265737360e01b60648201526084016106cd565b6001600160a01b0382166112145760405162461bcd60e51b815260206004820152602260248201527f45524332303a20617070726f766520746f20746865207a65726f206164647265604482015261737360f01b60648201526084016106cd565b6001600160a01b0383811660008181526001602090815260408083209487168084529482529182902085905590518481527f8c5be1e5ebec7d5bd14f71427d1e84f3dd0314c0f7b2291e5b200ac8c7c3b925910160405180910390a3505050565b60006112818484610d8e565b90506000198114610f0157818110156112dc5760405162461bcd60e51b815260206004820152601d60248201527f45524332303a20696e73756666696369656e7420616c6c6f77616e636500000060448201526064016106cd565b610f018484848403611151565b6001600160a01b03831661134d5760405162461bcd60e51b815260206004820152602560248201527f45524332303a207472616e736665722066726f6d20746865207a65726f206164604482015264647265737360d81b60648201526084016106cd565b6001600160a01b0382166113af5760405162461bcd60e51b815260206004820152602360248201527f45524332303a207472616e7366657220746f20746865207a65726f206164647260448201526265737360e81b60648201526084016106cd565b6001600160a01b038316600090815260208190526040902054818110156114275760405162461bcd60e51b815260206004820152602660248201527f45524332303a207472616e7366657220616d6f756e7420657863656564732062604482015265616c616e636560d01b60648201526084016106cd565b6001600160a01b03848116600081815260208181526040808320878703905593871680835291849020805487019055925185815290927fddf252ad1be2c89b69c2b068fc378daa952ba7f163c4a11628f55a4df523b3ef910160405180910390a3610f01848484611af5565b6107958133611c3d565b6114a7828261097f565b6106e05760008281526005602090815260408083206001600160a01b03851684529091529020805460ff191660011790556114df3390565b6001600160a01b0316816001600160a01b0316837f2f8788117e7eff1d82e926ec794901d17c78024a50270940304540a733656f0d60405160405180910390a45050565b6000306001600160a01b037f00000000000000000000000000000000000000000000000000000000000000001614801561157c57507f000000000000000000000000000000000000000000000000000000000000000046145b156115a657507f000000000000000000000000000000000000000000000000000000000000000090565b61065c604080517f8b73c3c69bb8fe3d512ecc4cf759cc79239f7b179b0ffacaa9a75d522b39400f60208201527f0000000000000000000000000000000000000000000000000000000000000000918101919091527f000000000000000000000000000000000000000000000000000000000000000060608201524660808201523060a082015260009060c00160405160208183030381529060405280519060200120905090565b611658828261097f565b156106e05760008281526005602090815260408083206001600160a01b0385168085529252808320805460ff1916905551339285917ff6391f5c32d9c69d2a47ea670b442974b53935d1edc7fd64eb21e047a839171b9190a45050565b81546000908181600581111561170f5760006116d084611c96565b6116da9085612821565b600088815260209020909150869082015463ffffffff1611156116ff5780915061170d565b61170a8160016127dd565b92505b505b8082101561175c5760006117238383611d7b565b600088815260209020909150869082015463ffffffff16111561174857809150611756565b6117538160016127dd565b92505b5061170f565b8015611788576000868152602090208101600019015464010000000090046001600160e01b031661178b565b60005b6001600160e01b03169695505050505050565b6106e08282611d96565b6001600160a01b038281166000818152600a60208181526040808420805485845282862054949093528787166001600160a01b03198416811790915590519190951694919391928592917f3134e8a2e6d97e929a7e54011ea5485d7d196dd5f0ba4d4ef95803e8e3fc257f9190a4610f01828483611b00565b606060ff831461183457610e5283611dae565b81805461184090612792565b80601f016020809104026020016040519081016040528092919081815260200182805461186c90612792565b80156118b95780601f1061188e576101008083540402835291602001916118b9565b820191906000526020600020905b81548152906001019060200180831161189c57829003601f168201915b50505050509050610554565b60006105546118d2611523565b8360405161190160f01b8152600281019290925260228201526042902090565b600080600061190387878787611ded565b9150915061191081611eb1565b5095945050505050565b6001600160a01b03811660009081526008602052604090208054600181018255905b50919050565b600080829050601f8151111561196d578260405163305a27a960e01b81526004016106cd91906124ca565b805161197882612838565b179392505050565b825460009081908181156119cd5760008781526020902082016000190160408051808201909152905463ffffffff8116825264010000000090046001600160e01b031660208201526119e2565b60408051808201909152600080825260208201525b905080602001516001600160e01b03169350611a0284868863ffffffff16565b9250600082118015611a2c5750611a176109aa565b65ffffffffffff16816000015163ffffffff16145b15611a7157611a3a83610fda565b60008881526020902083016000190180546001600160e01b03929092166401000000000263ffffffff909216919091179055611aeb565b866040518060400160405280611a95611a886109aa565b65ffffffffffff16611047565b63ffffffff168152602001611aa986610fda565b6001600160e01b0390811690915282546001810184556000938452602093849020835194909301519091166401000000000263ffffffff909316929092179101555b5050935093915050565b61064d8383836110ac565b816001600160a01b0316836001600160a01b031614158015611b225750600081115b1561064d576001600160a01b03831615611bb0576001600160a01b0383166000908152600b602052604081208190611b5d9061114585611980565b91509150846001600160a01b03167fdec2bacdd2f05b59de34da9b523dff8be42e5e38e818c82fdb0bae774387a7248383604051611ba5929190918252602082015260400190565b60405180910390a250505b6001600160a01b0382161561064d576001600160a01b0382166000908152600b602052604081208190611be690610fce85611980565b91509150836001600160a01b03167fdec2bacdd2f05b59de34da9b523dff8be42e5e38e818c82fdb0bae774387a7248383604051611c2e929190918252602082015260400190565b60405180910390a25050505050565b611c47828261097f565b6106e057611c5481611fff565b611c5f836020612011565b604051602001611c7092919061285c565b60408051601f198184030181529082905262461bcd60e51b82526106cd916004016124ca565b600081611ca557506000919050565b60006001611cb2846121ad565b901c6001901b90506001818481611ccb57611ccb6128d1565b048201901c90506001818481611ce357611ce36128d1565b048201901c90506001818481611cfb57611cfb6128d1565b048201901c90506001818481611d1357611d136128d1565b048201901c90506001818481611d2b57611d2b6128d1565b048201901c90506001818481611d4357611d436128d1565b048201901c90506001818481611d5b57611d5b6128d1565b048201901c905061078481828581611d7557611d756128d1565b04612241565b6000611d8a60028484186128e7565b610784908484166127dd565b611da08282612257565b610f01600c61114583611980565b60606000611dbb83612390565b604080516020808252818301909252919250600091906020820181803683375050509182525060208101929092525090565b6000807f7fffffffffffffffffffffffffffffff5d576e7357a4501ddfe92f46681b20a0831115611e245750600090506003611ea8565b6040805160008082526020820180845289905260ff881692820192909252606081018690526080810185905260019060a0016020604051602081039080840390855afa158015611e78573d6000803e3d6000fd5b5050604051601f1901519150506001600160a01b038116611ea157600060019250925050611ea8565b9150600090505b94509492505050565b6000816004811115611ec557611ec5612909565b1415611ece5750565b6001816004811115611ee257611ee2612909565b1415611f305760405162461bcd60e51b815260206004820152601860248201527f45434453413a20696e76616c6964207369676e6174757265000000000000000060448201526064016106cd565b6002816004811115611f4457611f44612909565b1415611f925760405162461bcd60e51b815260206004820152601f60248201527f45434453413a20696e76616c6964207369676e6174757265206c656e6774680060448201526064016106cd565b6003816004811115611fa657611fa6612909565b14156107955760405162461bcd60e51b815260206004820152602260248201527f45434453413a20696e76616c6964207369676e6174757265202773272076616c604482015261756560f01b60648201526084016106cd565b60606105546001600160a01b03831660145b6060600061202083600261291f565b61202b9060026127dd565b67ffffffffffffffff811115612043576120436127f5565b6040519080825280601f01601f19166020018201604052801561206d576020820181803683370190505b509050600360fc1b816000815181106120885761208861280b565b60200101906001600160f81b031916908160001a905350600f60fb1b816001815181106120b7576120b761280b565b60200101906001600160f81b031916908160001a90535060006120db84600261291f565b6120e69060016127dd565b90505b600181111561215e576f181899199a1a9b1b9c1cb0b131b232b360811b85600f166010811061211a5761211a61280b565b1a60f81b8282815181106121305761213061280b565b60200101906001600160f81b031916908160001a90535060049490941c936121578161293e565b90506120e9565b5083156107845760405162461bcd60e51b815260206004820181905260248201527f537472696e67733a20686578206c656e67746820696e73756666696369656e7460448201526064016106cd565b600080608083901c156121c257608092831c92015b604083901c156121d457604092831c92015b602083901c156121e657602092831c92015b601083901c156121f857601092831c92015b600883901c1561220a57600892831c92015b600483901c1561221c57600492831c92015b600283901c1561222e57600292831c92015b600183901c156105545760010192915050565b60008183106122505781610784565b5090919050565b6001600160a01b0382166122b75760405162461bcd60e51b815260206004820152602160248201527f45524332303a206275726e2066726f6d20746865207a65726f206164647265736044820152607360f81b60648201526084016106cd565b6001600160a01b0382166000908152602081905260409020548181101561232b5760405162461bcd60e51b815260206004820152602260248201527f45524332303a206275726e20616d6f756e7420657863656564732062616c616e604482015261636560f01b60648201526084016106cd565b6001600160a01b0383166000818152602081815260408083208686039055600280548790039055518581529192917fddf252ad1be2c89b69c2b068fc378daa952ba7f163c4a11628f55a4df523b3ef910160405180910390a361064d83600084611af5565b600060ff8216601f81111561055457604051632cd44ac360e21b815260040160405180910390fd5b8280546123c490612792565b90600052602060002090601f0160209004810192826123e6576000855561242c565b82601f106123ff57805160ff191683800117855561242c565b8280016001018555821561242c579182015b8281111561242c578251825591602001919060010190612411565b506110439291505b808211156110435760008155600101612434565b60006020828403121561245a57600080fd5b81356001600160e01b03198116811461078457600080fd5b60005b8381101561248d578181015183820152602001612475565b83811115610f015750506000910152565b600081518084526124b6816020860160208601612472565b601f01601f19169290920160200192915050565b602081526000610784602083018461249e565b80356001600160a01b03811681146124f457600080fd5b919050565b6000806040838503121561250c57600080fd5b612515836124dd565b946020939093013593505050565b60008060006060848603121561253857600080fd5b612541846124dd565b925061254f602085016124dd565b9150604084013590509250925092565b60006020828403121561257157600080fd5b5035919050565b6000806040838503121561258b57600080fd5b8235915061259b602084016124dd565b90509250929050565b6000602082840312156125b657600080fd5b610784826124dd565b60ff60f81b881681526000602060e0818401526125df60e084018a61249e565b83810360408501526125f1818a61249e565b606085018990526001600160a01b038816608086015260a0850187905284810360c0860152855180825283870192509083019060005b8181101561264357835183529284019291840191600101612627565b50909c9b505050505050505050505050565b803560ff811681146124f457600080fd5b60008060008060008060c0878903121561267f57600080fd5b612688876124dd565b955060208701359450604087013593506126a460608801612655565b92506080870135915060a087013590509295509295509295565b600080600080600080600060e0888a0312156126d957600080fd5b6126e2886124dd565b96506126f0602089016124dd565b9550604088013594506060880135935061270c60808901612655565b925060a0880135915060c0880135905092959891949750929550565b6000806040838503121561273b57600080fd5b612744836124dd565b915061259b602084016124dd565b6000806040838503121561276557600080fd5b61276e836124dd565b9150602083013563ffffffff8116811461278757600080fd5b809150509250929050565b600181811c908216806127a657607f821691505b6020821081141561193c57634e487b7160e01b600052602260045260246000fd5b634e487b7160e01b600052601160045260246000fd5b600082198211156127f0576127f06127c7565b500190565b634e487b7160e01b600052604160045260246000fd5b634e487b7160e01b600052603260045260246000fd5b600082821015612833576128336127c7565b500390565b8051602080830151919081101561193c5760001960209190910360031b1b16919050565b7f416363657373436f6e74726f6c3a206163636f756e7420000000000000000000815260008351612894816017850160208801612472565b7001034b99036b4b9b9b4b733903937b6329607d1b60179184019182015283516128c5816028840160208801612472565b01602801949350505050565b634e487b7160e01b600052601260045260246000fd5b60008261290457634e487b7160e01b600052601260045260246000fd5b500490565b634e487b7160e01b600052602160045260246000fd5b6000816000190483118215151615612939576129396127c7565b500290565b60008161294d5761294d6127c7565b50600019019056fea2646970667358221220e4e4f0df25c0f8d70962fb2e9fd13c8ff3975f34a347adb5f154f7388793d7f164736f6c63430008090033dec2bacdd2f05b59de34da9b523dff8be42e5e38e818c82fdb0bae774387a724",
  "linkReferences": {},
  "deployedLinkReferences": {}
}