{
  "_format": "hh-sol-artifact-1",
  "contractName": "Liblocked",
  "sourceName": "contracts/liblocked.sol",
  "abi": [
    {
      "inputs": [
        {
          "internalType": "address",
          "name": "_depositToken",
          "type": "address"
        },
        {
          "internalType": "address",
          "name": "_rewardToken",
          "type": "address"
        },
        {
          "internalType": "address",
          "name": "_shareDistributionContract",
          "type": "address"
        }
      ],
      "stateMutability": "nonpayable",
      "type": "constructor"
    },
    {
      "anonymous": false,
      "inputs": [
        {
          "indexed": true,
          "internalType": "address",
          "name": "user",
          "type": "address"
        },
        {
          "indexed": false,
          "internalType": "uint256",
          "name": "amount",
          "type": "uint256"
        },
        {
          "indexed": false,
          "internalType": "uint256",
          "name": "unlockAt",
          "type": "uint256"
        }
      ],
      "name": "TokensLocked",
      "type": "event"
    },
    {
      "anonymous": false,
      "inputs": [
        {
          "indexed": true,
          "internalType": "address",
          "name": "user",
          "type": "address"
        },
        {
          "indexed": false,
          "internalType": "uint256",
          "name": "amount",
          "type": "uint256"
        }
      ],
      "name": "TokensWithdrawn",
      "type": "event"
    },
    {
      "inputs": [
        {
          "internalType": "address",
          "name": "_address",
          "type": "address"
        }
      ],
      "name": "getAddressNounce",
      "outputs": [
        {
          "internalType": "uint256",
          "name": "_nounce",
          "type": "uint256"
        }
      ],
      "stateMutability": "view",
      "type": "function"
    },
    {
      "inputs": [],
      "name": "getContracts",
      "outputs": [
        {
          "internalType": "address",
          "name": "_depositToken",
          "type": "address"
        },
        {
          "internalType": "address",
          "name": "_rewardToken",
          "type": "address"
        },
        {
          "internalType": "address",
          "name": "_shareDistributionContract",
          "type": "address"
        }
      ],
      "stateMutability": "view",
      "type": "function"
    },
    {
      "inputs": [
        {
          "internalType": "address",
          "name": "_address",
          "type": "address"
        },
        {
          "internalType": "uint256",
          "name": "_nounce",
          "type": "uint256"
        }
      ],
      "name": "getLockTimeRemaining",
      "outputs": [
        {
          "internalType": "uint256",
          "name": "lockTime",
          "type": "uint256"
        }
      ],
      "stateMutability": "view",
      "type": "function"
    },
    {
      "inputs": [],
      "name": "getTotalDepositedIssuedToken",
      "outputs": [
        {
          "internalType": "uint256",
          "name": "depositedTokens",
          "type": "uint256"
        },
        {
          "internalType": "uint256",
          "name": "issuedTokens",
          "type": "uint256"
        }
      ],
      "stateMutability": "view",
      "type": "function"
    },
    {
      "inputs": [
        {
          "internalType": "address",
          "name": "",
          "type": "address"
        },
        {
          "internalType": "uint256",
          "name": "",
          "type": "uint256"
        }
      ],
      "name": "ledger",
      "outputs": [
        {
          "internalType": "uint256",
          "name": "amountDeposited",
          "type": "uint256"
        },
        {
          "internalType": "uint256",
          "name": "amountIssued",
          "type": "uint256"
        },
        {
          "internalType": "uint8",
          "name": "ratio",
          "type": "uint8"
        },
        {
          "internalType": "uint256",
          "name": "lockedAt",
          "type": "uint256"
        },
        {
          "internalType": "uint256",
          "name": "lockUntil",
          "type": "uint256"
        },
        {
          "internalType": "contract TokenTimelock",
          "name": "lock",
          "type": "address"
        }
      ],
      "stateMutability": "view",
      "type": "function"
    },
    {
      "inputs": [
        {
          "internalType": "uint256",
          "name": "amount",
          "type": "uint256"
        }
      ],
      "name": "lock17",
      "outputs": [],
      "stateMutability": "nonpayable",
      "type": "function"
    },
    {
      "inputs": [
        {
          "internalType": "uint256",
          "name": "amount",
          "type": "uint256"
        }
      ],
      "name": "lock186",
      "outputs": [],
      "stateMutability": "nonpayable",
      "type": "function"
    },
    {
      "inputs": [
        {
          "internalType": "uint256",
          "name": "amount",
          "type": "uint256"
        }
      ],
      "name": "lock279",
      "outputs": [],
      "stateMutability": "nonpayable",
      "type": "function"
    },
    {
      "inputs": [
        {
          "internalType": "uint256",
          "name": "amount",
          "type": "uint256"
        }
      ],
      "name": "lock31",
      "outputs": [],
      "stateMutability": "nonpayable",
      "type": "function"
    },
    {
      "inputs": [
        {
          "internalType": "uint256",
          "name": "amount",
          "type": "uint256"
        }
      ],
      "name": "lock365",
      "outputs": [],
      "stateMutability": "nonpayable",
      "type": "function"
    },
    {
      "inputs": [
        {
          "internalType": "uint256",
          "name": "amount",
          "type": "uint256"
        }
      ],
      "name": "lock93",
      "outputs": [],
      "stateMutability": "nonpayable",
      "type": "function"
    },
    {
      "inputs": [
        {
          "internalType": "uint256",
          "name": "_nounce",
          "type": "uint256"
        }
      ],
      "name": "withdrawTokens",
      "outputs": [],
      "stateMutability": "nonpayable",
      "type": "function"
    }
  ],
  "bytecode": "0x60e06040523480156200001157600080fd5b50604051620020d8380380620020d8833981016040819052620000349162000077565b6001600160a01b0392831660805290821660a0521660c0526000808055600155620000c1565b80516001600160a01b03811681146200007257600080fd5b919050565b6000806000606084860312156200008d57600080fd5b62000098846200005a565b9250620000a8602085016200005a565b9150620000b8604085016200005a565b90509250925092565b60805160a05160c051611f70620001686000396000818161029c015261147c0152600081816102740152818161047b0152818161055001528181611207015281816113a001526113ff01526000818161024f01528181610353015281816108ab0152818161098c01528181610a6e01528181610b4f01528181610c3101528181610dbd01528181610ea801528181610f83015281816112b1015261133b0152611f706000f3fe60806040523480156200001157600080fd5b5060043610620000e55760003560e01c80638f695687116200008b578063de69e87e1162000062578063de69e87e14620002cc578063df191b1614620002e3578063f1f4b04114620002fa57600080fd5b80638f6956871462000213578063940ea8c9146200022a578063c3a2a93a146200024157600080fd5b806360f00ea111620000c057806360f00ea1146200014457806374f1ca3a146200015b5780637a1dba0a14620001f757600080fd5b80630bde2b6414620000ea5780632e2097281462000114578063315a095d146200012d575b600080fd5b62000101620000fb3660046200150b565b62000311565b6040519081526020015b60405180910390f35b6200012b6200012536600462001529565b6200033e565b005b6200012b6200013e36600462001529565b62000426565b620001016200015536600462001543565b62000755565b620001b86200016c36600462001543565b6002602081815260009384526040808520909152918352912080546001820154928201546003830154600484015460059094015492949360ff909216929091906001600160a01b031686565b60408051968752602087019590955260ff90931693850193909352606084015260808301919091526001600160a01b031660a082015260c0016200010b565b600054600154604080519283526020830191909152016200010b565b6200012b6200022436600462001529565b62000896565b6200012b6200023b36600462001529565b62000977565b604080516001600160a01b037f0000000000000000000000000000000000000000000000000000000000000000811682527f0000000000000000000000000000000000000000000000000000000000000000811660208301527f000000000000000000000000000000000000000000000000000000000000000016918101919091526060016200010b565b6200012b620002dd36600462001529565b62000a59565b6200012b620002f436600462001529565b62000b3a565b6200012b6200030b36600462001529565b62000c1c565b6001600160a01b038116600090815260036020526040812054620003389060019062001586565b92915050565b6040516370a0823160e01b81523360048201527f00000000000000000000000000000000000000000000000000000000000000006001600160a01b0316906370a0823190602401602060405180830381865afa158015620003a3573d6000803e3d6000fd5b505050506040513d601f19601f82011682018060405250810190620003c991906200159c565b811115620004125760405162461bcd60e51b81526020600482015260116024820152704e6f7420656e6f75676820746f6b656e7360781b60448201526064015b60405180910390fd5b620004238160696228de8062000cf8565b50565b336000818152600260209081526040808320858452909152908190206005810154600182015491549251636eb1769f60e11b815260048101949094523060248501526001600160a01b039081169391929183917f0000000000000000000000000000000000000000000000000000000000000000169063dd62ed3e90604401602060405180830381865afa158015620004c3573d6000803e3d6000fd5b505050506040513d601f19601f82011682018060405250810190620004e991906200159c565b1015620005395760405162461bcd60e51b815260206004820152601960248201527f4e6f7420656e6f75676820724c494220616c6c6f77616e636500000000000000604482015260640162000409565b6040516370a0823160e01b815233600482015282907f00000000000000000000000000000000000000000000000000000000000000006001600160a01b0316906370a0823190602401602060405180830381865afa158015620005a0573d6000803e3d6000fd5b505050506040513d601f19601f82011682018060405250810190620005c691906200159c565b1015620006165760405162461bcd60e51b815260206004820152601b60248201527f4e6f7420656e6f75676820724c494220746f2077697468647261770000000000604482015260640162000409565b6001600160a01b0383166200066e5760405162461bcd60e51b815260206004820181905260248201527f4e6f20746f6b656e73206c6f636b656420666f722074686973206e6f756e6365604482015260640162000409565b826001600160a01b03166386d1a69f6040518163ffffffff1660e01b8152600401600060405180830381600087803b158015620006aa57600080fd5b505af1158015620006bf573d6000803e3d6000fd5b50505050620006ce82620011d2565b620006db83600062001271565b620006e7333362001314565b80600080828254620006fa919062001586565b92505081905550816001600082825462000715919062001586565b909155505060405182815233907f6352c5382c4a4578e712449ca65e83cdb392d045dfcf1cad9615189db2da244b9060200160405180910390a250505050565b6001600160a01b0382166000908152600360205260408120548210620007e45760405162461bcd60e51b815260206004820152602960248201527f54686973206e6f756e636520646f206e6f7420657869737420666f722074686960448201527f7320616464726573730000000000000000000000000000000000000000000000606482015260840162000409565b6001600160a01b038316600090815260026020908152604080832085845290915290206004015442106200085b5760405162461bcd60e51b815260206004820152601760248201527f546f6b656e7320616c726561647920756e6c6f636b6564000000000000000000604482015260640162000409565b6001600160a01b03831660009081526002602090815260408083208584529091529020600401546200088f90429062001586565b9392505050565b6040516370a0823160e01b81523360048201527f00000000000000000000000000000000000000000000000000000000000000006001600160a01b0316906370a0823190602401602060405180830381865afa158015620008fb573d6000803e3d6000fd5b505050506040513d601f19601f820116820180604052508101906200092191906200159c565b811115620009665760405162461bcd60e51b81526020600482015260116024820152704e6f7420656e6f75676820746f6b656e7360781b604482015260640162000409565b6200042381609162f5370062000cf8565b6040516370a0823160e01b81523360048201527f00000000000000000000000000000000000000000000000000000000000000006001600160a01b0316906370a0823190602401602060405180830381865afa158015620009dc573d6000803e3d6000fd5b505050506040513d601f19601f8201168201806040525081019062000a0291906200159c565b81111562000a475760405162461bcd60e51b81526020600482015260116024820152704e6f7420656e6f75676820746f6b656e7360781b604482015260640162000409565b620004238160aa6301e1338062000cf8565b6040516370a0823160e01b81523360048201527f00000000000000000000000000000000000000000000000000000000000000006001600160a01b0316906370a0823190602401602060405180830381865afa15801562000abe573d6000803e3d6000fd5b505050506040513d601f19601f8201168201806040525081019062000ae491906200159c565b81111562000b295760405162461bcd60e51b81526020600482015260116024820152704e6f7420656e6f75676820746f6b656e7360781b604482015260640162000409565b6200042381607d627a9b8062000cf8565b6040516370a0823160e01b81523360048201527f00000000000000000000000000000000000000000000000000000000000000006001600160a01b0316906370a0823190602401602060405180830381865afa15801562000b9f573d6000803e3d6000fd5b505050506040513d601f19601f8201168201806040525081019062000bc591906200159c565b81111562000c0a5760405162461bcd60e51b81526020600482015260116024820152704e6f7420656e6f75676820746f6b656e7360781b604482015260640162000409565b620004238160a063016fd28062000cf8565b6040516370a0823160e01b81523360048201527f00000000000000000000000000000000000000000000000000000000000000006001600160a01b0316906370a0823190602401602060405180830381865afa15801562000c81573d6000803e3d6000fd5b505050506040513d601f19601f8201168201806040525081019062000ca791906200159c565b81111562000cec5760405162461bcd60e51b81526020600482015260116024820152704e6f7420656e6f75676820746f6b656e7360781b604482015260640162000409565b62000423816064621669805b6000831162000d4a5760405162461bcd60e51b815260206004820181905260248201527f416d6f756e74206d7573742062652067726561746572207468616e207a65726f604482015260640162000409565b60c88260ff16111562000da05760405162461bcd60e51b815260206004820152601160248201527f526174696f20697320746f6f2068696768000000000000000000000000000000604482015260640162000409565b604051636eb1769f60e11b815233600482015230602482015283907f00000000000000000000000000000000000000000000000000000000000000006001600160a01b03169063dd62ed3e90604401602060405180830381865afa15801562000e0d573d6000803e3d6000fd5b505050506040513d601f19601f8201168201806040525081019062000e3391906200159c565b101562000e835760405162461bcd60e51b815260206004820152601860248201527f4e6f7420656e6f756768204c494220616c6c6f77616e63650000000000000000604482015260640162000409565b6000606462000e9660ff851686620015b6565b62000ea29190620015d0565b905060007f00000000000000000000000000000000000000000000000000000000000000003362000eda63ffffffff861642620015f3565b3060405162000ee990620014e0565b6001600160a01b039485168152928416602084015260408301919091529091166060820152608001604051809103906000f08015801562000f2e573d6000803e3d6000fd5b50905062000f3e81600162001271565b6040517f23b872dd0000000000000000000000000000000000000000000000000000000081523360048201526001600160a01b038281166024830152604482018790527f000000000000000000000000000000000000000000000000000000000000000016906323b872dd906064016020604051808303816000875af115801562000fcd573d6000803e3d6000fd5b505050506040513d601f19601f8201168201806040525081019062000ff3919062001609565b5062000fff826200136b565b6200100b813362001314565b620010173333620013d8565b6040518060c001604052808681526020018381526020018560ff1681526020014281526020018463ffffffff1642620010519190620015f3565b81526001600160a01b03838116602092830152336000818152600280855260408083206003808852828520805486529188528285208951815597890151600189015588830151938801805460ff191660ff90951694909417909355606088015187840155608088015160048089019190915560a090980151600590970180547fffffffffffffffffffffffff000000000000000000000000000000000000000016979096169690961790945593548152919091209182015491909201546200111c929185916200142f565b33600090815260036020526040812080549162001139836200162d565b919050555084600080828254620011519190620015f3565b9250508190555081600160008282546200116c9190620015f3565b909155505033600081815260026020908152604080832060038352818420548452825291829020600401548251898152918201527fd741e738a23fd18a03a26522320d9fc6cac1fed483e215ea9150fbc2fc43385d910160405180910390a25050505050565b6040517f9dc29fac000000000000000000000000000000000000000000000000000000008152336004820152602481018290527f00000000000000000000000000000000000000000000000000000000000000006001600160a01b031690639dc29fac906044015b600060405180830381600087803b1580156200125557600080fd5b505af11580156200126a573d6000803e3d6000fd5b5050505050565b6040517f2ad0ad090000000000000000000000000000000000000000000000000000000081526001600160a01b03838116600483015282151560248301527f00000000000000000000000000000000000000000000000000000000000000001690632ad0ad09906044015b600060405180830381600087803b158015620012f757600080fd5b505af11580156200130c573d6000803e3d6000fd5b505050505050565b604051632949582d60e01b81526001600160a01b03838116600483015282811660248301527f00000000000000000000000000000000000000000000000000000000000000001690632949582d90604401620012dc565b6040517f40c10f19000000000000000000000000000000000000000000000000000000008152336004820152602481018290527f00000000000000000000000000000000000000000000000000000000000000006001600160a01b0316906340c10f19906044016200123a565b604051632949582d60e01b81526001600160a01b03838116600483015282811660248301527f00000000000000000000000000000000000000000000000000000000000000001690632949582d90604401620012dc565b6040517f71abd5ca0000000000000000000000000000000000000000000000000000000081526001600160a01b0385811660048301526024820185905260448201849052606482018390527f000000000000000000000000000000000000000000000000000000000000000016906371abd5ca90608401600060405180830381600087803b158015620014c157600080fd5b505af1158015620014d6573d6000803e3d6000fd5b5050505050505050565b6108f1806200164a83390190565b80356001600160a01b03811681146200150657600080fd5b919050565b6000602082840312156200151e57600080fd5b6200088f82620014ee565b6000602082840312156200153c57600080fd5b5035919050565b600080604083850312156200155757600080fd5b6200156283620014ee565b946020939093013593505050565b634e487b7160e01b600052601160045260246000fd5b8181038181111562000338576200033862001570565b600060208284031215620015af57600080fd5b5051919050565b808202811582820484141762000338576200033862001570565b600082620015ee57634e487b7160e01b600052601260045260246000fd5b500490565b8082018082111562000338576200033862001570565b6000602082840312156200161c57600080fd5b815180151581146200088f57600080fd5b60006001820162001642576200164262001570565b506001019056fe61010060405234801561001157600080fd5b506040516108f13803806108f1833981016040819052610030916100d6565b42821161009e5760405162461bcd60e51b815260206004820152603260248201527f546f6b656e54696d656c6f636b3a2072656c656173652074696d65206973206260448201527165666f72652063757272656e742074696d6560701b606482015260840160405180910390fd5b6001600160a01b0393841660805291831660a05260c0521660e05261012b565b6001600160a01b03811681146100d357600080fd5b50565b600080600080608085870312156100ec57600080fd5b84516100f7816100be565b6020860151909450610108816100be565b604086015160608701519194509250610120816100be565b939692955090935050565b60805160a05160c05160e05161077561017c600039600060f9015260008181609f015261016d0152600081816053015261034e01526000818160ca01528181610205015261032c01526107756000f3fe608060405234801561001057600080fd5b506004361061004c5760003560e01c806338af3eed1461005157806386d1a69f14610090578063b91d40011461009a578063fc0c546a146100c8575b600080fd5b7f00000000000000000000000000000000000000000000000000000000000000005b6040516001600160a01b0390911681526020015b60405180910390f35b6100986100ee565b005b6040517f00000000000000000000000000000000000000000000000000000000000000008152602001610087565b7f0000000000000000000000000000000000000000000000000000000000000000610073565b336001600160a01b037f0000000000000000000000000000000000000000000000000000000000000000161461016b5760405162461bcd60e51b815260206004820152601560248201527f4e6f7420737461636b696e6720636f6e7472616374000000000000000000000060448201526064015b60405180910390fd5b7f00000000000000000000000000000000000000000000000000000000000000004210156102015760405162461bcd60e51b815260206004820152603260248201527f546f6b656e54696d656c6f636b3a2063757272656e742074696d65206973206260448201527f65666f72652072656c656173652074696d6500000000000000000000000000006064820152608401610162565b60007f00000000000000000000000000000000000000000000000000000000000000006040517f70a082310000000000000000000000000000000000000000000000000000000081523060048201526001600160a01b0391909116906370a0823190602401602060405180830381865afa158015610283573d6000803e3d6000fd5b505050506040513d601f19601f820116820180604052508101906102a7919061068a565b90506000811161031f5760405162461bcd60e51b815260206004820152602360248201527f546f6b656e54696d656c6f636b3a206e6f20746f6b656e7320746f2072656c6560448201527f61736500000000000000000000000000000000000000000000000000000000006064820152608401610162565b6103736001600160a01b037f0000000000000000000000000000000000000000000000000000000000000000167f000000000000000000000000000000000000000000000000000000000000000083610376565b50565b604080516001600160a01b038416602482015260448082018490528251808303909101815260649091019091526020810180517bffffffffffffffffffffffffffffffffffffffffffffffffffffffff167fa9059cbb000000000000000000000000000000000000000000000000000000001790526103f69084906103fb565b505050565b6000610450826040518060400160405280602081526020017f5361666545524332303a206c6f772d6c6576656c2063616c6c206661696c6564815250856001600160a01b03166104e39092919063ffffffff16565b905080516000148061047157508080602001905181019061047191906106a3565b6103f65760405162461bcd60e51b815260206004820152602a60248201527f5361666545524332303a204552433230206f7065726174696f6e20646964206e60448201527f6f742073756363656564000000000000000000000000000000000000000000006064820152608401610162565b60606104f284846000856104fa565b949350505050565b6060824710156105725760405162461bcd60e51b815260206004820152602660248201527f416464726573733a20696e73756666696369656e742062616c616e636520666f60448201527f722063616c6c00000000000000000000000000000000000000000000000000006064820152608401610162565b600080866001600160a01b0316858760405161058e91906106f0565b60006040518083038185875af1925050503d80600081146105cb576040519150601f19603f3d011682016040523d82523d6000602084013e6105d0565b606091505b50915091506105e1878383876105ec565b979650505050505050565b6060831561065b578251600003610654576001600160a01b0385163b6106545760405162461bcd60e51b815260206004820152601d60248201527f416464726573733a2063616c6c20746f206e6f6e2d636f6e74726163740000006044820152606401610162565b50816104f2565b6104f283838151156106705781518083602001fd5b8060405162461bcd60e51b8152600401610162919061070c565b60006020828403121561069c57600080fd5b5051919050565b6000602082840312156106b557600080fd5b815180151581146106c557600080fd5b9392505050565b60005b838110156106e75781810151838201526020016106cf565b50506000910152565b600082516107028184602087016106cc565b9190910192915050565b602081526000825180602084015261072b8160408501602087016106cc565b601f01601f1916919091016040019291505056fea264697066735822122086f0c7a15cf854d3a1d6a28365ea8ac985509be87a89f5768fa1b5553ec64fcc64736f6c63430008130033a2646970667358221220b05d7b98bbde1b1a99f3d8ac9097a3abde0724bf56dd8e29d35e6e268553faad64736f6c63430008130033",
  "linkReferences": {},
  "deployedLinkReferences": {}
}