{
  "_format": "hh-sol-artifact-1",
  "contractName": "Liblock",
  "sourceName": "contracts/LIB.sol",
  "abi": [
    {
      "inputs": [],
      "stateMutability": "nonpayable",
      "type": "constructor"
    },
    {
      "inputs": [],
      "name": "InvalidShortString",
      "type": "error"
    },
    {
      "inputs": [
        {
          "internalType": "string",
          "name": "str",
          "type": "string"
        }
      ],
      "name": "StringTooLong",
      "type": "error"
    },
    {
      "anonymous": false,
      "inputs": [
        {
          "indexed": true,
          "internalType": "address",
          "name": "owner",
          "type": "address"
        },
        {
          "indexed": true,
          "internalType": "address",
          "name": "spender",
          "type": "address"
        },
        {
          "indexed": false,
          "internalType": "uint256",
          "name": "value",
          "type": "uint256"
        }
      ],
      "name": "Approval",
      "type": "event"
    },
    {
      "anonymous": false,
      "inputs": [
        {
          "indexed": true,
          "internalType": "address",
          "name": "delegator",
          "type": "address"
        },
        {
          "indexed": true,
          "internalType": "address",
          "name": "fromDelegate",
          "type": "address"
        },
        {
          "indexed": true,
          "internalType": "address",
          "name": "toDelegate",
          "type": "address"
        }
      ],
      "name": "DelegateChanged",
      "type": "event"
    },
    {
      "anonymous": false,
      "inputs": [
        {
          "indexed": true,
          "internalType": "address",
          "name": "delegate",
          "type": "address"
        },
        {
          "indexed": false,
          "internalType": "uint256",
          "name": "previousBalance",
          "type": "uint256"
        },
        {
          "indexed": false,
          "internalType": "uint256",
          "name": "newBalance",
          "type": "uint256"
        }
      ],
      "name": "DelegateVotesChanged",
      "type": "event"
    },
    {
      "anonymous": false,
      "inputs": [],
      "name": "EIP712DomainChanged",
      "type": "event"
    },
    {
      "anonymous": false,
      "inputs": [
        {
          "indexed": true,
          "internalType": "address",
          "name": "from",
          "type": "address"
        },
        {
          "indexed": true,
          "internalType": "address",
          "name": "to",
          "type": "address"
        },
        {
          "indexed": false,
          "internalType": "uint256",
          "name": "value",
          "type": "uint256"
        }
      ],
      "name": "Transfer",
      "type": "event"
    },
    {
      "inputs": [],
      "name": "CLOCK_MODE",
      "outputs": [
        {
          "internalType": "string",
          "name": "",
          "type": "string"
        }
      ],
      "stateMutability": "view",
      "type": "function"
    },
    {
      "inputs": [],
      "name": "DOMAIN_SEPARATOR",
      "outputs": [
        {
          "internalType": "bytes32",
          "name": "",
          "type": "bytes32"
        }
      ],
      "stateMutability": "view",
      "type": "function"
    },
    {
      "inputs": [
        {
          "internalType": "address",
          "name": "owner",
          "type": "address"
        },
        {
          "internalType": "address",
          "name": "spender",
          "type": "address"
        }
      ],
      "name": "allowance",
      "outputs": [
        {
          "internalType": "uint256",
          "name": "",
          "type": "uint256"
        }
      ],
      "stateMutability": "view",
      "type": "function"
    },
    {
      "inputs": [
        {
          "internalType": "address",
          "name": "spender",
          "type": "address"
        },
        {
          "internalType": "uint256",
          "name": "amount",
          "type": "uint256"
        }
      ],
      "name": "approve",
      "outputs": [
        {
          "internalType": "bool",
          "name": "",
          "type": "bool"
        }
      ],
      "stateMutability": "nonpayable",
      "type": "function"
    },
    {
      "inputs": [
        {
          "internalType": "address",
          "name": "account",
          "type": "address"
        }
      ],
      "name": "balanceOf",
      "outputs": [
        {
          "internalType": "uint256",
          "name": "",
          "type": "uint256"
        }
      ],
      "stateMutability": "view",
      "type": "function"
    },
    {
      "inputs": [
        {
          "internalType": "uint256",
          "name": "amount",
          "type": "uint256"
        }
      ],
      "name": "burn",
      "outputs": [],
      "stateMutability": "nonpayable",
      "type": "function"
    },
    {
      "inputs": [
        {
          "internalType": "address",
          "name": "account",
          "type": "address"
        },
        {
          "internalType": "uint256",
          "name": "amount",
          "type": "uint256"
        }
      ],
      "name": "burnFrom",
      "outputs": [],
      "stateMutability": "nonpayable",
      "type": "function"
    },
    {
      "inputs": [
        {
          "internalType": "address",
          "name": "account",
          "type": "address"
        },
        {
          "internalType": "uint32",
          "name": "pos",
          "type": "uint32"
        }
      ],
      "name": "checkpoints",
      "outputs": [
        {
          "components": [
            {
              "internalType": "uint32",
              "name": "fromBlock",
              "type": "uint32"
            },
            {
              "internalType": "uint224",
              "name": "votes",
              "type": "uint224"
            }
          ],
          "internalType": "struct ERC20Votes.Checkpoint",
          "name": "",
          "type": "tuple"
        }
      ],
      "stateMutability": "view",
      "type": "function"
    },
    {
      "inputs": [],
      "name": "clock",
      "outputs": [
        {
          "internalType": "uint48",
          "name": "",
          "type": "uint48"
        }
      ],
      "stateMutability": "view",
      "type": "function"
    },
    {
      "inputs": [],
      "name": "decimals",
      "outputs": [
        {
          "internalType": "uint8",
          "name": "",
          "type": "uint8"
        }
      ],
      "stateMutability": "view",
      "type": "function"
    },
    {
      "inputs": [
        {
          "internalType": "address",
          "name": "spender",
          "type": "address"
        },
        {
          "internalType": "uint256",
          "name": "subtractedValue",
          "type": "uint256"
        }
      ],
      "name": "decreaseAllowance",
      "outputs": [
        {
          "internalType": "bool",
          "name": "",
          "type": "bool"
        }
      ],
      "stateMutability": "nonpayable",
      "type": "function"
    },
    {
      "inputs": [
        {
          "internalType": "address",
          "name": "delegatee",
          "type": "address"
        }
      ],
      "name": "delegate",
      "outputs": [],
      "stateMutability": "nonpayable",
      "type": "function"
    },
    {
      "inputs": [
        {
          "internalType": "address",
          "name": "delegatee",
          "type": "address"
        },
        {
          "internalType": "uint256",
          "name": "nonce",
          "type": "uint256"
        },
        {
          "internalType": "uint256",
          "name": "expiry",
          "type": "uint256"
        },
        {
          "internalType": "uint8",
          "name": "v",
          "type": "uint8"
        },
        {
          "internalType": "bytes32",
          "name": "r",
          "type": "bytes32"
        },
        {
          "internalType": "bytes32",
          "name": "s",
          "type": "bytes32"
        }
      ],
      "name": "delegateBySig",
      "outputs": [],
      "stateMutability": "nonpayable",
      "type": "function"
    },
    {
      "inputs": [
        {
          "internalType": "address",
          "name": "delegator",
          "type": "address"
        },
        {
          "internalType": "address",
          "name": "delegatee",
          "type": "address"
        }
      ],
      "name": "delegateFrom",
      "outputs": [],
      "stateMutability": "nonpayable",
      "type": "function"
    },
    {
      "inputs": [
        {
          "internalType": "address",
          "name": "account",
          "type": "address"
        }
      ],
      "name": "delegates",
      "outputs": [
        {
          "internalType": "address",
          "name": "",
          "type": "address"
        }
      ],
      "stateMutability": "view",
      "type": "function"
    },
    {
      "inputs": [],
      "name": "eip712Domain",
      "outputs": [
        {
          "internalType": "bytes1",
          "name": "fields",
          "type": "bytes1"
        },
        {
          "internalType": "string",
          "name": "name",
          "type": "string"
        },
        {
          "internalType": "string",
          "name": "version",
          "type": "string"
        },
        {
          "internalType": "uint256",
          "name": "chainId",
          "type": "uint256"
        },
        {
          "internalType": "address",
          "name": "verifyingContract",
          "type": "address"
        },
        {
          "internalType": "bytes32",
          "name": "salt",
          "type": "bytes32"
        },
        {
          "internalType": "uint256[]",
          "name": "extensions",
          "type": "uint256[]"
        }
      ],
      "stateMutability": "view",
      "type": "function"
    },
    {
      "inputs": [
        {
          "internalType": "uint256",
          "name": "timepoint",
          "type": "uint256"
        }
      ],
      "name": "getPastTotalSupply",
      "outputs": [
        {
          "internalType": "uint256",
          "name": "",
          "type": "uint256"
        }
      ],
      "stateMutability": "view",
      "type": "function"
    },
    {
      "inputs": [
        {
          "internalType": "address",
          "name": "account",
          "type": "address"
        },
        {
          "internalType": "uint256",
          "name": "timepoint",
          "type": "uint256"
        }
      ],
      "name": "getPastVotes",
      "outputs": [
        {
          "internalType": "uint256",
          "name": "",
          "type": "uint256"
        }
      ],
      "stateMutability": "view",
      "type": "function"
    },
    {
      "inputs": [
        {
          "internalType": "address",
          "name": "account",
          "type": "address"
        }
      ],
      "name": "getVotes",
      "outputs": [
        {
          "internalType": "uint256",
          "name": "",
          "type": "uint256"
        }
      ],
      "stateMutability": "view",
      "type": "function"
    },
    {
      "inputs": [
        {
          "internalType": "address",
          "name": "spender",
          "type": "address"
        },
        {
          "internalType": "uint256",
          "name": "addedValue",
          "type": "uint256"
        }
      ],
      "name": "increaseAllowance",
      "outputs": [
        {
          "internalType": "bool",
          "name": "",
          "type": "bool"
        }
      ],
      "stateMutability": "nonpayable",
      "type": "function"
    },
    {
      "inputs": [],
      "name": "name",
      "outputs": [
        {
          "internalType": "string",
          "name": "",
          "type": "string"
        }
      ],
      "stateMutability": "view",
      "type": "function"
    },
    {
      "inputs": [
        {
          "internalType": "address",
          "name": "owner",
          "type": "address"
        }
      ],
      "name": "nonces",
      "outputs": [
        {
          "internalType": "uint256",
          "name": "",
          "type": "uint256"
        }
      ],
      "stateMutability": "view",
      "type": "function"
    },
    {
      "inputs": [
        {
          "internalType": "address",
          "name": "account",
          "type": "address"
        }
      ],
      "name": "numCheckpoints",
      "outputs": [
        {
          "internalType": "uint32",
          "name": "",
          "type": "uint32"
        }
      ],
      "stateMutability": "view",
      "type": "function"
    },
    {
      "inputs": [
        {
          "internalType": "address",
          "name": "owner",
          "type": "address"
        },
        {
          "internalType": "address",
          "name": "spender",
          "type": "address"
        },
        {
          "internalType": "uint256",
          "name": "value",
          "type": "uint256"
        },
        {
          "internalType": "uint256",
          "name": "deadline",
          "type": "uint256"
        },
        {
          "internalType": "uint8",
          "name": "v",
          "type": "uint8"
        },
        {
          "internalType": "bytes32",
          "name": "r",
          "type": "bytes32"
        },
        {
          "internalType": "bytes32",
          "name": "s",
          "type": "bytes32"
        }
      ],
      "name": "permit",
      "outputs": [],
      "stateMutability": "nonpayable",
      "type": "function"
    },
    {
      "inputs": [
        {
          "internalType": "address",
          "name": "account",
          "type": "address"
        }
      ],
      "name": "setAdmin",
      "outputs": [],
      "stateMutability": "nonpayable",
      "type": "function"
    },
    {
      "inputs": [
        {
          "internalType": "address",
          "name": "_address",
          "type": "address"
        }
      ],
      "name": "setDistributionContract",
      "outputs": [],
      "stateMutability": "nonpayable",
      "type": "function"
    },
    {
      "inputs": [
        {
          "internalType": "address",
          "name": "_address",
          "type": "address"
        },
        {
          "internalType": "bool",
          "name": "_excluded",
          "type": "bool"
        }
      ],
      "name": "setFeeExcludedAddress",
      "outputs": [],
      "stateMutability": "nonpayable",
      "type": "function"
    },
    {
      "inputs": [
        {
          "internalType": "address",
          "name": "_devWallet",
          "type": "address"
        },
        {
          "internalType": "address",
          "name": "_distributionContract",
          "type": "address"
        },
        {
          "internalType": "uint8",
          "name": "_devWalletShares",
          "type": "uint8"
        },
        {
          "internalType": "uint8",
          "name": "_distributionContractShares",
          "type": "uint8"
        },
        {
          "internalType": "uint8",
          "name": "_liblockFondationWalletShares",
          "type": "uint8"
        },
        {
          "internalType": "uint8",
          "name": "_zeroAdressShares",
          "type": "uint8"
        }
      ],
      "name": "setFeeRecipientsAndShares",
      "outputs": [],
      "stateMutability": "nonpayable",
      "type": "function"
    },
    {
      "inputs": [
        {
          "internalType": "address",
          "name": "account",
          "type": "address"
        }
      ],
      "name": "setModerator",
      "outputs": [],
      "stateMutability": "nonpayable",
      "type": "function"
    },
    {
      "inputs": [],
      "name": "symbol",
      "outputs": [
        {
          "internalType": "string",
          "name": "",
          "type": "string"
        }
      ],
      "stateMutability": "view",
      "type": "function"
    },
    {
      "inputs": [],
      "name": "totalSupply",
      "outputs": [
        {
          "internalType": "uint256",
          "name": "",
          "type": "uint256"
        }
      ],
      "stateMutability": "view",
      "type": "function"
    },
    {
      "inputs": [
        {
          "internalType": "address",
          "name": "to",
          "type": "address"
        },
        {
          "internalType": "uint256",
          "name": "amount",
          "type": "uint256"
        }
      ],
      "name": "transfer",
      "outputs": [
        {
          "internalType": "bool",
          "name": "",
          "type": "bool"
        }
      ],
      "stateMutability": "nonpayable",
      "type": "function"
    },
    {
      "inputs": [
        {
          "internalType": "address",
          "name": "from",
          "type": "address"
        },
        {
          "internalType": "address",
          "name": "to",
          "type": "address"
        },
        {
          "internalType": "uint256",
          "name": "amount",
          "type": "uint256"
        }
      ],
      "name": "transferFrom",
      "outputs": [
        {
          "internalType": "bool",
          "name": "",
          "type": "bool"
        }
      ],
      "stateMutability": "nonpayable",
      "type": "function"
    }
  ],
  "bytecode": "0x610160604052600e80546001600160a01b0319167305525cde529c5212f1eab7f033146c8cc103cd5d179055601080546612c032009c401960a21b600160a01b600160e01b03199091161790553480156200005957600080fd5b50604051806040016040528060078152602001664c69626c6f636b60c81b81525080604051806040016040528060018152602001603160f81b815250604051806040016040528060078152602001664c69626c6f636b60c81b815250604051806040016040528060038152602001622624a160e91b8152508160039081620000e291906200095c565b506004620000f182826200095c565b5062000103915083905060056200022b565b61012052620001148160066200022b565b61014052815160208084019190912060e052815190820120610100524660a052620001a260e05161010051604080517f8b73c3c69bb8fe3d512ecc4cf759cc79239f7b179b0ffacaa9a75d522b39400f60208201529081019290925260608201524660808201523060a082015260009060c00160405160208183030381529060405280519060200120905090565b60805250503060c0819052620001d79150620001c16012600a62000b3b565b620001d190630470c7a062000b4c565b62000264565b620001f933620001ea6012600a62000b3b565b620001d1906207a12062000b4c565b600c8054336001600160a01b03199182168117909255600d805482168317905560108054909116909117905562000c07565b60006020835110156200024b57620002438362000274565b90506200025e565b816200025884826200095c565b5060ff90505b92915050565b620002708282620002c0565b5050565b600080829050601f81511115620002ab578260405163305a27a960e01b8152600401620002a2919062000b66565b60405180910390fd5b8051620002b88262000bb6565b179392505050565b620002cc828262000368565b6001600160e01b03620002e0620004358216565b1115620003495760405162461bcd60e51b815260206004820152603060248201527f4552433230566f7465733a20746f74616c20737570706c79207269736b73206f60448201526f766572666c6f77696e6720766f74657360801b6064820152608401620002a2565b62000362600b620014086200043b60201b178362000450565b50505050565b6001600160a01b038216620003c05760405162461bcd60e51b815260206004820152601f60248201527f45524332303a206d696e7420746f20746865207a65726f2061646472657373006044820152606401620002a2565b8060026000828254620003d4919062000bdb565b90915550506001600160a01b038216600081815260208181526040808320805486019055518481527fddf252ad1be2c89b69c2b068fc378daa952ba7f163c4a11628f55a4df523b3ef910160405180910390a36200027060008383620005dd565b60025490565b600062000449828462000bdb565b9392505050565b825460009081908181156200049f5760008781526020902082016000190160408051808201909152905463ffffffff8116825264010000000090046001600160e01b03166020820152620004b4565b60408051808201909152600080825260208201525b905080602001516001600160e01b03169350620004d284868860201c565b9250600082118015620004ff5750620004ea620005ea565b65ffffffffffff16816000015163ffffffff16145b1562000548576200051083620005fc565b60008881526020902083016000190180546001600160e01b03929092166401000000000263ffffffff909216919091179055620005ce565b8660405180604001604052806200057662000568620005ea60201b60201c565b65ffffffffffff166200066b565b63ffffffff1681526020016200058c86620005fc565b6001600160e01b0390811690915282546001810184556000938452602093849020835194909301519091166401000000000263ffffffff909316929092179101555b5050935093915050565b505050565b620005d8838383620006d2565b6000620005f74362000706565b905090565b60006001600160e01b03821115620006675760405162461bcd60e51b815260206004820152602760248201527f53616665436173743a2076616c756520646f65736e27742066697420696e20326044820152663234206269747360c81b6064820152608401620002a2565b5090565b600063ffffffff821115620006675760405162461bcd60e51b815260206004820152602660248201527f53616665436173743a2076616c756520646f65736e27742066697420696e203360448201526532206269747360d01b6064820152608401620002a2565b6001600160a01b03838116600090815260096020526040808220548584168352912054620005d8929182169116836200076f565b600065ffffffffffff821115620006675760405162461bcd60e51b815260206004820152602660248201527f53616665436173743a2076616c756520646f65736e27742066697420696e203460448201526538206269747360d01b6064820152608401620002a2565b816001600160a01b0316836001600160a01b031614158015620007925750600081115b15620005d8576001600160a01b038316156200081f576001600160a01b0383166000908152600a6020908152604082208291620007dc9190620008aa901b62001414178562000450565b91509150846001600160a01b031660008051602062003bcc833981519152838360405162000814929190918252602082015260400190565b60405180910390a250505b6001600160a01b03821615620005d8576001600160a01b0382166000908152600a60209081526040822082916200086391906200043b901b62001408178562000450565b91509150836001600160a01b031660008051602062003bcc83398151915283836040516200089b929190918252602082015260400190565b60405180910390a25050505050565b600062000449828462000bf1565b634e487b7160e01b600052604160045260246000fd5b600181811c90821680620008e357607f821691505b6020821081036200090457634e487b7160e01b600052602260045260246000fd5b50919050565b601f821115620005d857600081815260208120601f850160051c81016020861015620009335750805b601f850160051c820191505b8181101562000954578281556001016200093f565b505050505050565b81516001600160401b03811115620009785762000978620008b8565b6200099081620009898454620008ce565b846200090a565b602080601f831160018114620009c85760008415620009af5750858301515b600019600386901b1c1916600185901b17855562000954565b600085815260208120601f198616915b82811015620009f957888601518255948401946001909101908401620009d8565b508582101562000a185787850151600019600388901b60f8161c191681555b5050505050600190811b01905550565b634e487b7160e01b600052601160045260246000fd5b600181815b8085111562000a7f57816000190482111562000a635762000a6362000a28565b8085161562000a7157918102915b93841c939080029062000a43565b509250929050565b60008262000a98575060016200025e565b8162000aa7575060006200025e565b816001811462000ac0576002811462000acb5762000aeb565b60019150506200025e565b60ff84111562000adf5762000adf62000a28565b50506001821b6200025e565b5060208310610133831016604e8410600b841016171562000b10575081810a6200025e565b62000b1c838362000a3e565b806000190482111562000b335762000b3362000a28565b029392505050565b60006200044960ff84168362000a87565b80820281158282048414176200025e576200025e62000a28565b600060208083528351808285015260005b8181101562000b955785810183015185820160400152820162000b77565b506000604082860101526040601f19601f8301168501019250505092915050565b80516020808301519190811015620009045760001960209190910360031b1b16919050565b808201808211156200025e576200025e62000a28565b818103818111156200025e576200025e62000a28565b60805160a05160c05160e051610100516101205161014051612f6a62000c626000396000610da501526000610d7a015260006119350152600061190d0152600061186801526000611892015260006118bc0152612f6a6000f3fe608060405234801561001057600080fd5b506004361061020b5760003560e01c8063704b6c021161012a57806395d89b41116100bd578063c3cda5201161008c578063dd62ed3e11610071578063dd62ed3e146104b1578063e7a764ef146104ea578063f1127ed8146104fd57600080fd5b8063c3cda5201461048b578063d505accf1461049e57600080fd5b806395d89b411461044a5780639ab24eb014610452578063a457c2d714610465578063a9059cbb1461047857600080fd5b80637ecebe00116100f95780637ecebe00146103ea57806384b0196e146103fd5780638e539e8c1461041857806391ddadf41461042b57600080fd5b8063704b6c021461038857806370a082311461039b57806375bba189146103c457806379cc6790146103d757600080fd5b806339509351116101a25780634bf5d7e9116101715780634bf5d7e914610301578063587cde1e146103095780635c19a95c1461034d5780636fcfff451461036057600080fd5b806339509351146102b55780633a46b1a8146102c857806342966c68146102db578063480edfe6146102ee57600080fd5b80632949582d116101de5780632949582d146102765780632ad0ad091461028b578063313ce5671461029e5780633644e515146102ad57600080fd5b806306fdde0314610210578063095ea7b31461022e57806318160ddd1461025157806323b872dd14610263575b600080fd5b61021861053a565b6040516102259190612aba565b60405180910390f35b61024161023c366004612ae4565b6105cc565b6040519015158152602001610225565b6002545b604051908152602001610225565b610241610271366004612b0e565b6105e6565b610289610284366004612b4a565b61060a565b005b610289610299366004612b7d565b610711565b60405160128152602001610225565b6102556107a6565b6102416102c3366004612ae4565b6107b5565b6102556102d6366004612ae4565b6107f4565b6102896102e9366004612bb9565b61087d565b6102896102fc366004612be3565b61088a565b610218610a7d565b610335610317366004612c57565b6001600160a01b039081166000908152600960205260409020541690565b6040516001600160a01b039091168152602001610225565b61028961035b366004612c57565b610b15565b61037361036e366004612c57565b610b1f565b60405163ffffffff9091168152602001610225565b610289610396366004612c57565b610b41565b6102556103a9366004612c57565b6001600160a01b031660009081526020819052604090205490565b6102896103d2366004612c57565b610c3b565b6102896103e5366004612ae4565b610d39565b6102556103f8366004612c57565b610d4e565b610405610d6c565b6040516102259796959493929190612c72565b610255610426366004612bb9565b610e11565b610433610e7c565b60405165ffffffffffff9091168152602001610225565b610218610e87565b610255610460366004612c57565b610e96565b610241610473366004612ae4565b610f18565b610241610486366004612ae4565b610fc2565b610289610499366004612d24565b610fd0565b6102896104ac366004612d7c565b611106565b6102556104bf366004612b4a565b6001600160a01b03918216600090815260016020908152604080832093909416825291909152205490565b6102896104f8366004612c57565b61126a565b61051061050b366004612de6565b611384565b60408051825163ffffffff1681526020928301516001600160e01b03169281019290925201610225565b60606003805461054990612e1b565b80601f016020809104026020016040519081016040528092919081815260200182805461057590612e1b565b80156105c25780601f10610597576101008083540402835291602001916105c2565b820191906000526020600020905b8154815290600101906020018083116105a557829003601f168201915b5050505050905090565b6000336105da818585611420565b60019150505b92915050565b6000336105f4858285611578565b6105ff85858561160a565b506001949350505050565b600c546001600160a01b031633146106555760405162461bcd60e51b81526020600482015260096024820152682737ba1030b236b4b760b91b60448201526064015b60405180910390fd5b6001600160a01b0382166106ab5760405162461bcd60e51b815260206004820152601f60248201527f44656c656761746f722063616e2774206265207a65726f206164647265737300604482015260640161064c565b306001600160a01b038316036107035760405162461bcd60e51b815260206004820152600760248201527f496c6c6567616c00000000000000000000000000000000000000000000000000604482015260640161064c565b61070d82826117e2565b5050565b600c546001600160a01b031633146107575760405162461bcd60e51b81526020600482015260096024820152682737ba1030b236b4b760b91b604482015260640161064c565b8015610784576001600160a01b0382166000908152601160205260409020805460ff191660011790555050565b506001600160a01b03166000908152601160205260409020805460ff19169055565b60006107b061185b565b905090565b3360008181526001602090815260408083206001600160a01b03871684529091528120549091906105da90829086906107ef908790612e65565b611420565b60006107fe610e7c565b65ffffffffffff1682106108545760405162461bcd60e51b815260206004820152601960248201527f4552433230566f7465733a20667574757265206c6f6f6b757000000000000000604482015260640161064c565b6001600160a01b0383166000908152600a602052604090206108769083611986565b9392505050565b6108873382611a6f565b50565b600c546001600160a01b031633146108d05760405162461bcd60e51b81526020600482015260096024820152682737ba1030b236b4b760b91b604482015260640161064c565b80826108dc8587612e78565b6108e69190612e78565b6108f09190612e78565b60ff166103e8146109695760405162461bcd60e51b815260206004820152602360248201527f43756d6d756c6174656420736861726573206e6f7420657175616c20746f203160448201527f3030300000000000000000000000000000000000000000000000000000000000606482015260840161064c565b600e80546001600160a01b03199081166001600160a01b0398891617909155600f80549091169590961694909417909455601080547fffffffffffffffffffff0000000000000000000000000000000000000000000016337fffffffffffffffffffff0000ffffffffffffffffffffffffffffffffffffffff161760ff938416600160a01b02177fffffffffffff00000000ffffffffffffffffffffffffffffffffffffffffffff16918316600160b01b027fffffffffffff0000ffffffffffffffffffffffffffffffffffffffffffffffff1691909117938216600160c01b02939093177fffffffff0000ffffffffffffffffffffffffffffffffffffffffffffffffffff169116600160d01b02179055565b606043610a88610e7c565b65ffffffffffff1614610add5760405162461bcd60e51b815260206004820152601d60248201527f4552433230566f7465733a2062726f6b656e20636c6f636b206d6f6465000000604482015260640161064c565b5060408051808201909152601d81527f6d6f64653d626c6f636b6e756d6265722666726f6d3d64656661756c74000000602082015290565b61088733826117e2565b6001600160a01b0381166000908152600a60205260408120546105e090611a79565b600c546001600160a01b03163314610b875760405162461bcd60e51b81526020600482015260096024820152682737ba1030b236b4b760b91b604482015260640161064c565b6001600160a01b038116610bcf5760405162461bcd60e51b815260206004820152600f60248201526e496e76616c6964206164647265737360881b604482015260640161064c565b306001600160a01b03821603610c195760405162461bcd60e51b815260206004820152600f60248201526e496e76616c6964206164647265737360881b604482015260640161064c565b600c80546001600160a01b0319166001600160a01b0392909216919091179055565b600d546001600160a01b03163314610c855760405162461bcd60e51b815260206004820152600d60248201526c2737ba1036b7b232b930ba37b960991b604482015260640161064c565b6001600160a01b038116610ccd5760405162461bcd60e51b815260206004820152600f60248201526e496e76616c6964206164647265737360881b604482015260640161064c565b306001600160a01b03821603610d175760405162461bcd60e51b815260206004820152600f60248201526e496e76616c6964206164647265737360881b604482015260640161064c565b600d80546001600160a01b0319166001600160a01b0392909216919091179055565b610d44823383611578565b61070d8282611a6f565b6001600160a01b0381166000908152600760205260408120546105e0565b600060608082808083610da07f00000000000000000000000000000000000000000000000000000000000000006005611af9565b610dcb7f00000000000000000000000000000000000000000000000000000000000000006006611af9565b604080516000808252602082019092527f0f000000000000000000000000000000000000000000000000000000000000009b939a50919850469750309650945092509050565b6000610e1b610e7c565b65ffffffffffff168210610e715760405162461bcd60e51b815260206004820152601960248201527f4552433230566f7465733a20667574757265206c6f6f6b757000000000000000604482015260640161064c565b6105e0600b83611986565b60006107b043611ba4565b60606004805461054990612e1b565b6001600160a01b0381166000908152600a60205260408120548015610f05576001600160a01b0383166000908152600a6020526040902080546000198301908110610ee357610ee3612e91565b60009182526020909120015464010000000090046001600160e01b0316610f08565b60005b6001600160e01b03169392505050565b3360008181526001602090815260408083206001600160a01b038716845290915281205490919083811015610fb55760405162461bcd60e51b815260206004820152602560248201527f45524332303a2064656372656173656420616c6c6f77616e63652062656c6f7760448201527f207a65726f000000000000000000000000000000000000000000000000000000606482015260840161064c565b6105ff8286868403611420565b6000336105da81858561160a565b834211156110205760405162461bcd60e51b815260206004820152601d60248201527f4552433230566f7465733a207369676e61747572652065787069726564000000604482015260640161064c565b604080517fe48329057bfd03d55e49b547132e39cffd9c1820ad7b9d4c5307691425d15adf60208201526001600160a01b03881691810191909152606081018690526080810185905260009061109a906110929060a00160405160208183030381529060405280519060200120611c22565b858585611c6a565b90506110a581611c92565b86146110f35760405162461bcd60e51b815260206004820152601960248201527f4552433230566f7465733a20696e76616c6964206e6f6e636500000000000000604482015260640161064c565b6110fd81886117e2565b50505050505050565b834211156111565760405162461bcd60e51b815260206004820152601d60248201527f45524332305065726d69743a206578706972656420646561646c696e65000000604482015260640161064c565b60007f6e71edae12b1b97f4d1f60370fef10105fa2faae0126114a169c64845d6126c98888886111858c611c92565b6040805160208101969096526001600160a01b0394851690860152929091166060840152608083015260a082015260c0810186905260e00160405160208183030381529060405280519060200120905060006111e082611c22565b905060006111f082878787611c6a565b9050896001600160a01b0316816001600160a01b0316146112535760405162461bcd60e51b815260206004820152601e60248201527f45524332305065726d69743a20696e76616c6964207369676e61747572650000604482015260640161064c565b61125e8a8a8a611420565b50505050505050505050565b600d546001600160a01b031633146112b45760405162461bcd60e51b815260206004820152600d60248201526c2737ba1036b7b232b930ba37b960991b604482015260640161064c565b6001600160a01b03811661130a5760405162461bcd60e51b815260206004820152601560248201527f43616e206e6f7420736574206164647265737320300000000000000000000000604482015260640161064c565b306001600160a01b038216036113625760405162461bcd60e51b815260206004820152601960248201527f43616e206e6f7420736574207468697320636f6e747261637400000000000000604482015260640161064c565b600f80546001600160a01b0319166001600160a01b0392909216919091179055565b60408051808201909152600080825260208201526001600160a01b0383166000908152600a60205260409020805463ffffffff84169081106113c8576113c8612e91565b60009182526020918290206040805180820190915291015463ffffffff8116825264010000000090046001600160e01b0316918101919091529392505050565b60006108768284612e65565b60006108768284612ea7565b6001600160a01b03831661149b5760405162461bcd60e51b8152602060048201526024808201527f45524332303a20617070726f76652066726f6d20746865207a65726f2061646460448201527f7265737300000000000000000000000000000000000000000000000000000000606482015260840161064c565b6001600160a01b0382166115175760405162461bcd60e51b815260206004820152602260248201527f45524332303a20617070726f766520746f20746865207a65726f20616464726560448201527f7373000000000000000000000000000000000000000000000000000000000000606482015260840161064c565b6001600160a01b0383811660008181526001602090815260408083209487168084529482529182902085905590518481527f8c5be1e5ebec7d5bd14f71427d1e84f3dd0314c0f7b2291e5b200ac8c7c3b925910160405180910390a3505050565b6001600160a01b03838116600090815260016020908152604080832093861683529290522054600019811461160457818110156115f75760405162461bcd60e51b815260206004820152601d60248201527f45524332303a20696e73756666696369656e7420616c6c6f77616e6365000000604482015260640161064c565b6116048484848403611420565b50505050565b6001600160a01b03831660009081526011602052604090205460ff168061164957506001600160a01b03821660009081526011602052604090205460ff165b1561165e57611659838383611cba565b505050565b600061166982611ead565b90506326be36808163ffffffff16106116c45760405162461bcd60e51b815260206004820152601660248201527f4d61782066656520616d6f756e74207265616368656400000000000000000000604482015260640161064c565b6000620f42406116d66103e884612ed0565b6116e69063ffffffff1685612ef3565b6116f09190612f0a565b905060006116fe8285612ea7565b905061170b868683611cba565b600e5460105461174b9188916001600160a01b03909116906103e89061173c90600160a01b900461ffff1687612ef3565b6117469190612f0a565b611cba565b600f5460105461177c9188916001600160a01b03909116906103e89061173c90600160b01b900461ffff1687612ef3565b6010546117a99087906001600160a01b038116906103e89061173c90600160c01b900461ffff1687612ef3565b6010546117da9087906103e8906117cb90600160d01b900461ffff1686612ef3565b6117d59190612f0a565b612128565b505050505050565b6001600160a01b038281166000818152600960208181526040808420805485845282862054949093528787166001600160a01b03198416811790915590519190951694919391928592917f3134e8a2e6d97e929a7e54011ea5485d7d196dd5f0ba4d4ef95803e8e3fc257f9190a4611604828483612140565b6000306001600160a01b037f0000000000000000000000000000000000000000000000000000000000000000161480156118b457507f000000000000000000000000000000000000000000000000000000000000000046145b156118de57507f000000000000000000000000000000000000000000000000000000000000000090565b6107b0604080517f8b73c3c69bb8fe3d512ecc4cf759cc79239f7b179b0ffacaa9a75d522b39400f60208201527f0000000000000000000000000000000000000000000000000000000000000000918101919091527f000000000000000000000000000000000000000000000000000000000000000060608201524660808201523060a082015260009060c00160405160208183030381529060405280519060200120905090565b8154600090818160058111156119e05760006119a18461227d565b6119ab9085612ea7565b600088815260209020909150869082015463ffffffff1611156119d0578091506119de565b6119db816001612e65565b92505b505b80821015611a2d5760006119f48383612365565b600088815260209020909150869082015463ffffffff161115611a1957809150611a27565b611a24816001612e65565b92505b506119e0565b8015611a59576000868152602090208101600019015464010000000090046001600160e01b0316611a5c565b60005b6001600160e01b03169695505050505050565b61070d8282612128565b600063ffffffff821115611af55760405162461bcd60e51b815260206004820152602660248201527f53616665436173743a2076616c756520646f65736e27742066697420696e203360448201527f3220626974730000000000000000000000000000000000000000000000000000606482015260840161064c565b5090565b606060ff8314611b1357611b0c83612380565b90506105e0565b818054611b1f90612e1b565b80601f0160208091040260200160405190810160405280929190818152602001828054611b4b90612e1b565b8015611b985780601f10611b6d57610100808354040283529160200191611b98565b820191906000526020600020905b815481529060010190602001808311611b7b57829003601f168201915b505050505090506105e0565b600065ffffffffffff821115611af55760405162461bcd60e51b815260206004820152602660248201527f53616665436173743a2076616c756520646f65736e27742066697420696e203460448201527f3820626974730000000000000000000000000000000000000000000000000000606482015260840161064c565b60006105e0611c2f61185b565b836040517f19010000000000000000000000000000000000000000000000000000000000008152600281019290925260228201526042902090565b6000806000611c7b878787876123bf565b91509150611c8881612483565b5095945050505050565b6001600160a01b03811660009081526007602052604090208054600181018255905b50919050565b6001600160a01b038316611d365760405162461bcd60e51b815260206004820152602560248201527f45524332303a207472616e736665722066726f6d20746865207a65726f20616460448201527f6472657373000000000000000000000000000000000000000000000000000000606482015260840161064c565b6001600160a01b038216611db25760405162461bcd60e51b815260206004820152602360248201527f45524332303a207472616e7366657220746f20746865207a65726f206164647260448201527f6573730000000000000000000000000000000000000000000000000000000000606482015260840161064c565b6001600160a01b03831660009081526020819052604090205481811015611e415760405162461bcd60e51b815260206004820152602660248201527f45524332303a207472616e7366657220616d6f756e742065786365656473206260448201527f616c616e63650000000000000000000000000000000000000000000000000000606482015260840161064c565b6001600160a01b03848116600081815260208181526040808320878703905593871680835291849020805487019055925185815290927fddf252ad1be2c89b69c2b068fc378daa952ba7f163c4a11628f55a4df523b3ef910160405180910390a36116048484846125e8565b60006a1cf389cd46047d030000008210611ecc5750631efe9200919050565b6a084595161401484a0000008210611f23576000670de0b6b3a7640000611efe6a084595161401484a00000085612ea7565b611f089190612f0a565b611f13906008612ef3565b905061087681631312d000612e65565b69d3c21bcecceda10000008210611f78576000670de0b6b3a7640000611f5369d3c21bcecceda100000085612ea7565b611f5d9190612f0a565b611f68906016612ef3565b9050610876816307270e00612e65565b69152d02c7e14af68000008210611fcd576000670de0b6b3a7640000611fa869152d02c7e14af680000085612ea7565b611fb29190612f0a565b611fbd906053612ef3565b9050610876816302aea540612e65565b69021e19e0c9bab24000008210612022576000670de0b6b3a7640000611ffd69021e19e0c9bab240000085612ea7565b6120079190612f0a565b612013906101a0612ef3565b905061087681627270e0612e65565b683635c9adc5dea000008210612075576000670de0b6b3a7640000612050683635c9adc5dea0000085612ea7565b61205a9190612f0a565b612066906101f4612ef3565b905061087681622dc6c0612e65565b68056bc75e2d6310000082106120c8576000670de0b6b3a76400006120a368056bc75e2d6310000085612ea7565b6120ad9190612f0a565b6120b9906108ae612ef3565b905061087681620f4240612e65565b678ac7230489e800008210612119576000670de0b6b3a76400006120f4678ac7230489e8000085612ea7565b6120fe9190612f0a565b61210a90612710612ef3565b905061087681620186a0612e65565b50620186a0919050565b919050565b61213282826125f3565b611604600b61141483612763565b816001600160a01b0316836001600160a01b0316141580156121625750600081115b15611659576001600160a01b038316156121f0576001600160a01b0383166000908152600a60205260408120819061219d9061141485612763565b91509150846001600160a01b03167fdec2bacdd2f05b59de34da9b523dff8be42e5e38e818c82fdb0bae774387a72483836040516121e5929190918252602082015260400190565b60405180910390a250505b6001600160a01b03821615611659576001600160a01b0382166000908152600a6020526040812081906122269061140885612763565b91509150836001600160a01b03167fdec2bacdd2f05b59de34da9b523dff8be42e5e38e818c82fdb0bae774387a724838360405161226e929190918252602082015260400190565b60405180910390a25050505050565b60008160000361228f57506000919050565b6000600161229c846128d8565b901c6001901b905060018184816122b5576122b5612eba565b048201901c905060018184816122cd576122cd612eba565b048201901c905060018184816122e5576122e5612eba565b048201901c905060018184816122fd576122fd612eba565b048201901c9050600181848161231557612315612eba565b048201901c9050600181848161232d5761232d612eba565b048201901c9050600181848161234557612345612eba565b048201901c90506108768182858161235f5761235f612eba565b0461296c565b60006123746002848418612f0a565b61087690848416612e65565b6060600061238d83612982565b604080516020808252818301909252919250600091906020820181803683375050509182525060208101929092525090565b6000807f7fffffffffffffffffffffffffffffff5d576e7357a4501ddfe92f46681b20a08311156123f6575060009050600361247a565b6040805160008082526020820180845289905260ff881692820192909252606081018690526080810185905260019060a0016020604051602081039080840390855afa15801561244a573d6000803e3d6000fd5b5050604051601f1901519150506001600160a01b0381166124735760006001925092505061247a565b9150600090505b94509492505050565b600081600481111561249757612497612f1e565b0361249f5750565b60018160048111156124b3576124b3612f1e565b036125005760405162461bcd60e51b815260206004820152601860248201527f45434453413a20696e76616c6964207369676e61747572650000000000000000604482015260640161064c565b600281600481111561251457612514612f1e565b036125615760405162461bcd60e51b815260206004820152601f60248201527f45434453413a20696e76616c6964207369676e6174757265206c656e67746800604482015260640161064c565b600381600481111561257557612575612f1e565b036108875760405162461bcd60e51b815260206004820152602260248201527f45434453413a20696e76616c6964207369676e6174757265202773272076616c60448201527f7565000000000000000000000000000000000000000000000000000000000000606482015260840161064c565b6116598383836129c3565b6001600160a01b03821661266f5760405162461bcd60e51b815260206004820152602160248201527f45524332303a206275726e2066726f6d20746865207a65726f2061646472657360448201527f7300000000000000000000000000000000000000000000000000000000000000606482015260840161064c565b6001600160a01b038216600090815260208190526040902054818110156126fe5760405162461bcd60e51b815260206004820152602260248201527f45524332303a206275726e20616d6f756e7420657863656564732062616c616e60448201527f6365000000000000000000000000000000000000000000000000000000000000606482015260840161064c565b6001600160a01b0383166000818152602081815260408083208686039055600280548790039055518581529192917fddf252ad1be2c89b69c2b068fc378daa952ba7f163c4a11628f55a4df523b3ef910160405180910390a3611659836000846125e8565b825460009081908181156127b05760008781526020902082016000190160408051808201909152905463ffffffff8116825264010000000090046001600160e01b031660208201526127c5565b60408051808201909152600080825260208201525b905080602001516001600160e01b031693506127e584868863ffffffff16565b925060008211801561280f57506127fa610e7c565b65ffffffffffff16816000015163ffffffff16145b156128545761281d836129f5565b60008881526020902083016000190180546001600160e01b03929092166401000000000263ffffffff9092169190911790556128ce565b86604051806040016040528061287861286b610e7c565b65ffffffffffff16611a79565b63ffffffff16815260200161288c866129f5565b6001600160e01b0390811690915282546001810184556000938452602093849020835194909301519091166401000000000263ffffffff909316929092179101555b5050935093915050565b600080608083901c156128ed57608092831c92015b604083901c156128ff57604092831c92015b602083901c1561291157602092831c92015b601083901c1561292357601092831c92015b600883901c1561293557600892831c92015b600483901c1561294757600492831c92015b600283901c1561295957600292831c92015b600183901c156105e05760010192915050565b600081831061297b5781610876565b5090919050565b600060ff8216601f8111156105e0576040517fb3512b0c00000000000000000000000000000000000000000000000000000000815260040160405180910390fd5b6001600160a01b0383811660009081526009602052604080822054858416835291205461165992918216911683612140565b60006001600160e01b03821115611af55760405162461bcd60e51b815260206004820152602760248201527f53616665436173743a2076616c756520646f65736e27742066697420696e203260448201527f3234206269747300000000000000000000000000000000000000000000000000606482015260840161064c565b6000815180845260005b81811015612a9a57602081850181015186830182015201612a7e565b506000602082860101526020601f19601f83011685010191505092915050565b6020815260006108766020830184612a74565b80356001600160a01b038116811461212357600080fd5b60008060408385031215612af757600080fd5b612b0083612acd565b946020939093013593505050565b600080600060608486031215612b2357600080fd5b612b2c84612acd565b9250612b3a60208501612acd565b9150604084013590509250925092565b60008060408385031215612b5d57600080fd5b612b6683612acd565b9150612b7460208401612acd565b90509250929050565b60008060408385031215612b9057600080fd5b612b9983612acd565b915060208301358015158114612bae57600080fd5b809150509250929050565b600060208284031215612bcb57600080fd5b5035919050565b803560ff8116811461212357600080fd5b60008060008060008060c08789031215612bfc57600080fd5b612c0587612acd565b9550612c1360208801612acd565b9450612c2160408801612bd2565b9350612c2f60608801612bd2565b9250612c3d60808801612bd2565b9150612c4b60a08801612bd2565b90509295509295509295565b600060208284031215612c6957600080fd5b61087682612acd565b7fff00000000000000000000000000000000000000000000000000000000000000881681526000602060e081840152612cae60e084018a612a74565b8381036040850152612cc0818a612a74565b606085018990526001600160a01b038816608086015260a0850187905284810360c0860152855180825283870192509083019060005b81811015612d1257835183529284019291840191600101612cf6565b50909c9b505050505050505050505050565b60008060008060008060c08789031215612d3d57600080fd5b612d4687612acd565b95506020870135945060408701359350612d6260608801612bd2565b92506080870135915060a087013590509295509295509295565b600080600080600080600060e0888a031215612d9757600080fd5b612da088612acd565b9650612dae60208901612acd565b95506040880135945060608801359350612dca60808901612bd2565b925060a0880135915060c0880135905092959891949750929550565b60008060408385031215612df957600080fd5b612e0283612acd565b9150602083013563ffffffff81168114612bae57600080fd5b600181811c90821680612e2f57607f821691505b602082108103611cb457634e487b7160e01b600052602260045260246000fd5b634e487b7160e01b600052601160045260246000fd5b808201808211156105e0576105e0612e4f565b60ff81811683821601908111156105e0576105e0612e4f565b634e487b7160e01b600052603260045260246000fd5b818103818111156105e0576105e0612e4f565b634e487b7160e01b600052601260045260246000fd5b600063ffffffff80841680612ee757612ee7612eba565b92169190910492915050565b80820281158282048414176105e0576105e0612e4f565b600082612f1957612f19612eba565b500490565b634e487b7160e01b600052602160045260246000fdfea2646970667358221220f99724aedc628da4e2b72efc3a078faf2400700bd52527e53164af2b39259f1c64736f6c63430008130033dec2bacdd2f05b59de34da9b523dff8be42e5e38e818c82fdb0bae774387a724",
  "linkReferences": {},
  "deployedLinkReferences": {}
}