{
  "_format": "hh-sol-artifact-1",
  "contractName": "Liblocked",
  "sourceName": "contracts/liblocked.sol",
  "abi": [
    {
      "inputs": [
        {
          "internalType": "address",
          "name": "_depositToken",
          "type": "address"
        },
        {
          "internalType": "address",
          "name": "_rewardToken",
          "type": "address"
        },
        {
          "internalType": "address",
          "name": "_shareDistributionContract",
          "type": "address"
        }
      ],
      "stateMutability": "nonpayable",
      "type": "constructor"
    },
    {
      "anonymous": false,
      "inputs": [
        {
          "indexed": true,
          "internalType": "address",
          "name": "user",
          "type": "address"
        },
        {
          "indexed": true,
          "internalType": "uint256",
          "name": "amount",
          "type": "uint256"
        },
        {
          "indexed": true,
          "internalType": "uint256",
          "name": "unlockAt",
          "type": "uint256"
        }
      ],
      "name": "TokensLocked",
      "type": "event"
    },
    {
      "anonymous": false,
      "inputs": [
        {
          "indexed": true,
          "internalType": "address",
          "name": "user",
          "type": "address"
        },
        {
          "indexed": true,
          "internalType": "uint256",
          "name": "amount",
          "type": "uint256"
        }
      ],
      "name": "TokensWithdrawn",
      "type": "event"
    },
    {
      "inputs": [
        {
          "internalType": "address",
          "name": "_address",
          "type": "address"
        }
      ],
      "name": "getAddressNounce",
      "outputs": [
        {
          "internalType": "uint256",
          "name": "_nounce",
          "type": "uint256"
        }
      ],
      "stateMutability": "view",
      "type": "function"
    },
    {
      "inputs": [],
      "name": "getContracts",
      "outputs": [
        {
          "internalType": "address",
          "name": "_depositToken",
          "type": "address"
        },
        {
          "internalType": "address",
          "name": "_rewardToken",
          "type": "address"
        },
        {
          "internalType": "address",
          "name": "_shareDistributionContract",
          "type": "address"
        }
      ],
      "stateMutability": "view",
      "type": "function"
    },
    {
      "inputs": [
        {
          "internalType": "address",
          "name": "_address",
          "type": "address"
        },
        {
          "internalType": "uint256",
          "name": "_nounce",
          "type": "uint256"
        }
      ],
      "name": "getLockTimeRemaining",
      "outputs": [
        {
          "internalType": "uint256",
          "name": "lockTime",
          "type": "uint256"
        }
      ],
      "stateMutability": "view",
      "type": "function"
    },
    {
      "inputs": [],
      "name": "getTotalDepositedIssuedToken",
      "outputs": [
        {
          "internalType": "uint256",
          "name": "depositedTokens",
          "type": "uint256"
        },
        {
          "internalType": "uint256",
          "name": "issuedTokens",
          "type": "uint256"
        }
      ],
      "stateMutability": "view",
      "type": "function"
    },
    {
      "inputs": [
        {
          "internalType": "address",
          "name": "",
          "type": "address"
        },
        {
          "internalType": "uint256",
          "name": "",
          "type": "uint256"
        }
      ],
      "name": "ledger",
      "outputs": [
        {
          "internalType": "uint256",
          "name": "amountDeposited",
          "type": "uint256"
        },
        {
          "internalType": "uint256",
          "name": "amountIssued",
          "type": "uint256"
        },
        {
          "internalType": "uint8",
          "name": "ratio",
          "type": "uint8"
        },
        {
          "internalType": "uint256",
          "name": "lockedAt",
          "type": "uint256"
        },
        {
          "internalType": "uint256",
          "name": "lockUntil",
          "type": "uint256"
        },
        {
          "internalType": "contract TokenTimelock",
          "name": "lock",
          "type": "address"
        }
      ],
      "stateMutability": "view",
      "type": "function"
    },
    {
      "inputs": [
        {
          "internalType": "uint256",
          "name": "amount",
          "type": "uint256"
        }
      ],
      "name": "lock17",
      "outputs": [],
      "stateMutability": "nonpayable",
      "type": "function"
    },
    {
      "inputs": [
        {
          "internalType": "uint256",
          "name": "amount",
          "type": "uint256"
        }
      ],
      "name": "lock186",
      "outputs": [],
      "stateMutability": "nonpayable",
      "type": "function"
    },
    {
      "inputs": [
        {
          "internalType": "uint256",
          "name": "amount",
          "type": "uint256"
        }
      ],
      "name": "lock279",
      "outputs": [],
      "stateMutability": "nonpayable",
      "type": "function"
    },
    {
      "inputs": [
        {
          "internalType": "uint256",
          "name": "amount",
          "type": "uint256"
        }
      ],
      "name": "lock31",
      "outputs": [],
      "stateMutability": "nonpayable",
      "type": "function"
    },
    {
      "inputs": [
        {
          "internalType": "uint256",
          "name": "amount",
          "type": "uint256"
        }
      ],
      "name": "lock365",
      "outputs": [],
      "stateMutability": "nonpayable",
      "type": "function"
    },
    {
      "inputs": [
        {
          "internalType": "uint256",
          "name": "amount",
          "type": "uint256"
        }
      ],
      "name": "lock93",
      "outputs": [],
      "stateMutability": "nonpayable",
      "type": "function"
    },
    {
      "inputs": [
        {
          "internalType": "uint256",
          "name": "amount",
          "type": "uint256"
        }
      ],
      "name": "lockTest",
      "outputs": [],
      "stateMutability": "nonpayable",
      "type": "function"
    },
    {
      "inputs": [
        {
          "internalType": "uint256",
          "name": "_nounce",
          "type": "uint256"
        }
      ],
      "name": "withdrawTokens",
      "outputs": [],
      "stateMutability": "nonpayable",
      "type": "function"
    }
  ],
  "bytecode": "0x60e06040523480156200001157600080fd5b506040516200215538038062002155833981016040819052620000349162000077565b6001600160a01b0392831660805290821660a0521660c0526000808055600155620000c1565b80516001600160a01b03811681146200007257600080fd5b919050565b6000806000606084860312156200008d57600080fd5b62000098846200005a565b9250620000a8602085016200005a565b9150620000b8604085016200005a565b90509250925092565b60805160a05160c051611fe66200016f600039600081816102a80152611561015260008181610280015281816104d9015281816105b8015281816113370152818161149e01526114fd01526000818161025b015281816103790152818161092901528181610a0e01528181610af401528181610bd901528181610cbe01528181610da401528181610f3b01528181611021015281816110e5015281816113c801526114520152611fe66000f3fe60806040523480156200001157600080fd5b5060043610620000f15760003560e01c80638f6956871162000097578063d0902636116200006e578063d090263614620002d8578063de69e87e14620002ef578063df191b161462000306578063f1f4b041146200031d57600080fd5b80638f695687146200021f578063940ea8c91462000236578063c3a2a93a146200024d57600080fd5b806360f00ea111620000cc57806360f00ea1146200015057806374f1ca3a14620001675780637a1dba0a146200020357600080fd5b80630bde2b6414620000f65780632e2097281462000120578063315a095d1462000139575b600080fd5b6200010d62000107366004620015f0565b62000334565b6040519081526020015b60405180910390f35b620001376200013136600462001615565b62000361565b005b620001376200014a36600462001615565b6200044e565b6200010d620001613660046200162f565b620007ba565b620001c4620001783660046200162f565b6002602081815260009384526040808520909152918352912080546001820154928201546003830154600484015460059094015492949360ff909216929091906001600160a01b031686565b60408051968752602087019590955260ff90931693850193909352606084015260808301919091526001600160a01b031660a082015260c00162000117565b6000546001546040805192835260208301919091520162000117565b620001376200023036600462001615565b62000911565b620001376200024736600462001615565b620009f6565b604080516001600160a01b037f0000000000000000000000000000000000000000000000000000000000000000811682527f0000000000000000000000000000000000000000000000000000000000000000811660208301527f0000000000000000000000000000000000000000000000000000000000000000169181019190915260600162000117565b62000137620002e936600462001615565b62000adc565b620001376200030036600462001615565b62000bc1565b620001376200031736600462001615565b62000ca6565b620001376200032e36600462001615565b62000d8c565b6001600160a01b0381166000908152600360205260408120546200035b9060019062001672565b92915050565b6040516370a0823160e01b81523360048201819052907f00000000000000000000000000000000000000000000000000000000000000006001600160a01b0316906370a0823190602401602060405180830381865afa158015620003c9573d6000803e3d6000fd5b505050506040513d601f19601f82011682018060405250810190620003ef919062001688565b821115620004385760405162461bcd60e51b81526020600482015260116024820152704e6f7420656e6f75676820746f6b656e7360781b60448201526064015b60405180910390fd5b6200044a8260696228de808462000e6c565b5050565b336000818152600260208181526040808420868552825292839020835160c081018552815480825260018301549382018490529382015460ff16818601526003820154606082015260048083015460808301526005909201546001600160a01b0390811660a083018190529551636eb1769f60e11b81529283018790523060248401529094939183917f0000000000000000000000000000000000000000000000000000000000000000169063dd62ed3e90604401602060405180830381865afa15801562000521573d6000803e3d6000fd5b505050506040513d601f19601f8201168201806040525081019062000547919062001688565b1015620005975760405162461bcd60e51b815260206004820152601960248201527f4e6f7420656e6f75676820724c494220616c6c6f77616e63650000000000000060448201526064016200042f565b6040516370a0823160e01b81526001600160a01b03868116600483015283917f0000000000000000000000000000000000000000000000000000000000000000909116906370a0823190602401602060405180830381865afa15801562000602573d6000803e3d6000fd5b505050506040513d601f19601f8201168201806040525081019062000628919062001688565b1015620006785760405162461bcd60e51b815260206004820152601b60248201527f4e6f7420656e6f75676820724c494220746f207769746864726177000000000060448201526064016200042f565b6001600160a01b038316620006d05760405162461bcd60e51b815260206004820181905260248201527f4e6f20746f6b656e73206c6f636b656420666f722074686973206e6f756e636560448201526064016200042f565b826001600160a01b03166386d1a69f6040518163ffffffff1660e01b8152600401600060405180830381600087803b1580156200070c57600080fd5b505af115801562000721573d6000803e3d6000fd5b5050505062000730826200131b565b6200073d836000620013a1565b6200074985866200142b565b806000808282546200075c919062001672565b92505081905550816001600082825462000777919062001672565b909155505060405182906001600160a01b038716907f6352c5382c4a4578e712449ca65e83cdb392d045dfcf1cad9615189db2da244b90600090a3505050505050565b6001600160a01b0382166000908152600360205260408120548210620008355760405162461bcd60e51b815260206004820152602960248201527f54686973206e6f756e636520646f206e6f7420657869737420666f722074686960448201526873206164647265737360b81b60648201526084016200042f565b6001600160a01b038084166000908152600260208181526040808420878552825292839020835160c081018552815481526001820154928101929092529182015460ff16928101929092526003810154606083015260048101546080830181905260059091015490921660a082015242918210620008f65760405162461bcd60e51b815260206004820152601760248201527f546f6b656e7320616c726561647920756e6c6f636b656400000000000000000060448201526064016200042f565b81816080015162000908919062001672565b95945050505050565b6040516370a0823160e01b81523360048201819052907f00000000000000000000000000000000000000000000000000000000000000006001600160a01b0316906370a0823190602401602060405180830381865afa15801562000979573d6000803e3d6000fd5b505050506040513d601f19601f820116820180604052508101906200099f919062001688565b821115620009e45760405162461bcd60e51b81526020600482015260116024820152704e6f7420656e6f75676820746f6b656e7360781b60448201526064016200042f565b6200044a82609162f537008462000e6c565b6040516370a0823160e01b81523360048201819052907f00000000000000000000000000000000000000000000000000000000000000006001600160a01b0316906370a0823190602401602060405180830381865afa15801562000a5e573d6000803e3d6000fd5b505050506040513d601f19601f8201168201806040525081019062000a84919062001688565b82111562000ac95760405162461bcd60e51b81526020600482015260116024820152704e6f7420656e6f75676820746f6b656e7360781b60448201526064016200042f565b6200044a8260aa6301e133808462000e6c565b6040516370a0823160e01b81523360048201819052907f00000000000000000000000000000000000000000000000000000000000000006001600160a01b0316906370a0823190602401602060405180830381865afa15801562000b44573d6000803e3d6000fd5b505050506040513d601f19601f8201168201806040525081019062000b6a919062001688565b82111562000baf5760405162461bcd60e51b81526020600482015260116024820152704e6f7420656e6f75676820746f6b656e7360781b60448201526064016200042f565b6200044a826064620151808462000e6c565b6040516370a0823160e01b81523360048201819052907f00000000000000000000000000000000000000000000000000000000000000006001600160a01b0316906370a0823190602401602060405180830381865afa15801562000c29573d6000803e3d6000fd5b505050506040513d601f19601f8201168201806040525081019062000c4f919062001688565b82111562000c945760405162461bcd60e51b81526020600482015260116024820152704e6f7420656e6f75676820746f6b656e7360781b60448201526064016200042f565b6200044a82607d627a9b808462000e6c565b6040516370a0823160e01b81523360048201819052907f00000000000000000000000000000000000000000000000000000000000000006001600160a01b0316906370a0823190602401602060405180830381865afa15801562000d0e573d6000803e3d6000fd5b505050506040513d601f19601f8201168201806040525081019062000d34919062001688565b82111562000d795760405162461bcd60e51b81526020600482015260116024820152704e6f7420656e6f75676820746f6b656e7360781b60448201526064016200042f565b6200044a8260a063016fd2808462000e6c565b6040516370a0823160e01b81523360048201819052907f00000000000000000000000000000000000000000000000000000000000000006001600160a01b0316906370a0823190602401602060405180830381865afa15801562000df4573d6000803e3d6000fd5b505050506040513d601f19601f8201168201806040525081019062000e1a919062001688565b82111562000e5f5760405162461bcd60e51b81526020600482015260116024820152704e6f7420656e6f75676820746f6b656e7360781b60448201526064016200042f565b6200044a82606462166980845b6000841162000ebe5760405162461bcd60e51b815260206004820181905260248201527f416d6f756e74206d7573742062652067726561746572207468616e207a65726f60448201526064016200042f565b60c88360ff16111562000f145760405162461bcd60e51b815260206004820152601160248201527f526174696f20697320746f6f206869676800000000000000000000000000000060448201526064016200042f565b604051636eb1769f60e11b81526001600160a01b03828116600483015230602483015285917f00000000000000000000000000000000000000000000000000000000000000009091169063dd62ed3e90604401602060405180830381865afa15801562000f85573d6000803e3d6000fd5b505050506040513d601f19601f8201168201806040525081019062000fab919062001688565b101562000ffb5760405162461bcd60e51b815260206004820152601860248201527f4e6f7420656e6f756768204c494220616c6c6f77616e6365000000000000000060448201526064016200042f565b42600060646200100f60ff871688620016a2565b6200101b9190620016bc565b905060007f0000000000000000000000000000000000000000000000000000000000000000846200105363ffffffff881686620016df565b306040516200106290620015c5565b6001600160a01b039485168152928416602084015260408301919091529091166060820152608001604051809103906000f080158015620010a7573d6000803e3d6000fd5b509050620010b7816001620013a1565b6040516323b872dd60e01b81526001600160a01b0385811660048301528281166024830152604482018990527f000000000000000000000000000000000000000000000000000000000000000016906323b872dd906064016020604051808303816000875af11580156200112f573d6000803e3d6000fd5b505050506040513d601f19601f82011682018060405250810190620011559190620016f5565b50620011618262001482565b6200116d81856200142b565b620011798485620014d6565b6040518060c001604052808881526020018381526020018760ff1681526020018481526020018663ffffffff1685620011b39190620016df565b81526001600160a01b0383811660209283015286811660009081526002808452604080832060038087528285205485529086529281902086518155948601516001860155850151908401805460ff191660ff9092169190911790556060840151908301556080830151600483015560a0909201516005909101805473ffffffffffffffffffffffffffffffffffffffff1916919092161790556200126b8483856200126563ffffffff8a1682620016df565b6200152d565b6001600160a01b0384166000908152600360205260408120805491620012918362001719565b919050555086600080828254620012a99190620016df565b925050819055508160016000828254620012c49190620016df565b90915550620012dc905063ffffffff861684620016df565b60405188906001600160a01b038716907fd741e738a23fd18a03a26522320d9fc6cac1fed483e215ea9150fbc2fc43385d90600090a450505050505050565b604051632770a7eb60e21b8152336004820152602481018290527f00000000000000000000000000000000000000000000000000000000000000006001600160a01b031690639dc29fac906044015b600060405180830381600087803b1580156200138557600080fd5b505af11580156200139a573d6000803e3d6000fd5b5050505050565b604051632ad0ad0960e01b81526001600160a01b03838116600483015282151560248301527f00000000000000000000000000000000000000000000000000000000000000001690632ad0ad09906044015b600060405180830381600087803b1580156200140e57600080fd5b505af115801562001423573d6000803e3d6000fd5b505050505050565b604051632949582d60e01b81526001600160a01b03838116600483015282811660248301527f00000000000000000000000000000000000000000000000000000000000000001690632949582d90604401620013f3565b6040516340c10f1960e01b8152336004820152602481018290527f00000000000000000000000000000000000000000000000000000000000000006001600160a01b0316906340c10f19906044016200136a565b604051632949582d60e01b81526001600160a01b03838116600483015282811660248301527f00000000000000000000000000000000000000000000000000000000000000001690632949582d90604401620013f3565b6040516338d5eae560e11b81526001600160a01b0385811660048301526024820185905260448201849052606482018390527f000000000000000000000000000000000000000000000000000000000000000016906371abd5ca90608401600060405180830381600087803b158015620015a657600080fd5b505af1158015620015bb573d6000803e3d6000fd5b5050505050505050565b61087b806200173683390190565b80356001600160a01b0381168114620015eb57600080fd5b919050565b6000602082840312156200160357600080fd5b6200160e82620015d3565b9392505050565b6000602082840312156200162857600080fd5b5035919050565b600080604083850312156200164357600080fd5b6200164e83620015d3565b946020939093013593505050565b634e487b7160e01b600052601160045260246000fd5b818103818111156200035b576200035b6200165c565b6000602082840312156200169b57600080fd5b5051919050565b80820281158282048414176200035b576200035b6200165c565b600082620016da57634e487b7160e01b600052601260045260246000fd5b500490565b808201808211156200035b576200035b6200165c565b6000602082840312156200170857600080fd5b815180151581146200160e57600080fd5b6000600182016200172e576200172e6200165c565b506001019056fe61010060405234801561001157600080fd5b5060405161087b38038061087b833981016040819052610030916100d6565b42821161009e5760405162461bcd60e51b815260206004820152603260248201527f546f6b656e54696d656c6f636b3a2072656c656173652074696d65206973206260448201527165666f72652063757272656e742074696d6560701b606482015260840160405180910390fd5b6001600160a01b0393841660805291831660a05260c0521660e05261012b565b6001600160a01b03811681146100d357600080fd5b50565b600080600080608085870312156100ec57600080fd5b84516100f7816100be565b6020860151909450610108816100be565b604086015160608701519194509250610120816100be565b939692955090935050565b60805160a05160c05160e0516106ff61017c600039600060f9015260008181609f015261016d0152600081816053015261031b01526000818160ca0152818161020501526102f901526106ff6000f3fe608060405234801561001057600080fd5b506004361061004c5760003560e01c806338af3eed1461005157806386d1a69f14610090578063b91d40011461009a578063fc0c546a146100c8575b600080fd5b7f00000000000000000000000000000000000000000000000000000000000000005b6040516001600160a01b0390911681526020015b60405180910390f35b6100986100ee565b005b6040517f00000000000000000000000000000000000000000000000000000000000000008152602001610087565b7f0000000000000000000000000000000000000000000000000000000000000000610073565b336001600160a01b037f0000000000000000000000000000000000000000000000000000000000000000161461016b5760405162461bcd60e51b815260206004820152601560248201527f4e6f7420737461636b696e6720636f6e7472616374000000000000000000000060448201526064015b60405180910390fd5b7f00000000000000000000000000000000000000000000000000000000000000004210156102015760405162461bcd60e51b815260206004820152603260248201527f546f6b656e54696d656c6f636b3a2063757272656e742074696d65206973206260448201527f65666f72652072656c656173652074696d6500000000000000000000000000006064820152608401610162565b60007f00000000000000000000000000000000000000000000000000000000000000006040516370a0823160e01b81523060048201526001600160a01b0391909116906370a0823190602401602060405180830381865afa15801561026a573d6000803e3d6000fd5b505050506040513d601f19601f8201168201806040525081019061028e9190610614565b9050600081116102ec5760405162461bcd60e51b815260206004820152602360248201527f546f6b656e54696d656c6f636b3a206e6f20746f6b656e7320746f2072656c6560448201526261736560e81b6064820152608401610162565b6103406001600160a01b037f0000000000000000000000000000000000000000000000000000000000000000167f000000000000000000000000000000000000000000000000000000000000000083610343565b50565b604080516001600160a01b038416602482015260448082018490528251808303909101815260649091019091526020810180517bffffffffffffffffffffffffffffffffffffffffffffffffffffffff1663a9059cbb60e01b1790526103aa9084906103af565b505050565b6000610404826040518060400160405280602081526020017f5361666545524332303a206c6f772d6c6576656c2063616c6c206661696c6564815250856001600160a01b03166104849092919063ffffffff16565b9050805160001480610425575080806020019051810190610425919061062d565b6103aa5760405162461bcd60e51b815260206004820152602a60248201527f5361666545524332303a204552433230206f7065726174696f6e20646964206e6044820152691bdd081cdd58d8d9595960b21b6064820152608401610162565b6060610493848460008561049b565b949350505050565b6060824710156104fc5760405162461bcd60e51b815260206004820152602660248201527f416464726573733a20696e73756666696369656e742062616c616e636520666f6044820152651c8818d85b1b60d21b6064820152608401610162565b600080866001600160a01b03168587604051610518919061067a565b60006040518083038185875af1925050503d8060008114610555576040519150601f19603f3d011682016040523d82523d6000602084013e61055a565b606091505b509150915061056b87838387610576565b979650505050505050565b606083156105e55782516000036105de576001600160a01b0385163b6105de5760405162461bcd60e51b815260206004820152601d60248201527f416464726573733a2063616c6c20746f206e6f6e2d636f6e74726163740000006044820152606401610162565b5081610493565b61049383838151156105fa5781518083602001fd5b8060405162461bcd60e51b81526004016101629190610696565b60006020828403121561062657600080fd5b5051919050565b60006020828403121561063f57600080fd5b8151801515811461064f57600080fd5b9392505050565b60005b83811015610671578181015183820152602001610659565b50506000910152565b6000825161068c818460208701610656565b9190910192915050565b60208152600082518060208401526106b5816040850160208701610656565b601f01601f1916919091016040019291505056fea264697066735822122089df5ed1ad10c82b9f4299bbf9a3be03238d0e47c118da736d546f9d596a7a7f64736f6c63430008140033a26469706673582212205e02dc556fec6a6cd808358a5e5ecff482fc680a437f3fe69d7121c473d814c264736f6c63430008140033",
  "linkReferences": {},
  "deployedLinkReferences": {}
}