{
  "_format": "hh-sol-artifact-1",
  "contractName": "Liblocked",
  "sourceName": "contracts/liblocked.sol",
  "abi": [
    {
      "inputs": [
        {
          "internalType": "address",
          "name": "_depositToken",
          "type": "address"
        },
        {
          "internalType": "address",
          "name": "_rewardToken",
          "type": "address"
        },
        {
          "internalType": "address",
          "name": "_shareDistributionContract",
          "type": "address"
        }
      ],
      "stateMutability": "nonpayable",
      "type": "constructor"
    },
    {
      "anonymous": false,
      "inputs": [
        {
          "indexed": true,
          "internalType": "address",
          "name": "user",
          "type": "address"
        },
        {
          "indexed": true,
          "internalType": "uint256",
          "name": "amount",
          "type": "uint256"
        },
        {
          "indexed": true,
          "internalType": "uint256",
          "name": "unlockAt",
          "type": "uint256"
        }
      ],
      "name": "TokensLocked",
      "type": "event"
    },
    {
      "anonymous": false,
      "inputs": [
        {
          "indexed": true,
          "internalType": "address",
          "name": "user",
          "type": "address"
        },
        {
          "indexed": true,
          "internalType": "uint256",
          "name": "amount",
          "type": "uint256"
        }
      ],
      "name": "TokensWithdrawn",
      "type": "event"
    },
    {
      "inputs": [
        {
          "internalType": "address",
          "name": "_address",
          "type": "address"
        }
      ],
      "name": "getAddressNounce",
      "outputs": [
        {
          "internalType": "uint256",
          "name": "_nounce",
          "type": "uint256"
        }
      ],
      "stateMutability": "view",
      "type": "function"
    },
    {
      "inputs": [],
      "name": "getContracts",
      "outputs": [
        {
          "internalType": "address",
          "name": "_depositToken",
          "type": "address"
        },
        {
          "internalType": "address",
          "name": "_rewardToken",
          "type": "address"
        },
        {
          "internalType": "address",
          "name": "_shareDistributionContract",
          "type": "address"
        }
      ],
      "stateMutability": "view",
      "type": "function"
    },
    {
      "inputs": [
        {
          "internalType": "address",
          "name": "_address",
          "type": "address"
        },
        {
          "internalType": "uint256",
          "name": "_nounce",
          "type": "uint256"
        }
      ],
      "name": "getLockTimeRemaining",
      "outputs": [
        {
          "internalType": "uint256",
          "name": "lockTime",
          "type": "uint256"
        }
      ],
      "stateMutability": "view",
      "type": "function"
    },
    {
      "inputs": [],
      "name": "getTotalDepositedIssuedToken",
      "outputs": [
        {
          "internalType": "uint256",
          "name": "depositedTokens",
          "type": "uint256"
        },
        {
          "internalType": "uint256",
          "name": "issuedTokens",
          "type": "uint256"
        }
      ],
      "stateMutability": "view",
      "type": "function"
    },
    {
      "inputs": [
        {
          "internalType": "address",
          "name": "",
          "type": "address"
        },
        {
          "internalType": "uint256",
          "name": "",
          "type": "uint256"
        }
      ],
      "name": "ledger",
      "outputs": [
        {
          "internalType": "uint256",
          "name": "amountDeposited",
          "type": "uint256"
        },
        {
          "internalType": "uint256",
          "name": "amountIssued",
          "type": "uint256"
        },
        {
          "internalType": "uint8",
          "name": "ratio",
          "type": "uint8"
        },
        {
          "internalType": "uint256",
          "name": "lockedAt",
          "type": "uint256"
        },
        {
          "internalType": "uint256",
          "name": "lockUntil",
          "type": "uint256"
        },
        {
          "internalType": "contract TokenTimelock",
          "name": "lock",
          "type": "address"
        }
      ],
      "stateMutability": "view",
      "type": "function"
    },
    {
      "inputs": [
        {
          "internalType": "uint256",
          "name": "amount",
          "type": "uint256"
        }
      ],
      "name": "lock17",
      "outputs": [],
      "stateMutability": "nonpayable",
      "type": "function"
    },
    {
      "inputs": [
        {
          "internalType": "uint256",
          "name": "amount",
          "type": "uint256"
        }
      ],
      "name": "lock186",
      "outputs": [],
      "stateMutability": "nonpayable",
      "type": "function"
    },
    {
      "inputs": [
        {
          "internalType": "uint256",
          "name": "amount",
          "type": "uint256"
        }
      ],
      "name": "lock279",
      "outputs": [],
      "stateMutability": "nonpayable",
      "type": "function"
    },
    {
      "inputs": [
        {
          "internalType": "uint256",
          "name": "amount",
          "type": "uint256"
        }
      ],
      "name": "lock31",
      "outputs": [],
      "stateMutability": "nonpayable",
      "type": "function"
    },
    {
      "inputs": [
        {
          "internalType": "uint256",
          "name": "amount",
          "type": "uint256"
        }
      ],
      "name": "lock365",
      "outputs": [],
      "stateMutability": "nonpayable",
      "type": "function"
    },
    {
      "inputs": [
        {
          "internalType": "uint256",
          "name": "amount",
          "type": "uint256"
        }
      ],
      "name": "lock93",
      "outputs": [],
      "stateMutability": "nonpayable",
      "type": "function"
    },
    {
      "inputs": [
        {
          "internalType": "uint256",
          "name": "_nounce",
          "type": "uint256"
        }
      ],
      "name": "withdrawTokens",
      "outputs": [],
      "stateMutability": "nonpayable",
      "type": "function"
    }
  ],
  "bytecode": "0x60e06040523480156200001157600080fd5b506040516200215838038062002158833981016040819052620000349162000077565b6001600160a01b0392831660805290821660a0521660c0526000808055600155620000c1565b80516001600160a01b03811681146200007257600080fd5b919050565b6000806000606084860312156200008d57600080fd5b62000098846200005a565b9250620000a8602085016200005a565b9150620000b8604085016200005a565b90509250925092565b60805160a05160c051611ff0620001686000396000818161029c01526114f5015260008181610274015281816104b6015281816105950152818161128001528181611419015261147801526000818161024f015281816103560152818161091a015281816109ff01528181610ae501528181610bca01528181610cb001528181610e4701528181610f2d0152818161100a0152818161132a01526113b40152611ff06000f3fe60806040523480156200001157600080fd5b5060043610620000e55760003560e01c80638f695687116200008b578063de69e87e1162000062578063de69e87e14620002cc578063df191b1614620002e3578063f1f4b04114620002fa57600080fd5b80638f6956871462000213578063940ea8c9146200022a578063c3a2a93a146200024157600080fd5b806360f00ea111620000c057806360f00ea1146200014457806374f1ca3a146200015b5780637a1dba0a14620001f757600080fd5b80630bde2b6414620000ea5780632e2097281462000114578063315a095d146200012d575b600080fd5b62000101620000fb36600462001584565b62000311565b6040519081526020015b60405180910390f35b6200012b62000125366004620015a9565b6200033e565b005b6200012b6200013e366004620015a9565b6200042b565b6200010162000155366004620015c3565b62000797565b620001b86200016c366004620015c3565b6002602081815260009384526040808520909152918352912080546001820154928201546003830154600484015460059094015492949360ff909216929091906001600160a01b031686565b60408051968752602087019590955260ff90931693850193909352606084015260808301919091526001600160a01b031660a082015260c0016200010b565b600054600154604080519283526020830191909152016200010b565b6200012b62000224366004620015a9565b62000902565b6200012b6200023b366004620015a9565b620009e7565b604080516001600160a01b037f0000000000000000000000000000000000000000000000000000000000000000811682527f0000000000000000000000000000000000000000000000000000000000000000811660208301527f000000000000000000000000000000000000000000000000000000000000000016918101919091526060016200010b565b6200012b620002dd366004620015a9565b62000acd565b6200012b620002f4366004620015a9565b62000bb2565b6200012b6200030b366004620015a9565b62000c98565b6001600160a01b038116600090815260036020526040812054620003389060019062001606565b92915050565b6040516370a0823160e01b81523360048201819052907f00000000000000000000000000000000000000000000000000000000000000006001600160a01b0316906370a0823190602401602060405180830381865afa158015620003a6573d6000803e3d6000fd5b505050506040513d601f19601f82011682018060405250810190620003cc91906200161c565b821115620004155760405162461bcd60e51b81526020600482015260116024820152704e6f7420656e6f75676820746f6b656e7360781b60448201526064015b60405180910390fd5b620004278260696228de808462000d78565b5050565b336000818152600260208181526040808420868552825292839020835160c081018552815480825260018301549382018490529382015460ff16818601526003820154606082015260048083015460808301526005909201546001600160a01b0390811660a083018190529551636eb1769f60e11b81529283018790523060248401529094939183917f0000000000000000000000000000000000000000000000000000000000000000169063dd62ed3e90604401602060405180830381865afa158015620004fe573d6000803e3d6000fd5b505050506040513d601f19601f820116820180604052508101906200052491906200161c565b1015620005745760405162461bcd60e51b815260206004820152601960248201527f4e6f7420656e6f75676820724c494220616c6c6f77616e63650000000000000060448201526064016200040c565b6040516370a0823160e01b81526001600160a01b03868116600483015283917f0000000000000000000000000000000000000000000000000000000000000000909116906370a0823190602401602060405180830381865afa158015620005df573d6000803e3d6000fd5b505050506040513d601f19601f820116820180604052508101906200060591906200161c565b1015620006555760405162461bcd60e51b815260206004820152601b60248201527f4e6f7420656e6f75676820724c494220746f207769746864726177000000000060448201526064016200040c565b6001600160a01b038316620006ad5760405162461bcd60e51b815260206004820181905260248201527f4e6f20746f6b656e73206c6f636b656420666f722074686973206e6f756e636560448201526064016200040c565b826001600160a01b03166386d1a69f6040518163ffffffff1660e01b8152600401600060405180830381600087803b158015620006e957600080fd5b505af1158015620006fe573d6000803e3d6000fd5b505050506200070d826200124b565b6200071a836000620012ea565b6200072685866200138d565b8060008082825462000739919062001606565b92505081905550816001600082825462000754919062001606565b909155505060405182906001600160a01b038716907f6352c5382c4a4578e712449ca65e83cdb392d045dfcf1cad9615189db2da244b90600090a3505050505050565b6001600160a01b0382166000908152600360205260408120548210620008265760405162461bcd60e51b815260206004820152602960248201527f54686973206e6f756e636520646f206e6f7420657869737420666f722074686960448201527f732061646472657373000000000000000000000000000000000000000000000060648201526084016200040c565b6001600160a01b038084166000908152600260208181526040808420878552825292839020835160c081018552815481526001820154928101929092529182015460ff16928101929092526003810154606083015260048101546080830181905260059091015490921660a082015242918210620008e75760405162461bcd60e51b815260206004820152601760248201527f546f6b656e7320616c726561647920756e6c6f636b656400000000000000000060448201526064016200040c565b818160800151620008f9919062001606565b95945050505050565b6040516370a0823160e01b81523360048201819052907f00000000000000000000000000000000000000000000000000000000000000006001600160a01b0316906370a0823190602401602060405180830381865afa1580156200096a573d6000803e3d6000fd5b505050506040513d601f19601f820116820180604052508101906200099091906200161c565b821115620009d55760405162461bcd60e51b81526020600482015260116024820152704e6f7420656e6f75676820746f6b656e7360781b60448201526064016200040c565b6200042782609162f537008462000d78565b6040516370a0823160e01b81523360048201819052907f00000000000000000000000000000000000000000000000000000000000000006001600160a01b0316906370a0823190602401602060405180830381865afa15801562000a4f573d6000803e3d6000fd5b505050506040513d601f19601f8201168201806040525081019062000a7591906200161c565b82111562000aba5760405162461bcd60e51b81526020600482015260116024820152704e6f7420656e6f75676820746f6b656e7360781b60448201526064016200040c565b620004278260aa6301e133808462000d78565b6040516370a0823160e01b81523360048201819052907f00000000000000000000000000000000000000000000000000000000000000006001600160a01b0316906370a0823190602401602060405180830381865afa15801562000b35573d6000803e3d6000fd5b505050506040513d601f19601f8201168201806040525081019062000b5b91906200161c565b82111562000ba05760405162461bcd60e51b81526020600482015260116024820152704e6f7420656e6f75676820746f6b656e7360781b60448201526064016200040c565b6200042782607d627a9b808462000d78565b6040516370a0823160e01b81523360048201819052907f00000000000000000000000000000000000000000000000000000000000000006001600160a01b0316906370a0823190602401602060405180830381865afa15801562000c1a573d6000803e3d6000fd5b505050506040513d601f19601f8201168201806040525081019062000c4091906200161c565b82111562000c855760405162461bcd60e51b81526020600482015260116024820152704e6f7420656e6f75676820746f6b656e7360781b60448201526064016200040c565b620004278260a063016fd2808462000d78565b6040516370a0823160e01b81523360048201819052907f00000000000000000000000000000000000000000000000000000000000000006001600160a01b0316906370a0823190602401602060405180830381865afa15801562000d00573d6000803e3d6000fd5b505050506040513d601f19601f8201168201806040525081019062000d2691906200161c565b82111562000d6b5760405162461bcd60e51b81526020600482015260116024820152704e6f7420656e6f75676820746f6b656e7360781b60448201526064016200040c565b6200042782606462166980845b6000841162000dca5760405162461bcd60e51b815260206004820181905260248201527f416d6f756e74206d7573742062652067726561746572207468616e207a65726f60448201526064016200040c565b60c88360ff16111562000e205760405162461bcd60e51b815260206004820152601160248201527f526174696f20697320746f6f206869676800000000000000000000000000000060448201526064016200040c565b604051636eb1769f60e11b81526001600160a01b03828116600483015230602483015285917f00000000000000000000000000000000000000000000000000000000000000009091169063dd62ed3e90604401602060405180830381865afa15801562000e91573d6000803e3d6000fd5b505050506040513d601f19601f8201168201806040525081019062000eb791906200161c565b101562000f075760405162461bcd60e51b815260206004820152601860248201527f4e6f7420656e6f756768204c494220616c6c6f77616e6365000000000000000060448201526064016200040c565b426000606462000f1b60ff87168862001636565b62000f27919062001650565b905060007f00000000000000000000000000000000000000000000000000000000000000008462000f5f63ffffffff88168662001673565b3060405162000f6e9062001559565b6001600160a01b039485168152928416602084015260408301919091529091166060820152608001604051809103906000f08015801562000fb3573d6000803e3d6000fd5b50905062000fc3816001620012ea565b6040517f23b872dd0000000000000000000000000000000000000000000000000000000081526001600160a01b0385811660048301528281166024830152604482018990527f000000000000000000000000000000000000000000000000000000000000000016906323b872dd906064016020604051808303816000875af115801562001054573d6000803e3d6000fd5b505050506040513d601f19601f820116820180604052508101906200107a919062001689565b506200108682620013e4565b6200109281856200138d565b6200109e848562001451565b6040518060c001604052808881526020018381526020018760ff1681526020018481526020018663ffffffff1685620010d8919062001673565b81526001600160a01b0383811660209283015286811660009081526002808452604080832060038087528285205485529086529281902086518155948601516001860155850151908401805460ff191660ff9092169190911790556060840151908301556080830151600483015560a090920151600590910180547fffffffffffffffffffffffff000000000000000000000000000000000000000016919092161790556200119b8483856200119563ffffffff8a168262001673565b620014a8565b6001600160a01b0384166000908152600360205260408120805491620011c183620016ad565b919050555086600080828254620011d9919062001673565b925050819055508160016000828254620011f4919062001673565b909155506200120c905063ffffffff86168462001673565b60405188906001600160a01b038716907fd741e738a23fd18a03a26522320d9fc6cac1fed483e215ea9150fbc2fc43385d90600090a450505050505050565b6040517f9dc29fac000000000000000000000000000000000000000000000000000000008152336004820152602481018290527f00000000000000000000000000000000000000000000000000000000000000006001600160a01b031690639dc29fac906044015b600060405180830381600087803b158015620012ce57600080fd5b505af1158015620012e3573d6000803e3d6000fd5b5050505050565b6040517f2ad0ad090000000000000000000000000000000000000000000000000000000081526001600160a01b03838116600483015282151560248301527f00000000000000000000000000000000000000000000000000000000000000001690632ad0ad09906044015b600060405180830381600087803b1580156200137057600080fd5b505af115801562001385573d6000803e3d6000fd5b505050505050565b604051632949582d60e01b81526001600160a01b03838116600483015282811660248301527f00000000000000000000000000000000000000000000000000000000000000001690632949582d9060440162001355565b6040517f40c10f19000000000000000000000000000000000000000000000000000000008152336004820152602481018290527f00000000000000000000000000000000000000000000000000000000000000006001600160a01b0316906340c10f1990604401620012b3565b604051632949582d60e01b81526001600160a01b03838116600483015282811660248301527f00000000000000000000000000000000000000000000000000000000000000001690632949582d9060440162001355565b6040517f71abd5ca0000000000000000000000000000000000000000000000000000000081526001600160a01b0385811660048301526024820185905260448201849052606482018390527f000000000000000000000000000000000000000000000000000000000000000016906371abd5ca90608401600060405180830381600087803b1580156200153a57600080fd5b505af11580156200154f573d6000803e3d6000fd5b5050505050505050565b6108f180620016ca83390190565b80356001600160a01b03811681146200157f57600080fd5b919050565b6000602082840312156200159757600080fd5b620015a28262001567565b9392505050565b600060208284031215620015bc57600080fd5b5035919050565b60008060408385031215620015d757600080fd5b620015e28362001567565b946020939093013593505050565b634e487b7160e01b600052601160045260246000fd5b81810381811115620003385762000338620015f0565b6000602082840312156200162f57600080fd5b5051919050565b8082028115828204841417620003385762000338620015f0565b6000826200166e57634e487b7160e01b600052601260045260246000fd5b500490565b80820180821115620003385762000338620015f0565b6000602082840312156200169c57600080fd5b81518015158114620015a257600080fd5b600060018201620016c257620016c2620015f0565b506001019056fe61010060405234801561001157600080fd5b506040516108f13803806108f1833981016040819052610030916100d6565b42821161009e5760405162461bcd60e51b815260206004820152603260248201527f546f6b656e54696d656c6f636b3a2072656c656173652074696d65206973206260448201527165666f72652063757272656e742074696d6560701b606482015260840160405180910390fd5b6001600160a01b0393841660805291831660a05260c0521660e05261012b565b6001600160a01b03811681146100d357600080fd5b50565b600080600080608085870312156100ec57600080fd5b84516100f7816100be565b6020860151909450610108816100be565b604086015160608701519194509250610120816100be565b939692955090935050565b60805160a05160c05160e05161077561017c600039600060f9015260008181609f015261016d0152600081816053015261034e01526000818160ca01528181610205015261032c01526107756000f3fe608060405234801561001057600080fd5b506004361061004c5760003560e01c806338af3eed1461005157806386d1a69f14610090578063b91d40011461009a578063fc0c546a146100c8575b600080fd5b7f00000000000000000000000000000000000000000000000000000000000000005b6040516001600160a01b0390911681526020015b60405180910390f35b6100986100ee565b005b6040517f00000000000000000000000000000000000000000000000000000000000000008152602001610087565b7f0000000000000000000000000000000000000000000000000000000000000000610073565b336001600160a01b037f0000000000000000000000000000000000000000000000000000000000000000161461016b5760405162461bcd60e51b815260206004820152601560248201527f4e6f7420737461636b696e6720636f6e7472616374000000000000000000000060448201526064015b60405180910390fd5b7f00000000000000000000000000000000000000000000000000000000000000004210156102015760405162461bcd60e51b815260206004820152603260248201527f546f6b656e54696d656c6f636b3a2063757272656e742074696d65206973206260448201527f65666f72652072656c656173652074696d6500000000000000000000000000006064820152608401610162565b60007f00000000000000000000000000000000000000000000000000000000000000006040517f70a082310000000000000000000000000000000000000000000000000000000081523060048201526001600160a01b0391909116906370a0823190602401602060405180830381865afa158015610283573d6000803e3d6000fd5b505050506040513d601f19601f820116820180604052508101906102a7919061068a565b90506000811161031f5760405162461bcd60e51b815260206004820152602360248201527f546f6b656e54696d656c6f636b3a206e6f20746f6b656e7320746f2072656c6560448201527f61736500000000000000000000000000000000000000000000000000000000006064820152608401610162565b6103736001600160a01b037f0000000000000000000000000000000000000000000000000000000000000000167f000000000000000000000000000000000000000000000000000000000000000083610376565b50565b604080516001600160a01b038416602482015260448082018490528251808303909101815260649091019091526020810180517bffffffffffffffffffffffffffffffffffffffffffffffffffffffff167fa9059cbb000000000000000000000000000000000000000000000000000000001790526103f69084906103fb565b505050565b6000610450826040518060400160405280602081526020017f5361666545524332303a206c6f772d6c6576656c2063616c6c206661696c6564815250856001600160a01b03166104e39092919063ffffffff16565b905080516000148061047157508080602001905181019061047191906106a3565b6103f65760405162461bcd60e51b815260206004820152602a60248201527f5361666545524332303a204552433230206f7065726174696f6e20646964206e60448201527f6f742073756363656564000000000000000000000000000000000000000000006064820152608401610162565b60606104f284846000856104fa565b949350505050565b6060824710156105725760405162461bcd60e51b815260206004820152602660248201527f416464726573733a20696e73756666696369656e742062616c616e636520666f60448201527f722063616c6c00000000000000000000000000000000000000000000000000006064820152608401610162565b600080866001600160a01b0316858760405161058e91906106f0565b60006040518083038185875af1925050503d80600081146105cb576040519150601f19603f3d011682016040523d82523d6000602084013e6105d0565b606091505b50915091506105e1878383876105ec565b979650505050505050565b6060831561065b578251600003610654576001600160a01b0385163b6106545760405162461bcd60e51b815260206004820152601d60248201527f416464726573733a2063616c6c20746f206e6f6e2d636f6e74726163740000006044820152606401610162565b50816104f2565b6104f283838151156106705781518083602001fd5b8060405162461bcd60e51b8152600401610162919061070c565b60006020828403121561069c57600080fd5b5051919050565b6000602082840312156106b557600080fd5b815180151581146106c557600080fd5b9392505050565b60005b838110156106e75781810151838201526020016106cf565b50506000910152565b600082516107028184602087016106cc565b9190910192915050565b602081526000825180602084015261072b8160408501602087016106cc565b601f01601f1916919091016040019291505056fea264697066735822122086f0c7a15cf854d3a1d6a28365ea8ac985509be87a89f5768fa1b5553ec64fcc64736f6c63430008130033a26469706673582212201261d86d701522f342af33ce28f4e09ff6ae3293dad1f41867a3ab917216ef4a64736f6c63430008130033",
  "linkReferences": {},
  "deployedLinkReferences": {}
}