{
  "_format": "hh-sol-artifact-1",
  "contractName": "Proposal",
  "sourceName": "contracts/proposal.sol",
  "abi": [
    {
      "inputs": [
        {
          "internalType": "address",
          "name": "_token",
          "type": "address"
        }
      ],
      "stateMutability": "nonpayable",
      "type": "constructor"
    },
    {
      "anonymous": false,
      "inputs": [
        {
          "indexed": true,
          "internalType": "uint256",
          "name": "proposalId",
          "type": "uint256"
        }
      ],
      "name": "ProposalCreated",
      "type": "event"
    },
    {
      "anonymous": false,
      "inputs": [
        {
          "indexed": true,
          "internalType": "uint256",
          "name": "proposalId",
          "type": "uint256"
        },
        {
          "indexed": false,
          "internalType": "uint256",
          "name": "newVoteCount",
          "type": "uint256"
        }
      ],
      "name": "ProposalUpdated",
      "type": "event"
    },
    {
      "inputs": [],
      "name": "articleIDCounter",
      "outputs": [
        {
          "internalType": "uint256",
          "name": "",
          "type": "uint256"
        }
      ],
      "stateMutability": "view",
      "type": "function"
    },
    {
      "inputs": [
        {
          "internalType": "string",
          "name": "_title",
          "type": "string"
        },
        {
          "internalType": "string",
          "name": "_content",
          "type": "string"
        }
      ],
      "name": "createProposal",
      "outputs": [],
      "stateMutability": "nonpayable",
      "type": "function"
    },
    {
      "inputs": [],
      "name": "libToken",
      "outputs": [
        {
          "internalType": "contract IERC20",
          "name": "",
          "type": "address"
        }
      ],
      "stateMutability": "view",
      "type": "function"
    },
    {
      "inputs": [
        {
          "internalType": "uint256",
          "name": "proposalId",
          "type": "uint256"
        }
      ],
      "name": "readProposal",
      "outputs": [
        {
          "internalType": "string",
          "name": "",
          "type": "string"
        },
        {
          "internalType": "string",
          "name": "",
          "type": "string"
        },
        {
          "internalType": "address",
          "name": "",
          "type": "address"
        },
        {
          "internalType": "bool",
          "name": "",
          "type": "bool"
        },
        {
          "internalType": "uint256",
          "name": "",
          "type": "uint256"
        },
        {
          "internalType": "uint256",
          "name": "",
          "type": "uint256"
        }
      ],
      "stateMutability": "view",
      "type": "function"
    },
    {
      "inputs": [
        {
          "internalType": "uint256",
          "name": "proposalId",
          "type": "uint256"
        },
        {
          "internalType": "enum Proposal.Vote",
          "name": "userVote",
          "type": "uint8"
        }
      ],
      "name": "updateProposal",
      "outputs": [],
      "stateMutability": "nonpayable",
      "type": "function"
    }
  ],
  "bytecode": "0x608060405234801561001057600080fd5b50604051610bdd380380610bdd83398101604081905261002f916100ae565b6001600160a01b0381166100895760405162461bcd60e51b815260206004820152601960248201527f496e76616c6964204c494220546f6b656e206164647265737300000000000000604482015260640160405180910390fd5b600280546001600160a01b0319166001600160a01b03929092169190911790556100de565b6000602082840312156100c057600080fd5b81516001600160a01b03811681146100d757600080fd5b9392505050565b610af0806100ed6000396000f3fe608060405234801561001057600080fd5b50600436106100575760003560e01c806334bfb2401461005c57806365e481e2146100715780636b30825f14610084578063d1eba6c7146100b4578063e6bfb254146100d9575b600080fd5b61006f61006a36600461084e565b6100f0565b005b61006f61007f3660046108cb565b6103c9565b600254610097906001600160a01b031681565b6040516001600160a01b0390911681526020015b60405180910390f35b6100c76100c2366004610937565b6105b6565b6040516100ab9695949392919061099d565b6100e260015481565b6040519081526020016100ab565b600054821061013c5760405162461bcd60e51b8152602060048201526013602482015272125b9d985b1a59081c1c9bdc1bdcd85b081251606a1b60448201526064015b60405180910390fd5b6000828154811061014f5761014f6109f1565b906000526020600020906007020160030160149054906101000a900460ff16156101c55760405162461bcd60e51b815260206004820152602160248201527f43616e6e6f742075706461746520616e2061646f707465642070726f706f73616044820152601b60fa1b6064820152608401610133565b600082815481106101d8576101d86109f1565b90600052602060002090600702016005015442111561022f5760405162461bcd60e51b8152602060048201526013602482015272159bdd1a5b99c81c195c9a5bd908195b991959606a1b6044820152606401610133565b6000808381548110610243576102436109f1565b600091825260208083203384526006600790930201919091019052604090205460ff16600281111561027757610277610a07565b146102c45760405162461bcd60e51b815260206004820152601e60248201527f416c726561647920766f746564206f6e20746869732070726f706f73616c00006044820152606401610133565b80600083815481106102d8576102d86109f1565b60009182526020808320338452600660079093020191909101905260409020805460ff1916600183600281111561031157610311610a07565b0217905550600181600281111561032a5761032a610a07565b14156103675760008281548110610343576103436109f1565b60009182526020822060046007909202010180549161036183610a33565b91905055505b817fd0d48d54a7ebcfcfd76018524c8d822767ac6f81ca7171b01511c2b53b35971a6000848154811061039c5761039c6109f1565b9060005260206000209060070201600401546040516103bd91815260200190565b60405180910390a25050565b6002546040516370a0823160e01b81523360048201526000916001600160a01b0316906370a082319060240160206040518083038186803b15801561040d57600080fd5b505afa158015610421573d6000803e3d6000fd5b505050506040513d601f19601f820116820180604052508101906104459190610a4e565b1161049c5760405162461bcd60e51b815260206004820152602160248201527f596f75206d75737420686f6c6420244c494220746f6b656e7320746f20766f746044820152606560f81b6064820152608401610133565b82158015906104aa57508015155b6104f65760405162461bcd60e51b815260206004820152601860248201527f496e76616c69642070726f706f73616c2064657461696c7300000000000000006044820152606401610133565b600080546001810182559080526007027f290decd9548b62a8d60345a988386fc84ba6bc95484008f6362f93160ef3e56301610530610797565b81556105406001820186866107b5565b5061054f6002820184846107b5565b506003810180546001600160a81b0319163360ff60a01b19161790556000600482015561057f4262093a80610a67565b600582015580546040517fc2c021f5d73c63c481d336fbbafec58f694fc45095f00b02d2deb8cca59afe0790600090a25050505050565b60608060008060008060008054905087106106095760405162461bcd60e51b8152602060048201526013602482015272125b9d985b1a59081c1c9bdc1bdcd85b081251606a1b6044820152606401610133565b600080888154811061061d5761061d6109f1565b9060005260206000209060070201905080600101816002018260030160009054906101000a90046001600160a01b03168360030160149054906101000a900460ff168460040154856005015485805461067590610a7f565b80601f01602080910402602001604051908101604052809291908181526020018280546106a190610a7f565b80156106ee5780601f106106c3576101008083540402835291602001916106ee565b820191906000526020600020905b8154815290600101906020018083116106d157829003601f168201915b5050505050955084805461070190610a7f565b80601f016020809104026020016040519081016040528092919081815260200182805461072d90610a7f565b801561077a5780601f1061074f5761010080835404028352916020019161077a565b820191906000526020600020905b81548152906001019060200180831161075d57829003601f168201915b505050505094509650965096509650965096505091939550919395565b600180546000918190836107aa83610a33565b909155509092915050565b8280546107c190610a7f565b90600052602060002090601f0160209004810192826107e35760008555610829565b82601f106107fc5782800160ff19823516178555610829565b82800160010185558215610829579182015b8281111561082957823582559160200191906001019061080e565b50610835929150610839565b5090565b5b80821115610835576000815560010161083a565b6000806040838503121561086157600080fd5b8235915060208301356003811061087757600080fd5b809150509250929050565b60008083601f84011261089457600080fd5b50813567ffffffffffffffff8111156108ac57600080fd5b6020830191508360208285010111156108c457600080fd5b9250929050565b600080600080604085870312156108e157600080fd5b843567ffffffffffffffff808211156108f957600080fd5b61090588838901610882565b9096509450602087013591508082111561091e57600080fd5b5061092b87828801610882565b95989497509550505050565b60006020828403121561094957600080fd5b5035919050565b6000815180845260005b818110156109765760208185018101518683018201520161095a565b81811115610988576000602083870101525b50601f01601f19169290920160200192915050565b60c0815260006109b060c0830189610950565b82810360208401526109c28189610950565b6001600160a01b0397909716604084015250509215156060840152608083019190915260a09091015292915050565b634e487b7160e01b600052603260045260246000fd5b634e487b7160e01b600052602160045260246000fd5b634e487b7160e01b600052601160045260246000fd5b6000600019821415610a4757610a47610a1d565b5060010190565b600060208284031215610a6057600080fd5b5051919050565b60008219821115610a7a57610a7a610a1d565b500190565b600181811c90821680610a9357607f821691505b60208210811415610ab457634e487b7160e01b600052602260045260246000fd5b5091905056fea26469706673582212200a5d3dfec5f34fcd8ae27674d8e7cdcb681c213be5c4a74242374c167b7c1a4864736f6c63430008090033",
  "linkReferences": {},
  "deployedLinkReferences": {}
}