{
  "_format": "hh-sol-artifact-1",
  "contractName": "Governance",
  "sourceName": "contracts/pGovernance.sol",
  "abi": [
    {
      "inputs": [
        {
          "internalType": "address",
          "name": "_libToken",
          "type": "address"
        }
      ],
      "stateMutability": "nonpayable",
      "type": "constructor"
    },
    {
      "inputs": [
        {
          "internalType": "uint256",
          "name": "_proposalId",
          "type": "uint256"
        }
      ],
      "name": "calculateProgression",
      "outputs": [
        {
          "internalType": "uint256",
          "name": "",
          "type": "uint256"
        },
        {
          "internalType": "uint256",
          "name": "",
          "type": "uint256"
        }
      ],
      "stateMutability": "view",
      "type": "function"
    },
    {
      "inputs": [
        {
          "internalType": "string",
          "name": "_title",
          "type": "string"
        },
        {
          "internalType": "string",
          "name": "_description",
          "type": "string"
        }
      ],
      "name": "createProposal",
      "outputs": [],
      "stateMutability": "nonpayable",
      "type": "function"
    },
    {
      "inputs": [
        {
          "internalType": "uint256",
          "name": "_proposalId",
          "type": "uint256"
        }
      ],
      "name": "getProposal",
      "outputs": [
        {
          "internalType": "uint256",
          "name": "id",
          "type": "uint256"
        },
        {
          "internalType": "string",
          "name": "title",
          "type": "string"
        },
        {
          "internalType": "string",
          "name": "description",
          "type": "string"
        },
        {
          "internalType": "address",
          "name": "creator",
          "type": "address"
        },
        {
          "internalType": "bool",
          "name": "executed",
          "type": "bool"
        },
        {
          "internalType": "bool",
          "name": "accepted",
          "type": "bool"
        },
        {
          "internalType": "uint256",
          "name": "yesVotes",
          "type": "uint256"
        },
        {
          "internalType": "uint256",
          "name": "noVotes",
          "type": "uint256"
        },
        {
          "internalType": "uint256",
          "name": "abstainVotes",
          "type": "uint256"
        },
        {
          "internalType": "uint256",
          "name": "uniqueVotes",
          "type": "uint256"
        },
        {
          "internalType": "uint256",
          "name": "votingEndTime",
          "type": "uint256"
        }
      ],
      "stateMutability": "view",
      "type": "function"
    },
    {
      "inputs": [],
      "name": "libToken",
      "outputs": [
        {
          "internalType": "contract Liblock",
          "name": "",
          "type": "address"
        }
      ],
      "stateMutability": "view",
      "type": "function"
    },
    {
      "inputs": [],
      "name": "proposalCount",
      "outputs": [
        {
          "internalType": "uint256",
          "name": "",
          "type": "uint256"
        }
      ],
      "stateMutability": "view",
      "type": "function"
    },
    {
      "inputs": [
        {
          "internalType": "uint256",
          "name": "",
          "type": "uint256"
        }
      ],
      "name": "proposals",
      "outputs": [
        {
          "internalType": "uint256",
          "name": "id",
          "type": "uint256"
        },
        {
          "internalType": "string",
          "name": "title",
          "type": "string"
        },
        {
          "internalType": "string",
          "name": "description",
          "type": "string"
        },
        {
          "internalType": "address",
          "name": "creator",
          "type": "address"
        },
        {
          "internalType": "bool",
          "name": "executed",
          "type": "bool"
        },
        {
          "internalType": "bool",
          "name": "accepted",
          "type": "bool"
        },
        {
          "internalType": "uint256",
          "name": "yesVotes",
          "type": "uint256"
        },
        {
          "internalType": "uint256",
          "name": "noVotes",
          "type": "uint256"
        },
        {
          "internalType": "uint256",
          "name": "abstainVotes",
          "type": "uint256"
        },
        {
          "internalType": "uint256",
          "name": "uniqueVotes",
          "type": "uint256"
        },
        {
          "internalType": "uint256",
          "name": "votingEndTime",
          "type": "uint256"
        }
      ],
      "stateMutability": "view",
      "type": "function"
    },
    {
      "inputs": [
        {
          "internalType": "uint256",
          "name": "_proposalId",
          "type": "uint256"
        },
        {
          "internalType": "string",
          "name": "_vote",
          "type": "string"
        }
      ],
      "name": "vote",
      "outputs": [],
      "stateMutability": "nonpayable",
      "type": "function"
    },
    {
      "inputs": [
        {
          "internalType": "address",
          "name": "",
          "type": "address"
        },
        {
          "internalType": "uint256",
          "name": "",
          "type": "uint256"
        }
      ],
      "name": "voted",
      "outputs": [
        {
          "internalType": "bool",
          "name": "",
          "type": "bool"
        }
      ],
      "stateMutability": "view",
      "type": "function"
    }
  ],
  "bytecode": "0x608060405234801561001057600080fd5b5060405161136d38038061136d83398101604081905261002f916100b3565b6001600160a01b0381166100895760405162461bcd60e51b815260206004820152601960248201527f496e76616c6964204c494220546f6b656e206164647265737300000000000000604482015260640160405180910390fd5b600080546001600160a01b0319166001600160a01b039290921691909117905560056001556100e3565b6000602082840312156100c557600080fd5b81516001600160a01b03811681146100dc57600080fd5b9392505050565b61127b806100f26000396000f3fe608060405234801561001057600080fd5b50600436106100885760003560e01c80636b30825f1161005b5780636b30825f14610110578063c591aa981461013b578063c7f758a814610179578063da35c6641461018c57600080fd5b8063013cf08b1461008d5780630a2ea6e4146100c057806324108475146100e857806365e481e2146100fd575b600080fd5b6100a061009b366004610e8a565b6101a3565b6040516100b79b9a99989796959493929190610efb565b60405180910390f35b6100d36100ce366004610e8a565b610318565b604080519283526020830191909152016100b7565b6100fb6100f6366004610f8c565b61038e565b005b6100fb61010b366004611090565b610826565b600054610123906001600160a01b031681565b6040516001600160a01b0390911681526020016100b7565b6101696101493660046110fc565b600460209081526000928352604080842090915290825290205460ff1681565b60405190151581526020016100b7565b6100a0610187366004610e8a565b610b04565b61019560035481565b6040519081526020016100b7565b600260205260009081526040902080546001820180549192916101c590611134565b80601f01602080910402602001604051908101604052809291908181526020018280546101f190611134565b801561023e5780601f106102135761010080835404028352916020019161023e565b820191906000526020600020905b81548152906001019060200180831161022157829003601f168201915b50505050509080600201805461025390611134565b80601f016020809104026020016040519081016040528092919081815260200182805461027f90611134565b80156102cc5780601f106102a1576101008083540402835291602001916102cc565b820191906000526020600020905b8154815290600101906020018083116102af57829003601f168201915b505050506003830154600484015460058501546006860154600787015460089097015495966001600160a01b0385169660ff600160a01b870481169750600160a81b909604909516948b565b6000818152600260205260408120600681015460058201546004830154849392849290916103469190611185565b6103509190611185565b905080610364575060009485945092505050565b60008183600401546064610378919061119d565b61038291906111bc565b96919550909350505050565b600080546040516370a0823160e01b81523360048201526001600160a01b03909116906370a082319060240160206040518083038186803b1580156103d257600080fd5b505afa1580156103e6573d6000803e3d6000fd5b505050506040513d601f19601f8201168201806040525081019061040a91906111de565b116104665760405162461bcd60e51b815260206004820152602160248201527f596f75206d75737420686f6c6420244c494220746f6b656e7320746f20766f746044820152606560f81b60648201526084015b60405180910390fd5b600080546040516309ab24eb60e41b81523360048201526001600160a01b0390911690639ab24eb09060240160206040518083038186803b1580156104aa57600080fd5b505afa1580156104be573d6000803e3d6000fd5b505050506040513d601f19601f820116820180604052508101906104e291906111de565b1161052f5760405162461bcd60e51b815260206004820152601d60248201527f496e73756666696369656e742064656c65676174656420746f6b656e73000000604482015260640161045d565b33600090815260046020908152604080832085845290915290205460ff161561059a5760405162461bcd60e51b815260206004820152601f60248201527f416c726561647920766f74656420666f7220746869732070726f706f73616c00604482015260640161045d565b6000828152600260205260409020600881015442106105bc576105bc83610cbc565b600080546040516309ab24eb60e41b81523360048201526001600160a01b0390911690639ab24eb09060240160206040518083038186803b15801561060057600080fd5b505afa158015610614573d6000803e3d6000fd5b505050506040513d601f19601f8201168201806040525081019061063891906111de565b6003830154909150600160a01b900460ff16156106975760405162461bcd60e51b815260206004820152601960248201527f50726f706f73616c20616c726561647920657865637574656400000000000000604482015260640161045d565b3360009081526004602090815260408083208784529091528120805460ff19166001179055600783018054916106cc836111f7565b90915550506040516279657360e81b6020820152602301604051602081830303815290604052805190602001208360405160200161070a9190611212565b604051602081830303815290604052805190602001201415610745578082600401600082825461073a9190611185565b909155506108209050565b604051616e6f60f01b6020820152602201604051602081830303815290604052805190602001208360405160200161077d9190611212565b6040516020818303038152906040528051906020012014156107ad578082600501600082825461073a9190611185565b6040516630b139ba30b4b760c91b602082015260270160405160208183030381529060405280519060200120836040516020016107ea9190611212565b604051602081830303815290604052805190602001201415610820578082600601600082825461081a9190611185565b90915550505b50505050565b6000546040516309ab24eb60e41b81523360048201526064916001600160a01b031690639ab24eb09060240160206040518083038186803b15801561086a57600080fd5b505afa15801561087e573d6000803e3d6000fd5b505050506040513d601f19601f820116820180604052508101906108a291906111de565b116108ef5760405162461bcd60e51b815260206004820152601d60248201527f496e73756666696369656e742064656c65676174656420746f6b656e73000000604482015260640161045d565b82158015906108fd57508015155b6109495760405162461bcd60e51b815260206004820152601860248201527f496e76616c69642070726f706f73616c2064657461696c730000000000000000604482015260640161045d565b60038054906000610959836111f7565b9190505550604051806101600160405280600354815260200185858080601f016020809104026020016040519081016040528093929190818152602001838380828437600092019190915250505090825250604080516020601f860181900481028201810190925284815291810191908590859081908401838280828437600092018290525093855250503360208401525060408201819052606082018190526080820181905260a0820181905260c0820181905260e082015261010001610a244262093a80611185565b90526003546000908152600260209081526040909120825181558282015180519192610a5892600185019290910190610df1565b5060408201518051610a74916002840191602090910190610df1565b506060820151600382018054608085015160a08601511515600160a81b0260ff60a81b19911515600160a01b026001600160a81b03199093166001600160a01b0390951694909417919091171691909117905560c0820151600482015560e08201516005820155610100820151600682015561012082015160078201556101409091015160089091015550505050565b60008181526002602081905260408220805460038201546004830154600584015460068501546007860154600887015460018801805460609a8b9a8d9a8b9a8b9a8b9a8b9a8b9a8b9a8b9a979996988a01966001600160a01b0387169660ff600160a01b8204811697600160a81b909204169590949093909290918a90610b8a90611134565b80601f0160208091040260200160405190810160405280929190818152602001828054610bb690611134565b8015610c035780601f10610bd857610100808354040283529160200191610c03565b820191906000526020600020905b815481529060010190602001808311610be657829003601f168201915b50505050509950888054610c1690611134565b80601f0160208091040260200160405190810160405280929190818152602001828054610c4290611134565b8015610c8f5780601f10610c6457610100808354040283529160200191610c8f565b820191906000526020600020905b815481529060010190602001808311610c7257829003601f168201915b505050505098509b509b509b509b509b509b509b509b509b509b509b505091939597999b90929496989a50565b6000818152600260205260408120600681015460058201546004830154929392610ce69190611185565b610cf09190611185565b9050606460008054906101000a90046001600160a01b03166001600160a01b03166318160ddd6040518163ffffffff1660e01b815260040160206040518083038186803b158015610d4057600080fd5b505afa158015610d54573d6000803e3d6000fd5b505050506040513d601f19601f82011682018060405250810190610d7891906111de565b600154610d85919061119d565b610d8f91906111bc565b8110610dd6576002826006015482610da7919061122e565b610db191906111bc565b82600401541115610dd65750600301805461ffff60a01b191661010160a01b17905550565b60038201805461ffff60a01b1916600160a01b179055505050565b828054610dfd90611134565b90600052602060002090601f016020900481019282610e1f5760008555610e65565b82601f10610e3857805160ff1916838001178555610e65565b82800160010185558215610e65579182015b82811115610e65578251825591602001919060010190610e4a565b50610e71929150610e75565b5090565b5b80821115610e715760008155600101610e76565b600060208284031215610e9c57600080fd5b5035919050565b60005b83811015610ebe578181015183820152602001610ea6565b838111156108205750506000910152565b60008151808452610ee7816020860160208601610ea3565b601f01601f19169290920160200192915050565b60006101608d8352806020840152610f158184018e610ecf565b90508281036040840152610f29818d610ecf565b6001600160a01b039b909b1660608401525050961515608088015294151560a087015260c086019390935260e0850191909152610100840152610120830152610140909101529392505050565b634e487b7160e01b600052604160045260246000fd5b60008060408385031215610f9f57600080fd5b82359150602083013567ffffffffffffffff80821115610fbe57600080fd5b818501915085601f830112610fd257600080fd5b813581811115610fe457610fe4610f76565b604051601f8201601f19908116603f0116810190838211818310171561100c5761100c610f76565b8160405282815288602084870101111561102557600080fd5b8260208601602083013760006020848301015280955050505050509250929050565b60008083601f84011261105957600080fd5b50813567ffffffffffffffff81111561107157600080fd5b60208301915083602082850101111561108957600080fd5b9250929050565b600080600080604085870312156110a657600080fd5b843567ffffffffffffffff808211156110be57600080fd5b6110ca88838901611047565b909650945060208701359150808211156110e357600080fd5b506110f087828801611047565b95989497509550505050565b6000806040838503121561110f57600080fd5b82356001600160a01b038116811461112657600080fd5b946020939093013593505050565b600181811c9082168061114857607f821691505b6020821081141561116957634e487b7160e01b600052602260045260246000fd5b50919050565b634e487b7160e01b600052601160045260246000fd5b600082198211156111985761119861116f565b500190565b60008160001904831182151516156111b7576111b761116f565b500290565b6000826111d957634e487b7160e01b600052601260045260246000fd5b500490565b6000602082840312156111f057600080fd5b5051919050565b600060001982141561120b5761120b61116f565b5060010190565b60008251611224818460208701610ea3565b9190910192915050565b6000828210156112405761124061116f565b50039056fea264697066735822122024b14679cc8b81115f99c9aad3467e05150519a80a130d94ac2128098c1e8a7d64736f6c63430008090033",
  "linkReferences": {},
  "deployedLinkReferences": {}
}