{
  "_format": "hh-sol-artifact-1",
  "contractName": "Governance",
  "sourceName": "contracts/pGovernance.sol",
  "abi": [
    {
      "inputs": [
        {
          "internalType": "address",
          "name": "_libToken",
          "type": "address"
        }
      ],
      "stateMutability": "nonpayable",
      "type": "constructor"
    },
    {
      "inputs": [
        {
          "internalType": "uint256",
          "name": "_proposalId",
          "type": "uint256"
        }
      ],
      "name": "calculateProgression",
      "outputs": [
        {
          "internalType": "uint256",
          "name": "",
          "type": "uint256"
        },
        {
          "internalType": "uint256",
          "name": "",
          "type": "uint256"
        }
      ],
      "stateMutability": "view",
      "type": "function"
    },
    {
      "inputs": [
        {
          "internalType": "string",
          "name": "_title",
          "type": "string"
        },
        {
          "internalType": "string",
          "name": "_description",
          "type": "string"
        }
      ],
      "name": "createProposal",
      "outputs": [],
      "stateMutability": "nonpayable",
      "type": "function"
    },
    {
      "inputs": [
        {
          "internalType": "uint256",
          "name": "_proposalId",
          "type": "uint256"
        }
      ],
      "name": "getProposal",
      "outputs": [
        {
          "internalType": "uint256",
          "name": "id",
          "type": "uint256"
        },
        {
          "internalType": "string",
          "name": "title",
          "type": "string"
        },
        {
          "internalType": "string",
          "name": "description",
          "type": "string"
        },
        {
          "internalType": "address",
          "name": "creator",
          "type": "address"
        },
        {
          "internalType": "bool",
          "name": "executed",
          "type": "bool"
        },
        {
          "internalType": "bool",
          "name": "accepted",
          "type": "bool"
        },
        {
          "internalType": "uint256",
          "name": "yesVotes",
          "type": "uint256"
        },
        {
          "internalType": "uint256",
          "name": "noVotes",
          "type": "uint256"
        },
        {
          "internalType": "uint256",
          "name": "abstainVotes",
          "type": "uint256"
        },
        {
          "internalType": "uint256",
          "name": "votingEndTime",
          "type": "uint256"
        }
      ],
      "stateMutability": "view",
      "type": "function"
    },
    {
      "inputs": [],
      "name": "libToken",
      "outputs": [
        {
          "internalType": "contract Liblock",
          "name": "",
          "type": "address"
        }
      ],
      "stateMutability": "view",
      "type": "function"
    },
    {
      "inputs": [],
      "name": "proposalCount",
      "outputs": [
        {
          "internalType": "uint256",
          "name": "",
          "type": "uint256"
        }
      ],
      "stateMutability": "view",
      "type": "function"
    },
    {
      "inputs": [
        {
          "internalType": "uint256",
          "name": "",
          "type": "uint256"
        }
      ],
      "name": "proposals",
      "outputs": [
        {
          "internalType": "uint256",
          "name": "id",
          "type": "uint256"
        },
        {
          "internalType": "string",
          "name": "title",
          "type": "string"
        },
        {
          "internalType": "string",
          "name": "description",
          "type": "string"
        },
        {
          "internalType": "address",
          "name": "creator",
          "type": "address"
        },
        {
          "internalType": "bool",
          "name": "executed",
          "type": "bool"
        },
        {
          "internalType": "bool",
          "name": "accepted",
          "type": "bool"
        },
        {
          "internalType": "uint256",
          "name": "yesVotes",
          "type": "uint256"
        },
        {
          "internalType": "uint256",
          "name": "noVotes",
          "type": "uint256"
        },
        {
          "internalType": "uint256",
          "name": "abstainVotes",
          "type": "uint256"
        },
        {
          "internalType": "uint256",
          "name": "votingEndTime",
          "type": "uint256"
        }
      ],
      "stateMutability": "view",
      "type": "function"
    },
    {
      "inputs": [
        {
          "internalType": "uint256",
          "name": "_proposalId",
          "type": "uint256"
        },
        {
          "internalType": "string",
          "name": "_vote",
          "type": "string"
        },
        {
          "internalType": "bytes",
          "name": "signature",
          "type": "bytes"
        }
      ],
      "name": "vote",
      "outputs": [],
      "stateMutability": "nonpayable",
      "type": "function"
    },
    {
      "inputs": [
        {
          "internalType": "address",
          "name": "",
          "type": "address"
        },
        {
          "internalType": "uint256",
          "name": "",
          "type": "uint256"
        }
      ],
      "name": "voted",
      "outputs": [
        {
          "internalType": "bool",
          "name": "",
          "type": "bool"
        }
      ],
      "stateMutability": "view",
      "type": "function"
    }
  ],
  "bytecode": "0x608060405234801561001057600080fd5b5060405161168d38038061168d83398101604081905261002f916100b3565b6001600160a01b0381166100895760405162461bcd60e51b815260206004820152601960248201527f496e76616c6964204c494220546f6b656e206164647265737300000000000000604482015260640160405180910390fd5b600080546001600160a01b0319166001600160a01b039290921691909117905560056001556100e3565b6000602082840312156100c557600080fd5b81516001600160a01b03811681146100dc57600080fd5b9392505050565b61159b806100f26000396000f3fe608060405234801561001057600080fd5b50600436106100885760003560e01c80638d84d3e21161005b5780638d84d3e214610127578063c591aa981461013a578063c7f758a814610178578063da35c6641461018b57600080fd5b8063013cf08b1461008d5780630a2ea6e4146100bf57806365e481e2146100e75780636b30825f146100fc575b600080fd5b6100a061009b36600461110e565b6101a2565b6040516100b69a99989796959493929190611183565b60405180910390f35b6100d26100cd36600461110e565b610312565b604080519283526020830191909152016100b6565b6100fa6100f5366004611237565b610388565b005b60005461010f906001600160a01b031681565b6040516001600160a01b0390911681526020016100b6565b6100fa61013536600461132f565b610658565b6101686101483660046113c7565b600460209081526000928352604080842090915290825290205460ff1681565b60405190151581526020016100b6565b6100a061018636600461110e565b610b16565b61019460035481565b6040519081526020016100b6565b600260205260009081526040902080546001820180549192916101c4906113ff565b80601f01602080910402602001604051908101604052809291908181526020018280546101f0906113ff565b801561023d5780601f106102125761010080835404028352916020019161023d565b820191906000526020600020905b81548152906001019060200180831161022057829003601f168201915b505050505090806002018054610252906113ff565b80601f016020809104026020016040519081016040528092919081815260200182805461027e906113ff565b80156102cb5780601f106102a0576101008083540402835291602001916102cb565b820191906000526020600020905b8154815290600101906020018083116102ae57829003601f168201915b50505050600383015460048401546005850154600686015460079096015494956001600160a01b0384169560ff600160a01b860481169650600160a81b909504909416938a565b6000818152600260205260408120600681015460058201546004830154849392849290916103409190611450565b61034a9190611450565b90508061035e575060009485945092505050565b600081836004015460646103729190611468565b61037c9190611487565b96919550909350505050565b6000546040516309ab24eb60e41b81523360048201526064916001600160a01b031690639ab24eb09060240160206040518083038186803b1580156103cc57600080fd5b505afa1580156103e0573d6000803e3d6000fd5b505050506040513d601f19601f8201168201806040525081019061040491906114a9565b116104565760405162461bcd60e51b815260206004820152601d60248201527f496e73756666696369656e742064656c65676174656420746f6b656e7300000060448201526064015b60405180910390fd5b821580159061046457508015155b6104b05760405162461bcd60e51b815260206004820152601860248201527f496e76616c69642070726f706f73616c2064657461696c730000000000000000604482015260640161044d565b600380549060006104c0836114c2565b9190505550604051806101400160405280600354815260200185858080601f016020809104026020016040519081016040528093929190818152602001838380828437600092019190915250505090825250604080516020601f860181900481028201810190925284815291810191908590859081908401838280828437600092018290525093855250503360208401525060408201819052606082018190526080820181905260a0820181905260c082015260e0016105834262093a80611450565b905260035460009081526002602090815260409091208251815582820151805191926105b792600185019290910190611075565b50604082015180516105d3916002840191602090910190611075565b506060820151600382018054608085015160a08601511515600160a81b0260ff60a81b19911515600160a01b026001600160a81b03199093166001600160a01b0390951694909417919091171691909117905560c0820151600482015560e0820151600582015561010082015160068201556101209091015160079091015550505050565b600080546040516370a0823160e01b81523360048201526001600160a01b03909116906370a082319060240160206040518083038186803b15801561069c57600080fd5b505afa1580156106b0573d6000803e3d6000fd5b505050506040513d601f19601f820116820180604052508101906106d491906114a9565b1161072b5760405162461bcd60e51b815260206004820152602160248201527f596f75206d75737420686f6c6420244c494220746f6b656e7320746f20766f746044820152606560f81b606482015260840161044d565b600080546040516309ab24eb60e41b81523360048201526001600160a01b0390911690639ab24eb09060240160206040518083038186803b15801561076f57600080fd5b505afa158015610783573d6000803e3d6000fd5b505050506040513d601f19601f820116820180604052508101906107a791906114a9565b116107f45760405162461bcd60e51b815260206004820152601d60248201527f496e73756666696369656e742064656c65676174656420746f6b656e73000000604482015260640161044d565b33600090815260046020908152604080832086845290915290205460ff161561085f5760405162461bcd60e51b815260206004820152601f60248201527f416c726561647920766f74656420666f7220746869732070726f706f73616c00604482015260640161044d565b6000838152600260205260409020600781015442106108815761088184610cc1565b6003810154600160a01b900460ff16156108dd5760405162461bcd60e51b815260206004820152601960248201527f50726f706f73616c20616c726561647920657865637574656400000000000000604482015260640161044d565b60003385856040516020016108f4939291906114dd565b604051602081830303815290604052805190602001209050336001600160a01b031661095784610951847f19457468657265756d205369676e6564204d6573736167653a0a3332000000006000908152601c91909152603c902090565b90610df6565b6001600160a01b0316146109a15760405162461bcd60e51b8152602060048201526011602482015270496e76616c6964207369676e617475726560781b604482015260640161044d565b6040516279657360e81b602082015260230160405160208183030381529060405280519060200120846040516020016109da919061151c565b604051602081830303815290604052805190602001201415610a1257600482018054906000610a08836114c2565b9190505550610ae9565b604051616e6f60f01b60208201526022016040516020818303038152906040528051906020012084604051602001610a4a919061151c565b604051602081830303815290604052805190602001201415610a7857600582018054906000610a08836114c2565b6040516630b139ba30b4b760c91b60208201526027016040516020818303038152906040528051906020012084604051602001610ab5919061151c565b604051602081830303815290604052805190602001201415610ae957600682018054906000610ae3836114c2565b91905055505b505033600090815260046020908152604080832095835294905292909220805460ff191660011790555050565b600081815260026020819052604082208054600382015460048301546005840154600685015460078601546001870180546060998a998c998a998a998a998a998a998a99969895978901956001600160a01b0386169560ff600160a01b8204811696600160a81b90920416949093909290918990610b93906113ff565b80601f0160208091040260200160405190810160405280929190818152602001828054610bbf906113ff565b8015610c0c5780601f10610be157610100808354040283529160200191610c0c565b820191906000526020600020905b815481529060010190602001808311610bef57829003601f168201915b50505050509850878054610c1f906113ff565b80601f0160208091040260200160405190810160405280929190818152602001828054610c4b906113ff565b8015610c985780601f10610c6d57610100808354040283529160200191610c98565b820191906000526020600020905b815481529060010190602001808311610c7b57829003601f168201915b505050505097509a509a509a509a509a509a509a509a509a509a50509193959799509193959799565b6000818152600260205260408120600681015460058201546004830154929392610ceb9190611450565b610cf59190611450565b9050606460008054906101000a90046001600160a01b03166001600160a01b03166318160ddd6040518163ffffffff1660e01b815260040160206040518083038186803b158015610d4557600080fd5b505afa158015610d59573d6000803e3d6000fd5b505050506040513d601f19601f82011682018060405250810190610d7d91906114a9565b600154610d8a9190611468565b610d949190611487565b8110610ddb576002826006015482610dac9190611538565b610db69190611487565b82600401541115610ddb5750600301805461ffff60a01b191661010160a01b17905550565b60038201805461ffff60a01b1916600160a01b179055505050565b6000806000610e058585610e1a565b91509150610e1281610e60565b509392505050565b600080825160411415610e515760208301516040840151606085015160001a610e4587828585610fb1565b94509450505050610e59565b506000905060025b9250929050565b6000816004811115610e7457610e7461154f565b1415610e7d5750565b6001816004811115610e9157610e9161154f565b1415610edf5760405162461bcd60e51b815260206004820152601860248201527f45434453413a20696e76616c6964207369676e61747572650000000000000000604482015260640161044d565b6002816004811115610ef357610ef361154f565b1415610f415760405162461bcd60e51b815260206004820152601f60248201527f45434453413a20696e76616c6964207369676e6174757265206c656e67746800604482015260640161044d565b6003816004811115610f5557610f5561154f565b1415610fae5760405162461bcd60e51b815260206004820152602260248201527f45434453413a20696e76616c6964207369676e6174757265202773272076616c604482015261756560f01b606482015260840161044d565b50565b6000807f7fffffffffffffffffffffffffffffff5d576e7357a4501ddfe92f46681b20a0831115610fe8575060009050600361106c565b6040805160008082526020820180845289905260ff881692820192909252606081018690526080810185905260019060a0016020604051602081039080840390855afa15801561103c573d6000803e3d6000fd5b5050604051601f1901519150506001600160a01b0381166110655760006001925092505061106c565b9150600090505b94509492505050565b828054611081906113ff565b90600052602060002090601f0160209004810192826110a357600085556110e9565b82601f106110bc57805160ff19168380011785556110e9565b828001600101855582156110e9579182015b828111156110e95782518255916020019190600101906110ce565b506110f59291506110f9565b5090565b5b808211156110f557600081556001016110fa565b60006020828403121561112057600080fd5b5035919050565b60005b8381101561114257818101518382015260200161112a565b83811115611151576000848401525b50505050565b6000815180845261116f816020860160208601611127565b601f01601f19169290920160200192915050565b60006101408c835280602084015261119d8184018d611157565b905082810360408401526111b1818c611157565b6001600160a01b039a909a1660608401525050951515608087015293151560a086015260c085019290925260e0840152610100830152610120909101529392505050565b60008083601f84011261120757600080fd5b50813567ffffffffffffffff81111561121f57600080fd5b602083019150836020828501011115610e5957600080fd5b6000806000806040858703121561124d57600080fd5b843567ffffffffffffffff8082111561126557600080fd5b611271888389016111f5565b9096509450602087013591508082111561128a57600080fd5b50611297878288016111f5565b95989497509550505050565b634e487b7160e01b600052604160045260246000fd5b600067ffffffffffffffff808411156112d4576112d46112a3565b604051601f8501601f19908116603f011681019082821181831017156112fc576112fc6112a3565b8160405280935085815286868601111561131557600080fd5b858560208301376000602087830101525050509392505050565b60008060006060848603121561134457600080fd5b83359250602084013567ffffffffffffffff8082111561136357600080fd5b818601915086601f83011261137757600080fd5b611386878335602085016112b9565b9350604086013591508082111561139c57600080fd5b508401601f810186136113ae57600080fd5b6113bd868235602084016112b9565b9150509250925092565b600080604083850312156113da57600080fd5b82356001600160a01b03811681146113f157600080fd5b946020939093013593505050565b600181811c9082168061141357607f821691505b6020821081141561143457634e487b7160e01b600052602260045260246000fd5b50919050565b634e487b7160e01b600052601160045260246000fd5b600082198211156114635761146361143a565b500190565b60008160001904831182151516156114825761148261143a565b500290565b6000826114a457634e487b7160e01b600052601260045260246000fd5b500490565b6000602082840312156114bb57600080fd5b5051919050565b60006000198214156114d6576114d661143a565b5060010190565b6bffffffffffffffffffffffff198460601b1681528260148201526000825161150d816034850160208701611127565b91909101603401949350505050565b6000825161152e818460208701611127565b9190910192915050565b60008282101561154a5761154a61143a565b500390565b634e487b7160e01b600052602160045260246000fdfea2646970667358221220c614e84bf0f9a70f2574f08414a1645070d4f347889dc4e3080dab93d5b3817c64736f6c63430008090033",
  "linkReferences": {},
  "deployedLinkReferences": {}
}