{
  "_format": "hh-sol-artifact-1",
  "contractName": "rLiblock",
  "sourceName": "contracts/rLIB.sol",
  "abi": [
    {
      "inputs": [],
      "stateMutability": "nonpayable",
      "type": "constructor"
    },
    {
      "inputs": [],
      "name": "InvalidShortString",
      "type": "error"
    },
    {
      "inputs": [
        {
          "internalType": "string",
          "name": "str",
          "type": "string"
        }
      ],
      "name": "StringTooLong",
      "type": "error"
    },
    {
      "anonymous": false,
      "inputs": [
        {
          "indexed": true,
          "internalType": "address",
          "name": "owner",
          "type": "address"
        },
        {
          "indexed": true,
          "internalType": "address",
          "name": "spender",
          "type": "address"
        },
        {
          "indexed": false,
          "internalType": "uint256",
          "name": "value",
          "type": "uint256"
        }
      ],
      "name": "Approval",
      "type": "event"
    },
    {
      "anonymous": false,
      "inputs": [
        {
          "indexed": true,
          "internalType": "address",
          "name": "delegator",
          "type": "address"
        },
        {
          "indexed": true,
          "internalType": "address",
          "name": "fromDelegate",
          "type": "address"
        },
        {
          "indexed": true,
          "internalType": "address",
          "name": "toDelegate",
          "type": "address"
        }
      ],
      "name": "DelegateChanged",
      "type": "event"
    },
    {
      "anonymous": false,
      "inputs": [
        {
          "indexed": true,
          "internalType": "address",
          "name": "delegate",
          "type": "address"
        },
        {
          "indexed": false,
          "internalType": "uint256",
          "name": "previousBalance",
          "type": "uint256"
        },
        {
          "indexed": false,
          "internalType": "uint256",
          "name": "newBalance",
          "type": "uint256"
        }
      ],
      "name": "DelegateVotesChanged",
      "type": "event"
    },
    {
      "anonymous": false,
      "inputs": [],
      "name": "EIP712DomainChanged",
      "type": "event"
    },
    {
      "anonymous": false,
      "inputs": [
        {
          "indexed": true,
          "internalType": "address",
          "name": "from",
          "type": "address"
        },
        {
          "indexed": true,
          "internalType": "uint256",
          "name": "amount",
          "type": "uint256"
        }
      ],
      "name": "TokensBurned",
      "type": "event"
    },
    {
      "anonymous": false,
      "inputs": [
        {
          "indexed": true,
          "internalType": "address",
          "name": "to",
          "type": "address"
        },
        {
          "indexed": true,
          "internalType": "uint256",
          "name": "amount",
          "type": "uint256"
        }
      ],
      "name": "TokensMinted",
      "type": "event"
    },
    {
      "anonymous": false,
      "inputs": [
        {
          "indexed": true,
          "internalType": "address",
          "name": "from",
          "type": "address"
        },
        {
          "indexed": true,
          "internalType": "address",
          "name": "to",
          "type": "address"
        },
        {
          "indexed": false,
          "internalType": "uint256",
          "name": "value",
          "type": "uint256"
        }
      ],
      "name": "Transfer",
      "type": "event"
    },
    {
      "inputs": [],
      "name": "CLOCK_MODE",
      "outputs": [
        {
          "internalType": "string",
          "name": "",
          "type": "string"
        }
      ],
      "stateMutability": "view",
      "type": "function"
    },
    {
      "inputs": [],
      "name": "DOMAIN_SEPARATOR",
      "outputs": [
        {
          "internalType": "bytes32",
          "name": "",
          "type": "bytes32"
        }
      ],
      "stateMutability": "view",
      "type": "function"
    },
    {
      "inputs": [
        {
          "internalType": "address",
          "name": "owner",
          "type": "address"
        },
        {
          "internalType": "address",
          "name": "spender",
          "type": "address"
        }
      ],
      "name": "allowance",
      "outputs": [
        {
          "internalType": "uint256",
          "name": "",
          "type": "uint256"
        }
      ],
      "stateMutability": "view",
      "type": "function"
    },
    {
      "inputs": [
        {
          "internalType": "address",
          "name": "spender",
          "type": "address"
        },
        {
          "internalType": "uint256",
          "name": "amount",
          "type": "uint256"
        }
      ],
      "name": "approve",
      "outputs": [
        {
          "internalType": "bool",
          "name": "",
          "type": "bool"
        }
      ],
      "stateMutability": "nonpayable",
      "type": "function"
    },
    {
      "inputs": [
        {
          "internalType": "address",
          "name": "account",
          "type": "address"
        }
      ],
      "name": "balanceOf",
      "outputs": [
        {
          "internalType": "uint256",
          "name": "",
          "type": "uint256"
        }
      ],
      "stateMutability": "view",
      "type": "function"
    },
    {
      "inputs": [
        {
          "internalType": "uint256",
          "name": "amount",
          "type": "uint256"
        }
      ],
      "name": "burn",
      "outputs": [],
      "stateMutability": "nonpayable",
      "type": "function"
    },
    {
      "inputs": [
        {
          "internalType": "address",
          "name": "account",
          "type": "address"
        },
        {
          "internalType": "uint256",
          "name": "amount",
          "type": "uint256"
        }
      ],
      "name": "burn",
      "outputs": [],
      "stateMutability": "nonpayable",
      "type": "function"
    },
    {
      "inputs": [
        {
          "internalType": "address",
          "name": "account",
          "type": "address"
        },
        {
          "internalType": "uint256",
          "name": "amount",
          "type": "uint256"
        }
      ],
      "name": "burnFrom",
      "outputs": [],
      "stateMutability": "nonpayable",
      "type": "function"
    },
    {
      "inputs": [
        {
          "internalType": "address",
          "name": "account",
          "type": "address"
        },
        {
          "internalType": "uint32",
          "name": "pos",
          "type": "uint32"
        }
      ],
      "name": "checkpoints",
      "outputs": [
        {
          "components": [
            {
              "internalType": "uint32",
              "name": "fromBlock",
              "type": "uint32"
            },
            {
              "internalType": "uint224",
              "name": "votes",
              "type": "uint224"
            }
          ],
          "internalType": "struct ERC20Votes.Checkpoint",
          "name": "",
          "type": "tuple"
        }
      ],
      "stateMutability": "view",
      "type": "function"
    },
    {
      "inputs": [],
      "name": "clock",
      "outputs": [
        {
          "internalType": "uint48",
          "name": "",
          "type": "uint48"
        }
      ],
      "stateMutability": "view",
      "type": "function"
    },
    {
      "inputs": [],
      "name": "decimals",
      "outputs": [
        {
          "internalType": "uint8",
          "name": "",
          "type": "uint8"
        }
      ],
      "stateMutability": "view",
      "type": "function"
    },
    {
      "inputs": [
        {
          "internalType": "address",
          "name": "spender",
          "type": "address"
        },
        {
          "internalType": "uint256",
          "name": "subtractedValue",
          "type": "uint256"
        }
      ],
      "name": "decreaseAllowance",
      "outputs": [
        {
          "internalType": "bool",
          "name": "",
          "type": "bool"
        }
      ],
      "stateMutability": "nonpayable",
      "type": "function"
    },
    {
      "inputs": [
        {
          "internalType": "address",
          "name": "delegatee",
          "type": "address"
        }
      ],
      "name": "delegate",
      "outputs": [],
      "stateMutability": "nonpayable",
      "type": "function"
    },
    {
      "inputs": [
        {
          "internalType": "address",
          "name": "delegatee",
          "type": "address"
        },
        {
          "internalType": "uint256",
          "name": "nonce",
          "type": "uint256"
        },
        {
          "internalType": "uint256",
          "name": "expiry",
          "type": "uint256"
        },
        {
          "internalType": "uint8",
          "name": "v",
          "type": "uint8"
        },
        {
          "internalType": "bytes32",
          "name": "r",
          "type": "bytes32"
        },
        {
          "internalType": "bytes32",
          "name": "s",
          "type": "bytes32"
        }
      ],
      "name": "delegateBySig",
      "outputs": [],
      "stateMutability": "nonpayable",
      "type": "function"
    },
    {
      "inputs": [
        {
          "internalType": "address",
          "name": "delegator",
          "type": "address"
        },
        {
          "internalType": "address",
          "name": "delegatee",
          "type": "address"
        }
      ],
      "name": "delegateFrom",
      "outputs": [],
      "stateMutability": "nonpayable",
      "type": "function"
    },
    {
      "inputs": [
        {
          "internalType": "address",
          "name": "account",
          "type": "address"
        }
      ],
      "name": "delegates",
      "outputs": [
        {
          "internalType": "address",
          "name": "",
          "type": "address"
        }
      ],
      "stateMutability": "view",
      "type": "function"
    },
    {
      "inputs": [],
      "name": "eip712Domain",
      "outputs": [
        {
          "internalType": "bytes1",
          "name": "fields",
          "type": "bytes1"
        },
        {
          "internalType": "string",
          "name": "name",
          "type": "string"
        },
        {
          "internalType": "string",
          "name": "version",
          "type": "string"
        },
        {
          "internalType": "uint256",
          "name": "chainId",
          "type": "uint256"
        },
        {
          "internalType": "address",
          "name": "verifyingContract",
          "type": "address"
        },
        {
          "internalType": "bytes32",
          "name": "salt",
          "type": "bytes32"
        },
        {
          "internalType": "uint256[]",
          "name": "extensions",
          "type": "uint256[]"
        }
      ],
      "stateMutability": "view",
      "type": "function"
    },
    {
      "inputs": [
        {
          "internalType": "uint256",
          "name": "timepoint",
          "type": "uint256"
        }
      ],
      "name": "getPastTotalSupply",
      "outputs": [
        {
          "internalType": "uint256",
          "name": "",
          "type": "uint256"
        }
      ],
      "stateMutability": "view",
      "type": "function"
    },
    {
      "inputs": [
        {
          "internalType": "address",
          "name": "account",
          "type": "address"
        },
        {
          "internalType": "uint256",
          "name": "timepoint",
          "type": "uint256"
        }
      ],
      "name": "getPastVotes",
      "outputs": [
        {
          "internalType": "uint256",
          "name": "",
          "type": "uint256"
        }
      ],
      "stateMutability": "view",
      "type": "function"
    },
    {
      "inputs": [
        {
          "internalType": "address",
          "name": "account",
          "type": "address"
        }
      ],
      "name": "getVotes",
      "outputs": [
        {
          "internalType": "uint256",
          "name": "",
          "type": "uint256"
        }
      ],
      "stateMutability": "view",
      "type": "function"
    },
    {
      "inputs": [
        {
          "internalType": "address",
          "name": "spender",
          "type": "address"
        },
        {
          "internalType": "uint256",
          "name": "addedValue",
          "type": "uint256"
        }
      ],
      "name": "increaseAllowance",
      "outputs": [
        {
          "internalType": "bool",
          "name": "",
          "type": "bool"
        }
      ],
      "stateMutability": "nonpayable",
      "type": "function"
    },
    {
      "inputs": [],
      "name": "maxSupply",
      "outputs": [
        {
          "internalType": "uint256",
          "name": "",
          "type": "uint256"
        }
      ],
      "stateMutability": "view",
      "type": "function"
    },
    {
      "inputs": [
        {
          "internalType": "address",
          "name": "to",
          "type": "address"
        },
        {
          "internalType": "uint256",
          "name": "amount",
          "type": "uint256"
        }
      ],
      "name": "mint",
      "outputs": [],
      "stateMutability": "nonpayable",
      "type": "function"
    },
    {
      "inputs": [],
      "name": "name",
      "outputs": [
        {
          "internalType": "string",
          "name": "",
          "type": "string"
        }
      ],
      "stateMutability": "view",
      "type": "function"
    },
    {
      "inputs": [
        {
          "internalType": "address",
          "name": "owner",
          "type": "address"
        }
      ],
      "name": "nonces",
      "outputs": [
        {
          "internalType": "uint256",
          "name": "",
          "type": "uint256"
        }
      ],
      "stateMutability": "view",
      "type": "function"
    },
    {
      "inputs": [
        {
          "internalType": "address",
          "name": "account",
          "type": "address"
        }
      ],
      "name": "numCheckpoints",
      "outputs": [
        {
          "internalType": "uint32",
          "name": "",
          "type": "uint32"
        }
      ],
      "stateMutability": "view",
      "type": "function"
    },
    {
      "inputs": [
        {
          "internalType": "address",
          "name": "owner",
          "type": "address"
        },
        {
          "internalType": "address",
          "name": "spender",
          "type": "address"
        },
        {
          "internalType": "uint256",
          "name": "value",
          "type": "uint256"
        },
        {
          "internalType": "uint256",
          "name": "deadline",
          "type": "uint256"
        },
        {
          "internalType": "uint8",
          "name": "v",
          "type": "uint8"
        },
        {
          "internalType": "bytes32",
          "name": "r",
          "type": "bytes32"
        },
        {
          "internalType": "bytes32",
          "name": "s",
          "type": "bytes32"
        }
      ],
      "name": "permit",
      "outputs": [],
      "stateMutability": "nonpayable",
      "type": "function"
    },
    {
      "inputs": [
        {
          "internalType": "uint256",
          "name": "amount",
          "type": "uint256"
        }
      ],
      "name": "selfApprove",
      "outputs": [],
      "stateMutability": "nonpayable",
      "type": "function"
    },
    {
      "inputs": [
        {
          "internalType": "address",
          "name": "account",
          "type": "address"
        }
      ],
      "name": "setAdmin",
      "outputs": [],
      "stateMutability": "nonpayable",
      "type": "function"
    },
    {
      "inputs": [],
      "name": "symbol",
      "outputs": [
        {
          "internalType": "string",
          "name": "",
          "type": "string"
        }
      ],
      "stateMutability": "view",
      "type": "function"
    },
    {
      "inputs": [],
      "name": "totalSupply",
      "outputs": [
        {
          "internalType": "uint256",
          "name": "",
          "type": "uint256"
        }
      ],
      "stateMutability": "view",
      "type": "function"
    },
    {
      "inputs": [
        {
          "internalType": "address",
          "name": "to",
          "type": "address"
        },
        {
          "internalType": "uint256",
          "name": "amount",
          "type": "uint256"
        }
      ],
      "name": "transfer",
      "outputs": [
        {
          "internalType": "bool",
          "name": "",
          "type": "bool"
        }
      ],
      "stateMutability": "nonpayable",
      "type": "function"
    },
    {
      "inputs": [
        {
          "internalType": "address",
          "name": "from",
          "type": "address"
        },
        {
          "internalType": "address",
          "name": "to",
          "type": "address"
        },
        {
          "internalType": "uint256",
          "name": "amount",
          "type": "uint256"
        }
      ],
      "name": "transferFrom",
      "outputs": [
        {
          "internalType": "bool",
          "name": "",
          "type": "bool"
        }
      ],
      "stateMutability": "nonpayable",
      "type": "function"
    }
  ],
  "bytecode": "0x6101806040523480156200001257600080fd5b5060405180604001604052806008815260200167724c69626c6f636b60c01b81525080604051806040016040528060018152602001603160f81b81525060405180604001604052806008815260200167724c69626c6f636b60c01b81525060405180604001604052806004815260200163392624a160e11b81525081600390816200009e9190620002d4565b506004620000ad8282620002d4565b50620000bf91508390506005620001aa565b61012052620000d0816006620001aa565b61014052815160208084019190912060e052815190820120610100524660a0526200015e60e05161010051604080517f8b73c3c69bb8fe3d512ecc4cf759cc79239f7b179b0ffacaa9a75d522b39400f60208201529081019290925260608201524660808201523060a082015260009060c00160405160208183030381529060405280519060200120905090565b60805250503060c05250600c80546001600160a01b0319163317905562000183601290565b6200019090600a620004b3565b620001a0906308f0d180620004cb565b610160526200055a565b6000602083511015620001ca57620001c283620001e3565b9050620001dd565b81620001d78482620002d4565b5060ff90505b92915050565b600080829050601f815111156200021a578260405163305a27a960e01b8152600401620002119190620004e5565b60405180910390fd5b8051620002278262000535565b179392505050565b634e487b7160e01b600052604160045260246000fd5b600181811c908216806200025a57607f821691505b6020821081036200027b57634e487b7160e01b600052602260045260246000fd5b50919050565b601f821115620002cf57600081815260208120601f850160051c81016020861015620002aa5750805b601f850160051c820191505b81811015620002cb57828155600101620002b6565b5050505b505050565b81516001600160401b03811115620002f057620002f06200022f565b620003088162000301845462000245565b8462000281565b602080601f831160018114620003405760008415620003275750858301515b600019600386901b1c1916600185901b178555620002cb565b600085815260208120601f198616915b82811015620003715788860151825594840194600190910190840162000350565b5085821015620003905787850151600019600388901b60f8161c191681555b5050505050600190811b01905550565b634e487b7160e01b600052601160045260246000fd5b600181815b80851115620003f7578160001904821115620003db57620003db620003a0565b80851615620003e957918102915b93841c9390800290620003bb565b509250929050565b6000826200041057506001620001dd565b816200041f57506000620001dd565b8160018114620004385760028114620004435762000463565b6001915050620001dd565b60ff841115620004575762000457620003a0565b50506001821b620001dd565b5060208310610133831016604e8410600b841016171562000488575081810a620001dd565b620004948383620003b6565b8060001904821115620004ab57620004ab620003a0565b029392505050565b6000620004c460ff841683620003ff565b9392505050565b8082028115828204841417620001dd57620001dd620003a0565b600060208083528351808285015260005b818110156200051457858101830151858201604001528201620004f6565b506000604082860101526040601f19601f8301168501019250505092915050565b805160208083015191908110156200027b5760001960209190910360031b1b16919050565b60805160a05160c05160e05161010051610120516101405161016051612934620005c7600039600081816104b6015261084401526000610b2f01526000610b0401526000611659015260006116310152600061158c015260006115b6015260006115e001526129346000f3fe608060405234801561001057600080fd5b506004361061020b5760003560e01c806370a082311161012a5780639dc29fac116100bd578063d452f1681161008c578063d5abeb0111610071578063d5abeb01146104b1578063dd62ed3e146104d8578063f1127ed81461051157600080fd5b8063d452f1681461048b578063d505accf1461049e57600080fd5b80639dc29fac1461043f578063a457c2d714610452578063a9059cbb14610465578063c3cda5201461047857600080fd5b80638e539e8c116100f95780638e539e8c146103f257806391ddadf41461040557806395d89b41146104245780639ab24eb01461042c57600080fd5b806370a082311461038857806379cc6790146103b15780637ecebe00146103c457806384b0196e146103d757600080fd5b80633a46b1a8116101a2578063587cde1e11610171578063587cde1e146102f65780635c19a95c1461033a5780636fcfff451461034d578063704b6c021461037557600080fd5b80633a46b1a8146102b557806340c10f19146102c857806342966c68146102db5780634bf5d7e9146102ee57600080fd5b80632949582d116101de5780632949582d14610276578063313ce5671461028b5780633644e5151461029a57806339509351146102a257600080fd5b806306fdde0314610210578063095ea7b31461022e57806318160ddd1461025157806323b872dd14610263575b600080fd5b61021861054e565b6040516102259190612569565b60405180910390f35b61024161023c366004612598565b6105e0565b6040519015158152602001610225565b6002545b604051908152602001610225565b6102416102713660046125c2565b6105fa565b6102896102843660046125fe565b61061e565b005b60405160128152602001610225565b610255610725565b6102416102b0366004612598565b610734565b6102556102c3366004612598565b610773565b6102896102d6366004612598565b6107fc565b6102896102e9366004612631565b6108cf565b6102186108dc565b61032261030436600461264a565b6001600160a01b039081166000908152600960205260409020541690565b6040516001600160a01b039091168152602001610225565b61028961034836600461264a565b610974565b61036061035b36600461264a565b61097e565b60405163ffffffff9091168152602001610225565b61028961038336600461264a565b6109a0565b61025561039636600461264a565b6001600160a01b031660009081526020819052604090205490565b6102896103bf366004612598565b610ac3565b6102556103d236600461264a565b610ad8565b6103df610af6565b6040516102259796959493929190612665565b610255610400366004612631565b610b9b565b61040d610c06565b60405165ffffffffffff9091168152602001610225565b610218610c11565b61025561043a36600461264a565b610c20565b61028961044d366004612598565b610ca2565b610241610460366004612598565b610ce8565b610241610473366004612598565b610d92565b610289610486366004612728565b610da0565b610289610499366004612631565b610ed6565b6102896104ac366004612780565b610f34565b6102557f000000000000000000000000000000000000000000000000000000000000000081565b6102556104e63660046125fe565b6001600160a01b03918216600090815260016020908152604080832093909416825291909152205490565b61052461051f3660046127ea565b611098565b60408051825163ffffffff1681526020928301516001600160e01b03169281019290925201610225565b60606003805461055d9061282a565b80601f01602080910402602001604051908101604052809291908181526020018280546105899061282a565b80156105d65780601f106105ab576101008083540402835291602001916105d6565b820191906000526020600020905b8154815290600101906020018083116105b957829003601f168201915b5050505050905090565b6000336105ee81858561111c565b60019150505b92915050565b600033610608858285611274565b610613858585611306565b506001949350505050565b600c546001600160a01b031633146106695760405162461bcd60e51b81526020600482015260096024820152682737ba1030b236b4b760b91b60448201526064015b60405180910390fd5b6001600160a01b0382166106bf5760405162461bcd60e51b815260206004820152601f60248201527f44656c656761746f722063616e2774206265207a65726f2061646472657373006044820152606401610660565b306001600160a01b038316036107175760405162461bcd60e51b815260206004820152600760248201527f496c6c6567616c000000000000000000000000000000000000000000000000006044820152606401610660565b61072182826114f9565b5050565b600061072f61157f565b905090565b3360008181526001602090815260408083206001600160a01b03871684529091528120549091906105ee908290869061076e908790612874565b61111c565b600061077d610c06565b65ffffffffffff1682106107d35760405162461bcd60e51b815260206004820152601960248201527f4552433230566f7465733a20667574757265206c6f6f6b7570000000000000006044820152606401610660565b6001600160a01b0383166000908152600a602052604090206107f590836116aa565b9392505050565b600c546001600160a01b031633146108425760405162461bcd60e51b81526020600482015260096024820152682737ba1030b236b4b760b91b6044820152606401610660565b7f00000000000000000000000000000000000000000000000000000000000000008161086d60025490565b6108779190612874565b11156108c55760405162461bcd60e51b815260206004820152601d60248201527f43616e206e6f74206d696e74206e657720724c494220666f72206e6f770000006044820152606401610660565b6107218282611793565b6108d933826117d7565b50565b6060436108e7610c06565b65ffffffffffff161461093c5760405162461bcd60e51b815260206004820152601d60248201527f4552433230566f7465733a2062726f6b656e20636c6f636b206d6f64650000006044820152606401610660565b5060408051808201909152601d81527f6d6f64653d626c6f636b6e756d6265722666726f6d3d64656661756c74000000602082015290565b6108d933826114f9565b6001600160a01b0381166000908152600a60205260408120546105f49061181b565b600c546001600160a01b031633146109e65760405162461bcd60e51b81526020600482015260096024820152682737ba1030b236b4b760b91b6044820152606401610660565b6001600160a01b038116610a3c5760405162461bcd60e51b815260206004820152600f60248201527f496e76616c6964206164647265737300000000000000000000000000000000006044820152606401610660565b306001600160a01b03821603610a945760405162461bcd60e51b815260206004820152600f60248201527f496e76616c6964206164647265737300000000000000000000000000000000006044820152606401610660565b600c805473ffffffffffffffffffffffffffffffffffffffff19166001600160a01b0392909216919091179055565b610ace823383611274565b61072182826117d7565b6001600160a01b0381166000908152600760205260408120546105f4565b600060608082808083610b2a7f0000000000000000000000000000000000000000000000000000000000000000600561189b565b610b557f0000000000000000000000000000000000000000000000000000000000000000600661189b565b604080516000808252602082019092527f0f000000000000000000000000000000000000000000000000000000000000009b939a50919850469750309650945092509050565b6000610ba5610c06565b65ffffffffffff168210610bfb5760405162461bcd60e51b815260206004820152601960248201527f4552433230566f7465733a20667574757265206c6f6f6b7570000000000000006044820152606401610660565b6105f4600b836116aa565b600061072f43611946565b60606004805461055d9061282a565b6001600160a01b0381166000908152600a60205260408120548015610c8f576001600160a01b0383166000908152600a6020526040902080546000198301908110610c6d57610c6d612887565b60009182526020909120015464010000000090046001600160e01b0316610c92565b60005b6001600160e01b03169392505050565b600c546001600160a01b03163314610ace5760405162461bcd60e51b81526020600482015260096024820152682737ba1030b236b4b760b91b6044820152606401610660565b3360008181526001602090815260408083206001600160a01b038716845290915281205490919083811015610d855760405162461bcd60e51b815260206004820152602560248201527f45524332303a2064656372656173656420616c6c6f77616e63652062656c6f7760448201527f207a65726f0000000000000000000000000000000000000000000000000000006064820152608401610660565b610613828686840361111c565b6000336105ee818585611306565b83421115610df05760405162461bcd60e51b815260206004820152601d60248201527f4552433230566f7465733a207369676e617475726520657870697265640000006044820152606401610660565b604080517fe48329057bfd03d55e49b547132e39cffd9c1820ad7b9d4c5307691425d15adf60208201526001600160a01b038816918101919091526060810186905260808101859052600090610e6a90610e629060a001604051602081830303815290604052805190602001206119c4565b858585611a0c565b9050610e7581611a34565b8614610ec35760405162461bcd60e51b815260206004820152601960248201527f4552433230566f7465733a20696e76616c6964206e6f6e6365000000000000006044820152606401610660565b610ecd81886114f9565b50505050505050565b600c546001600160a01b03163314610f1c5760405162461bcd60e51b81526020600482015260096024820152682737ba1030b236b4b760b91b6044820152606401610660565b600c546108d99030906001600160a01b03168361111c565b83421115610f845760405162461bcd60e51b815260206004820152601d60248201527f45524332305065726d69743a206578706972656420646561646c696e650000006044820152606401610660565b60007f6e71edae12b1b97f4d1f60370fef10105fa2faae0126114a169c64845d6126c9888888610fb38c611a34565b6040805160208101969096526001600160a01b0394851690860152929091166060840152608083015260a082015260c0810186905260e001604051602081830303815290604052805190602001209050600061100e826119c4565b9050600061101e82878787611a0c565b9050896001600160a01b0316816001600160a01b0316146110815760405162461bcd60e51b815260206004820152601e60248201527f45524332305065726d69743a20696e76616c6964207369676e617475726500006044820152606401610660565b61108c8a8a8a61111c565b50505050505050505050565b60408051808201909152600080825260208201526001600160a01b0383166000908152600a60205260409020805463ffffffff84169081106110dc576110dc612887565b60009182526020918290206040805180820190915291015463ffffffff8116825264010000000090046001600160e01b0316918101919091529392505050565b6001600160a01b0383166111975760405162461bcd60e51b8152602060048201526024808201527f45524332303a20617070726f76652066726f6d20746865207a65726f2061646460448201527f72657373000000000000000000000000000000000000000000000000000000006064820152608401610660565b6001600160a01b0382166112135760405162461bcd60e51b815260206004820152602260248201527f45524332303a20617070726f766520746f20746865207a65726f20616464726560448201527f73730000000000000000000000000000000000000000000000000000000000006064820152608401610660565b6001600160a01b0383811660008181526001602090815260408083209487168084529482529182902085905590518481527f8c5be1e5ebec7d5bd14f71427d1e84f3dd0314c0f7b2291e5b200ac8c7c3b925910160405180910390a3505050565b6001600160a01b03838116600090815260016020908152604080832093861683529290522054600019811461130057818110156112f35760405162461bcd60e51b815260206004820152601d60248201527f45524332303a20696e73756666696369656e7420616c6c6f77616e63650000006044820152606401610660565b611300848484840361111c565b50505050565b6001600160a01b0383166113825760405162461bcd60e51b815260206004820152602560248201527f45524332303a207472616e736665722066726f6d20746865207a65726f20616460448201527f64726573730000000000000000000000000000000000000000000000000000006064820152608401610660565b6001600160a01b0382166113fe5760405162461bcd60e51b815260206004820152602360248201527f45524332303a207472616e7366657220746f20746865207a65726f206164647260448201527f65737300000000000000000000000000000000000000000000000000000000006064820152608401610660565b6001600160a01b0383166000908152602081905260409020548181101561148d5760405162461bcd60e51b815260206004820152602660248201527f45524332303a207472616e7366657220616d6f756e742065786365656473206260448201527f616c616e636500000000000000000000000000000000000000000000000000006064820152608401610660565b6001600160a01b03848116600081815260208181526040808320878703905593871680835291849020805487019055925185815290927fddf252ad1be2c89b69c2b068fc378daa952ba7f163c4a11628f55a4df523b3ef910160405180910390a3611300848484611a61565b6001600160a01b0382811660008181526009602081815260408084208054858452828620549490935287871673ffffffffffffffffffffffffffffffffffffffff198416811790915590519190951694919391928592917f3134e8a2e6d97e929a7e54011ea5485d7d196dd5f0ba4d4ef95803e8e3fc257f9190a4611300828483611a6c565b6000306001600160a01b037f0000000000000000000000000000000000000000000000000000000000000000161480156115d857507f000000000000000000000000000000000000000000000000000000000000000046145b1561160257507f000000000000000000000000000000000000000000000000000000000000000090565b61072f604080517f8b73c3c69bb8fe3d512ecc4cf759cc79239f7b179b0ffacaa9a75d522b39400f60208201527f0000000000000000000000000000000000000000000000000000000000000000918101919091527f000000000000000000000000000000000000000000000000000000000000000060608201524660808201523060a082015260009060c00160405160208183030381529060405280519060200120905090565b8154600090818160058111156117045760006116c584611ba9565b6116cf908561289d565b600088815260209020909150869082015463ffffffff1611156116f457809150611702565b6116ff816001612874565b92505b505b808210156117515760006117188383611c91565b600088815260209020909150869082015463ffffffff16111561173d5780915061174b565b611748816001612874565b92505b50611704565b801561177d576000868152602090208101600019015464010000000090046001600160e01b0316611780565b60005b6001600160e01b03169695505050505050565b61179d8282611cac565b60405181906001600160a01b038416907f3f2c9d57c068687834f0de942a9babb9e5acab57d516d3480a3c16ee165a427390600090a35050565b6117e18282611d43565b60405181906001600160a01b038416907ffd38818f5291bf0bb3a2a48aadc06ba8757865d1dabd804585338aab3009dcb690600090a35050565b600063ffffffff8211156118975760405162461bcd60e51b815260206004820152602660248201527f53616665436173743a2076616c756520646f65736e27742066697420696e203360448201527f32206269747300000000000000000000000000000000000000000000000000006064820152608401610660565b5090565b606060ff83146118b5576118ae83611d5b565b90506105f4565b8180546118c19061282a565b80601f01602080910402602001604051908101604052809291908181526020018280546118ed9061282a565b801561193a5780601f1061190f5761010080835404028352916020019161193a565b820191906000526020600020905b81548152906001019060200180831161191d57829003601f168201915b505050505090506105f4565b600065ffffffffffff8211156118975760405162461bcd60e51b815260206004820152602660248201527f53616665436173743a2076616c756520646f65736e27742066697420696e203460448201527f38206269747300000000000000000000000000000000000000000000000000006064820152608401610660565b60006105f46119d161157f565b836040517f19010000000000000000000000000000000000000000000000000000000000008152600281019290925260228201526042902090565b6000806000611a1d87878787611d9a565b91509150611a2a81611e5e565b5095945050505050565b6001600160a01b03811660009081526007602052604090208054600181018255905b50919050565b505050565b611a5c838383611fc3565b816001600160a01b0316836001600160a01b031614158015611a8e5750600081115b15611a5c576001600160a01b03831615611b1c576001600160a01b0383166000908152600a602052604081208190611ac990611ff585612001565b91509150846001600160a01b03167fdec2bacdd2f05b59de34da9b523dff8be42e5e38e818c82fdb0bae774387a7248383604051611b11929190918252602082015260400190565b60405180910390a250505b6001600160a01b03821615611a5c576001600160a01b0382166000908152600a602052604081208190611b529061217685612001565b91509150836001600160a01b03167fdec2bacdd2f05b59de34da9b523dff8be42e5e38e818c82fdb0bae774387a7248383604051611b9a929190918252602082015260400190565b60405180910390a25050505050565b600081600003611bbb57506000919050565b60006001611bc884612182565b901c6001901b90506001818481611be157611be16128b0565b048201901c90506001818481611bf957611bf96128b0565b048201901c90506001818481611c1157611c116128b0565b048201901c90506001818481611c2957611c296128b0565b048201901c90506001818481611c4157611c416128b0565b048201901c90506001818481611c5957611c596128b0565b048201901c90506001818481611c7157611c716128b0565b048201901c90506107f581828581611c8b57611c8b6128b0565b04612216565b6000611ca060028484186128c6565b6107f590848416612874565b611cb6828261222c565b6002546001600160e01b031015611d355760405162461bcd60e51b815260206004820152603060248201527f4552433230566f7465733a20746f74616c20737570706c79207269736b73206f60448201527f766572666c6f77696e6720766f746573000000000000000000000000000000006064820152608401610660565b611300600b61217683612001565b611d4d82826122f3565b611300600b611ff583612001565b60606000611d6883612463565b604080516020808252818301909252919250600091906020820181803683375050509182525060208101929092525090565b6000807f7fffffffffffffffffffffffffffffff5d576e7357a4501ddfe92f46681b20a0831115611dd15750600090506003611e55565b6040805160008082526020820180845289905260ff881692820192909252606081018690526080810185905260019060a0016020604051602081039080840390855afa158015611e25573d6000803e3d6000fd5b5050604051601f1901519150506001600160a01b038116611e4e57600060019250925050611e55565b9150600090505b94509492505050565b6000816004811115611e7257611e726128e8565b03611e7a5750565b6001816004811115611e8e57611e8e6128e8565b03611edb5760405162461bcd60e51b815260206004820152601860248201527f45434453413a20696e76616c6964207369676e617475726500000000000000006044820152606401610660565b6002816004811115611eef57611eef6128e8565b03611f3c5760405162461bcd60e51b815260206004820152601f60248201527f45434453413a20696e76616c6964207369676e6174757265206c656e677468006044820152606401610660565b6003816004811115611f5057611f506128e8565b036108d95760405162461bcd60e51b815260206004820152602260248201527f45434453413a20696e76616c6964207369676e6174757265202773272076616c60448201527f75650000000000000000000000000000000000000000000000000000000000006064820152608401610660565b6001600160a01b03838116600090815260096020526040808220548584168352912054611a5c92918216911683611a6c565b60006107f5828461289d565b8254600090819081811561204e5760008781526020902082016000190160408051808201909152905463ffffffff8116825264010000000090046001600160e01b03166020820152612063565b60408051808201909152600080825260208201525b905080602001516001600160e01b0316935061208384868863ffffffff16565b92506000821180156120ad5750612098610c06565b65ffffffffffff16816000015163ffffffff16145b156120f2576120bb836124a4565b60008881526020902083016000190180546001600160e01b03929092166401000000000263ffffffff90921691909117905561216c565b866040518060400160405280612116612109610c06565b65ffffffffffff1661181b565b63ffffffff16815260200161212a866124a4565b6001600160e01b0390811690915282546001810184556000938452602093849020835194909301519091166401000000000263ffffffff909316929092179101555b5050935093915050565b60006107f58284612874565b600080608083901c1561219757608092831c92015b604083901c156121a957604092831c92015b602083901c156121bb57602092831c92015b601083901c156121cd57601092831c92015b600883901c156121df57600892831c92015b600483901c156121f157600492831c92015b600283901c1561220357600292831c92015b600183901c156105f45760010192915050565b600081831061222557816107f5565b5090919050565b6001600160a01b0382166122825760405162461bcd60e51b815260206004820152601f60248201527f45524332303a206d696e7420746f20746865207a65726f2061646472657373006044820152606401610660565b80600260008282546122949190612874565b90915550506001600160a01b038216600081815260208181526040808320805486019055518481527fddf252ad1be2c89b69c2b068fc378daa952ba7f163c4a11628f55a4df523b3ef910160405180910390a361072160008383611a61565b6001600160a01b03821661236f5760405162461bcd60e51b815260206004820152602160248201527f45524332303a206275726e2066726f6d20746865207a65726f2061646472657360448201527f73000000000000000000000000000000000000000000000000000000000000006064820152608401610660565b6001600160a01b038216600090815260208190526040902054818110156123fe5760405162461bcd60e51b815260206004820152602260248201527f45524332303a206275726e20616d6f756e7420657863656564732062616c616e60448201527f63650000000000000000000000000000000000000000000000000000000000006064820152608401610660565b6001600160a01b0383166000818152602081815260408083208686039055600280548790039055518581529192917fddf252ad1be2c89b69c2b068fc378daa952ba7f163c4a11628f55a4df523b3ef910160405180910390a3611a5c83600084611a61565b600060ff8216601f8111156105f4576040517fb3512b0c00000000000000000000000000000000000000000000000000000000815260040160405180910390fd5b60006001600160e01b038211156118975760405162461bcd60e51b815260206004820152602760248201527f53616665436173743a2076616c756520646f65736e27742066697420696e203260448201527f32342062697473000000000000000000000000000000000000000000000000006064820152608401610660565b6000815180845260005b818110156125495760208185018101518683018201520161252d565b506000602082860101526020601f19601f83011685010191505092915050565b6020815260006107f56020830184612523565b80356001600160a01b038116811461259357600080fd5b919050565b600080604083850312156125ab57600080fd5b6125b48361257c565b946020939093013593505050565b6000806000606084860312156125d757600080fd5b6125e08461257c565b92506125ee6020850161257c565b9150604084013590509250925092565b6000806040838503121561261157600080fd5b61261a8361257c565b91506126286020840161257c565b90509250929050565b60006020828403121561264357600080fd5b5035919050565b60006020828403121561265c57600080fd5b6107f58261257c565b7fff00000000000000000000000000000000000000000000000000000000000000881681526000602060e0818401526126a160e084018a612523565b83810360408501526126b3818a612523565b606085018990526001600160a01b038816608086015260a0850187905284810360c0860152855180825283870192509083019060005b81811015612705578351835292840192918401916001016126e9565b50909c9b505050505050505050505050565b803560ff8116811461259357600080fd5b60008060008060008060c0878903121561274157600080fd5b61274a8761257c565b9550602087013594506040870135935061276660608801612717565b92506080870135915060a087013590509295509295509295565b600080600080600080600060e0888a03121561279b57600080fd5b6127a48861257c565b96506127b26020890161257c565b955060408801359450606088013593506127ce60808901612717565b925060a0880135915060c0880135905092959891949750929550565b600080604083850312156127fd57600080fd5b6128068361257c565b9150602083013563ffffffff8116811461281f57600080fd5b809150509250929050565b600181811c9082168061283e57607f821691505b602082108103611a5657634e487b7160e01b600052602260045260246000fd5b634e487b7160e01b600052601160045260246000fd5b808201808211156105f4576105f461285e565b634e487b7160e01b600052603260045260246000fd5b818103818111156105f4576105f461285e565b634e487b7160e01b600052601260045260246000fd5b6000826128e357634e487b7160e01b600052601260045260246000fd5b500490565b634e487b7160e01b600052602160045260246000fdfea2646970667358221220d95c2d8e31a742be327f63d3886436e51e8ed3da9fe92368a05bf9854acd792464736f6c63430008130033",
  "linkReferences": {},
  "deployedLinkReferences": {}
}