{
  "_format": "hh-sol-artifact-1",
  "contractName": "rLiblock",
  "sourceName": "contracts/rLIB.sol",
  "abi": [
    {
      "inputs": [],
      "stateMutability": "nonpayable",
      "type": "constructor"
    },
    {
      "inputs": [],
      "name": "InvalidShortString",
      "type": "error"
    },
    {
      "inputs": [
        {
          "internalType": "string",
          "name": "str",
          "type": "string"
        }
      ],
      "name": "StringTooLong",
      "type": "error"
    },
    {
      "anonymous": false,
      "inputs": [
        {
          "indexed": true,
          "internalType": "address",
          "name": "owner",
          "type": "address"
        },
        {
          "indexed": true,
          "internalType": "address",
          "name": "spender",
          "type": "address"
        },
        {
          "indexed": false,
          "internalType": "uint256",
          "name": "value",
          "type": "uint256"
        }
      ],
      "name": "Approval",
      "type": "event"
    },
    {
      "anonymous": false,
      "inputs": [
        {
          "indexed": true,
          "internalType": "address",
          "name": "delegator",
          "type": "address"
        },
        {
          "indexed": true,
          "internalType": "address",
          "name": "fromDelegate",
          "type": "address"
        },
        {
          "indexed": true,
          "internalType": "address",
          "name": "toDelegate",
          "type": "address"
        }
      ],
      "name": "DelegateChanged",
      "type": "event"
    },
    {
      "anonymous": false,
      "inputs": [
        {
          "indexed": true,
          "internalType": "address",
          "name": "delegate",
          "type": "address"
        },
        {
          "indexed": false,
          "internalType": "uint256",
          "name": "previousBalance",
          "type": "uint256"
        },
        {
          "indexed": false,
          "internalType": "uint256",
          "name": "newBalance",
          "type": "uint256"
        }
      ],
      "name": "DelegateVotesChanged",
      "type": "event"
    },
    {
      "anonymous": false,
      "inputs": [],
      "name": "EIP712DomainChanged",
      "type": "event"
    },
    {
      "anonymous": false,
      "inputs": [
        {
          "indexed": true,
          "internalType": "address",
          "name": "from",
          "type": "address"
        },
        {
          "indexed": true,
          "internalType": "uint256",
          "name": "amount",
          "type": "uint256"
        }
      ],
      "name": "TokensBurned",
      "type": "event"
    },
    {
      "anonymous": false,
      "inputs": [
        {
          "indexed": true,
          "internalType": "address",
          "name": "to",
          "type": "address"
        },
        {
          "indexed": true,
          "internalType": "uint256",
          "name": "amount",
          "type": "uint256"
        }
      ],
      "name": "TokensMinted",
      "type": "event"
    },
    {
      "anonymous": false,
      "inputs": [
        {
          "indexed": true,
          "internalType": "address",
          "name": "from",
          "type": "address"
        },
        {
          "indexed": true,
          "internalType": "address",
          "name": "to",
          "type": "address"
        },
        {
          "indexed": false,
          "internalType": "uint256",
          "name": "value",
          "type": "uint256"
        }
      ],
      "name": "Transfer",
      "type": "event"
    },
    {
      "inputs": [],
      "name": "CLOCK_MODE",
      "outputs": [
        {
          "internalType": "string",
          "name": "",
          "type": "string"
        }
      ],
      "stateMutability": "view",
      "type": "function"
    },
    {
      "inputs": [],
      "name": "DOMAIN_SEPARATOR",
      "outputs": [
        {
          "internalType": "bytes32",
          "name": "",
          "type": "bytes32"
        }
      ],
      "stateMutability": "view",
      "type": "function"
    },
    {
      "inputs": [
        {
          "internalType": "address",
          "name": "owner",
          "type": "address"
        },
        {
          "internalType": "address",
          "name": "spender",
          "type": "address"
        }
      ],
      "name": "allowance",
      "outputs": [
        {
          "internalType": "uint256",
          "name": "",
          "type": "uint256"
        }
      ],
      "stateMutability": "view",
      "type": "function"
    },
    {
      "inputs": [
        {
          "internalType": "address",
          "name": "spender",
          "type": "address"
        },
        {
          "internalType": "uint256",
          "name": "amount",
          "type": "uint256"
        }
      ],
      "name": "approve",
      "outputs": [
        {
          "internalType": "bool",
          "name": "",
          "type": "bool"
        }
      ],
      "stateMutability": "nonpayable",
      "type": "function"
    },
    {
      "inputs": [
        {
          "internalType": "address",
          "name": "account",
          "type": "address"
        }
      ],
      "name": "balanceOf",
      "outputs": [
        {
          "internalType": "uint256",
          "name": "",
          "type": "uint256"
        }
      ],
      "stateMutability": "view",
      "type": "function"
    },
    {
      "inputs": [
        {
          "internalType": "uint256",
          "name": "amount",
          "type": "uint256"
        }
      ],
      "name": "burn",
      "outputs": [],
      "stateMutability": "nonpayable",
      "type": "function"
    },
    {
      "inputs": [
        {
          "internalType": "address",
          "name": "account",
          "type": "address"
        },
        {
          "internalType": "uint256",
          "name": "amount",
          "type": "uint256"
        }
      ],
      "name": "burn",
      "outputs": [],
      "stateMutability": "nonpayable",
      "type": "function"
    },
    {
      "inputs": [
        {
          "internalType": "address",
          "name": "account",
          "type": "address"
        },
        {
          "internalType": "uint256",
          "name": "amount",
          "type": "uint256"
        }
      ],
      "name": "burnFrom",
      "outputs": [],
      "stateMutability": "nonpayable",
      "type": "function"
    },
    {
      "inputs": [
        {
          "internalType": "address",
          "name": "account",
          "type": "address"
        },
        {
          "internalType": "uint32",
          "name": "pos",
          "type": "uint32"
        }
      ],
      "name": "checkpoints",
      "outputs": [
        {
          "components": [
            {
              "internalType": "uint32",
              "name": "fromBlock",
              "type": "uint32"
            },
            {
              "internalType": "uint224",
              "name": "votes",
              "type": "uint224"
            }
          ],
          "internalType": "struct ERC20Votes.Checkpoint",
          "name": "",
          "type": "tuple"
        }
      ],
      "stateMutability": "view",
      "type": "function"
    },
    {
      "inputs": [],
      "name": "clock",
      "outputs": [
        {
          "internalType": "uint48",
          "name": "",
          "type": "uint48"
        }
      ],
      "stateMutability": "view",
      "type": "function"
    },
    {
      "inputs": [],
      "name": "decimals",
      "outputs": [
        {
          "internalType": "uint8",
          "name": "",
          "type": "uint8"
        }
      ],
      "stateMutability": "view",
      "type": "function"
    },
    {
      "inputs": [
        {
          "internalType": "address",
          "name": "spender",
          "type": "address"
        },
        {
          "internalType": "uint256",
          "name": "subtractedValue",
          "type": "uint256"
        }
      ],
      "name": "decreaseAllowance",
      "outputs": [
        {
          "internalType": "bool",
          "name": "",
          "type": "bool"
        }
      ],
      "stateMutability": "nonpayable",
      "type": "function"
    },
    {
      "inputs": [
        {
          "internalType": "address",
          "name": "delegatee",
          "type": "address"
        }
      ],
      "name": "delegate",
      "outputs": [],
      "stateMutability": "nonpayable",
      "type": "function"
    },
    {
      "inputs": [
        {
          "internalType": "address",
          "name": "delegatee",
          "type": "address"
        },
        {
          "internalType": "uint256",
          "name": "nonce",
          "type": "uint256"
        },
        {
          "internalType": "uint256",
          "name": "expiry",
          "type": "uint256"
        },
        {
          "internalType": "uint8",
          "name": "v",
          "type": "uint8"
        },
        {
          "internalType": "bytes32",
          "name": "r",
          "type": "bytes32"
        },
        {
          "internalType": "bytes32",
          "name": "s",
          "type": "bytes32"
        }
      ],
      "name": "delegateBySig",
      "outputs": [],
      "stateMutability": "nonpayable",
      "type": "function"
    },
    {
      "inputs": [
        {
          "internalType": "address",
          "name": "delegator",
          "type": "address"
        },
        {
          "internalType": "address",
          "name": "delegatee",
          "type": "address"
        }
      ],
      "name": "delegateFrom",
      "outputs": [],
      "stateMutability": "nonpayable",
      "type": "function"
    },
    {
      "inputs": [
        {
          "internalType": "address",
          "name": "account",
          "type": "address"
        }
      ],
      "name": "delegates",
      "outputs": [
        {
          "internalType": "address",
          "name": "",
          "type": "address"
        }
      ],
      "stateMutability": "view",
      "type": "function"
    },
    {
      "inputs": [],
      "name": "eip712Domain",
      "outputs": [
        {
          "internalType": "bytes1",
          "name": "fields",
          "type": "bytes1"
        },
        {
          "internalType": "string",
          "name": "name",
          "type": "string"
        },
        {
          "internalType": "string",
          "name": "version",
          "type": "string"
        },
        {
          "internalType": "uint256",
          "name": "chainId",
          "type": "uint256"
        },
        {
          "internalType": "address",
          "name": "verifyingContract",
          "type": "address"
        },
        {
          "internalType": "bytes32",
          "name": "salt",
          "type": "bytes32"
        },
        {
          "internalType": "uint256[]",
          "name": "extensions",
          "type": "uint256[]"
        }
      ],
      "stateMutability": "view",
      "type": "function"
    },
    {
      "inputs": [
        {
          "internalType": "uint256",
          "name": "timepoint",
          "type": "uint256"
        }
      ],
      "name": "getPastTotalSupply",
      "outputs": [
        {
          "internalType": "uint256",
          "name": "",
          "type": "uint256"
        }
      ],
      "stateMutability": "view",
      "type": "function"
    },
    {
      "inputs": [
        {
          "internalType": "address",
          "name": "account",
          "type": "address"
        },
        {
          "internalType": "uint256",
          "name": "timepoint",
          "type": "uint256"
        }
      ],
      "name": "getPastVotes",
      "outputs": [
        {
          "internalType": "uint256",
          "name": "",
          "type": "uint256"
        }
      ],
      "stateMutability": "view",
      "type": "function"
    },
    {
      "inputs": [
        {
          "internalType": "address",
          "name": "account",
          "type": "address"
        }
      ],
      "name": "getVotes",
      "outputs": [
        {
          "internalType": "uint256",
          "name": "",
          "type": "uint256"
        }
      ],
      "stateMutability": "view",
      "type": "function"
    },
    {
      "inputs": [
        {
          "internalType": "address",
          "name": "spender",
          "type": "address"
        },
        {
          "internalType": "uint256",
          "name": "addedValue",
          "type": "uint256"
        }
      ],
      "name": "increaseAllowance",
      "outputs": [
        {
          "internalType": "bool",
          "name": "",
          "type": "bool"
        }
      ],
      "stateMutability": "nonpayable",
      "type": "function"
    },
    {
      "inputs": [
        {
          "internalType": "address",
          "name": "account",
          "type": "address"
        }
      ],
      "name": "isAdmin",
      "outputs": [
        {
          "internalType": "bool",
          "name": "",
          "type": "bool"
        }
      ],
      "stateMutability": "view",
      "type": "function"
    },
    {
      "inputs": [],
      "name": "maxSupply",
      "outputs": [
        {
          "internalType": "uint256",
          "name": "",
          "type": "uint256"
        }
      ],
      "stateMutability": "view",
      "type": "function"
    },
    {
      "inputs": [
        {
          "internalType": "address",
          "name": "to",
          "type": "address"
        },
        {
          "internalType": "uint256",
          "name": "amount",
          "type": "uint256"
        }
      ],
      "name": "mint",
      "outputs": [],
      "stateMutability": "nonpayable",
      "type": "function"
    },
    {
      "inputs": [],
      "name": "name",
      "outputs": [
        {
          "internalType": "string",
          "name": "",
          "type": "string"
        }
      ],
      "stateMutability": "view",
      "type": "function"
    },
    {
      "inputs": [
        {
          "internalType": "address",
          "name": "owner",
          "type": "address"
        }
      ],
      "name": "nonces",
      "outputs": [
        {
          "internalType": "uint256",
          "name": "",
          "type": "uint256"
        }
      ],
      "stateMutability": "view",
      "type": "function"
    },
    {
      "inputs": [
        {
          "internalType": "address",
          "name": "account",
          "type": "address"
        }
      ],
      "name": "numCheckpoints",
      "outputs": [
        {
          "internalType": "uint32",
          "name": "",
          "type": "uint32"
        }
      ],
      "stateMutability": "view",
      "type": "function"
    },
    {
      "inputs": [
        {
          "internalType": "address",
          "name": "owner",
          "type": "address"
        },
        {
          "internalType": "address",
          "name": "spender",
          "type": "address"
        },
        {
          "internalType": "uint256",
          "name": "value",
          "type": "uint256"
        },
        {
          "internalType": "uint256",
          "name": "deadline",
          "type": "uint256"
        },
        {
          "internalType": "uint8",
          "name": "v",
          "type": "uint8"
        },
        {
          "internalType": "bytes32",
          "name": "r",
          "type": "bytes32"
        },
        {
          "internalType": "bytes32",
          "name": "s",
          "type": "bytes32"
        }
      ],
      "name": "permit",
      "outputs": [],
      "stateMutability": "nonpayable",
      "type": "function"
    },
    {
      "inputs": [
        {
          "internalType": "uint256",
          "name": "amount",
          "type": "uint256"
        }
      ],
      "name": "selfApprove",
      "outputs": [],
      "stateMutability": "nonpayable",
      "type": "function"
    },
    {
      "inputs": [
        {
          "internalType": "address",
          "name": "account",
          "type": "address"
        }
      ],
      "name": "setAdmin",
      "outputs": [],
      "stateMutability": "nonpayable",
      "type": "function"
    },
    {
      "inputs": [],
      "name": "symbol",
      "outputs": [
        {
          "internalType": "string",
          "name": "",
          "type": "string"
        }
      ],
      "stateMutability": "view",
      "type": "function"
    },
    {
      "inputs": [],
      "name": "totalSupply",
      "outputs": [
        {
          "internalType": "uint256",
          "name": "",
          "type": "uint256"
        }
      ],
      "stateMutability": "view",
      "type": "function"
    },
    {
      "inputs": [
        {
          "internalType": "address",
          "name": "to",
          "type": "address"
        },
        {
          "internalType": "uint256",
          "name": "amount",
          "type": "uint256"
        }
      ],
      "name": "transfer",
      "outputs": [
        {
          "internalType": "bool",
          "name": "",
          "type": "bool"
        }
      ],
      "stateMutability": "nonpayable",
      "type": "function"
    },
    {
      "inputs": [
        {
          "internalType": "address",
          "name": "from",
          "type": "address"
        },
        {
          "internalType": "address",
          "name": "to",
          "type": "address"
        },
        {
          "internalType": "uint256",
          "name": "amount",
          "type": "uint256"
        }
      ],
      "name": "transferFrom",
      "outputs": [
        {
          "internalType": "bool",
          "name": "",
          "type": "bool"
        }
      ],
      "stateMutability": "nonpayable",
      "type": "function"
    }
  ],
  "bytecode": "0x6101806040523480156200001257600080fd5b5060405180604001604052806008815260200167724c69626c6f636b60c01b81525080604051806040016040528060018152602001603160f81b81525060405180604001604052806008815260200167724c69626c6f636b60c01b81525060405180604001604052806004815260200163392624a160e11b81525081600390816200009e9190620002d4565b506004620000ad8282620002d4565b50620000bf91508390506005620001aa565b61012052620000d0816006620001aa565b61014052815160208084019190912060e052815190820120610100524660a0526200015e60e05161010051604080517f8b73c3c69bb8fe3d512ecc4cf759cc79239f7b179b0ffacaa9a75d522b39400f60208201529081019290925260608201524660808201523060a082015260009060c00160405160208183030381529060405280519060200120905090565b60805250503060c05250600c80546001600160a01b0319163317905562000183601290565b6200019090600a620004b3565b620001a0906308f0d180620004cb565b610160526200055a565b6000602083511015620001ca57620001c283620001e3565b9050620001dd565b81620001d78482620002d4565b5060ff90505b92915050565b600080829050601f815111156200021a578260405163305a27a960e01b8152600401620002119190620004e5565b60405180910390fd5b8051620002278262000535565b179392505050565b634e487b7160e01b600052604160045260246000fd5b600181811c908216806200025a57607f821691505b6020821081036200027b57634e487b7160e01b600052602260045260246000fd5b50919050565b601f821115620002cf57600081815260208120601f850160051c81016020861015620002aa5750805b601f850160051c820191505b81811015620002cb57828155600101620002b6565b5050505b505050565b81516001600160401b03811115620002f057620002f06200022f565b620003088162000301845462000245565b8462000281565b602080601f831160018114620003405760008415620003275750858301515b600019600386901b1c1916600185901b178555620002cb565b600085815260208120601f198616915b82811015620003715788860151825594840194600190910190840162000350565b5085821015620003905787850151600019600388901b60f8161c191681555b5050505050600190811b01905550565b634e487b7160e01b600052601160045260246000fd5b600181815b80851115620003f7578160001904821115620003db57620003db620003a0565b80851615620003e957918102915b93841c9390800290620003bb565b509250929050565b6000826200041057506001620001dd565b816200041f57506000620001dd565b8160018114620004385760028114620004435762000463565b6001915050620001dd565b60ff841115620004575762000457620003a0565b50506001821b620001dd565b5060208310610133831016604e8410600b841016171562000488575081810a620001dd565b620004948383620003b6565b8060001904821115620004ab57620004ab620003a0565b029392505050565b6000620004c460ff841683620003ff565b9392505050565b8082028115828204841417620001dd57620001dd620003a0565b600060208083528351808285015260005b818110156200051457858101830151858201604001528201620004f6565b506000604082860101526040601f19601f8301168501019250505092915050565b805160208083015191908110156200027b5760001960209190910360031b1b16919050565b60805160a05160c05160e05161010051610120516101405161016051612788620005c7600039600081816104d3015261084b01526000610b1a01526000610aef015260006115930152600061156b015260006114c6015260006114f00152600061151a01526127886000f3fe608060405234801561001057600080fd5b50600436106102065760003560e01c806370a082311161011a5780639dc29fac116100ad578063d452f1681161007c578063d452f168146104a8578063d505accf146104bb578063d5abeb01146104ce578063dd62ed3e146104f5578063f1127ed81461052e57600080fd5b80639dc29fac1461045c578063a457c2d71461046f578063a9059cbb14610482578063c3cda5201461049557600080fd5b80638e539e8c116100e95780638e539e8c1461040f57806391ddadf41461042257806395d89b41146104415780639ab24eb01461044957600080fd5b806370a08231146103a557806379cc6790146103ce5780637ecebe00146103e157806384b0196e146103f457600080fd5b8063395093511161019d5780634bf5d7e91161016c5780634bf5d7e91461030b578063587cde1e146103135780635c19a95c146103575780636fcfff451461036a578063704b6c021461039257600080fd5b806339509351146102bf5780633a46b1a8146102d257806340c10f19146102e557806342966c68146102f857600080fd5b806324d7806c116101d957806324d7806c146102715780632949582d14610293578063313ce567146102a85780633644e515146102b757600080fd5b806306fdde031461020b578063095ea7b31461022957806318160ddd1461024c57806323b872dd1461025e575b600080fd5b61021361056b565b60405161022091906123d9565b60405180910390f35b61023c610237366004612408565b6105fd565b6040519015158152602001610220565b6002545b604051908152602001610220565b61023c61026c366004612432565b610617565b61023c61027f36600461246e565b600c546001600160a01b0390811691161490565b6102a66102a1366004612489565b61063b565b005b60405160128152602001610220565b61025061072c565b61023c6102cd366004612408565b61073b565b6102506102e0366004612408565b61077a565b6102a66102f3366004612408565b610803565b6102a66103063660046124bc565b6108d6565b6102136108e3565b61033f61032136600461246e565b6001600160a01b039081166000908152600960205260409020541690565b6040516001600160a01b039091168152602001610220565b6102a661036536600461246e565b61097b565b61037d61037836600461246e565b610985565b60405163ffffffff9091168152602001610220565b6102a66103a036600461246e565b6109a7565b6102506103b336600461246e565b6001600160a01b031660009081526020819052604090205490565b6102a66103dc366004612408565b610aae565b6102506103ef36600461246e565b610ac3565b6103fc610ae1565b60405161022097969594939291906124d5565b61025061041d3660046124bc565b610b6a565b61042a610bd5565b60405165ffffffffffff9091168152602001610220565b610213610be0565b61025061045736600461246e565b610bef565b6102a661046a366004612408565b610c71565b61023c61047d366004612408565b610cb7565b61023c610490366004612408565b610d49565b6102a66104a336600461257c565b610d57565b6102a66104b63660046124bc565b610e8d565b6102a66104c93660046125d4565b610eeb565b6102507f000000000000000000000000000000000000000000000000000000000000000081565b610250610503366004612489565b6001600160a01b03918216600090815260016020908152604080832093909416825291909152205490565b61054161053c36600461263e565b61104f565b60408051825163ffffffff1681526020928301516001600160e01b03169281019290925201610220565b60606003805461057a9061267e565b80601f01602080910402602001604051908101604052809291908181526020018280546105a69061267e565b80156105f35780601f106105c8576101008083540402835291602001916105f3565b820191906000526020600020905b8154815290600101906020018083116105d657829003601f168201915b5050505050905090565b60003361060b8185856110d3565b60019150505b92915050565b6000336106258582856111f7565b610630858585611289565b506001949350505050565b600c546001600160a01b031633146106865760405162461bcd60e51b81526020600482015260096024820152682737ba1030b236b4b760b91b60448201526064015b60405180910390fd5b6001600160a01b0382166106dc5760405162461bcd60e51b815260206004820152601f60248201527f44656c656761746f722063616e2774206265207a65726f206164647265737300604482015260640161067d565b306001600160a01b0383160361071e5760405162461bcd60e51b8152602060048201526007602482015266125b1b1959d85b60ca1b604482015260640161067d565b6107288282611433565b5050565b60006107366114b9565b905090565b3360008181526001602090815260408083206001600160a01b038716845290915281205490919061060b90829086906107759087906126c8565b6110d3565b6000610784610bd5565b65ffffffffffff1682106107da5760405162461bcd60e51b815260206004820152601960248201527f4552433230566f7465733a20667574757265206c6f6f6b757000000000000000604482015260640161067d565b6001600160a01b0383166000908152600a602052604090206107fc90836115e4565b9392505050565b600c546001600160a01b031633146108495760405162461bcd60e51b81526020600482015260096024820152682737ba1030b236b4b760b91b604482015260640161067d565b7f00000000000000000000000000000000000000000000000000000000000000008161087460025490565b61087e91906126c8565b11156108cc5760405162461bcd60e51b815260206004820152601d60248201527f43616e206e6f74206d696e74206e657720724c494220666f72206e6f77000000604482015260640161067d565b61072882826116cd565b6108e03382611711565b50565b6060436108ee610bd5565b65ffffffffffff16146109435760405162461bcd60e51b815260206004820152601d60248201527f4552433230566f7465733a2062726f6b656e20636c6f636b206d6f6465000000604482015260640161067d565b5060408051808201909152601d81527f6d6f64653d626c6f636b6e756d6265722666726f6d3d64656661756c74000000602082015290565b6108e03382611433565b6001600160a01b0381166000908152600a602052604081205461061190611755565b600c546001600160a01b031633146109ed5760405162461bcd60e51b81526020600482015260096024820152682737ba1030b236b4b760b91b604482015260640161067d565b6001600160a01b038116610a355760405162461bcd60e51b815260206004820152600f60248201526e496e76616c6964206164647265737360881b604482015260640161067d565b306001600160a01b03821603610a7f5760405162461bcd60e51b815260206004820152600f60248201526e496e76616c6964206164647265737360881b604482015260640161067d565b600c805473ffffffffffffffffffffffffffffffffffffffff19166001600160a01b0392909216919091179055565b610ab98233836111f7565b6107288282611711565b6001600160a01b038116600090815260076020526040812054610611565b600060608082808083610b157f000000000000000000000000000000000000000000000000000000000000000060056117be565b610b407f000000000000000000000000000000000000000000000000000000000000000060066117be565b60408051600080825260208201909252600f60f81b9b939a50919850469750309650945092509050565b6000610b74610bd5565b65ffffffffffff168210610bca5760405162461bcd60e51b815260206004820152601960248201527f4552433230566f7465733a20667574757265206c6f6f6b757000000000000000604482015260640161067d565b610611600b836115e4565b600061073643611869565b60606004805461057a9061267e565b6001600160a01b0381166000908152600a60205260408120548015610c5e576001600160a01b0383166000908152600a6020526040902080546000198301908110610c3c57610c3c6126db565b60009182526020909120015464010000000090046001600160e01b0316610c61565b60005b6001600160e01b03169392505050565b600c546001600160a01b03163314610ab95760405162461bcd60e51b81526020600482015260096024820152682737ba1030b236b4b760b91b604482015260640161067d565b3360008181526001602090815260408083206001600160a01b038716845290915281205490919083811015610d3c5760405162461bcd60e51b815260206004820152602560248201527f45524332303a2064656372656173656420616c6c6f77616e63652062656c6f77604482015264207a65726f60d81b606482015260840161067d565b61063082868684036110d3565b60003361060b818585611289565b83421115610da75760405162461bcd60e51b815260206004820152601d60248201527f4552433230566f7465733a207369676e61747572652065787069726564000000604482015260640161067d565b604080517fe48329057bfd03d55e49b547132e39cffd9c1820ad7b9d4c5307691425d15adf60208201526001600160a01b038816918101919091526060810186905260808101859052600090610e2190610e199060a001604051602081830303815290604052805190602001206118d0565b8585856118fd565b9050610e2c81611925565b8614610e7a5760405162461bcd60e51b815260206004820152601960248201527f4552433230566f7465733a20696e76616c6964206e6f6e636500000000000000604482015260640161067d565b610e848188611433565b50505050505050565b600c546001600160a01b03163314610ed35760405162461bcd60e51b81526020600482015260096024820152682737ba1030b236b4b760b91b604482015260640161067d565b600c546108e09030906001600160a01b0316836110d3565b83421115610f3b5760405162461bcd60e51b815260206004820152601d60248201527f45524332305065726d69743a206578706972656420646561646c696e65000000604482015260640161067d565b60007f6e71edae12b1b97f4d1f60370fef10105fa2faae0126114a169c64845d6126c9888888610f6a8c611925565b6040805160208101969096526001600160a01b0394851690860152929091166060840152608083015260a082015260c0810186905260e0016040516020818303038152906040528051906020012090506000610fc5826118d0565b90506000610fd5828787876118fd565b9050896001600160a01b0316816001600160a01b0316146110385760405162461bcd60e51b815260206004820152601e60248201527f45524332305065726d69743a20696e76616c6964207369676e61747572650000604482015260640161067d565b6110438a8a8a6110d3565b50505050505050505050565b60408051808201909152600080825260208201526001600160a01b0383166000908152600a60205260409020805463ffffffff8416908110611093576110936126db565b60009182526020918290206040805180820190915291015463ffffffff8116825264010000000090046001600160e01b0316918101919091529392505050565b6001600160a01b0383166111355760405162461bcd60e51b8152602060048201526024808201527f45524332303a20617070726f76652066726f6d20746865207a65726f206164646044820152637265737360e01b606482015260840161067d565b6001600160a01b0382166111965760405162461bcd60e51b815260206004820152602260248201527f45524332303a20617070726f766520746f20746865207a65726f206164647265604482015261737360f01b606482015260840161067d565b6001600160a01b0383811660008181526001602090815260408083209487168084529482529182902085905590518481527f8c5be1e5ebec7d5bd14f71427d1e84f3dd0314c0f7b2291e5b200ac8c7c3b925910160405180910390a3505050565b6001600160a01b03838116600090815260016020908152604080832093861683529290522054600019811461128357818110156112765760405162461bcd60e51b815260206004820152601d60248201527f45524332303a20696e73756666696369656e7420616c6c6f77616e6365000000604482015260640161067d565b61128384848484036110d3565b50505050565b6001600160a01b0383166112ed5760405162461bcd60e51b815260206004820152602560248201527f45524332303a207472616e736665722066726f6d20746865207a65726f206164604482015264647265737360d81b606482015260840161067d565b6001600160a01b03821661134f5760405162461bcd60e51b815260206004820152602360248201527f45524332303a207472616e7366657220746f20746865207a65726f206164647260448201526265737360e81b606482015260840161067d565b6001600160a01b038316600090815260208190526040902054818110156113c75760405162461bcd60e51b815260206004820152602660248201527f45524332303a207472616e7366657220616d6f756e7420657863656564732062604482015265616c616e636560d01b606482015260840161067d565b6001600160a01b03848116600081815260208181526040808320878703905593871680835291849020805487019055925185815290927fddf252ad1be2c89b69c2b068fc378daa952ba7f163c4a11628f55a4df523b3ef910160405180910390a3611283848484611952565b6001600160a01b0382811660008181526009602081815260408084208054858452828620549490935287871673ffffffffffffffffffffffffffffffffffffffff198416811790915590519190951694919391928592917f3134e8a2e6d97e929a7e54011ea5485d7d196dd5f0ba4d4ef95803e8e3fc257f9190a461128382848361195d565b6000306001600160a01b037f00000000000000000000000000000000000000000000000000000000000000001614801561151257507f000000000000000000000000000000000000000000000000000000000000000046145b1561153c57507f000000000000000000000000000000000000000000000000000000000000000090565b610736604080517f8b73c3c69bb8fe3d512ecc4cf759cc79239f7b179b0ffacaa9a75d522b39400f60208201527f0000000000000000000000000000000000000000000000000000000000000000918101919091527f000000000000000000000000000000000000000000000000000000000000000060608201524660808201523060a082015260009060c00160405160208183030381529060405280519060200120905090565b81546000908181600581111561163e5760006115ff84611a9a565b61160990856126f1565b600088815260209020909150869082015463ffffffff16111561162e5780915061163c565b6116398160016126c8565b92505b505b8082101561168b5760006116528383611b82565b600088815260209020909150869082015463ffffffff16111561167757809150611685565b6116828160016126c8565b92505b5061163e565b80156116b7576000868152602090208101600019015464010000000090046001600160e01b03166116ba565b60005b6001600160e01b03169695505050505050565b6116d78282611b9d565b60405181906001600160a01b038416907f3f2c9d57c068687834f0de942a9babb9e5acab57d516d3480a3c16ee165a427390600090a35050565b61171b8282611c34565b60405181906001600160a01b038416907ffd38818f5291bf0bb3a2a48aadc06ba8757865d1dabd804585338aab3009dcb690600090a35050565b600063ffffffff8211156117ba5760405162461bcd60e51b815260206004820152602660248201527f53616665436173743a2076616c756520646f65736e27742066697420696e203360448201526532206269747360d01b606482015260840161067d565b5090565b606060ff83146117d8576117d183611c4c565b9050610611565b8180546117e49061267e565b80601f01602080910402602001604051908101604052809291908181526020018280546118109061267e565b801561185d5780601f106118325761010080835404028352916020019161185d565b820191906000526020600020905b81548152906001019060200180831161184057829003601f168201915b50505050509050610611565b600065ffffffffffff8211156117ba5760405162461bcd60e51b815260206004820152602660248201527f53616665436173743a2076616c756520646f65736e27742066697420696e203460448201526538206269747360d01b606482015260840161067d565b60006106116118dd6114b9565b8360405161190160f01b8152600281019290925260228201526042902090565b600080600061190e87878787611c8b565b9150915061191b81611d4f565b5095945050505050565b6001600160a01b03811660009081526007602052604090208054600181018255905b50919050565b505050565b61194d838383611e99565b816001600160a01b0316836001600160a01b03161415801561197f5750600081115b1561194d576001600160a01b03831615611a0d576001600160a01b0383166000908152600a6020526040812081906119ba90611ecb85611ed7565b91509150846001600160a01b03167fdec2bacdd2f05b59de34da9b523dff8be42e5e38e818c82fdb0bae774387a7248383604051611a02929190918252602082015260400190565b60405180910390a250505b6001600160a01b0382161561194d576001600160a01b0382166000908152600a602052604081208190611a439061204c85611ed7565b91509150836001600160a01b03167fdec2bacdd2f05b59de34da9b523dff8be42e5e38e818c82fdb0bae774387a7248383604051611a8b929190918252602082015260400190565b60405180910390a25050505050565b600081600003611aac57506000919050565b60006001611ab984612058565b901c6001901b90506001818481611ad257611ad2612704565b048201901c90506001818481611aea57611aea612704565b048201901c90506001818481611b0257611b02612704565b048201901c90506001818481611b1a57611b1a612704565b048201901c90506001818481611b3257611b32612704565b048201901c90506001818481611b4a57611b4a612704565b048201901c90506001818481611b6257611b62612704565b048201901c90506107fc81828581611b7c57611b7c612704565b046120ec565b6000611b91600284841861271a565b6107fc908484166126c8565b611ba78282612102565b6002546001600160e01b031015611c265760405162461bcd60e51b815260206004820152603060248201527f4552433230566f7465733a20746f74616c20737570706c79207269736b73206f60448201527f766572666c6f77696e6720766f74657300000000000000000000000000000000606482015260840161067d565b611283600b61204c83611ed7565b611c3e82826121c9565b611283600b611ecb83611ed7565b60606000611c5983612302565b604080516020808252818301909252919250600091906020820181803683375050509182525060208101929092525090565b6000807f7fffffffffffffffffffffffffffffff5d576e7357a4501ddfe92f46681b20a0831115611cc25750600090506003611d46565b6040805160008082526020820180845289905260ff881692820192909252606081018690526080810185905260019060a0016020604051602081039080840390855afa158015611d16573d6000803e3d6000fd5b5050604051601f1901519150506001600160a01b038116611d3f57600060019250925050611d46565b9150600090505b94509492505050565b6000816004811115611d6357611d6361273c565b03611d6b5750565b6001816004811115611d7f57611d7f61273c565b03611dcc5760405162461bcd60e51b815260206004820152601860248201527f45434453413a20696e76616c6964207369676e61747572650000000000000000604482015260640161067d565b6002816004811115611de057611de061273c565b03611e2d5760405162461bcd60e51b815260206004820152601f60248201527f45434453413a20696e76616c6964207369676e6174757265206c656e67746800604482015260640161067d565b6003816004811115611e4157611e4161273c565b036108e05760405162461bcd60e51b815260206004820152602260248201527f45434453413a20696e76616c6964207369676e6174757265202773272076616c604482015261756560f01b606482015260840161067d565b6001600160a01b0383811660009081526009602052604080822054858416835291205461194d9291821691168361195d565b60006107fc82846126f1565b82546000908190818115611f245760008781526020902082016000190160408051808201909152905463ffffffff8116825264010000000090046001600160e01b03166020820152611f39565b60408051808201909152600080825260208201525b905080602001516001600160e01b03169350611f5984868863ffffffff16565b9250600082118015611f835750611f6e610bd5565b65ffffffffffff16816000015163ffffffff16145b15611fc857611f918361232a565b60008881526020902083016000190180546001600160e01b03929092166401000000000263ffffffff909216919091179055612042565b866040518060400160405280611fec611fdf610bd5565b65ffffffffffff16611755565b63ffffffff1681526020016120008661232a565b6001600160e01b0390811690915282546001810184556000938452602093849020835194909301519091166401000000000263ffffffff909316929092179101555b5050935093915050565b60006107fc82846126c8565b600080608083901c1561206d57608092831c92015b604083901c1561207f57604092831c92015b602083901c1561209157602092831c92015b601083901c156120a357601092831c92015b600883901c156120b557600892831c92015b600483901c156120c757600492831c92015b600283901c156120d957600292831c92015b600183901c156106115760010192915050565b60008183106120fb57816107fc565b5090919050565b6001600160a01b0382166121585760405162461bcd60e51b815260206004820152601f60248201527f45524332303a206d696e7420746f20746865207a65726f206164647265737300604482015260640161067d565b806002600082825461216a91906126c8565b90915550506001600160a01b038216600081815260208181526040808320805486019055518481527fddf252ad1be2c89b69c2b068fc378daa952ba7f163c4a11628f55a4df523b3ef910160405180910390a361072860008383611952565b6001600160a01b0382166122295760405162461bcd60e51b815260206004820152602160248201527f45524332303a206275726e2066726f6d20746865207a65726f206164647265736044820152607360f81b606482015260840161067d565b6001600160a01b0382166000908152602081905260409020548181101561229d5760405162461bcd60e51b815260206004820152602260248201527f45524332303a206275726e20616d6f756e7420657863656564732062616c616e604482015261636560f01b606482015260840161067d565b6001600160a01b0383166000818152602081815260408083208686039055600280548790039055518581529192917fddf252ad1be2c89b69c2b068fc378daa952ba7f163c4a11628f55a4df523b3ef910160405180910390a361194d83600084611952565b600060ff8216601f81111561061157604051632cd44ac360e21b815260040160405180910390fd5b60006001600160e01b038211156117ba5760405162461bcd60e51b815260206004820152602760248201527f53616665436173743a2076616c756520646f65736e27742066697420696e20326044820152663234206269747360c81b606482015260840161067d565b6000815180845260005b818110156123b95760208185018101518683018201520161239d565b506000602082860101526020601f19601f83011685010191505092915050565b6020815260006107fc6020830184612393565b80356001600160a01b038116811461240357600080fd5b919050565b6000806040838503121561241b57600080fd5b612424836123ec565b946020939093013593505050565b60008060006060848603121561244757600080fd5b612450846123ec565b925061245e602085016123ec565b9150604084013590509250925092565b60006020828403121561248057600080fd5b6107fc826123ec565b6000806040838503121561249c57600080fd5b6124a5836123ec565b91506124b3602084016123ec565b90509250929050565b6000602082840312156124ce57600080fd5b5035919050565b60ff60f81b881681526000602060e0818401526124f560e084018a612393565b8381036040850152612507818a612393565b606085018990526001600160a01b038816608086015260a0850187905284810360c0860152855180825283870192509083019060005b818110156125595783518352928401929184019160010161253d565b50909c9b505050505050505050505050565b803560ff8116811461240357600080fd5b60008060008060008060c0878903121561259557600080fd5b61259e876123ec565b955060208701359450604087013593506125ba6060880161256b565b92506080870135915060a087013590509295509295509295565b600080600080600080600060e0888a0312156125ef57600080fd5b6125f8886123ec565b9650612606602089016123ec565b955060408801359450606088013593506126226080890161256b565b925060a0880135915060c0880135905092959891949750929550565b6000806040838503121561265157600080fd5b61265a836123ec565b9150602083013563ffffffff8116811461267357600080fd5b809150509250929050565b600181811c9082168061269257607f821691505b60208210810361194757634e487b7160e01b600052602260045260246000fd5b634e487b7160e01b600052601160045260246000fd5b80820180821115610611576106116126b2565b634e487b7160e01b600052603260045260246000fd5b81810381811115610611576106116126b2565b634e487b7160e01b600052601260045260246000fd5b60008261273757634e487b7160e01b600052601260045260246000fd5b500490565b634e487b7160e01b600052602160045260246000fdfea2646970667358221220e45bd8a8ea77ab91f11717d6cb1e8b0f87bd1d5d2ce8a01db90c51d2cb63550364736f6c63430008140033",
  "linkReferences": {},
  "deployedLinkReferences": {}
}