{
  "_format": "hh-sol-artifact-1",
  "contractName": "rLiblock",
  "sourceName": "contracts/rLIB.sol",
  "abi": [
    {
      "inputs": [],
      "stateMutability": "nonpayable",
      "type": "constructor"
    },
    {
      "inputs": [],
      "name": "InvalidShortString",
      "type": "error"
    },
    {
      "inputs": [
        {
          "internalType": "string",
          "name": "str",
          "type": "string"
        }
      ],
      "name": "StringTooLong",
      "type": "error"
    },
    {
      "anonymous": false,
      "inputs": [
        {
          "indexed": true,
          "internalType": "address",
          "name": "owner",
          "type": "address"
        },
        {
          "indexed": true,
          "internalType": "address",
          "name": "spender",
          "type": "address"
        },
        {
          "indexed": false,
          "internalType": "uint256",
          "name": "value",
          "type": "uint256"
        }
      ],
      "name": "Approval",
      "type": "event"
    },
    {
      "anonymous": false,
      "inputs": [
        {
          "indexed": true,
          "internalType": "address",
          "name": "delegator",
          "type": "address"
        },
        {
          "indexed": true,
          "internalType": "address",
          "name": "fromDelegate",
          "type": "address"
        },
        {
          "indexed": true,
          "internalType": "address",
          "name": "toDelegate",
          "type": "address"
        }
      ],
      "name": "DelegateChanged",
      "type": "event"
    },
    {
      "anonymous": false,
      "inputs": [
        {
          "indexed": true,
          "internalType": "address",
          "name": "delegate",
          "type": "address"
        },
        {
          "indexed": false,
          "internalType": "uint256",
          "name": "previousBalance",
          "type": "uint256"
        },
        {
          "indexed": false,
          "internalType": "uint256",
          "name": "newBalance",
          "type": "uint256"
        }
      ],
      "name": "DelegateVotesChanged",
      "type": "event"
    },
    {
      "anonymous": false,
      "inputs": [],
      "name": "EIP712DomainChanged",
      "type": "event"
    },
    {
      "anonymous": false,
      "inputs": [
        {
          "indexed": true,
          "internalType": "address",
          "name": "from",
          "type": "address"
        },
        {
          "indexed": false,
          "internalType": "uint256",
          "name": "amount",
          "type": "uint256"
        }
      ],
      "name": "TokensBurned",
      "type": "event"
    },
    {
      "anonymous": false,
      "inputs": [
        {
          "indexed": true,
          "internalType": "address",
          "name": "to",
          "type": "address"
        },
        {
          "indexed": false,
          "internalType": "uint256",
          "name": "amount",
          "type": "uint256"
        }
      ],
      "name": "TokensMinted",
      "type": "event"
    },
    {
      "anonymous": false,
      "inputs": [
        {
          "indexed": true,
          "internalType": "address",
          "name": "from",
          "type": "address"
        },
        {
          "indexed": true,
          "internalType": "address",
          "name": "to",
          "type": "address"
        },
        {
          "indexed": false,
          "internalType": "uint256",
          "name": "value",
          "type": "uint256"
        }
      ],
      "name": "Transfer",
      "type": "event"
    },
    {
      "inputs": [],
      "name": "CLOCK_MODE",
      "outputs": [
        {
          "internalType": "string",
          "name": "",
          "type": "string"
        }
      ],
      "stateMutability": "view",
      "type": "function"
    },
    {
      "inputs": [],
      "name": "DOMAIN_SEPARATOR",
      "outputs": [
        {
          "internalType": "bytes32",
          "name": "",
          "type": "bytes32"
        }
      ],
      "stateMutability": "view",
      "type": "function"
    },
    {
      "inputs": [
        {
          "internalType": "address",
          "name": "owner",
          "type": "address"
        },
        {
          "internalType": "address",
          "name": "spender",
          "type": "address"
        }
      ],
      "name": "allowance",
      "outputs": [
        {
          "internalType": "uint256",
          "name": "",
          "type": "uint256"
        }
      ],
      "stateMutability": "view",
      "type": "function"
    },
    {
      "inputs": [
        {
          "internalType": "address",
          "name": "spender",
          "type": "address"
        },
        {
          "internalType": "uint256",
          "name": "amount",
          "type": "uint256"
        }
      ],
      "name": "approve",
      "outputs": [
        {
          "internalType": "bool",
          "name": "",
          "type": "bool"
        }
      ],
      "stateMutability": "nonpayable",
      "type": "function"
    },
    {
      "inputs": [
        {
          "internalType": "address",
          "name": "account",
          "type": "address"
        }
      ],
      "name": "balanceOf",
      "outputs": [
        {
          "internalType": "uint256",
          "name": "",
          "type": "uint256"
        }
      ],
      "stateMutability": "view",
      "type": "function"
    },
    {
      "inputs": [
        {
          "internalType": "uint256",
          "name": "amount",
          "type": "uint256"
        }
      ],
      "name": "burn",
      "outputs": [],
      "stateMutability": "nonpayable",
      "type": "function"
    },
    {
      "inputs": [
        {
          "internalType": "address",
          "name": "account",
          "type": "address"
        },
        {
          "internalType": "uint256",
          "name": "amount",
          "type": "uint256"
        }
      ],
      "name": "burn",
      "outputs": [],
      "stateMutability": "nonpayable",
      "type": "function"
    },
    {
      "inputs": [
        {
          "internalType": "address",
          "name": "account",
          "type": "address"
        },
        {
          "internalType": "uint256",
          "name": "amount",
          "type": "uint256"
        }
      ],
      "name": "burnFrom",
      "outputs": [],
      "stateMutability": "nonpayable",
      "type": "function"
    },
    {
      "inputs": [
        {
          "internalType": "address",
          "name": "account",
          "type": "address"
        },
        {
          "internalType": "uint32",
          "name": "pos",
          "type": "uint32"
        }
      ],
      "name": "checkpoints",
      "outputs": [
        {
          "components": [
            {
              "internalType": "uint32",
              "name": "fromBlock",
              "type": "uint32"
            },
            {
              "internalType": "uint224",
              "name": "votes",
              "type": "uint224"
            }
          ],
          "internalType": "struct ERC20Votes.Checkpoint",
          "name": "",
          "type": "tuple"
        }
      ],
      "stateMutability": "view",
      "type": "function"
    },
    {
      "inputs": [],
      "name": "clock",
      "outputs": [
        {
          "internalType": "uint48",
          "name": "",
          "type": "uint48"
        }
      ],
      "stateMutability": "view",
      "type": "function"
    },
    {
      "inputs": [],
      "name": "decimals",
      "outputs": [
        {
          "internalType": "uint8",
          "name": "",
          "type": "uint8"
        }
      ],
      "stateMutability": "view",
      "type": "function"
    },
    {
      "inputs": [
        {
          "internalType": "address",
          "name": "spender",
          "type": "address"
        },
        {
          "internalType": "uint256",
          "name": "subtractedValue",
          "type": "uint256"
        }
      ],
      "name": "decreaseAllowance",
      "outputs": [
        {
          "internalType": "bool",
          "name": "",
          "type": "bool"
        }
      ],
      "stateMutability": "nonpayable",
      "type": "function"
    },
    {
      "inputs": [
        {
          "internalType": "address",
          "name": "delegatee",
          "type": "address"
        }
      ],
      "name": "delegate",
      "outputs": [],
      "stateMutability": "nonpayable",
      "type": "function"
    },
    {
      "inputs": [
        {
          "internalType": "address",
          "name": "delegatee",
          "type": "address"
        },
        {
          "internalType": "uint256",
          "name": "nonce",
          "type": "uint256"
        },
        {
          "internalType": "uint256",
          "name": "expiry",
          "type": "uint256"
        },
        {
          "internalType": "uint8",
          "name": "v",
          "type": "uint8"
        },
        {
          "internalType": "bytes32",
          "name": "r",
          "type": "bytes32"
        },
        {
          "internalType": "bytes32",
          "name": "s",
          "type": "bytes32"
        }
      ],
      "name": "delegateBySig",
      "outputs": [],
      "stateMutability": "nonpayable",
      "type": "function"
    },
    {
      "inputs": [
        {
          "internalType": "address",
          "name": "delegator",
          "type": "address"
        },
        {
          "internalType": "address",
          "name": "delegatee",
          "type": "address"
        }
      ],
      "name": "delegateFrom",
      "outputs": [],
      "stateMutability": "nonpayable",
      "type": "function"
    },
    {
      "inputs": [
        {
          "internalType": "address",
          "name": "account",
          "type": "address"
        }
      ],
      "name": "delegates",
      "outputs": [
        {
          "internalType": "address",
          "name": "",
          "type": "address"
        }
      ],
      "stateMutability": "view",
      "type": "function"
    },
    {
      "inputs": [],
      "name": "eip712Domain",
      "outputs": [
        {
          "internalType": "bytes1",
          "name": "fields",
          "type": "bytes1"
        },
        {
          "internalType": "string",
          "name": "name",
          "type": "string"
        },
        {
          "internalType": "string",
          "name": "version",
          "type": "string"
        },
        {
          "internalType": "uint256",
          "name": "chainId",
          "type": "uint256"
        },
        {
          "internalType": "address",
          "name": "verifyingContract",
          "type": "address"
        },
        {
          "internalType": "bytes32",
          "name": "salt",
          "type": "bytes32"
        },
        {
          "internalType": "uint256[]",
          "name": "extensions",
          "type": "uint256[]"
        }
      ],
      "stateMutability": "view",
      "type": "function"
    },
    {
      "inputs": [
        {
          "internalType": "uint256",
          "name": "timepoint",
          "type": "uint256"
        }
      ],
      "name": "getPastTotalSupply",
      "outputs": [
        {
          "internalType": "uint256",
          "name": "",
          "type": "uint256"
        }
      ],
      "stateMutability": "view",
      "type": "function"
    },
    {
      "inputs": [
        {
          "internalType": "address",
          "name": "account",
          "type": "address"
        },
        {
          "internalType": "uint256",
          "name": "timepoint",
          "type": "uint256"
        }
      ],
      "name": "getPastVotes",
      "outputs": [
        {
          "internalType": "uint256",
          "name": "",
          "type": "uint256"
        }
      ],
      "stateMutability": "view",
      "type": "function"
    },
    {
      "inputs": [
        {
          "internalType": "address",
          "name": "account",
          "type": "address"
        }
      ],
      "name": "getVotes",
      "outputs": [
        {
          "internalType": "uint256",
          "name": "",
          "type": "uint256"
        }
      ],
      "stateMutability": "view",
      "type": "function"
    },
    {
      "inputs": [
        {
          "internalType": "address",
          "name": "spender",
          "type": "address"
        },
        {
          "internalType": "uint256",
          "name": "addedValue",
          "type": "uint256"
        }
      ],
      "name": "increaseAllowance",
      "outputs": [
        {
          "internalType": "bool",
          "name": "",
          "type": "bool"
        }
      ],
      "stateMutability": "nonpayable",
      "type": "function"
    },
    {
      "inputs": [],
      "name": "maxSupply",
      "outputs": [
        {
          "internalType": "uint256",
          "name": "",
          "type": "uint256"
        }
      ],
      "stateMutability": "view",
      "type": "function"
    },
    {
      "inputs": [
        {
          "internalType": "address",
          "name": "to",
          "type": "address"
        },
        {
          "internalType": "uint256",
          "name": "amount",
          "type": "uint256"
        }
      ],
      "name": "mint",
      "outputs": [],
      "stateMutability": "nonpayable",
      "type": "function"
    },
    {
      "inputs": [],
      "name": "name",
      "outputs": [
        {
          "internalType": "string",
          "name": "",
          "type": "string"
        }
      ],
      "stateMutability": "view",
      "type": "function"
    },
    {
      "inputs": [
        {
          "internalType": "address",
          "name": "owner",
          "type": "address"
        }
      ],
      "name": "nonces",
      "outputs": [
        {
          "internalType": "uint256",
          "name": "",
          "type": "uint256"
        }
      ],
      "stateMutability": "view",
      "type": "function"
    },
    {
      "inputs": [
        {
          "internalType": "address",
          "name": "account",
          "type": "address"
        }
      ],
      "name": "numCheckpoints",
      "outputs": [
        {
          "internalType": "uint32",
          "name": "",
          "type": "uint32"
        }
      ],
      "stateMutability": "view",
      "type": "function"
    },
    {
      "inputs": [
        {
          "internalType": "address",
          "name": "owner",
          "type": "address"
        },
        {
          "internalType": "address",
          "name": "spender",
          "type": "address"
        },
        {
          "internalType": "uint256",
          "name": "value",
          "type": "uint256"
        },
        {
          "internalType": "uint256",
          "name": "deadline",
          "type": "uint256"
        },
        {
          "internalType": "uint8",
          "name": "v",
          "type": "uint8"
        },
        {
          "internalType": "bytes32",
          "name": "r",
          "type": "bytes32"
        },
        {
          "internalType": "bytes32",
          "name": "s",
          "type": "bytes32"
        }
      ],
      "name": "permit",
      "outputs": [],
      "stateMutability": "nonpayable",
      "type": "function"
    },
    {
      "inputs": [
        {
          "internalType": "uint256",
          "name": "amount",
          "type": "uint256"
        }
      ],
      "name": "selfApprove",
      "outputs": [],
      "stateMutability": "nonpayable",
      "type": "function"
    },
    {
      "inputs": [
        {
          "internalType": "address",
          "name": "account",
          "type": "address"
        }
      ],
      "name": "setAdmin",
      "outputs": [],
      "stateMutability": "nonpayable",
      "type": "function"
    },
    {
      "inputs": [],
      "name": "symbol",
      "outputs": [
        {
          "internalType": "string",
          "name": "",
          "type": "string"
        }
      ],
      "stateMutability": "view",
      "type": "function"
    },
    {
      "inputs": [],
      "name": "totalSupply",
      "outputs": [
        {
          "internalType": "uint256",
          "name": "",
          "type": "uint256"
        }
      ],
      "stateMutability": "view",
      "type": "function"
    },
    {
      "inputs": [
        {
          "internalType": "address",
          "name": "to",
          "type": "address"
        },
        {
          "internalType": "uint256",
          "name": "amount",
          "type": "uint256"
        }
      ],
      "name": "transfer",
      "outputs": [
        {
          "internalType": "bool",
          "name": "",
          "type": "bool"
        }
      ],
      "stateMutability": "nonpayable",
      "type": "function"
    },
    {
      "inputs": [
        {
          "internalType": "address",
          "name": "from",
          "type": "address"
        },
        {
          "internalType": "address",
          "name": "to",
          "type": "address"
        },
        {
          "internalType": "uint256",
          "name": "amount",
          "type": "uint256"
        }
      ],
      "name": "transferFrom",
      "outputs": [
        {
          "internalType": "bool",
          "name": "",
          "type": "bool"
        }
      ],
      "stateMutability": "nonpayable",
      "type": "function"
    }
  ],
  "bytecode": "0x6101606040523480156200001257600080fd5b5060405180604001604052806008815260200167724c69626c6f636b60c01b81525080604051806040016040528060018152602001603160f81b81525060405180604001604052806008815260200167724c69626c6f636b60c01b81525060405180604001604052806004815260200163392624a160e11b81525081600390816200009e9190620002d3565b506004620000ad8282620002d3565b50620000bf91508390506005620001a9565b61012052620000d0816006620001a9565b61014052815160208084019190912060e052815190820120610100524660a0526200015e60e05161010051604080517f8b73c3c69bb8fe3d512ecc4cf759cc79239f7b179b0ffacaa9a75d522b39400f60208201529081019290925260608201524660808201523060a082015260009060c00160405160208183030381529060405280519060200120905090565b60805250503060c05250600c80546001600160a01b0319163317905562000183601290565b6200019090600a620004b2565b620001a0906308f0d180620004ca565b600d5562000559565b6000602083511015620001c957620001c183620001e2565b9050620001dc565b81620001d68482620002d3565b5060ff90505b92915050565b600080829050601f8151111562000219578260405163305a27a960e01b8152600401620002109190620004e4565b60405180910390fd5b8051620002268262000534565b179392505050565b634e487b7160e01b600052604160045260246000fd5b600181811c908216806200025957607f821691505b6020821081036200027a57634e487b7160e01b600052602260045260246000fd5b50919050565b601f821115620002ce57600081815260208120601f850160051c81016020861015620002a95750805b601f850160051c820191505b81811015620002ca57828155600101620002b5565b5050505b505050565b81516001600160401b03811115620002ef57620002ef6200022e565b620003078162000300845462000244565b8462000280565b602080601f8311600181146200033f5760008415620003265750858301515b600019600386901b1c1916600185901b178555620002ca565b600085815260208120601f198616915b8281101562000370578886015182559484019460019091019084016200034f565b50858210156200038f5787850151600019600388901b60f8161c191681555b5050505050600190811b01905550565b634e487b7160e01b600052601160045260246000fd5b600181815b80851115620003f6578160001904821115620003da57620003da6200039f565b80851615620003e857918102915b93841c9390800290620003ba565b509250929050565b6000826200040f57506001620001dc565b816200041e57506000620001dc565b8160018114620004375760028114620004425762000462565b6001915050620001dc565b60ff8411156200045657620004566200039f565b50506001821b620001dc565b5060208310610133831016604e8410600b841016171562000487575081810a620001dc565b620004938383620003b5565b8060001904821115620004aa57620004aa6200039f565b029392505050565b6000620004c360ff841683620003fe565b9392505050565b8082028115828204841417620001dc57620001dc6200039f565b600060208083528351808285015260005b818110156200051357858101830151858201604001528201620004f5565b506000604082860101526040601f19601f8301168501019250505092915050565b805160208083015191908110156200027a5760001960209190910360031b1b16919050565b60805160a05160c05160e051610100516101205161014051612906620005b46000396000610af301526000610ac80152600061161d015260006115f5015260006115500152600061157a015260006115a401526129066000f3fe608060405234801561001057600080fd5b506004361061020b5760003560e01c806370a082311161012a5780639dc29fac116100bd578063d452f1681161008c578063d5abeb0111610071578063d5abeb01146104b1578063dd62ed3e146104ba578063f1127ed8146104f357600080fd5b8063d452f1681461048b578063d505accf1461049e57600080fd5b80639dc29fac1461043f578063a457c2d714610452578063a9059cbb14610465578063c3cda5201461047857600080fd5b80638e539e8c116100f95780638e539e8c146103f257806391ddadf41461040557806395d89b41146104245780639ab24eb01461042c57600080fd5b806370a082311461038857806379cc6790146103b15780637ecebe00146103c457806384b0196e146103d757600080fd5b80633a46b1a8116101a2578063587cde1e11610171578063587cde1e146102f65780635c19a95c1461033a5780636fcfff451461034d578063704b6c021461037557600080fd5b80633a46b1a8146102b557806340c10f19146102c857806342966c68146102db5780634bf5d7e9146102ee57600080fd5b80632949582d116101de5780632949582d14610276578063313ce5671461028b5780633644e5151461029a57806339509351146102a257600080fd5b806306fdde0314610210578063095ea7b31461022e57806318160ddd1461025157806323b872dd14610263575b600080fd5b610218610530565b604051610225919061253b565b60405180910390f35b61024161023c36600461256a565b6105c2565b6040519015158152602001610225565b6002545b604051908152602001610225565b610241610271366004612594565b6105dc565b6102896102843660046125d0565b610600565b005b60405160128152602001610225565b610255610707565b6102416102b036600461256a565b610716565b6102556102c336600461256a565b610755565b6102896102d636600461256a565b6107de565b6102896102e9366004612603565b610893565b6102186108a0565b61032261030436600461261c565b6001600160a01b039081166000908152600960205260409020541690565b6040516001600160a01b039091168152602001610225565b61028961034836600461261c565b610938565b61036061035b36600461261c565b610942565b60405163ffffffff9091168152602001610225565b61028961038336600461261c565b610964565b61025561039636600461261c565b6001600160a01b031660009081526020819052604090205490565b6102896103bf36600461256a565b610a87565b6102556103d236600461261c565b610a9c565b6103df610aba565b6040516102259796959493929190612637565b610255610400366004612603565b610b5f565b61040d610bca565b60405165ffffffffffff9091168152602001610225565b610218610bd5565b61025561043a36600461261c565b610be4565b61028961044d36600461256a565b610c66565b61024161046036600461256a565b610cac565b61024161047336600461256a565b610d56565b6102896104863660046126fa565b610d64565b610289610499366004612603565b610e9a565b6102896104ac366004612752565b610ef8565b610255600d5481565b6102556104c83660046125d0565b6001600160a01b03918216600090815260016020908152604080832093909416825291909152205490565b6105066105013660046127bc565b61105c565b60408051825163ffffffff1681526020928301516001600160e01b03169281019290925201610225565b60606003805461053f906127fc565b80601f016020809104026020016040519081016040528092919081815260200182805461056b906127fc565b80156105b85780601f1061058d576101008083540402835291602001916105b8565b820191906000526020600020905b81548152906001019060200180831161059b57829003601f168201915b5050505050905090565b6000336105d08185856110e0565b60019150505b92915050565b6000336105ea858285611238565b6105f58585856112ca565b506001949350505050565b600c546001600160a01b0316331461064b5760405162461bcd60e51b81526020600482015260096024820152682737ba1030b236b4b760b91b60448201526064015b60405180910390fd5b6001600160a01b0382166106a15760405162461bcd60e51b815260206004820152601f60248201527f44656c656761746f722063616e2774206265207a65726f2061646472657373006044820152606401610642565b306001600160a01b038316036106f95760405162461bcd60e51b815260206004820152600760248201527f496c6c6567616c000000000000000000000000000000000000000000000000006044820152606401610642565b61070382826114bd565b5050565b6000610711611543565b905090565b3360008181526001602090815260408083206001600160a01b03871684529091528120549091906105d09082908690610750908790612846565b6110e0565b600061075f610bca565b65ffffffffffff1682106107b55760405162461bcd60e51b815260206004820152601960248201527f4552433230566f7465733a20667574757265206c6f6f6b7570000000000000006044820152606401610642565b6001600160a01b0383166000908152600a602052604090206107d7908361166e565b9392505050565b600c546001600160a01b031633146108245760405162461bcd60e51b81526020600482015260096024820152682737ba1030b236b4b760b91b6044820152606401610642565b600d548161083160025490565b61083b9190612846565b11156108895760405162461bcd60e51b815260206004820152601d60248201527f43616e206e6f74206d696e74206e657720724c494220666f72206e6f770000006044820152606401610642565b6107038282611757565b61089d33826117a8565b50565b6060436108ab610bca565b65ffffffffffff16146109005760405162461bcd60e51b815260206004820152601d60248201527f4552433230566f7465733a2062726f6b656e20636c6f636b206d6f64650000006044820152606401610642565b5060408051808201909152601d81527f6d6f64653d626c6f636b6e756d6265722666726f6d3d64656661756c74000000602082015290565b61089d33826114bd565b6001600160a01b0381166000908152600a60205260408120546105d6906117ed565b600c546001600160a01b031633146109aa5760405162461bcd60e51b81526020600482015260096024820152682737ba1030b236b4b760b91b6044820152606401610642565b6001600160a01b038116610a005760405162461bcd60e51b815260206004820152600f60248201527f496e76616c6964206164647265737300000000000000000000000000000000006044820152606401610642565b306001600160a01b03821603610a585760405162461bcd60e51b815260206004820152600f60248201527f496e76616c6964206164647265737300000000000000000000000000000000006044820152606401610642565b600c805473ffffffffffffffffffffffffffffffffffffffff19166001600160a01b0392909216919091179055565b610a92823383611238565b61070382826117a8565b6001600160a01b0381166000908152600760205260408120546105d6565b600060608082808083610aee7f0000000000000000000000000000000000000000000000000000000000000000600561186d565b610b197f0000000000000000000000000000000000000000000000000000000000000000600661186d565b604080516000808252602082019092527f0f000000000000000000000000000000000000000000000000000000000000009b939a50919850469750309650945092509050565b6000610b69610bca565b65ffffffffffff168210610bbf5760405162461bcd60e51b815260206004820152601960248201527f4552433230566f7465733a20667574757265206c6f6f6b7570000000000000006044820152606401610642565b6105d6600b8361166e565b600061071143611918565b60606004805461053f906127fc565b6001600160a01b0381166000908152600a60205260408120548015610c53576001600160a01b0383166000908152600a6020526040902080546000198301908110610c3157610c31612859565b60009182526020909120015464010000000090046001600160e01b0316610c56565b60005b6001600160e01b03169392505050565b600c546001600160a01b03163314610a925760405162461bcd60e51b81526020600482015260096024820152682737ba1030b236b4b760b91b6044820152606401610642565b3360008181526001602090815260408083206001600160a01b038716845290915281205490919083811015610d495760405162461bcd60e51b815260206004820152602560248201527f45524332303a2064656372656173656420616c6c6f77616e63652062656c6f7760448201527f207a65726f0000000000000000000000000000000000000000000000000000006064820152608401610642565b6105f582868684036110e0565b6000336105d08185856112ca565b83421115610db45760405162461bcd60e51b815260206004820152601d60248201527f4552433230566f7465733a207369676e617475726520657870697265640000006044820152606401610642565b604080517fe48329057bfd03d55e49b547132e39cffd9c1820ad7b9d4c5307691425d15adf60208201526001600160a01b038816918101919091526060810186905260808101859052600090610e2e90610e269060a00160405160208183030381529060405280519060200120611996565b8585856119de565b9050610e3981611a06565b8614610e875760405162461bcd60e51b815260206004820152601960248201527f4552433230566f7465733a20696e76616c6964206e6f6e6365000000000000006044820152606401610642565b610e9181886114bd565b50505050505050565b600c546001600160a01b03163314610ee05760405162461bcd60e51b81526020600482015260096024820152682737ba1030b236b4b760b91b6044820152606401610642565b600c5461089d9030906001600160a01b0316836110e0565b83421115610f485760405162461bcd60e51b815260206004820152601d60248201527f45524332305065726d69743a206578706972656420646561646c696e650000006044820152606401610642565b60007f6e71edae12b1b97f4d1f60370fef10105fa2faae0126114a169c64845d6126c9888888610f778c611a06565b6040805160208101969096526001600160a01b0394851690860152929091166060840152608083015260a082015260c0810186905260e0016040516020818303038152906040528051906020012090506000610fd282611996565b90506000610fe2828787876119de565b9050896001600160a01b0316816001600160a01b0316146110455760405162461bcd60e51b815260206004820152601e60248201527f45524332305065726d69743a20696e76616c6964207369676e617475726500006044820152606401610642565b6110508a8a8a6110e0565b50505050505050505050565b60408051808201909152600080825260208201526001600160a01b0383166000908152600a60205260409020805463ffffffff84169081106110a0576110a0612859565b60009182526020918290206040805180820190915291015463ffffffff8116825264010000000090046001600160e01b0316918101919091529392505050565b6001600160a01b03831661115b5760405162461bcd60e51b8152602060048201526024808201527f45524332303a20617070726f76652066726f6d20746865207a65726f2061646460448201527f72657373000000000000000000000000000000000000000000000000000000006064820152608401610642565b6001600160a01b0382166111d75760405162461bcd60e51b815260206004820152602260248201527f45524332303a20617070726f766520746f20746865207a65726f20616464726560448201527f73730000000000000000000000000000000000000000000000000000000000006064820152608401610642565b6001600160a01b0383811660008181526001602090815260408083209487168084529482529182902085905590518481527f8c5be1e5ebec7d5bd14f71427d1e84f3dd0314c0f7b2291e5b200ac8c7c3b925910160405180910390a3505050565b6001600160a01b0383811660009081526001602090815260408083209386168352929052205460001981146112c457818110156112b75760405162461bcd60e51b815260206004820152601d60248201527f45524332303a20696e73756666696369656e7420616c6c6f77616e63650000006044820152606401610642565b6112c484848484036110e0565b50505050565b6001600160a01b0383166113465760405162461bcd60e51b815260206004820152602560248201527f45524332303a207472616e736665722066726f6d20746865207a65726f20616460448201527f64726573730000000000000000000000000000000000000000000000000000006064820152608401610642565b6001600160a01b0382166113c25760405162461bcd60e51b815260206004820152602360248201527f45524332303a207472616e7366657220746f20746865207a65726f206164647260448201527f65737300000000000000000000000000000000000000000000000000000000006064820152608401610642565b6001600160a01b038316600090815260208190526040902054818110156114515760405162461bcd60e51b815260206004820152602660248201527f45524332303a207472616e7366657220616d6f756e742065786365656473206260448201527f616c616e636500000000000000000000000000000000000000000000000000006064820152608401610642565b6001600160a01b03848116600081815260208181526040808320878703905593871680835291849020805487019055925185815290927fddf252ad1be2c89b69c2b068fc378daa952ba7f163c4a11628f55a4df523b3ef910160405180910390a36112c4848484611a33565b6001600160a01b0382811660008181526009602081815260408084208054858452828620549490935287871673ffffffffffffffffffffffffffffffffffffffff198416811790915590519190951694919391928592917f3134e8a2e6d97e929a7e54011ea5485d7d196dd5f0ba4d4ef95803e8e3fc257f9190a46112c4828483611a3e565b6000306001600160a01b037f00000000000000000000000000000000000000000000000000000000000000001614801561159c57507f000000000000000000000000000000000000000000000000000000000000000046145b156115c657507f000000000000000000000000000000000000000000000000000000000000000090565b610711604080517f8b73c3c69bb8fe3d512ecc4cf759cc79239f7b179b0ffacaa9a75d522b39400f60208201527f0000000000000000000000000000000000000000000000000000000000000000918101919091527f000000000000000000000000000000000000000000000000000000000000000060608201524660808201523060a082015260009060c00160405160208183030381529060405280519060200120905090565b8154600090818160058111156116c857600061168984611b7b565b611693908561286f565b600088815260209020909150869082015463ffffffff1611156116b8578091506116c6565b6116c3816001612846565b92505b505b808210156117155760006116dc8383611c63565b600088815260209020909150869082015463ffffffff1611156117015780915061170f565b61170c816001612846565b92505b506116c8565b8015611741576000868152602090208101600019015464010000000090046001600160e01b0316611744565b60005b6001600160e01b03169695505050505050565b6117618282611c7e565b816001600160a01b03167f3f2c9d57c068687834f0de942a9babb9e5acab57d516d3480a3c16ee165a42738260405161179c91815260200190565b60405180910390a25050565b6117b28282611d15565b816001600160a01b03167ffd38818f5291bf0bb3a2a48aadc06ba8757865d1dabd804585338aab3009dcb68260405161179c91815260200190565b600063ffffffff8211156118695760405162461bcd60e51b815260206004820152602660248201527f53616665436173743a2076616c756520646f65736e27742066697420696e203360448201527f32206269747300000000000000000000000000000000000000000000000000006064820152608401610642565b5090565b606060ff83146118875761188083611d2d565b90506105d6565b818054611893906127fc565b80601f01602080910402602001604051908101604052809291908181526020018280546118bf906127fc565b801561190c5780601f106118e15761010080835404028352916020019161190c565b820191906000526020600020905b8154815290600101906020018083116118ef57829003601f168201915b505050505090506105d6565b600065ffffffffffff8211156118695760405162461bcd60e51b815260206004820152602660248201527f53616665436173743a2076616c756520646f65736e27742066697420696e203460448201527f38206269747300000000000000000000000000000000000000000000000000006064820152608401610642565b60006105d66119a3611543565b836040517f19010000000000000000000000000000000000000000000000000000000000008152600281019290925260228201526042902090565b60008060006119ef87878787611d6c565b915091506119fc81611e30565b5095945050505050565b6001600160a01b03811660009081526007602052604090208054600181018255905b50919050565b505050565b611a2e838383611f95565b816001600160a01b0316836001600160a01b031614158015611a605750600081115b15611a2e576001600160a01b03831615611aee576001600160a01b0383166000908152600a602052604081208190611a9b90611fc785611fd3565b91509150846001600160a01b03167fdec2bacdd2f05b59de34da9b523dff8be42e5e38e818c82fdb0bae774387a7248383604051611ae3929190918252602082015260400190565b60405180910390a250505b6001600160a01b03821615611a2e576001600160a01b0382166000908152600a602052604081208190611b249061214885611fd3565b91509150836001600160a01b03167fdec2bacdd2f05b59de34da9b523dff8be42e5e38e818c82fdb0bae774387a7248383604051611b6c929190918252602082015260400190565b60405180910390a25050505050565b600081600003611b8d57506000919050565b60006001611b9a84612154565b901c6001901b90506001818481611bb357611bb3612882565b048201901c90506001818481611bcb57611bcb612882565b048201901c90506001818481611be357611be3612882565b048201901c90506001818481611bfb57611bfb612882565b048201901c90506001818481611c1357611c13612882565b048201901c90506001818481611c2b57611c2b612882565b048201901c90506001818481611c4357611c43612882565b048201901c90506107d781828581611c5d57611c5d612882565b046121e8565b6000611c726002848418612898565b6107d790848416612846565b611c8882826121fe565b6002546001600160e01b031015611d075760405162461bcd60e51b815260206004820152603060248201527f4552433230566f7465733a20746f74616c20737570706c79207269736b73206f60448201527f766572666c6f77696e6720766f746573000000000000000000000000000000006064820152608401610642565b6112c4600b61214883611fd3565b611d1f82826122c5565b6112c4600b611fc783611fd3565b60606000611d3a83612435565b604080516020808252818301909252919250600091906020820181803683375050509182525060208101929092525090565b6000807f7fffffffffffffffffffffffffffffff5d576e7357a4501ddfe92f46681b20a0831115611da35750600090506003611e27565b6040805160008082526020820180845289905260ff881692820192909252606081018690526080810185905260019060a0016020604051602081039080840390855afa158015611df7573d6000803e3d6000fd5b5050604051601f1901519150506001600160a01b038116611e2057600060019250925050611e27565b9150600090505b94509492505050565b6000816004811115611e4457611e446128ba565b03611e4c5750565b6001816004811115611e6057611e606128ba565b03611ead5760405162461bcd60e51b815260206004820152601860248201527f45434453413a20696e76616c6964207369676e617475726500000000000000006044820152606401610642565b6002816004811115611ec157611ec16128ba565b03611f0e5760405162461bcd60e51b815260206004820152601f60248201527f45434453413a20696e76616c6964207369676e6174757265206c656e677468006044820152606401610642565b6003816004811115611f2257611f226128ba565b0361089d5760405162461bcd60e51b815260206004820152602260248201527f45434453413a20696e76616c6964207369676e6174757265202773272076616c60448201527f75650000000000000000000000000000000000000000000000000000000000006064820152608401610642565b6001600160a01b03838116600090815260096020526040808220548584168352912054611a2e92918216911683611a3e565b60006107d7828461286f565b825460009081908181156120205760008781526020902082016000190160408051808201909152905463ffffffff8116825264010000000090046001600160e01b03166020820152612035565b60408051808201909152600080825260208201525b905080602001516001600160e01b0316935061205584868863ffffffff16565b925060008211801561207f575061206a610bca565b65ffffffffffff16816000015163ffffffff16145b156120c45761208d83612476565b60008881526020902083016000190180546001600160e01b03929092166401000000000263ffffffff90921691909117905561213e565b8660405180604001604052806120e86120db610bca565b65ffffffffffff166117ed565b63ffffffff1681526020016120fc86612476565b6001600160e01b0390811690915282546001810184556000938452602093849020835194909301519091166401000000000263ffffffff909316929092179101555b5050935093915050565b60006107d78284612846565b600080608083901c1561216957608092831c92015b604083901c1561217b57604092831c92015b602083901c1561218d57602092831c92015b601083901c1561219f57601092831c92015b600883901c156121b157600892831c92015b600483901c156121c357600492831c92015b600283901c156121d557600292831c92015b600183901c156105d65760010192915050565b60008183106121f757816107d7565b5090919050565b6001600160a01b0382166122545760405162461bcd60e51b815260206004820152601f60248201527f45524332303a206d696e7420746f20746865207a65726f2061646472657373006044820152606401610642565b80600260008282546122669190612846565b90915550506001600160a01b038216600081815260208181526040808320805486019055518481527fddf252ad1be2c89b69c2b068fc378daa952ba7f163c4a11628f55a4df523b3ef910160405180910390a361070360008383611a33565b6001600160a01b0382166123415760405162461bcd60e51b815260206004820152602160248201527f45524332303a206275726e2066726f6d20746865207a65726f2061646472657360448201527f73000000000000000000000000000000000000000000000000000000000000006064820152608401610642565b6001600160a01b038216600090815260208190526040902054818110156123d05760405162461bcd60e51b815260206004820152602260248201527f45524332303a206275726e20616d6f756e7420657863656564732062616c616e60448201527f63650000000000000000000000000000000000000000000000000000000000006064820152608401610642565b6001600160a01b0383166000818152602081815260408083208686039055600280548790039055518581529192917fddf252ad1be2c89b69c2b068fc378daa952ba7f163c4a11628f55a4df523b3ef910160405180910390a3611a2e83600084611a33565b600060ff8216601f8111156105d6576040517fb3512b0c00000000000000000000000000000000000000000000000000000000815260040160405180910390fd5b60006001600160e01b038211156118695760405162461bcd60e51b815260206004820152602760248201527f53616665436173743a2076616c756520646f65736e27742066697420696e203260448201527f32342062697473000000000000000000000000000000000000000000000000006064820152608401610642565b6000815180845260005b8181101561251b576020818501810151868301820152016124ff565b506000602082860101526020601f19601f83011685010191505092915050565b6020815260006107d760208301846124f5565b80356001600160a01b038116811461256557600080fd5b919050565b6000806040838503121561257d57600080fd5b6125868361254e565b946020939093013593505050565b6000806000606084860312156125a957600080fd5b6125b28461254e565b92506125c06020850161254e565b9150604084013590509250925092565b600080604083850312156125e357600080fd5b6125ec8361254e565b91506125fa6020840161254e565b90509250929050565b60006020828403121561261557600080fd5b5035919050565b60006020828403121561262e57600080fd5b6107d78261254e565b7fff00000000000000000000000000000000000000000000000000000000000000881681526000602060e08184015261267360e084018a6124f5565b8381036040850152612685818a6124f5565b606085018990526001600160a01b038816608086015260a0850187905284810360c0860152855180825283870192509083019060005b818110156126d7578351835292840192918401916001016126bb565b50909c9b505050505050505050505050565b803560ff8116811461256557600080fd5b60008060008060008060c0878903121561271357600080fd5b61271c8761254e565b95506020870135945060408701359350612738606088016126e9565b92506080870135915060a087013590509295509295509295565b600080600080600080600060e0888a03121561276d57600080fd5b6127768861254e565b96506127846020890161254e565b955060408801359450606088013593506127a0608089016126e9565b925060a0880135915060c0880135905092959891949750929550565b600080604083850312156127cf57600080fd5b6127d88361254e565b9150602083013563ffffffff811681146127f157600080fd5b809150509250929050565b600181811c9082168061281057607f821691505b602082108103611a2857634e487b7160e01b600052602260045260246000fd5b634e487b7160e01b600052601160045260246000fd5b808201808211156105d6576105d6612830565b634e487b7160e01b600052603260045260246000fd5b818103818111156105d6576105d6612830565b634e487b7160e01b600052601260045260246000fd5b6000826128b557634e487b7160e01b600052601260045260246000fd5b500490565b634e487b7160e01b600052602160045260246000fdfea2646970667358221220c1f6b1cb387a363b23f49855692ed83b2c8de9d1f94861dbc28838be123910a564736f6c63430008130033",
  "linkReferences": {},
  "deployedLinkReferences": {}
}